:100000000C941E160C9446160C9446160C94461628
:100010000C9446160C9446160C9446160C944616F0
:100020000C9446160C9446160C94DD210C944F2229
:100030000C9446160C9446160C9446160C944616D0
:100040000C9446160C9446160C9446160C944616C0
:100050000C9446160C9446160C9446160C94EF25F8
:100060000C9446160C9446160C9446160C944616A0
:100070000C9446160C9446160C9446160C94461690
:100080000C94AB1B0C9446160C9446160C94461616
:100090000C9446160C9446160C9446160C94461670
:1000A0000C9446160C9446160C944616621A621A64
:1000B000621A621A601A601A601A5E1A5E1A5E1A72
:1000C0005E1A5E1A5E1A5C1A5C1A5C1A5A1A5A1A7E
:1000D0005A1A5A1A5A1A5A1A5C1A5C1A5C1A5E1A76
:1000E0005E1A5E1A601A601A601A621A621A621A3E
:1000F0000000000000000000000000000000000000
:10010000000000000080000000000000000000006F
:1001100000000000000000000000000000000000DF
:1001200000000000000000000000000000000000CF
:1001300000000000000000000000000000000000BF
:1001400000000000000000000000000000000000AF
:1001500000000000000000000000FFFFFEFEFEFCAB
:10016000F8F8F8F0F0F0F8F0F8FCF8FCFEFEFFFF0D
:10017000FFFEFCFCF8FCF8FCFEFCFEFEFCFCFCFEBA
:10018000FEFEFEFCFEFCFEFCF8FCF8F0F8F0F0F0E1
:10019000F0F0E0E0E0C0E0F0FCFEFFFEFEFCFEFC64
:1001A000FEFCFEFCF8F0F8FCFEFCFCFCF8F8F8F8AD
:1001B000FCF8F8FCF8FCF8F8F0F0F0F8F8F8FCFEC1
:1001C000FEFEFFFF6A1000000000000000000000BB
:1001D000000000000000000000000000000000001F
:1001E000000000000000000000000000000000000F
:1001F00000000000000000000000000000000000FF
:1002000000000000000000000000000000000000EE
:1002100000000000000000000000000000000000DE
:1002200000000000000000000000000000000000CE
:10023000FEFEFCFCFCF8F0F0F0E0E0E0F0E0F0E8BE
:10024000D0E8D4F8FEFFFEFCF8E8F0E8F0E8D4E8E7
:10025000D4ECF8F8F8FCFCFCFCF854A854A8D0A89E
:10026000D0E0F0E0E0E0E0E0C0C0C08040A0F0FC02
:10027000FEFCF4E854A854A854A8D0E0F0F8FCD848
:10028000B8D8B0F0F0F0F8E0D0E8D0A8E0F0E0E0C6
:10029000E0F0F0F0F8FCFCFCFEFEFFFFFFFF0303C4
:1002A0000303040AB24DB24D01020102748B748B38
:1002B0000300030080C0C0E0E0E0E0E0F0F0F0FF09
:1002C000FFFFFFFFFFFFFFFFFFFF001FFFFFFFFF1D
:1002D000FFFFFFFFFF38FFFFFFFFFFFFFFFFFFFFF5
:1002E00080C3FFFFFFFFFFFFFFFFFFFFFFFFFFFFD9
:1002F000FFFFFFFFFFFF01010101010101010101FA
:10030000010B38008080C0C0C0C0C0C0E0E000FE6B
:10031000FEFCFA54A00000010100001FFFFFFDAA2F
:1003200050A000000038FFFFFFFFFFFDAA55AA0004
:1003300080C37FFF7F3F7F3F7DEAF8D38244200167
:100340000A048001200101010100010000000101F7
:10035000F0F0F0E0E0E0E0E0C0C080FFFFFFFFFF72
:10036000FFFFFFFFFFFFFFFFFFFFFFFFFFFFFF1F7D
:1003700000FFFFFFFFFFFFFFFFFFFF38FFFFFFFF53
:10038000FFFFFFFFFFC380FFFFFFFFFFFFFFFFFF38
:10039000FFFFFFFFFFFFFFFFFFFFFFFFFF0B38E047
:1003A000E0C0C0C0C0C0C080800001010000A054F7
:1003B000FAFCFEFE000000A050AAFDFFFF1F000097
:1003C000AA55AAFDFFFFFFFFFF3800EA7D3F7F3FF0
:1003D0007FFF7FC38000200180040A01204482D374
:1003E000F801010000000100010101018010A05589
:1003F000A055A055A055A055A055A055A055A05555
:10040000A055A357A757AF5FBF7FBF7FBF7FBF5F19
:10041000AF57AF5FAF5FAF57A357A355A055A055D8
:10042000A0D5E0D5E0F5F8FDF8FDF8F5E0D5E0F56C
:10043000F0FDF8FDFCFDF8F5E0F5E0D5A055A3577B
:10044000A75FBF7FBF7FBF5FBF7FFF7FFF7FBF5FB4
:10045000AF5FBF5FA757A355A055A055A055A055A6
:10046000A055A055A055A055A055A055A055FFD505
:10047000FF75FFD5FF75FFD5FF75FFD5FF75FFD55C
:10048000FF75FFD5FF75FFD5FF75FFD5FF75FFD54C
:10049000FF75FFD5FF75FFD5FF75FFD5FF75FFD53C
:1004A000FF77FFDFFF7FFFFFFF7FFFDFFF7FFFFFA4
:1004B000FF7FFFFFFF7FFFDFFF7FFFD7FF75FFD5C8
:1004C000FF75FFD5FF75FFD5FF75FFD5FF75FFD50C
:1004D000FF75FFD5FF75FFD5FF75FFD5FF75FFD5FC
:1004E000FF75FFD5FF75FFD5FF75FFD5FFD5070752
:1004F0000707070606060606060606060E0302029C
:1005000002020204040000000000000003030303D1
:100510000303030303030A020202020202020202AD
:10052000020206060606060606060607070707076E
:100530000E03000000000000000404020202020298
:10054000FCFCFCFCFCFCFCFCFCFCFCFCFCFCFCFCEB
:10055000FCFFFFFFFFFFFFFFFFFFFFFFFFFFFEFCB2
:10056000F801010101010101010101010101010184
:1005700001010101010103070F0F0F0F0F0F0F07FB
:100580000301210C000078281000782850007858CA
:100590000010482000104820000078FC8ED6DAD6E3
:1005A0008EFC780000000000000000000000000049
:1005B0000000000000000000000000010205050529
:1005C0000505020100000408022905023E09093E52
:1005D0003F25251A1E2121123F21211E3F252521BD
:1005E0003F0505011E21293A3F04043F213F210018
:1005F0001021211F3F040A313F2020203F02023FEB
:100600003F02043F1E21211E3F0909061E21112E13
:100610003F09093622252519013F01011F20201F0E
:100620000F10201F3F10103F3B04043B030438070A
:10063000312D23211E29251E223F20003229292663
:100640001221251A0C0A3F08172525191E252518E1
:10065000013905031A25251A0629291EFCFEFFFF6C
:10066000FFFFFFFFFFFFFFFFFFFFFFFFFFFFFFFF9A
:10067000FFFFFFFFFFFFFFFFFFFFFFFFFFFFFFFF8A
:10068000FFFFFFFFFFFFFFFFFFFFFFFFFFFFFFFF7A
:10069000FFFFFFFFFFFFFFFFFFFFFFFFFFFFFFFF6A
:1006A000FFFFFFFFFFFFFFFFFFFFFFFFFFFFFFFF5A
:1006B000FEFEFCFFFFFFFFFFFFFFFFFFFFFFFFFF4F
:1006C000FFFFFFFFFFFFFFFFFFFFFFFFFFFFFFFF3A
:1006D000FFFFFFFFFFFFFFFFFFFFFFFFFFFFFFFF2A
:1006E000FFFFFFFFFFFFFFFFFFFFFFFFFFFFFFFF1A
:1006F000FFFFFFFFFFFFFFFFFFFFFFFFFFFFFFFF0A
:10070000FFFFFFFFFFFFFFFFFFFF010307070707D3
:100710000707070707070707070707070707070769
:100720000707070707070707070707070707070759
:100730000707070707070707070707070707070749
:100740000707070707070707070707070707070739
:100750000707070707070707070707070707070729
:1007600003571300FC0202F2F2F282F2F2F202F2FA
:10077000F2F202C2E2F2121252624202F2F2F28289
:10078000F2F2F20202E2F29292122202C2E2F23299
:100790001212722202C2E2F2125212F2E2C202F209
:1007A000F2F21212F2F2E202F2F2F292921202E289
:1007B000F2929212220202FC000000FF00005F5F32
:1007C0005F005F5F5F005F5F5F00172F5F50515FEB
:1007D0002F5F005F5F5F005F5F5F002C5C515153D4
:1007E0005F2E00172F5F585050582E00172F5F5064
:1007F00050505F2F17005F5F5F01015F5E58005F21
:100800005F5F5052500C5C5151535F2E0000FF004F
:1008100000000102020202020202020202020202BD
:1008200002020202020202020202020202020202A8
:100830000202020202020202020202020202020298
:100840000202020202020202020202020202020288
:100850000202020202020202020202020202020278
:100860000202020202010000FFFFFFFFFFFFFFFF85
:10087000FFFFFFFFFFFFFFFFFFFFFFFFFFFFFFFF88
:10088000FFFFFFFFFFFFFFFFFFFFFFFFFFFFFFFF78
:10089000FFFFFFFFFFFFFFFFFFFFFFFFFFFFFFFF68
:1008A000FFFFFFFFFFFFFFFFFFFFFFFFFFFFFFFF58
:1008B000FFFFFFFFFFFFFFFFFFFFFFFFFFFFFFFF48
:1008C000FFFFFFFFFFFFFFFFFFFFFFFFFFFFFFFF38
:1008D000FFFFFFFFFFFFFFFFFFFFFFFFFFFFFFFF28
:1008E000FFFFFFFFFFFFFFFFFFFFFFFFFFFFFFFF18
:1008F000FFFFFFFFFFFFFFFFFFFFFFFFFFFFFFFF08
:10090000FFFFFFFFFFFFFFFFFFFFFFFFFFFFFFFFF7
:10091000FFFFFFFFFFFFFFFFFFFFFFFFFFFFFFFFE7
:10092000FFFFFFFFFFFFFFFFFFFFFFFFFFFFFFFFD7
:10093000FFFFFFFFFFFFFFFFFFFFFFFFFFFFFFFFC7
:10094000FFFFFFFFFFFFFFFFFFFFFFFFFFFFFFFFB7
:10095000FFFFFFFFFFFFFFFFFFFFFFFFFFFFFFFFA7
:10096000FFFFFFFFFFFFFFFFFFFFFFFFFFFFFFFF97
:10097000FFFFFFFFFFFFFFFFFFFFFFFFFFFFFFFF87
:10098000FFFFFFFFFFFFFFFF030303030303030357
:100990000303030303030303030303030303030327
:1009A0000303030303030303030303030303030317
:1009B0000303030303030303030303030303030307
:1009C00003030303030303030303030303030303F7
:1009D000482200FC06020202020202020202020295
:1009E00002020202020202020202020202020202E7
:1009F00002020202020202020202020202020202D7
:100A000002020202020202020202020202020202C6
:100A10000202020202020206FC0000FF00000000C7
:100A200000000000000000000000000000000000C6
:100A300000000000000000000000000000000000B6
:100A400000000000000000000000000000000000A6
:100A50000000000000000000000000000000000096
:100A6000FF0000FF00000000000000000000000088
:100A70000000000000000000000000000000000076
:100A80000000000000000000000000000000000066
:100A90000000000000000000000000000000000056
:100AA0000000000000000000FF0000FF80000000C8
:100AB0000000000000000000000000000000000036
:100AC0000000000000000000000000000000000026
:100AD0000000000000000000000000000000000016
:100AE0000000000000000000000000000000008086
:100AF000FF000000010101010101010101010101EB
:100B000001010101010101010101010101010101D5
:100B100001010101010101010101010101010101C5
:100B200001010101010101010101010101010101B5
:100B300001010101010101010000D5F08D14A1C8DE
:100B400081CFD9F1AF20000B1D020100201D020151
:100B500014351D0201284A1D03013C5F1D0301508D
:100B6000B8013200A4013200900132007C01320051
:100B70006801320054013200400132002C01320081
:100B80001801320004013200F0003200DC003200B3
:100B9000C8003200B4003200A00032008C003200E5
:100BA00078003200640032005000320000000A0079
:100BB00050003200000014005000320000002800F5
:100BC0005000320000003C005000320000005A008B
:100BD00000008200500032000000B40050003200DB
:100BE0000000F000000036015000320000008601D5
:100BF000500032000080B8013200700332000080E3
:100C0000B8013200B40032000080DC003200B801CC
:100C100032007003320000801E00320032003200C9
:100C20000080080B0002020201000904000001021A
:100C30000200000524001001052401010104240222
:100C40000605240600010705810310004009040180
:100C500000020A00000007050202400000070583A9
:100C6000024000000403090412010002EF020140E7
:100C70004123368000010102030141726475696EEF
:100C80006F204C4C430041726475696E6F204C6557
:100C90006F6E6172646F00010204081020408021B1
:100CA000080F0F08080006090B06000E03030E00CC
:100CB0000F090F06000F0F000F02030F000E0F09A0
:100CC0000D000E10BEBDBEBDBEBDBEBDBEBDBEBD17
:100CD000BE0000040004000400040004000400003E
:100CE0004E080F0D0702000F050F0A000F0D090037
:100CF000020B0D00020B0D00000000000F0D07029B
:100D0000000F0F0808000E03030E00030E0E030071
:100D1000000006090B06000F02030F00000000018F
:100D20000F0F010E03030E000F0D0702000F0D0938
:100D30000E10A7C7A7C7A7C7A7C7A7C7A7C7A7005A
:100D4000070707070707070707070707070024081C
:100D50000E1F1F1F0E00000000000000000000001A
:100D60001F0E04000000000000000000040E1F0021
:100D7000040E1F0093023C0100005300DC033C0101
:100D80000000530027053C0100005300DC039E00D7
:100D90000000290027059E000000290093023C0165
:100DA00000005300DC03900127053C010000E30133
:100DB00093023C0100005300DC033C01000053009F
:100DC00027053C0100005300DC039E0000002900C1
:100DD00027059E000000290093023C0100005300FB
:100DE000DC03900127053C010000E3012A023C01DD
:100DF000000053003F033C010000530055043C0138
:100E0000000053003F039E000000290055049E008F
:100E1000000029002A023C01000053003F0390011A
:100E200055043C010000E3012A023C01000053008C
:100E30003F033C010000530055043C0100005300F7
:100E40003F039E000000290055049E000000290079
:100E50002A023C01000053003F03900155043C016D
:100E60000000E30100008813018040E0E0F0787C9E
:100E7000FC7C3810FCFCFEFFFFFFFFFFFEFCFCFCCF
:100E8000FCFCFCFCFCFCFCFCFCFCFCFCFCFCFCFCA2
:100E9000FCFCFCFEFFFFFFFFFFFEFCFCFCFCFCFC7F
:100EA000FCFCFCFCFCFCFCFCFCFCFCFCFC10387CB2
:100EB000FC7C78F0E0E04000000100000000000051
:100EC000000103070F0F0F0F0F07030100000000C1
:100ED000000000000000000000000000000001030E
:100EE000070F0F0F0F0F07030100000000000000A5
:100EF00000000000000000000000000000000000F2
:100F0000000100004D0C0040C0203038783810003F
:100F10000078FC8ED6DAD68EFC7800007858007007
:100F2000287000104820000870080000000078FCBD
:100F300082AAAAAA96FC780000782078007028700F
:100F40000078285000784830000010387838302079
:100F5000C04000000000000000000000000001028E
:100F60000505050505020100000000000000000065
:100F7000000000000000000000000001020505055F
:100F80000505020100000000000000000000000054
:100F90000000000000000000000000000000000051
:100FA000FCFEFFFFFFFFFFFFFFFFFFFFFFFFFFFF55
:100FB000FFFFFFFFFFFFFFFFFFFFFFFFFFFFFFFF41
:100FC000FFFFFFFFFFFFFFFFFFFFFFFFFFFFFFFF31
:100FD000FFFFFFFFFFFFFFFFFFFFFFFFFFFFFFFF21
:100FE000FFFFFFFFFFFFFFFFFFFEFEFCFFFFFFFF16
:100FF000FFFFFFFFFFFFFFFFFFFFFFFFFFFFFFFF01
:10100000FFFFFFFFFFFFFFFFFFFFFFFFFFFFFFFFF0
:10101000FFFFFFFFFFFFFFFFFFFFFFFFFFFFFFFFE0
:10102000FFFFFFFFFFFFFFFFFFFFFFFFFFFFFFFFD0
:10103000FFFFFFFFFFFFFFFFFFFFFFFFFFFFFFFFC0
:10104000FFFFFFFFFFFFFFFFFFFFFFFFFFFFFFFFB0
:10105000FFFFFFFFFFFFFFFFFFFFFFFFFFFFFFFFA0
:10106000FFFFFFFFFFFFFFFFFFFFFFFFFFFFFFFF90
:10107000FFFFFFFFFFFFFFFFFFFFFFFFFFFFFFFF80
:10108000FFFFFFFF3F7FFFFFFFFFFFFFFFFFFFFFB0
:10109000FFFFFFFFFFFFFFFFFFFFFFFFFFFFFFFF60
:1010A000FFFFFFFFFFFFFFFFFFFFFFFFFFFFFFFF50
:1010B000FFFFFFFFFFFFFFFFFFFFFFFFFFFFFFFF40
:1010C000FFFFFFFFFFFFFFFFFFFFFFFFFFFFFFFF30
:1010D0004C2000FC02025212F2F2F2125202F2F220
:1010E000F2020202F202F2F2F21212F2F2E2121230
:1010F000F2F2F2125202F2F2F202020202F2F2F200
:10110000929212020202020202C22212D2525252DF
:101110005252D222C2020202020202FC000000FF6E
:10112000000000005F5F5F008080AF9F9F10505005
:101130002F005F5F5F01015F5E5800005F5F5F002F
:1011400000005F5F5F505050005F5F5F5052500083
:1011500000000018671800003F58397839587F00A0
:1011600018671800000000FF000000FF00000040AA
:10117000304CB27D6A627E6A62FD629C4000400033
:101180000000FFFFFF1111FFEFEE00FFFFFF111145
:10119000FFEF8E00FFFFFF00FFFFFF0101FFFE7C5E
:1011A000007CFEFF0111F5F6F40000FFFFFF0929A6
:1011B000010000FF0000001F202020202122242504
:1011C00024252525252525242221202020202525EC
:1011D00025252525252220252525202025252520D6
:1011E00025252520252525252525222120212225C7
:1011F0002525252225202025252525252520201FBC
:101200000000040406090F060A0F0F08090D0F0A53
:10121000090B0F0F03020F0F070D0D0D0F0A0E0E16
:10122000010D0F030E0B0B0F07050F0FFCFEFFFF49
:10123000FFFFFFFFFFFFFFFFFFFFFFFFFFFFFFFFBE
:10124000FFFFFFFEFC00010303030303030303038B
:101250000303030303030303030303030100190A46
:1012600000FC020202020202020202020202020266
:1012700002020202020202FC00000001010101015F
:10128000010101010101010101010101010101014E
:1012900000000520110005200A0005200A00052095
:1012A0000A0005200A0005200B0005200B00052080
:1012B0000B0005200B0005200A00051F0A00051E73
:1012C0000A00051D0A00051C0B00051B0B00051A72
:1012D0000B0005190B0005180A0005170A00051672
:1012E0000A0005150A0005140B0005130B00051272
:1012F0000B0005110B0005100A00050F0A00050E72
:101300000A00050D0A00050C0B00050B0B00050A71
:101310000B0004090B0003080A0002070A0001067B
:101320000A0000050A00FCF90001FDF90200FEF7C1
:101330000200FFF6040000F5040001F4020002F5CB
:10134000020003F5040004F6020005F7020006F7A8
:10135000040007F8040008F9040009FB04000AFD72
:1013600002000BFF02000C0102000D0302000E033D
:1013700000020F0302001001020011FF020012FD23
:10138000020013FB040014F9040015F8040016F71A
:10139000040017F7020018F6020019F602001AF707
:1013A00002001BF704001CF804001DF904001EFBDA
:1013B00004001FFD020020FF0200210102002203A1
:1013C000020023030003250302002601020027FF79
:1013D000020028FD020029FB04002AF904002BF872
:1013E00004002CF704002DF702002EF602002FF661
:1013F000020030F7020031F7040032F8040033F93C
:10140000040034FB040035FD020036FF0200370102
:1014100002003803020038030004380302003901D7
:10142000020039FF02003AFD02003BFB04003CF9D8
:1014300004003DF804003EF704003FF7020040F6C8
:10144000020041F6020042F7020043F7040044F8AC
:10145000040045F9040046FB040047FD020048FF74
:101460000200490102004A0302004A0300054B033F
:1014700002004C0102004DFF02004EFD02004FFB36
:10148000040050F9040051F8040052F7040053F727
:10149000020054F6020055F6020056F7020057F714
:1014A000040058F8040059F904005AFB04005BFDDD
:1014B00002005CFF02005D0102005E0302005F03A8
:1014C0000006600302006101020062FF020063F98E
:1014D0000E0064F80E0864F80E0063F90E0062FF57
:1014E0000200610102005F0302005F030007F8FCD5
:1014F000FEFFFFFFFFFFFFFFFFFFFFFFFFFFFFFFFD
:10150000FFFFFFFFFFFFFFFFFFFFFFFFFFFFFFFFEB
:10151000FFFFFFFFFFFFFFFFFFFFFFFFFFFEFCF8E6
:10152000FFFFFFFFFFFFFFFFFFFFFFFFFFFFFFFFCB
:10153000FFFFFFFFFFFFFFFFFFFFFFFFFFFFFFFFBB
:10154000FFFFFFFFFFFFFFFFFFFFFFFFFFFFFFFFAB
:10155000FFFF070F1F3F3F3F3F3F3F3F3F3F3F3FA3
:101560003F3F3F3F3F3F3F3F3F3F3F3F3F3F3F3F8B
:101570003F3F3F3F3F3F3F3F3F3F3F3F3F3F3F3F7B
:101580003F1F0F07321600F804F20A0A0A0A0A0A75
:101590004ACACA4ACA8A0A4ACACA0A0ACACA0ACA6B
:1015A000CA0A8ACA4ACA8A0A4ACACA4ACA0A0A0A5B
:1015B0000A0A0A0AF204F80000FF00FF0000000017
:1015C000000080FFFF880F0380FE27FFF8803FFFA9
:1015D00080FF3F0043C78EFC780080FFFF84CE0071
:1015E000000000000000FF00FF00000708131414B3
:1015F00014141414141414141414141414141414AB
:10160000141414141414141414141414141414149A
:10161000141414141414141413080700F8FCFEFF17
:10162000FFFFFFFFFFFFFFFFFFFFFFFFFFFFFFFFCA
:10163000FFFFFFFFFFFFFFFFFFFFFFFFFFFFFFFFBA
:10164000FFFFFFFFFFFFFFFFFFFFFFFFFFFFFFFFAA
:10165000FFFFFFFFFFFFFFFFFFFFFFFFFFFFFFFF9A
:10166000FFFFFFFFFEFCF8FFFFFFFFFFFFFFFFFF95
:10167000FFFFFFFFFFFFFFFFFFFFFFFFFFFFFFFF7A
:10168000FFFFFFFFFFFFFFFFFFFFFFFFFFFFFFFF6A
:10169000FFFFFFFFFFFFFFFFFFFFFFFFFFFFFFFF5A
:1016A000FFFFFFFFFFFFFFFFFFFFFFFFFFFFFFFF4A
:1016B000FFFF0001030707070707070707070707DB
:1016C00007070707070707070707070707070707AA
:1016D000070707070707070707070707070707079A
:1016E000070707070707070707070707070707078A
:1016F000070707070707070707070301004B130042
:10170000F804C2E2F21212526242020202E2F2F261
:10171000C2020202F2F2F202C2F2F2F20202F2F2A9
:10172000F29292120202C2E2F2125212F2E2C232B9
:10173000F2F2820282721202F2F2F292921202F239
:10174000F2F21212F2F2E204F80000FF00172F5F2B
:1017500050515F2F5F0058071414075F5E50005F01
:10176000015F5E015F5F5F00005F5F5F505250008E
:1017700000172F5F5050505F2F1700035F5F58070F
:101780000000005F5F5F505250005F5F5F01015FCC
:101790005E5800FF00000001020202020202020283
:1017A0000202020202020202020202020202020219
:1017B0000202020202020202020202020202020209
:1017C00002020202020202020202020202020202F9
:1017D00002020202020202020202020202010000EE
:1017E000090D000404FCFEFE000000000A0A0B0BB9
:1017F0000B0A0A00001C82C2E27E3E1C00000B0B9A
:101800000B0B0B0B0B000080863232FEFECC00006F
:10181000050A0A0A0B0B0500F8FCFEFFFFFFFFFF9D
:10182000FFFFFFFFFFFFFFFFFFFFFFFFFFFFFFFFC8
:10183000FFFFFFFFFFFFFFFFFFFFFFFFFFFFFFFFB8
:10184000FFFFFFFFFFFFFFFFFFFFFFFFFFFFFFFFA8
:10185000FFFFFFFFFFFFFFFFFFFFFFFFFFFEFCF8A3
:10186000FFFFFFFFFFFFFFFFFFFFFFFFFFFFFFFF88
:10187000FFFFFFFFFFFFFFFFFFFFFFFFFFFFFFFF78
:10188000FFFFFFFFFFFFFFFFFFFFFFFFFFFFFFFF68
:10189000FFFFFFFFFFFFFFFFFFFFFFFFFFFFFFFF58
:1018A000FFFFFFFFFFFFFFFF000103070707070719
:1018B00007070707070707070707070707070707B8
:1018C00007070707070707070707070707070707A8
:1018D0000707070707070707070707070707070798
:1018E0000707070707070707070707070703010099
:1018F000481300F80402020202020202020202027B
:10190000F2F2F202020202F2F2F20232F2F2820287
:1019100082721202F2F2F292921202E2F2929212A7
:101920002202020202020202020202020202020277
:101930000202020202020204F80000FF000000009E
:1019400000000000000000005F5F5F505050005F2B
:101950005F5F0000035F5F58070000005F5F5F503C
:1019600050500C545151535F2E00000000000000F5
:101970000000000000000000000000000000000067
:10198000FF00000001020202020202020202020241
:101990000202020202020202020202020202020227
:1019A0000202020202020202020202020202020217
:1019B0000202020202020202020202020202020207
:1019C0000202020202020201000000000000000008
:1019D0000000000000000000000000000000000007
:1019E0000000C0F0F8FCFCFCFCFCFCFCFCF8F0C0C7
:1019F000000000000000061FFFFFFFFFFFFFFFFFCA
:101A0000FFFFFFFF1F0600000000000000000107AD
:101A10000707070707070705000000000000000090
:101A200080FCFEFFFFFFFFFFFFFFFFFFFFFF7C804B
:101A30000000000003FFFFFFFFFFFDFDFDFDFDFDBA
:101A4000FFFFFFFF7F03000000000003FFFFFFFF19
:101A5000FFFFFFFFFFFFFFFF03000000000000008B
:101A60000000010707070707070707050000000038
:101A7000000000000000C0E0C00000000000000006
:101A800000000000000000000000073FFFFFFDFE17
:101A9000FEFEFCFCFCFCF8F87C7E3F0EE0F0F0E083
:101AA000FEFFFFFFFFFFFFFFFFFFFFFFC380000000
:101AB0000000010301000101010101030303070FFD
:101AC0000F070300000000000000C0E0FCFEFEFE67
:101AD000FEFEFEFEFEFEFCFCF8F000000000073FEC
:101AE000FFFFFDFEFFFFFDFFFFFFFBFF7F7F3F0EC0
:101AF000E0F0F0E0FEFFFFFFFFFFFFFFFFFFFFFF53
:101B0000C380000000000103010001010101010385
:101B10000303070F0F070300000000000000C0E0F0
:101B2000C0000000000000000000000000000000F5
:101B30000000073FFFFFFFFEFEFEFCFCFCFCF8F888
:101B40007C7E3F0EC0E0E0E0FEFFFFFFFFFFFFFFF7
:101B5000FFFFFFFF830000000000010307030101F6
:101B60000101010303070F0F0F070300000000002E
:101B70000000C0E0FCFEFEFCFCFCFEFEFEFEFCFCE9
:101B8000F8F000000000073FFFFFFFFFFFFFFFFF2F
:101B9000FFFFFFFF7F7F3F0EC0E0E0E0FEFFFFFFA3
:101BA000FFFFFFFFFFFFFFFF8300000000000103B6
:101BB000070301010101010303070F0F0F070300D2
:101BC0000000000000000000000000000000000015
:101BD000C0E0C0000000000E3F7E7CF8F8FCFCFC7A
:101BE000FCFEFEFEFDFFFF3F07000000000000803E
:101BF000C3FFFFFFFFFFFFFFFFFFFFFFFEE0F0F06F
:101C0000E000000003070F0F0703030301010101B8
:101C100001000103010000F0F8FCFCFEFEFEFEFEE8
:101C2000FEFEFEFEFCE0C0000000000E3F7F7FFFD6
:101C3000FBFFFFFFFDFFFFFEFDFFFF3F0700000072
:101C400000000080C3FFFFFFFFFFFFFFFFFFFFFF5C
:101C5000FEE0F0F0E000000003070F0F07030303AE
:101C6000010101010100010301000000000000006A
:101C70000000000000000000C0E0C0000000000EF6
:101C80003F7E7CF8F8FCFCFCFCFEFEFEFFFFFF3F05
:101C9000070000000000000083FFFFFFFFFFFFFFC1
:101CA000FFFFFFFFFEE0E0E0C000000003070F0FB2
:101CB0000F0703030101010101030703010000F005
:101CC000F8FCFCFEFEFEFEFCFCFCFEFEFCE0C000A0
:101CD0000000000E3F7F7FFFFFFFFFFFFFFFFFFFC2
:101CE000FFFFFF3F070000000000000083FFFFFF31
:101CF000FFFFFFFFFFFFFFFFFEE0E0E0C00000008E
:101D000003070F0F0F07030301010101010307037D
:101D1000010040E0F0F8F0E0D0B8FCB8D2C7CFE75F
:101D2000F2F8F0E0400000000F1FFFFFFFFFFFFF91
:101D3000FFFFFFFFFFFFFFFF8F000000000000001C
:101D40008FFFFFFFFFFFFFFFFFFFFFFFFFFF980079
:101D5000000000000103070707070301000001035B
:101D6000070703010000E0F0F8F0E040889CBE9C0B
:101D7000CCCEDFCEE4F0F8F0E04000010F1FFFFF13
:101D8000FFFFFFFFFFFFFFFFFFFFFFFF8F010000CF
:101D9000000000008FFFFFFFFFFFFFFFFFFFFFFFBF
:101DA000FFFF980000000000010307070707030179
:101DB00000000103070703010000000040E0F0F805
:101DC000F2E7CFC7D2B8FCB8D0E0F0F8F0E04000BE
:101DD00000008FFFFFFFFFFFFFFFFFFFFFFFFFFF81
:101DE000FF1F0F00000098FFFFFFFFFFFFFFFFFF37
:101DF000FFFFFFFF8F000000000000010307070343
:101E0000010000010307070707030100000000406D
:101E1000E0F0F8F0E4CEDFCECC9CBE9C8840E0F051
:101E2000F8F0E00000018FFFFFFFFFFFFFFFFFFF63
:101E3000FFFFFFFFFF1F0F01000098FFFFFFFFFFE5
:101E4000FFFFFFFFFFFFFFFF8F000000000000010A
:101E50000307070301000001030707070703010049
:101E60000000000000000000000000000000000072
:101E70000000000000000000E0FCFEFFFFFFFFFF8D
:101E8000FFFFFFFEFCE0E0F0F078700080C1FFFF94
:101E9000FFFFFFFFFFFFFFFFFFFFF1F1F161000018
:101EA0000001030707070301010000000000010310
:101EB000010000000000000000000000C0E0F0F0A1
:101EC000F0F0F0F0F0F0F0F0C0000000E0FCFEFFF9
:101ED000FFFFFFFFFFFFFFFFFFDFDFFFFF7F783028
:101EE00080C1FFFFFFFFFFFFFFFFFFFFFFFFF1F1DB
:101EF000F161000000010307070703010100000072
:101F000000000103010000000000000000000000CC
:101F100000000000000000000000000000000000C1
:101F200000000000000000000000000000000000B1
:101F3000000000000000000000F0F8FCFEFEFEFEC5
:101F4000FEFCF8F0000000000000000000000707A1
:101F50000707070707070707070000000000151C11
:101F60000000000000000000000000000000000071
:101F70000000000000000000C0300804F4145414F5
:101F80005414F40830C00000000000000619E600F8
:101F9000006FD6EEFEEEF67F00E6190600000000A8
:101FA00000000000010E0A08080E08080A0D0000D3
:101FB00000000000000080FC0205252525252525C0
:101FC000050579837C800000000003FC813D0D073E
:101FD000F51555155515F70D3D817C0300000000E2
:101FE0000003FC00006FD6EEFEEEF67F00FC03005F
:101FF0000000000000000000010E0A08080E08089A
:102000000A0D00000000000000000000C020C00019
:1020100000000000000000000000000000000000C0
:102020000738C00EE51A2A0A5414F40408985446D6
:10203000310EE01010609EA1766B777FEE763F0345
:10204000C07C438000000000010201000101010189
:10205000010202020609080403000000000000005B
:10206000C020FC82BA0424244A4A4A4A140408F0D4
:10207000000000000738C00EE51A2B0B5516F606B7
:102080000A9C5447310EE01010609EA1766B777F5A
:10209000EE763F03C07C4380000000000102010097
:1020A0000101010101020202060908040300000007
:1020B00000000000C020C000000000000000000080
:1020C00000000000000000000738C00EE51A2A0AD0
:1020D0005414F40408985446310EC02020609EA188
:1020E000766B777FEE763F03C07C830000000000B4
:1020F00001020402010101010102020709080804AA
:102100000300000000000000C020FC82BA04242468
:102110004A4A4A4A140408F0000000000738C00E7A
:10212000E51A2B0B5516F6060A9C5447310EC020B3
:1021300020609EA1766B777FEE763F03C07C8300A4
:102140000000000001020402010101010102020776
:10215000090808040300000000000000000000005F
:10216000000000000000C020C0000000000E31464A
:1021700054980804F414540A2A1AE50EC0380700CB
:10218000000000000080437CC0032F56EE7F777B69
:102190007EA19E601010E000000003040809060202
:1021A00002020101010101000102010000F0080426
:1021B000144A4A4A4A242404BA82FC20C00000007F
:1021C000000E3147549C0A06F616550B2B1AE50EE5
:1021D000C0380700000000000080437CC0032F5679
:1021E000EE7F777B7EA19E601010E000000003046C
:1021F00008090602020201010101010001020100B9
:102200000000000000000000000000000000C020EE
:10221000C0000000000E314654980804F414540A1B
:102220002A1AE50EC0380700000000000000837C79
:10223000C0032F56EE7F777B7EA19E602020C000DA
:10224000000003040808090702020101010101025C
:102250000402010000F00804144A4A4A4A242404F3
:10226000BA82FC20C0000000000E3147549C0A06D0
:10227000F616550B2B1AE50EC038070000000000BB
:102280000000837CC0032F56EE7F777B7EA19E608B
:102290002020C00000000304080809070202010111
:1022A00001010102040201000040A010A040001042
:1022B000281080828542A010A04000000000000F7E
:1022C00010E70201FDC5AD92EAC6F983708F0000E8
:1022D000000000000000008F70808B95BB5F5DDE0A
:1022E0005F2867980000000000000001020202025F
:1022F00001000000000102020100000040A010A047
:1023000040000008140880848A0440A010A0400007
:102310000000010E11E60201FDC5AD92EAC6F98288
:10232000718E0100000000000000008F70808B950E
:10233000BB5F5DDE5F2867980000000000000001C1
:10234000020202020100000000010202010000007E
:1023500000000040A010A04285828010281000409C
:10236000A010A04000000000008F7083F9C6EA9220
:10237000ADC5FD0102E7100F0000000000986728BE
:102380005BD55B5FBD9E8F80708F000000000000FA
:10239000000001020201000000000102020202012D
:1023A0000000000000000040A010A04285828010C4
:1023B00028100040A010A04000000000008F708393
:1023C000F9C6EA92ADC5FD0102E7100F000000005A
:1023D000009867285BD55B5FBD9E8F80708F000083
:1023E00000000000000001020201000000000102E4
:1023F00002020201000000000000000000000000D6
:102400000000000000000000000000000000E01CD0
:1024100002F98D8595859585F9023C60605090485C
:10242000700080413E6081972B77BFB7BBBFD04E15
:102430003111916100000001020404040301010054
:102440000000000001020100000000000000000088
:102450000000C02050505050505050509030C0009C
:102460000000E01C02394D9F50103212F21232521D
:102470007057905F483080413E6081972B77BFB79F
:10248000BBBFD04E31119161000000010204040471
:102490000301010000000000010201000000000033
:1024A000000000000000000000000000000000002C
:1024B000000000000000000000000000000000001C
:1024C000000000000000000000000000000000000C
:1024D000F0587C5CDC58F408F000000000000000BC
:1024E00000000000000303030303030300030000D4
:1024F0000000000080C080C0C0C0E0FCFEFFFFFF05
:10250000FFFFFFFFFFFEFC010303030303033F7F05
:10251000FFFFFFFFFFFFFFFF7F3F00000000000005
:1025200000000303030303030303030000131280EB
:102530004080C040C0601C02FD8595A59585FD01C9
:1025400002FC010202020202023E409B353BBF3BFD
:102550003D9F80403F000000000000000003020299
:102560000203020202030000FCFEFFFFFFFFFFFE6A
:10257000FC0F1F3F3F3F3F3F3F3F090EFC02F90565
:1025800005E50502FC0F102F20202720203F307C7E
:10259000FEFFFFFFFFFFFEFCE0E0F0F0F0F0E0E008
:1025A000C080000000000001030707070707377F0E
:1025B000FFFFFFFF5F3F7F7F3F1200000000000032
:1025C0000000000000000001010000000000000009
:1025D00000000080C0C0E0E8FCFEFFFFFFFFFEFE41
:1025E000FCF8F0800000003C7FFFFFFFFFFF7F3F13
:1025F000070F0F07020103030100000000000000A5
:1026000000000000000000000000000000000000CA
:10261000000000000000000000F0FCFEFFFFFFFFD4
:10262000FFFE8F070200000000000078FCFEFFFFA5
:102630007F7FFF7F070F0F070300000000000000EF
:102640000000000101000000000000000000000088
:1026500000000000000080C0E0E0F0F0F0F0E0E0FA
:10266000FCFEFFFFFFFFFFFE7C30123F7F7F3F5FDE
:10267000FFFFFFFF7F370707070707030100000081
:102680000000000000000001010000000000000048
:10269000000000000000000080F0F8FCFEFEFFFFDC
:1026A000FFFFFEFCE8E0C0C0800000000000000169
:1026B00003030102070F0F073F7FFFFFFFFFFF7FAD
:1026C0003C000000000000000000000000000000CE
:1026D000000000000000000000000002078FFEFF65
:1026E000FFFFFFFFFEFCF000000000000000000004
:1026F00000000003070F0F077FFF7F7FFFFFFEFC37
:102700007800000000000000000000000000000051
:10271000000000010100000000001611304C8295FD
:102720009D899599029C60A0D0501050A0A0408037
:10273000000000000001020404040404354E810A74
:1027400013B2522048482D12000000000000000083
:102750000000000000010100000000000000000077
:10276000008040402028B46A1D4591B5AA0A44481B
:1027700070800000003C43B8AC98ACB8413E0408FF
:102780000805020102020100000000000000000034
:102790000000000000000000000000000000000039
:1027A00000000000000000F00C0261451139817A40
:1027B0008905020000000000007884321181414048
:1027C000807E0409080403000000000000000000EF
:1027D00000010100000000000000000000000000F7
:1027E000000000008040A0A0501050D0A0609C02CB
:1027F0009995899D95824C30122D48482052B213EC
:102800000A814E35040404040402010000000000A3
:1028100000000000000101000000000000000000B6
:10282000000000000000807048440AAAB591451DD0
:102830006AB428204040800000000000000102022D
:102840000102050808043E41B8AC98ACB8433C000E
:102850000000000000000000000000000000000078
:102860000000000000000000000205897A81391193
:102870004561020CF00000000000000000000000B4
:102880000003040809047E804041811132847800ED
:102890000000000000000000000000000000000038
:1028A000000101000000000060F8FCFEFFFFFFFFD8
:1028B000FFFEFCF8C0E0E0E0E0C0C08000000000E7
:1028C000000103070F1F1F1F1F7FFFFFFFFFFFFFF9
:1028D000FFFFFFFFFE5400000000000000000000AA
:1028E00000000103070703010001010000000000D0
:1028F0000080C0C0E0F0F8FCFEFEFEFEFCFCF8F03C
:10290000E08000000078FEFFFFFFFFFFFFFFFF7F7A
:102910003F3F1F0F070F0F070301000000000103D7
:10292000030303030100000000000000000000009A
:10293000000000000000000000E0F8FCFEFEFEFECB
:10294000FEFEFF1F0F060000000000F0F8FCFEFF77
:10295000FFFFFFFFFFFF3F3F1F0F070000000000CA
:10296000000000010307070301010301000000004C
:102970000000000000000000000080C0C0E0E0E0B7
:10298000E0C0F8FCFEFFFFFFFFFFFEFCF86054FE16
:10299000FFFFFFFFFFFFFFFFFFFF7F1F1F1F1F0F37
:1029A0000703010000000001010001030707030104
:1029B000000000000000000000000000000080E0B7
:1029C000F0F8FCFCFEFEFEFEFCF8F0E0C0C080006B
:1029D000000000000103070F0F070F1F3F3F7FFF9D
:1029E000FFFFFFFFFFFFFFFE780000000000000078
:1029F00000000000000000010303030303010000C6
:102A000000000000060F1FFFFEFEFEFEFEFEFCF8AB
:102A1000E0000000000000000000000000070F1FA1
:102A20003F3FFFFFFFFFFFFFFFFEFCF8F00000004D
:102A30000000000000000000000001030101030786
:102A40000703010000001713609864FAD5C5FDD58F
:102A5000C5FAC438C0202020A040408000000000FB
:102A6000000102040A1616161776856CF0E0D09065
:102A700051B16041AA5400000000000000000000B5
:102A80000000010205050201000101000000000034
:102A900000804040A09088143282020A141488906A
:102AA00060800000007886798EAFFF8FAF7C8377DF
:102AB0002F2E140A050B0B05020100000000010275
:102AC00002020202010000000000000000000000FD
:102AD000000000000000000000E01804828A0202EA
:102AE000020AED1509060000000000F008F49ABD86
:102AF000DD7C7EFE02F52C2E17080700000000008A
:102B000000000001020505020101020100000000B1
:102B100000000000000000000000804040A02020D5
:102B200020C038C4FAC5D5FDC5D5FA64986054AA4A
:102B30004160B15190D0E0F06C8576171616160AF8
:102B4000040201000000000101000102050502016C
:102B50000000000000000000000000000000806095
:102B6000908814140A028232148890A04040800099
:102B7000000000000102050B0B050A142E2F7783BD
:102B80007CAF8FFFAF8E79867800000000000000D8
:102B90000000000000000001020202020201000029
:102BA00000000000060915ED0A0202028A820418DC
:102BB000E00000000000000000000000000708170F
:102BC0002E2CF502FE7E7CDDBD9AF408F00000009C
:102BD00000000000000000000000010201010205E9
:102BE000050201000000040E1F3F1F1E3C78381034
:102BF0000C1E1F3F1F1E1E0F0E041038783C1E1F98
:102C00003F1F0E04040E0F1E1E1F3F1F1E0C0A073F
:102C100000040E1E0E0C08301000000C0E1E0E0CD0
:102C200008060400001030080C0E1E0E04000004FC
:102C300006080C0E1E0E0C00952EEC2B11241FBE48
:102C4000CFEFDAE0DEBFCDBF11E0A0E0B1E0ECE60F
:102C5000F3E602C005900D92A63CB107D9F727E034
:102C6000A6ECB1E001C01D92AA32B207E1F716E16D
:102C7000CDE1D6E104C02197FE010E947130CC3134
:102C8000D107C9F70E94F02B0C94A9310C940000D5
:102C90008091CC01E091CA01F091CB01882349F0E9
:102CA000CF0102969093CB018093CA0185919491B4
:102CB0000895CF0102969093CB018093CA01808141
:102CC00091810895089508950C940C310C940C3161
:102CD0000C940C310C940C310C940C31AF92BF92CB
:102CE000CF92DF92EF920F93CF93DF93EC016D8140
:102CF000062E000C770B6F5D7F4FE12C00E022E287
:102D000035E040E355E080E090E00E94ED285E0170
:102D100086E0A80EB11C8EE0C82ED12CF501619181
:102D20005F01062E000C770B6F5D7F4FE12C00E0FA
:102D30002CE035E046E155E0C6010E94ED28FAE0BE
:102D4000CF0ED11C82E7C816D10441F76889062E40
:102D5000000C770B6F5D7F4F2EEE34E04CEF54E0AC
:102D600082E790E00E94ED28DF91CF910F91EF90E4
:102D7000DF90CF90BF90AF900895FB012781308501
:102D80002F703327232B79F4FC0125813696AC0173
:102D90004F5E5F4F3191DF0112973C93E417F507C7
:102DA000C9F7FC01208B0895AF92BF92CF92DF92BA
:102DB000EF92FF921F93CF93DF93EC016B01FB0126
:102DC0008285118529892F3F09F484C087819085E8
:102DD0006CE070E00E945D305C01892B09F085C0D9
:102DE00017FF22C0AE0186E0289F400D511D11241F
:102DF0009A01295E3F4F8A89F901E80FF11D808110
:102E00008F5F80838A89F901E80FF11D80818B35FE
:102E100014F081E480838A89F901E80FF11D808133
:102E2000803411F481E4808314FF17C08989FE0186
:102E300096E0899FE00DF11D112477968A89DF01C4
:102E4000A80FB11D8C9181508C938A89E80FF11DD8
:102E50008081813414F48AE5808315FF05C08A8956
:102E6000882311F081508A8B16FF05C08A89823031
:102E700010F48F5F8A8B13FF38C08989FE0126E02A
:102E8000829FE00DF11D1124779680818F3369F1C7
:102E900081818F3351F182818F3339F17F01F701C5
:102EA00061917F018989950146E0849F200D311D44
:102EB0001124C90181559F4F0E94CE2F5FEFA51AA3
:102EC000B50A83E0A816B10451F78FEF898B84E629
:102ED0008C8B0BC0809581238C7039F08C8981118B
:102EE00004C062E0C6010E94652B10768B89103603
:102EF00071F58F5F8B8B8531C0F18D33A8F08D33E9
:102F0000A1F51B8A83E884BD8FEF87BD81EF809395
:102F100080001092880010928A000E943329CE010E
:102F200045960E94822021C020E430E0F901E81B90
:102F3000F109CF01880F93E894BD9FEF97BD91EF02
:102F4000909380001092880080938A000EC088239E
:102F500061F083E884BD8FEF87BD81EF80938000AF
:102F60001092880010928A001B8A8C89882311F0A5
:102F700081508C8BB601CE01DF91CF911F91FF90D4
:102F8000EF90DF90CF90BF90AF900C94BD16FC01F6
:102F900035968CE090E09F3F3CF0923024F09230E8
:102FA00019F4108201C090839F5F933009F49FEF62
:102FB000815031968111EFCF08954F925F926F92B9
:102FC0007F928F929F92AF92BF92CF92DF92EF92B9
:102FD000FF920F931F93CF93DF9300D000D000D0C8
:102FE000CDB7DEB78C015B01FC01128A138A84E63F
:102FF000848BFB01E088F188E114F10409F459C0E5
:103000008DEA90E00E94B82FE816F906A8F483EB49
:1030100090E00E94B82FE816F90698F489EB90E04A
:103020000E94B82FE816F90608F443C049EB842E35
:10303000912C52E0552E0AC03DEA832E912C512C42
:1030400005C023EB822E912C5524539489EB682ED6
:10305000712C92E0492ECE0101966C015414B0F40B
:103060004A9496E0499EB001112463557F4F46E093
:1030700050E0C6010E94A02F46E050E0B301C60117
:103080000E94BE2FE6E06E1A7108E8CF86E0F601D6
:1030900011928A95E9F78FE38B838C838D83FA8273
:1030A000E98246E050E0B401C6010E94BE2F852DA2
:1030B00001C08FEFF801818BF50112861186C801DE
:1030C00045960E948220C8010E94C71726960FB617
:1030D000F894DEBF0FBECDBFDF91CF911F910F914E
:1030E000FF90EF90DF90CF90BF90AF909F908F9028
:1030F0007F906F905F904F900895CF92DF92EF9204
:103100000F93CF93DF93EC016B01FB0187819085D7
:103110008F739927892B39F48C818F5F803410F459
:103120008C8301C01C828C8190E020E04CEE53E047
:1031300060E070E0805491090E9464288C8120E056
:103140004CEE53E060E070E090E00E946428E12CD7
:1031500000E020E533E04DE953E06FE070E080E00F
:1031600090E00E94ED2824EB32E041E053E06FE074
:1031700070E085E790E00E94ED280B812AE932E0BB
:1031800042EA52E060E370E08CE090E00E94ED28BB
:103190000B812AE932E042EA52E060E370E080E726
:1031A00090E00E94ED280B812AE932E042EA52E0E9
:1031B00066E370E080E490E00E94ED2800E020EFFC
:1031C00030E044EC51E060E370E08BE090E00E947E
:1031D000ED28F601878190858F719927892B21F43D
:1031E0009B8181E089278B83DF91CF910F91EF90B5
:1031F000DF90CF9008952F923F924F925F926F92FF
:103200007F928F929F92AF92BF92CF92DF92EF9276
:10321000FF920F931F93CF93DF93CDB7DEB727971E
:103220000FB6F894DEBF0FBECDBF5C01FB01478037
:1032300050840E947D18C5010E946E16E12C00E0AA
:1032400028E638E040ED59E062E170E08DE190E081
:103250000E94ED282CE536E041E657E063E070E09F
:1032600086E190E00E94ED2885011501F2E12F0E24
:10327000311CE8E1EE2EF12C9E012F5F3F4F4901FA
:1032800036E0380D3F8374E2672E712CC12CD12CAF
:10329000F801EC0DFD1D27892F3311F0205401C0DA
:1032A00020E046EC55E0B701C3010E9464284FEFCF
:1032B000C41AD40A56E0650E711C83E0C816D10406
:1032C00039F7FE0137963F0161E4C62ED12CF40197
:1032D00026E011922A95E9F7F80185899689F4018B
:1032E0006AE070E00E945D308193CB013F813E1324
:1032F000F7CFF30122913F01255E46EC55E0B7017F
:10330000C6010E946428F5E0CF0ED11C2FE5C2163D
:10331000D104E9F639E0E30EF11C0A5F1F4F0215F4
:10332000130509F0B0CFF50121892F3F09F478C0CA
:10333000C20168E370E00E945D304D9708F470C0F0
:10334000C501F6E02F9F800D911D1124AC01495E4F
:103350005F4F4A0159E0259FC00111248C01095E8D
:103360001F4FF501C288F6E0CF9E6001112496013F
:103370002D5D3F4F49E2C40ED11C4F9640E1742EA3
:1033800057E9E52E5CE0F52E2C153D0541F1A8012D
:1033900017FF1BC040E050E018C046175707E4F481
:1033A0002038310584F4BA01F701769ED001A07867
:1033B0001124A20F6770E60FF11D6490A651BE4F55
:1033C0006C91662A6C924F5F5F4FBC01813491050E
:1033D00024F360E470E0E1CF2F5F3F4FD5CFF501DC
:1033E0008289F401E80FF11D20812F3311F0205460
:1033F00001C020E0F5016189F9E06F9FB00111245F
:10340000685E7F4F36E0839FC00111243BEFC32EDF
:10341000E12C00E010E046EC55E084960E9439264D
:10342000F50181898F3F79F4848981110CC0E12CE9
:1034300000E020E435E042E855E065E370E080E339
:1034400090E00E94ED2827960FB6F894DEBF0FBEDD
:10345000CDBFDF91CF911F910F91FF90EF90DF9043
:10346000CF90BF90AF909F908F907F906F905F9024
:103470004F903F902F900C94392BFC0194818181C7
:10348000913031F018F0923051F008958450089541
:1034900091E02381223308F090E0891B0895E281B6
:1034A0004E2F50E04232510570F4FA01EA5AFF4FB4
:1034B0000C947130865F0895885F08958A5F08953F
:1034C0008C5F08958E5F0895DC01EC91B4E0EB9F72
:1034D000F0011124E75DFC4E84919FEF980F973027
:1034E00010F4825008958FEF08958F929F92AF92BB
:1034F000BF92EF92FF920F931F93CF93DF93CDB7BD
:10350000DEB7A1970FB6F894DEBF0FBECDBF8C011A
:10351000DC0113968C91139781111BC0EC91B4E0E0
:10352000EB9FF0011124E85DFC4EE491E23011F0D4
:10353000E43039F4D80116968C91833011F494E07C
:1035400001C090E0D80112968C91E80F8E2F890F60
:1035500039C0F801258130E040E050E019A27E0139
:10356000F1E2EF0EF11C8AE0882E912CA12CB12CF7
:10357000CA01B901A50194010E942030605DD70104
:103580006E937D01211531054105510589F7CD0166
:103590000E94852B83EC91E00E94852BF8018581A8
:1035A000882379F0E38184E0E89FF0011124EC5650
:1035B000FD4E8491D80117969C91923019F48E5F3C
:1035C00001C080E1A1960FB6F894DEBF0FBECDBF5B
:1035D000DF91CF911F910F91FF90EF90BF90AF902F
:1035E0009F908F900895E1E7F0E080818D7F808348
:1035F00010929100469847981092DB010895CF925F
:10360000DF92EF92FF920F931F93CF93DF930E946D
:103610004816811520E8920751F4DF91CF911F9150
:103620000F91FF90EF90DF90CF900C94F31A21E070
:103630002093DB01813020E8920751F48091C8018A
:103640009091C9019093CB018093CA010E944816C2
:1036500097FD05C02091C701222309F440C02091A5
:10366000C60121113CC021E02093CD01EC01DF77A0
:10367000209769F481E08093CE0146983FE9C32EFC
:103680003FE0D32EE12CF12CCAEFD0E014C08E0124
:1036900020E030E060E472E48FE090E0A90198015E
:1036A0000E94EE2F69017A0181E0C81AD108E10871
:1036B000F1081092CE01E091E101F091E20109954B
:1036C000811103C081E08093CE018091CD018823D8
:1036D00009F43FC08091CE0181113BC003C010921C
:1036E000CD01C4CF469935C0479A0E94481600972D
:1036F00071F09C01DE010E944230DC01CB0129E027
:10370000B595A795979587952A95D1F703C08FEF23
:103710009FEFDC01109290002AE020939100D0925C
:103720009900C09298008093CF019093D001A0930C
:10373000D101B093D20180917100826080937100B9
:10374000DF91CF911F910F91FF90EF90DF90CF907D
:1037500008954798CACF1F920F920FB60F92112467
:103760002F933F934F935F936F937F938F939F9389
:10377000AF93BF93EF93FF938091CF019091D001CE
:10378000A091D101B091D201892B8A2B8B2B81F191
:103790008091CE0181110BC098B180E4892788B94E
:1037A0008091CD01882319F088B1805888B9809123
:1037B000CF019091D001A091D101B091D201181602
:1037C00019061A061B06B4F48091CF019091D0011E
:1037D000A091D101B091D2010197A109B1098093C3
:1037E000CF019093D001A093D101B093D20102C038
:1037F0000E94FF1AFF91EF91BF91AF919F918F911E
:103800007F916F915F914F913F912F910F900FBEDC
:103810000F901F9018959C01E1E7F0E090819D7F4B
:10382000908381E08093CC013093CB012093CA0137
:103830003093C9012093C8010C94FF1A089508958C
:103840000895089508950C940C3108950E94A431B0
:10385000CF92DF92EF92FF920F931F93CF93DF935C
:1038600000D000D0CDB7DEB7621773078407950785
:10387000FCF489019A016B017C01A9019801261BC6
:10388000370B480B590B69F029833A834B835C83D0
:103890000E94922F29813A814B815C810E94EE2FF8
:1038A00003C060E070E0CB016C0D7D1D8E1D9F1D7F
:1038B0000F900F900F900F90DF91CF911F910F916C
:1038C000FF90EF90DF90CF9008953F924F925F92DC
:1038D0006F927F928F929F92AF92BF92CF92DF9220
:1038E000EF92FF920F931F93CF93DF93CDB7DEB785
:1038F00029970FB6F894DEBF0FBECDBF8C017B01B8
:10390000DB0119969C9019971A968C90FC01828184
:103910008111F2C16801FFE6CF0ED11CD6018C9156
:10392000882311F081508C935801B7E7AB0EB11C7E
:10393000F5018081882311F081508083D6018C911C
:10394000811160C0F801E259FF4F208130E040E072
:1039500050E03197608170E080E090E00E94281C88
:10396000F6016083F801FC9620E080E090819111DF
:103970000BC0D70153969C91913009F4C8C29111A4
:1039800003C0823009F0C3C28F5F3896853071F76B
:103990002223C1F130E040E050E060E070E0CB0174
:1039A0000E94281CFE01E60FF71F81818F3F51F115
:1039B0006801B8E08B9FC00CD11C112491E0F60186
:1039C00094AFEF5BFF4F98E79083D601DF961C9290
:1039D000F601E05CFF4F1082F60115AEF801EE58DB
:1039E000FF4F208130E040E050E03197608170E08F
:1039F00080E090E00E94281CF601EE5BFF4F6083A0
:103A000031966083D5018C91811135C0C8014196F2
:103A10000E94641AF80192899F3F69F18F3F59F51E
:103A2000953019F48789823031F5C92ED12CF801EF
:103A3000B8E09B9FE00DF11D112484AD81111BC0E6
:103A4000F801EA58FF4F208130E040E050E0319724
:103A5000608170E080E090E00E94281CD5016C93AA
:103A600087E08C9DF0018D9DF00D1124E00FF11F7A
:103A7000158E8CE3838FF801E458FF4F80818823F3
:103A800009F43AC1F7018489811136C1878180FD2B
:103A900033C195FE12C0D8015196EC91EE2369F026
:103AA000B4E0EB9FF0011124E75DFC4EE491E1509E
:103AB000E73018F482E0F801878B96FE06C0D80143
:103AC00051968C91823708F42BC2F801B1ACA2A8B0
:103AD00073A464A0558C6801F1E1CF0ED11CC6011E
:103AE0000E94641AD80152969C91981301C08FEFDE
:103AF000F801828B848981115CC097898189923019
:103B000019F0933019F014C081500FC021E0280F34
:103B1000B4E02B9FF0011124E75DFC4EE491E73007
:103B200019F0F801218B04C08A50D80151968C936A
:103B3000D8015196EC91B4E0EB9FF0011124E75DC0
:103B4000FC4EE4918FEF8E0F873008F043C0D80110
:103B500058969C93589784E057968C93F0E0329750
:103B6000E230F105D1F02CF4309749F0319789F02B
:103B700031C0E330F105A9F03497B9F02BC0B2E0C1
:103B80005B1228C085E2F801848B84E6858B85E092
:103B900020C0F2E06F16B1F31DC022E0721691F35F
:103BA00019C032E0A31671F315C062E0B61651F3E6
:103BB00011C08150848B9589923010F09150958B73
:103BC000811108C087E0F801848B8689882311F071
:103BD0008150868BC6010E94641A8F3F59F0F8010C
:103BE000E658FF4F9081891729F0808388E19CE097
:103BF0000E940B1CD8015196EC91B4E0EB9FF001B0
:103C00001124E75DFC4EE491E830F9F4F801838972
:103C10008823D9F0F801EC59FF4F8081833708F0F1
:103C200083C1D70150968D919C91519701965196E1
:103C30009C938E935097F801138A81E0E558FF4FCB
:103C400080838AE09CE00E940B1CD80151968C91E5
:103C5000811106C0F801E558FF4F8081811167C1CD
:103C60006801B7E6CB0ED11CF60180818823D1F024
:103C7000815080839EE63397908381113DC03796B3
:103C800010823197208130E040E050E03197608130
:103C900070E080E090E00E94281CF801E459FF4F9A
:103CA00060832AC0F801E559FF4F8081D801A459EB
:103CB000BF4F9C91891700F521E0280F2083392FF1
:103CC0003695231710F4815903C08EE6890F821BA5
:103CD000F801EC59FF4F808329130EC032962081E2
:103CE00030E040E050E03197608170E080E090E0AB
:103CF0000E94281CD6016C93F701878190858F70F4
:103D00009927892B41F1B701C8010E94BD16F8011E
:103D1000EE5BFF4F9801235E3F4F39872887A8014C
:103D2000455E5F4F21503109B801635C7F4F7F834F
:103D30006E83C801805C9F4F58017AE6A70EB11CC4
:103D400069E0662E7724739472E0572EA1E24A2E22
:103D5000B4E63B2E4EC098012C593F4FF801FF9618
:103D6000CF0103972817390771F281E090819130D4
:103D700009F480E080833896F3CFD180D082DC01D3
:103D8000DC90D394DC92B5E0DB1209C06F0166E0F1
:103D9000C61AD108D6011C92AE81BF811C92AE8199
:103DA000BF81DC90DD2029F0A885B9855C92DA011D
:103DB0004C92D901DC90DD2091F1DA94DC92DA01A9
:103DC000DC90DD2079F1DA94DC923896688579858B
:103DD000695F7F4F79876887495F5F4F295F3F4FF2
:103DE000AE81BF811896BF83AE830896EA15FB05A6
:103DF000E9F0D080DD2009F2AAE0DA120AC0DC0185
:103E0000DC90B4E0DB1203C0AE81BF817C926082A3
:103E1000C6CFAE81BF811C92DA94D082C0CFD901C7
:103E20003C92CDCFA885B9857C92CFCFF80185890A
:103E3000823028F08091DB01882309F482C0D80108
:103E400055969C91F801E458FF4F6F01913081F431
:103E50008081882369F01082D70152968C91529705
:103E6000815052968C93811103C0D70154969C9334
:103E7000F6018081D70154962C91811119C021112E
:103E800017C0882D80958921887209F45FC080E071
:103E90009CE00E940B1C81E0F6018083D8015596BE
:103EA0001C92559754961C92549751961C924EC052
:103EB000F70182858095918589232223E9F083FF8C
:103EC00045C065E0C70129960FB6F894DEBF0FBE66
:103ED000CDBFDF91CF911F910F91FF90EF90DF90B9
:103EE000CF90BF90AF909F908F907F906F905F909A
:103EF0004F903F900C94652B82FF28C0D8011296FA
:103F00009C91129781E0892712968C931FC0A1E0A3
:103F1000B0E0AC0FBD1FA20FB11D8C932F5F34CD4D
:103F200083E0F801878BD1CD80E09CE08CCE81E0EE
:103F3000D80153968C93108286EF9BE00E940B1C55
:103F40008FCE80E69BE00E940B1C79CF29960FB69E
:103F5000F894DEBF0FBECDBFDF91CF911F910F91BF
:103F6000FF90EF90DF90CF90BF90AF909F908F9099
:103F70007F906F905F904F903F900895FF920F93C6
:103F80001F93CF93DF93EC01FB01148AFC01E458EB
:103F9000FF4F108287E49BE0DE015F969E01255E65
:103FA0003F4FAE014E5B5F4F1CE301E2FC016491A9
:103FB000FD0136976083FC013196F490BD01655098
:103FC0007109FB01F082FC013296E491EC93FC0153
:103FD0003396F4906D5F7F4FFB01F082F1E0FF16A6
:103FE00059F0FF1630F062E0F61208C0F9010083C4
:103FF00005C0F901108302C0F9011082FC0134965A
:10400000F490BD0163507109FB01F082059617968B
:10401000295F3F4FA417B50709F0C8CF80EAFE011A
:10402000EB58FF4F808388EC319680830E94922F5B
:1040300028E230E040E050E00E94EE2FDC01CB01AE
:1040400080569F4FAF4FBF4FFE01E958FF4F80830F
:1040500088E73A97808384EB3196808384E13396B6
:10406000808388E231968083F49780E08083DF014B
:1040700012971C928F5F38968530C1F724EB30E0A1
:1040800040E050E068E770E080E090E00E94281C8B
:10409000FE01E159FF4F60831D8A1C8A198A81E065
:1040A0008B8B3A9784E6808331969CE89083339695
:1040B0009CE390833196808336978EE680830E94BE
:1040C000922F8E0109591F4F28E230E040E050E066
:1040D0000E94EE2FDC01CB018C599F4FAF4FBF4F99
:1040E000F8018083CE010E94C7171A828EE395E201
:1040F0009093E2018093E101DF91CF911F910F91A5
:10410000FF900895CF93DF93EC0146E050E06DEA15
:1041100070E00E94A02F46E050E063EB70E0CE011B
:1041200006960E94A02F46E050E069EB70E0CE01B9
:104130000C96DF91CF910C94A02F4091DE0150910D
:10414000DF012091DC013091DD0142175307B4F407
:104150009091E8009570E1F39091E80092FD19C00C
:104160008093F1008091DE019091DF0101968F73C1
:104170009927892B19F48EEF8093E8008091DE0156
:104180009091DF0101969093DF018093DE0181E041
:10419000089580E00895DF92EF92FF920F931F93AE
:1041A000CF93DF93D82E8A017B01E40EF51EEB013D
:1041B000CE15DF0571F0D7FE03C0FE01849101C06A
:1041C00088810E949D2021968111F2CF8FEF9FEF71
:1041D00001C0C801DF91CF911F910F91FF90EF9027
:1041E000DF900895615030F02091F100FC012083B0
:1041F0000196F8CF289884E68093E8010895CF923D
:10420000DF92EF92FF920F931F93CF93DF936C0196
:104210007A018B01C0E0D0E0CE15DF0589F0D8012E
:104220006D918D01D601ED91FC910190F081E02D11
:10423000C6010995892B11F47E0102C02196ECCFAD
:10424000C701DF91CF911F910F91FF90EF90DF9009
:10425000CF900895CF93DF931F92CDB7DEB76983D8
:10426000DC01ED91FC910280F381E02D41E050E012
:10427000BE016F5F7F4F09950F90DF91CF91089539
:1042800083E08093E9008091F200882319F08AE3AB
:104290008093E8000895FC018485958597FD0BC007
:1042A0009FB7F89482E08093E9008091F2009FBF6D
:1042B00090E0019608959FB7F89482E08093E9001A
:1042C0008091F2009FBF90E008950F931F93CF93CA
:1042D000DF931F92CDB7DEB782E0898342E450E0DE
:1042E00062E27CE080E80E94CB200E94D82BDC01B7
:1042F00012960D911C9113970115110569F0D801C3
:10430000ED91FC910280F381E02DBE016F5F7F4F44
:10431000C801099597FF07C089810F90DF91CF9160
:104320001F910F910895F80100851185E5CF0E9436
:10433000C72B90E008950F931F93CF93DF931F92A5
:10434000CDB7DEB78C01FC018485958597FF0EC043
:10435000CE0101960E949D2B019719F4298130E02E
:1043600002C02FEF3FEFF80135872487F8018485DD
:1043700095850F90DF91CF911F910F910895CF9365
:10438000DF931F92CDB7DEB7FC018485958597FD3D
:1043900005C02FEF3FEF358724870BC0CE01019674
:1043A0000E949D2B019719F4898190E002C08FEF44
:1043B0009FEF0F90DF91CF9108951F920F920FB64C
:1043C0000F9211248F939F938091E1009091E100CF
:1043D000937F9093E10083FF0FC01092E90091E07A
:1043E0009093EB001092EC0092E39093ED0010920A
:1043F000E90198E09093F00082FF20C093E0909351
:10440000E9009091F200992319F09AE39093E80063
:104410009091E001992339F09091E00191509093AF
:10442000E001992389F19091E801992339F0909165
:10443000E80191509093E801992341F184FF10C065
:104440008091E2008E7E81608093E2008091E100A5
:104450008F7E8093E1008091D4018E7E806111C0B7
:1044600080FF16C08091E2008E7E80618093E20022
:104470008091E1008E7E8093E1008091D4018E7E58
:1044800081608093D40104C05D9ACDCF289AD6CFA5
:104490009F918F910F900FBE0F901F9018951F92B4
:1044A0000F920FB60F921124CF92DF92EF92FF92EC
:1044B0000F931F932F933F934F935F936F937F932C
:1044C0008F939F93AF93BF93EF93FF93CF93DF931C
:1044D000CDB7DEB76C97DEBFCDBF1092E9008091FB
:1044E000E80083FFEDC168E0CE0145960E94F2200E
:1044F00082EF8093E8008D8987FF05C09091E800E6
:1045000090FFFCCF03C09EEF9093E800982F907629
:1045100009F0C6C09E892F89188D91110CC0803872
:1045200029F48091D5018093F10002C01092F1002E
:104530001092F10048C1422F50E0512B913051F4BC
:10454000811141C14130510509F03DC18091D50132
:104550008D7F0BC0933061F4811135C1413051051D
:1045600009F031C18091D50182608093D5012BC1C2
:10457000953041F48091E80080FFFCCF20682093C3
:10458000E30021C1963009F05FC0EB8CFC8C1092E7
:10459000E9001092DF011092DE01123091F51092C5
:1045A000DD011092DC010E94652199E0BE016F5F80
:1045B0007F4FDB01E92F1D92EA95E9F799831A8372
:1045C00091E09E8390EA98879AEF99872091DE0187
:1045D0003091DF01275F3F4F3C832B838D83109207
:1045E000E9001092DF011092DE01F092DD01E0920D
:1045F000DC0149E050E080E00E94CB200E94652170
:10460000E2C0F092DD01E092DC010E94D82BDC01D7
:104610001296ED90FC901397E114F10409F4C0C0D8
:10462000D701ED91FC910480F581E02DBE016B5E18
:104630007F4FC7010995009719F00CF0C4C0C7C09F
:10464000F701E084F184E8CF973009F4C0C09830D6
:1046500021F481E08093F100B6C0993009F0B3C035
:10466000837009F0B4C0E7E1F1E081E021E036E3D6
:104670009081992361F08093E9002093EB00919160
:104680009093EC003093ED008F5F873089F78EE7D1
:104690008093EA001092EA008F898093E90193C029
:1046A0008B8D9C8D1092E9001092DF011092DE013B
:1046B0009093DD018093DC01898D811156C08E8934
:1046C0009D89913A59F4813209F081C047E050E068
:1046D00064E071E080E00E94CB2075C0913209F067
:1046E00076C0833289F4888D90E0982F88272F89AF
:1046F000822BA0E0B0E08093000190930101A09391
:104700000201B09303015FC0803269F48091E80038
:1047100082FFFCCF67E084E091E00E94F2208BEF03
:104720008093E80006C0823209F04DC08F898093E3
:104730000B018091D301882319F0EEEFFAE002C05B
:10474000E0E0F8E08091040190910501A09106015C
:10475000B0910701803B9440A105B10509F07BC0F1
:1047600080910B0180FF93C076C00E94D82BDC01A2
:1047700012960D911C9113970115110541F1D80165
:10478000ED91FC910190F081E02DBE016B5E7F4FB9
:10479000C8010995811117C0F80100851185ECCF7A
:1047A000113009F44EC0133091F48F89882309F435
:1047B00045C0823081F440E860E186E89CE00E94D8
:1047C000582E882321F08EEF8093E80079C081E293
:1047D0008093EB0075C0813029F440E86BE08AE7F4
:1047E0009CE0EDCF833099F70E94D82BDC01129624
:1047F000ED90FC9013978E010F5F1F4F6801E1143D
:10480000F10479F0D701ED91FC910680F781E02D5C
:10481000B801C7010995080F111DF701E084F18463
:10482000EECFD8011C92F60101900020E9F73197F4
:10483000BF016C197D0940E0C601C1CF64E67CE090
:1048400002C068E67CE06115710509F2FB01449144
:1048500050E080E840CF0FB6F894A89580916000B2
:10486000886180936000109260000FBEA895EE3FB3
:104870002AE0F20739F08091FE0A9091FF0A9183B5
:104880008083A1CF1092FF0A1092FE0A9CCFEE3FC8
:104890008AE0F80731F0808191819093FF0A80933C
:1048A000FE0A87E797E7918380839BE088E10FB654
:1048B000F894A895809360000FBE9093600083CF1A
:1048C0006C960FB6F894DEBF0FBECDBFDF91CF91CF
:1048D000FF91EF91BF91AF919F918F917F916F91D8
:1048E0005F914F913F912F911F910F91FF90EF900A
:1048F000DF90CF900F900FBE0F901F9018958F9262
:104900009F92AF92BF92CF92DF92EF92FF926B0194
:104910007C010E94CA254B015C01C114D104E10451
:10492000F104F1F00E94CA25DC01CB018819990934
:10493000AA09BB09883E9340A105B10570F321E0A7
:10494000C21AD108E108F10888EE880E83E0981EAB
:10495000A11CB11CC114D104E104F10419F7DDCF8D
:10496000FF90EF90DF90CF90BF90AF909F908F908F
:1049700008958F929F92AF92BF92CF92DF92EF9263
:10498000FF920F931F93CF93DF935C016B017A012A
:1049900080910B01882309F45BC08091E901882391
:1049A00009F456C08091D40180FF05C08091E000D9
:1049B00082608093E000E70110E00AEF83E0882E38
:1049C0009AE3992E2097D9F10E94C72B81110AC032
:1049D000015009F43DC061E070E080E090E00E9489
:1049E0007F24F0CF282F30E0C217D3070CF48C2F90
:1049F0004FB7F8948092E9009091E80095FF1DC0B0
:104A0000282F30E0C21BD30BF601982F915020F0D5
:104A100081918093F100FACFC20ED31E112319F0B9
:104A20009092E80009C08091E80085FD06C0909250
:104A3000E80011E0209709F010E04FBFC3CF11113B
:104A4000C3CF5D9884E68093E0011E141F0444F0F8
:104A500081E090E0F5019383828380E090E001C0E3
:104A6000C701DF91CF911F910F91FF90EF90DF90E1
:104A7000CF90BF90AF909F908F9008958091D60176
:104A800008950895089580E090E008950895EF92C4
:104A9000FF920F931F93CF93FC01DB0119968C912A
:104AA00019971A96CC91C095C82384FF14C08189A8
:104AB000803118F48F5F818B0FC0F89487E7809363
:104AC000000880930108A89588E18093600088E041
:104AD00080936000FFCF118A8B017F018C2F8C7037
:104AE00059F0C3FB882780F991E08927FB01838B6C
:104AF00064E0C8010E94652BC7FD02C0C07721F0A9
:104B000065E0C8010E94652BB801C7010E94BD166F
:104B1000D70152969C915297983C18F49F5F5296F9
:104B20009C93CF911F910F91FF90EF900895FC01FE
:104B3000DB011A968C911A97809519969C9119977A
:104B4000892351F08281882311F08CE7828382814E
:104B5000811102C081E082839281992341F09F5F9D
:104B600092839D3721F462E0CD010C94652B08956A
:104B7000FB0123E0228B118A108A148A2EE335E28E
:104B80003093E2012093E1010E94C71784E79DE082
:104B90000C940B1C3FB7F8948091E4019091E501CF
:104BA000A091E601B091E70126B5A89B05C02F3F73
:104BB00019F00196A11DB11D3FBFBA2FA92F982F43
:104BC0008827820F911DA11DB11DBC01CD0142E0BE
:104BD000660F771F881F991F4A95D1F708951F9276
:104BE0000F920FB60F9211242F933F938F939F93A1
:104BF000AF93BF938091D7019091D801A091D90133
:104C0000B091DA013091E30123E0230F2D3720F436
:104C10000196A11DB11D05C026E8230F0296A11D16
:104C2000B11D2093E3018093D7019093D801A09305
:104C3000D901B093DA018091E4019091E501A0914E
:104C4000E601B091E7010196A11DB11D8093E40139
:104C50009093E501A093E601B093E701BF91AF9176
:104C60009F918F913F912F910F900FBE0F901F90AA
:104C700018956F927F928F929F92AF92BF92CF9230
:104C8000DF92EF92FF920F931F93CF93DF9300D0A9
:104C900000D0CDB7DEB73A014115510509F401C284
:104CA000FA01F49031965491F2E06F0E711CAF2C22
:104CB000B12C211102C0EE2069F1A52FA695A69571
:104CC000A695B0E0E1E0F0E0352F377011F4E0E0B8
:104CD000F0E0AE0FBF1FAA9EF001AB9EF00DBA9E92
:104CE000F00D1124A3E08A2EC81003C0EE0FFF1FA1
:104CF0000AC00115110539F0EE9ED001EF9EB00DEE
:104D000011240A0F1B1F2E9FD0012F9FB00D1124BD
:104D10006A0E7B1E2FEFC21208C00115110519F093
:104D2000CC24C39402C032E0C32EDC01AA0DBB1D0B
:104D30001A161B060CF0B5C1803891050CF0B1C1F4
:104D40009B01250F311D121613060CF0AAC1603409
:104D500071050CF0A6C16114710409F4A2C1362FCB
:104D60003770932EFB0177FD379623E0F595E79595
:104D70002A95E1F72E2F77FF04C0992011F02FEF2D
:104D80002E0F97FF05C0EE27FF27E81BF90B02C087
:104D9000E0E0F0E0A038B1051CF030E8381B01C0BD
:104DA0003F2D3E1B622F022E000C770B2F3F1CF471
:104DB000462F409501C040E0B1E0A52FA77009F44F
:104DC000B0E0569556955695DB2ED50E6D0D711D9E
:104DD000693071051CF058E0D52ED21AD41A240F70
:104DE000DC0150E82503A00DB11D1124AE0FBF1F3B
:104DF0004F9DE00DF11D1124A3014E0F5F1F81E0B7
:104E000090E07C01092C02C0EE0CFF1C0A94E2F732
:104E100083E0C81609F404C18C15A8F091E0C91606
:104E200009F4B5C0E2E0CE123CC18FEF8E9DB00117
:104E30008F9D700D1124609570957C836B837C80B1
:104E40006D2C620E2BC0FAEFCF1631F09BEF892E3E
:104E5000C81027C1D20E87C0D20E51C0FA01E00F90
:104E6000F11FE491EE9D6001EF9DD00C1124DA82D8
:104E7000C98227FD07C0FC01D080ED2DE623CE2A94
:104E8000FC01C082911013C00F5F1F4F01960317E2
:104E900028F32F5F4A0D5B1DA058BF4F261509F45C
:104EA00000C1CD0186519E4F00E010E0F0CF2730C9
:104EB0005CF7FC01E058FF4FC080C7208A80C828FB
:104EC000C082E2CFFA01E60FF71FE491EE9D800168
:104ED000EF9D100D11241A83098327FD04C0FC01E6
:104EE0001081012B0083911013C06F5F7F4F0196DB
:104EF000631740F32F5F4A0D5B1DA058BF4F2D1560
:104F000009F4CFC0CD0186519E4F60E070E0F0CF34
:104F100027305CF78C0100581F4FF801C080FA81E0
:104F2000CF2AF801C082E1CFFA01E00FF11FE4912E
:104F3000EE9DC001EF9D900D11249A83898327FD7A
:104F400005C08095FB01908189238083911014C056
:104F50000F5F1F4F6F5F7F4F031730F32F5F4A0DB7
:104F60005B1DA058BF4F2D1509F49BC0BD016651B4
:104F70007E4F00E010E0F0CF273054F7FB01E058FF
:104F8000FF4F8A818095908189238083E1CF0E0F26
:104F90001F1F8D2C820E281509F483C0CD01865168
:104FA0009E4F6C0160E070E0631790F5F801E60F2A
:104FB000F71FE491EE9DC001EF9D900D11248095A7
:104FC00090959C838B83FA01E60FF71FE491EE9D89
:104FD0003001EF9D700C11247A82698227FD05C093
:104FE000F60190818923682A6082992059F0273040
:104FF0004CF4F601E058FF4F90818C8189239A810F
:10500000892B80836F5F7F4FFFEFCF1ADF0ACCCFF2
:105010002F5F4A0D5B1D0A0D1B1DA058BF4FBBCF54
:10502000832F90E0E40FF51FA651BE4F60E870E0BB
:10503000681B790BA81AB90A8501000F111F5D2D95
:10504000832ECF93DF93ED01EF96EF962296A590F6
:10505000C590992059F0AE9C5001CE9C600127303C
:105060002CF4F880D094FD20FB28F99222233AF00A
:10507000FC90C094FC20FA28FD920C9440281196D4
:105080003A9529F75A9551F0382D23951124E00FC0
:10509000F11DA60FB11DC60FD11DD9CFDF91CF9144
:1050A00011240F900F900F900F90DF91CF911F91CF
:1050B0000F91FF90EF90DF90CF90BF90AF909F90B7
:1050C0008F907F906F900895CF92EF920F931F93E0
:1050D00032E0C32EE12C00E010E00E9439261F913F
:1050E0000F91EF90CF900895CF93DF93EC0120E0E4
:1050F0004EE45DE061E170E08FE290E00E946428A0
:1051000020E040E35DE06AE170E08BE290E00E9425
:10511000642820E040E35DE06AE170E089E490E02B
:105120000E9464288A8120E0811112C040E35DE082
:105130006AE170E08AE390E00E94642820E040EE9B
:105140005CE06EE270E08AE190E00E94642833C087
:1051500042EC5CE06AE170E08AE390E00E9464283F
:1051600020E04FE95CE06EE270E08CE290E00E94AB
:1051700064288A816FE00E945130837040E050E1E2
:1051800061E370E0C7E9DCE04817A9F0942F990FBC
:10519000915B9B01FE01529FD001A0781124A90FC1
:1051A0002770E20FF11D9491A651BE4F2C91922BC6
:1051B0009C934F5FE9CFEAEEF1E081E0A0E0B8E038
:1051C00000800EBC8111012C1197A0FDFDCF019232
:1051D000B9F70DB4DF91CF910895CF92EF920F936D
:1051E0001F93F901202FCC24C3948F010E943926EC
:1051F0001F910F91EF90CF900895EF920F93CF935F
:10520000DF93EC010E947D18CE010E946E16E12C06
:1052100000E020EA3FE040ED50E169E070E08BE122
:1052200090E00E94ED288A89883C51F42AE63EE00D
:1052300044E05FE069E270E08AE190E00E94ED28DE
:10524000DF91CF910F91EF900C94392BBC0180E04E
:1052500090E00C947F248FB18095807F669B88605E
:105260001C9B84600895EF92FF921F93CF93DF936E
:1052700000D000D000D0CDB7DEB764E58BEA90E077
:105280000E94CE2F62E48CEA90E00E94CE2F8DEA3D
:10529000E82EF12C11E41A8219821B831C831D83D2
:1052A0001E8246E050E0B701CE0101960E94BE2F5B
:1052B0001F5F86E0E80EF11C8FEBE816F10459F74A
:1052C00026960FB6F894DEBF0FBECDBFDF91CF910B
:1052D0001F91FF90EF9008954F925F926F927F928F
:1052E0008F929F92AF92BF92CF92DF92EF92FF92F6
:1052F0000F931F93CF93DF9300D000D0CDB7DEB7CD
:105300005C014B010E947D18650130E4C30ED11C85
:1053100010E035E0F32EF60132973081319620818E
:10532000D6018C9133979081992311F1133010F0AD
:1053300090E001C092E0E92EE20E133010F000E0A0
:1053400001C002E090E0020FFC01E35EFE4F6081CD
:1053500070E0F39E800D911D1124FC01EE5DFE4F67
:10536000808126EE3BE24EE05CE290E00E94ED2878
:105370001F5FB8E0CB0ED11C153069F66501E9E17D
:10538000CE0ED11C3501FFE16F0E711C25013CE3EF
:10539000430E511CC414D50409F444C0F3013197E1
:1053A00090813197D3018C91D6011C91911118C035
:1053B0009081833011F020E001C023E0E22EE90E5D
:1053C000833011F000E001C003E0090FC6010E9424
:1053D0003D1A682F70E028EA38E246E45AE217C026
:1053E0009081833011F020E001C023E0E22EE90E2D
:1053F000833011F000E001C003E0090FC6010E94F4
:105400003D1A682F70E02EE835E24AE157E2812F1D
:1054100090E00E94ED28B7E0CB0ED11CE7E06E0EC5
:10542000711CB8CFF501E558FF4F8081882361F0EA
:10543000E12C00E028E635E24AE755E263E070E05F
:1054400081E090E00E94ED28E12C00E02CE232E1C6
:105450004EE552E161E070E084E390E00E94ED28C7
:1054600019821A821B821C82D40150968C9150970B
:1054700051969C91FE0131960AE010E024E02E0F37
:10548000B8010E945D308193CB012E13F9CF2E011C
:10549000B5E04B0E511C27E3622E712C9AEFC92EFA
:1054A000E12C00E010E0F20122912F0142E052E1F4
:1054B00064E070E0C3010E943926F5E06F0E711CB4
:1054C0003BE46316710451F7F501EC59FF4F8081FD
:1054D00024EF34E24DE255E263E070E090E00E9498
:1054E000ED28650181E1C80ED11CC6010E94641A35
:1054F000182F8F3F19F0682E712C02C0612C712C6F
:10550000C6010E94751AE82EC6010E94751A082F5E
:105510001F3F61F087E0869DF001879DF00D11240B
:10552000EA0DFB1D91E0848D823308F090E0D501F7
:1055300054962C91549751968C91211109C0B4E046
:105540008B9FF0011124E95DFC4EA491A91B0FC0B3
:1055500034E0839FF0011124E95DFC4EA49194E0B6
:10556000299FF0011124ED56FD4E9491A90FAE5FD5
:105570006A2FAA0F770BA4E08A9FF0011124EA5D3D
:10558000FC4E8491222371F0B4E02B9FF001112492
:10559000EE56FD4EE491D50158969C91923009F457
:1055A000E1958E0F2AEC39E14EE55FE1082E000C03
:1055B000990B0E94ED28C5010E946E16F501E45872
:1055C000FF4F9081F401848991111FC081111DC08A
:1055D000E12C00E028E138E140EF58E164E170E0BF
:1055E0008BE190E00E94ED28D40152962C9121503D
:1055F0008AEFC82E00E010E040EE57E167E170E06E
:105600008FE490E00E9439261EC0882361F0E12CCF
:1056100000E02CE136E14DEF56E164E170E089E114
:1056200090E00E94ED28F5018281882361F0E12C51
:1056300000E02EEE34E144E855E164E170E087E2F9
:1056400090E00E94ED280F900F900F900F90DF9147
:10565000CF911F910F91FF90EF90DF90CF90BF906F
:10566000AF909F908F907F906F905F904F900C9431
:10567000392B8091EA018EBD8FEF8093EA01EBEE2A
:10568000F1E082E090E05FEF63E040819F012A5EFD
:10569000314037FD0BC0211572E037072CF0203860
:1056A000324024F4608303C0508301C010820DB4E3
:1056B00007FEFDCF4EBD31960196813024E0920762
:1056C00021F70DB407FEFDCF08950F931F93CF93DD
:1056D000DF931F92CDB7DEB78C0183E884BD8FEFD7
:1056E00087BD81EF809380001092880010928A001D
:1056F00069830E94F31A6981F801668B178A0F90FB
:10570000DF91CF911F910F910895BC01009791F007
:10571000FC0101900020E9F73197AF01481B590BBC
:10572000E091EA05F091EB050280F381E02D8AEE2D
:1057300095E0099480E090E00895FC018091E901F2
:10574000811103C08FEF9FEF08959FB7F89482E017
:105750008093E9002091F20030E01216130614F451
:1057600021E030E02115310559F0289884E6809336
:10577000E8018091F10080838091F200882319F084
:105780009FBFC90108958BE68093E800F9CF2FB73A
:10579000F89483E08093E9009091E800892F80726B
:1057A00095FF04C09091F20080E4891B2FBF0895FB
:1057B0008091100781110DC082E080930C0784E076
:1057C00080930D0710920F0710920E0781E08093CF
:1057D00010078CE097E008958AE396E00C94221C71
:1057E000789484B5826084BD84B5816084BD85B5BC
:1057F000826085BD85B5816085BD80916E008160C8
:1058000080936E001092810080918100826080936D
:10581000810080918100816080938100809180006F
:1058200081608093800080919100826080939100DC
:1058300080919100816080939100809190008160BF
:10584000809390008091C10084608093C10080911A
:10585000C10082608093C1008091C100816080930B
:10586000C1008091C30081608093C3008091C0001B
:1058700082608093C0008091C20081608093C200EA
:1058800080917A00846080937A0080917A008260AF
:1058900080937A0080917A00816080937A00809171
:1058A0007A00806880937A001092E9011092D50105
:1058B0001092D4018091D70081608093D70080EA54
:1058C0008093D80089B5806189BD89B5826089BD22
:1058D00009B400FEFDCF61E070E080E090E00E943E
:1058E0007F248091D8008F7C80618093D800809144
:1058F000E000807F8093E0008091E1008E7E8093C5
:10590000E1008DE08093E200559A209AEEEFFFE7E8
:10591000859194918B3F9C4D19F481E08093D30144
:1059200081EC80937C0085B1806F85B984B1877EDE
:1059300084B984B1876E84B95E9A5F988AB1806DAC
:105940008AB9769A6E9881B3806F81BB899880B34B
:105950008D7080BB80E58CBD81E08DBD85E090E0E1
:105960000E9426295F9A85E090E00E9426295E9891
:105970005C98EAE3FBE08DE08E0F94919EBD000001
:105980000DB407FEFDCF31968E13F7CF5C9A81E8F8
:1059900080936400809165008160809365000E941F
:1059A0002B2987FF24C05C9885EA8EBD00000DB4CA
:1059B00007FEFDCF5C9A2E982F982D988091640059
:1059C00080628093640081E083BF889513BEFCCF22
:1059D0002D980E942B298478843871F00E942B29FD
:1059E0008471843129F188EC90E00E9426290E947C
:1059F0002B2982FDEDCF38C02D9A88EC90E00E94D3
:105A000026292F9882E090E00E94B02F8F3F29F046
:105A10006FEF82E090E00E94E02F84EF91E00E941F
:105A200026292F9A0E942B2984788438D9F3D6CF3F
:105A30002D9A88EC90E00E9426292E9882E090E032
:105A40000E94B02F882329F060E082E090E00E945D
:105A5000E02F84EF91E00E9426292E9A0E942B29A4
:105A600084718431D9F3BFCF2D9A82E090E00E94F7
:105A7000B02F882331F03E9A3F9A81E08093D6017F
:105A800004C01092D6013E983F98809164008E7FAA
:105A90008093640080917A00806480937A00809182
:105AA0007A0086FDFCCFC0917800D09179000E94E9
:105AB000CA258E0120E030E0980111270027600FF1
:105AC000711F821F931F611571058105910511F0EA
:105AD0000E94972F809164008160809364008DE024
