:100000000C9408160C9430160C9430160C94301680
:100010000C9430160C9430160C9430160C94301648
:100020000C9430160C9430160C94D8280C944A2951
:100030000C9430160C9430160C9430160C94301628
:100040000C9430160C9430160C9430160C94301618
:100050000C9430160C9430160C9430160C942E22FE
:100060000C9430160C9430160C9430160C943016F8
:100070000C9430160C9430160C9430160C943016E8
:100080000C944E200C9430160C9430160C943016B0
:100090000C9430160C9430160C9430160C943016C8
:1000A0000C9430160C9430160C943016961E961E36
:1000B000961E961E941E941E941E921E921E921EB2
:1000C000921E921E921E901E901E901E8E1E8E1EBE
:1000D0008E1E8E1E8E1E8E1E901E901E901E921EB6
:1000E000921E921E941E941E941E961E961E961E7E
:1000F000B8013200A4013200900132007C013200CC
:100100006801320054013200400132002C013200FB
:100110001801320004013200F0003200DC0032002D
:10012000C8003200B4003200A00032008C0032005F
:1001300078003200640032005000320000000A00F3
:10014000500032000000140050003200000028006F
:100150005000320000003C005000320000005A0005
:1001600000008200500032000000B4005000320055
:100170000000F0000000360150003200000086014F
:10018000500032000080B80132007003320000805D
:10019000B8013200B40032000080DC003200B80147
:1001A00032007003320000801E0032003200320044
:1001B0000080040406090F060A0F0F08090D0F0A34
:1001C000090B0F0F03020F0F070D0D0D0F0A0E0E77
:1001D000010D0F030E0B0B0F07050F0FFCFEFFFFAA
:1001E000FFFFFFFFFFFFFFFFFFFFFFFFFFFFFFFF1F
:1001F000FFFFFFFEFC0001030303030303030303EC
:100200000303030303030303030303030100190AA6
:1002100000FC0202020202020202020202020202C6
:1002200002020202020202FC0000000101010101BF
:1002300001010101010101010101010101010101AE
:100240000000F8FCFEFFFFFFFFFFFFFFFFFFFFFFC7
:10025000FFFFFFFFFFFFFFFFFFFFFFFFFFFFFFFFAE
:10026000FFFFFFFFFFFFFFFFFFFFFFFFFFFFFFFF9E
:10027000FFFEFCF8FFFFFFFFFFFFFFFFFFFFFFFF99
:10028000FFFFFFFFFFFFFFFFFFFFFFFFFFFFFFFF7E
:10029000FFFFFFFFFFFFFFFFFFFFFFFFFFFFFFFF6E
:1002A000FFFFFFFFFFFF070F1F3F3F3F3F3F3F3F66
:1002B0003F3F3F3F3F3F3F3F3F3F3F3F3F3F3F3F4E
:1002C0003F3F3F3F3F3F3F3F3F3F3F3F3F3F3F3F3E
:1002D0003F3F3F3F3F1F0F07321600F804F20A0A64
:1002E0000A0A0A0A4ACACA4ACA8A0A4ACACA0A0A6E
:1002F000CACA0ACACA0A8ACA4ACA8A0A4ACACA4A9E
:10030000CA0A0A0A0A0A0A0AF204F80000FF00FFF1
:1003100000000000000080FFFF880F0380FE27FF21
:10032000F8803FFF80FF3F0043C78EFC780080FFCE
:10033000FF84CE00000000000000FF00FF00000767
:10034000081314141414141414141414141414147A
:10035000141414141414141414141414141414145D
:10036000141414141414141414141414130807007B
:10037000F8FCFEFFFFFFFFFFFFFFFFFFFFFFFFFF98
:10038000FFFFFFFFFFFFFFFFFFFFFFFFFFFFFFFF7D
:10039000FFFFFFFFFFFFFFFFFFFFFFFFFFFFFFFF6D
:1003A000FFFFFFFFFFFFFFFFFFFFFFFFFFFFFFFF5D
:1003B000FFFFFFFFFFFFFFFFFEFCF8FFFFFFFFFF58
:1003C000FFFFFFFFFFFFFFFFFFFFFFFFFFFFFFFF3D
:1003D000FFFFFFFFFFFFFFFFFFFFFFFFFFFFFFFF2D
:1003E000FFFFFFFFFFFFFFFFFFFFFFFFFFFFFFFF1D
:1003F000FFFFFFFFFFFFFFFFFFFFFFFFFFFFFFFF0D
:10040000FFFFFFFFFFFF00010307070707070707BD
:10041000070707070707070707070707070707076C
:10042000070707070707070707070707070707075C
:10043000070707070707070707070707070707074C
:100440000707070707070707070707070707030146
:10045000004B1300F804C2E2F2121252624202028E
:1004600002E2F2F2C2020202F2F2F202C2F2F2F28C
:100470000202F2F2F29292120202C2E2F21252125C
:10048000F2E2C232F2F2820282721202F2F2F292CC
:10049000921202F2F2F21212F2F2E204F80000FFFB
:1004A00000172F5F50515F2F5F0058071414075F2C
:1004B0005E50005F015F5E015F5F5F00005F5F5F36
:1004C0005052500000172F5F5050505F2F170003FD
:1004D0005F5F58070000005F5F5F505250005F5F32
:1004E0005F01015F5E5800FF00000001020202028E
:1004F00002020202020202020202020202020202DC
:1005000002020202020202020202020202020202CB
:1005100002020202020202020202020202020202BB
:1005200002020202020202020202020202020202AB
:1005300002010000090D000404FCFEFE00000000A2
:100540000A0A0B0B0B0A0A00001C82C2E27E3E1C48
:1005500000000B0B0B0B0B0B0B000080863232FEE6
:10056000FECC0000050A0A0A0B0B0500F8FCFEFF92
:10057000FFFFFFFFFFFFFFFFFFFFFFFFFFFFFFFF8B
:10058000FFFFFFFFFFFFFFFFFFFFFFFFFFFFFFFF7B
:10059000FFFFFFFFFFFFFFFFFFFFFFFFFFFFFFFF6B
:1005A000FFFFFFFFFFFFFFFFFFFFFFFFFFFFFFFF5B
:1005B000FFFEFCF8FFFFFFFFFFFFFFFFFFFFFFFF56
:1005C000FFFFFFFFFFFFFFFFFFFFFFFFFFFFFFFF3B
:1005D000FFFFFFFFFFFFFFFFFFFFFFFFFFFFFFFF2B
:1005E000FFFFFFFFFFFFFFFFFFFFFFFFFFFFFFFF1B
:1005F000FFFFFFFFFFFFFFFFFFFFFFFF00010307FC
:10060000070707070707070707070707070707077A
:10061000070707070707070707070707070707076A
:10062000070707070707070707070707070707075A
:10063000070707070707070707070707070707074A
:1006400007030100481300F804020202020202023A
:1006500002020202F2F2F202020202F2F2F20232AA
:10066000F2F2820282721202F2F2F292921202E22A
:10067000F29292122202020202020202020202021A
:10068000020202020202020202020204F80000FF59
:100690000000000000000000000000005F5F5F50ED
:1006A0005050005F5F5F0000035F5F58070000006D
:1006B0005F5F5F5050500C545151535F2E0000004B
:1006C000000000000000000000000000000000002A
:1006D00000000000FF00000001020202020202020C
:1006E00002020202020202020202020202020202EA
:1006F00002020202020202020202020202020202DA
:1007000002020202020202020202020202020202C9
:1007100002020202020202020202020100000000C2
:1007200000000000000000000000000000000000C9
:10073000000000000000C0F0F8FCFCFCFCFCFCFC2D
:10074000FCF8F0C0000000000000061FFFFFFFFFE4
:10075000FFFFFFFFFFFFFFFF1F060000000000007C
:10076000000001070707070707070705000000004B
:100770000000000080FCFEFFFFFFFFFFFFFFFFFF08
:10078000FFFF7C800000000003FFFFFFFFFFFDFD77
:10079000FDFDFDFDFFFFFFFF7F03000000000003E4
:1007A000FFFFFFFFFFFFFFFFFFFFFFFF0300000052
:1007B00000000000000001070707070707070705FB
:1007C00000000000000000000000C0E0C0000000C9
:1007D0000000000000000000000000000000073FD3
:1007E000FFFFFDFEFEFEFCFCFCFCF8F87C7E3F0EED
:1007F000E0F0F0E0FEFFFFFFFFFFFFFFFFFFFFFF66
:10080000C380000000000103010001010101010398
:100810000303070F0F070300000000000000C0E003
:10082000FCFEFEFEFEFEFEFEFEFEFCFCF8F00000FE
:100830000000073FFFFFFDFEFFFFFDFFFFFFFBFF87
:100840007F7F3F0EE0F0F0E0FEFFFFFFFFFFFFFFC6
:10085000FFFFFFFFC3800000000001030100010152
:10086000010101030303070F0F070300000000004D
:100870000000C0E0C0000000000000000000000018
:10088000000000000000073FFFFFFFFEFEFEFCFC33
:10089000FCFCF8F87C7E3F0EC0E0E0E0FEFFFFFFCE
:1008A000FFFFFFFFFFFFFFFF8300000000000103C9
:1008B000070301010101010303070F0F0F070300E5
:1008C000000000000000C0E0FCFEFEFCFCFCFEFEA0
:1008D000FEFEFCFCF8F000000000073FFFFFFFFFFA
:1008E000FFFFFFFFFFFFFFFF7F7F3F0EC0E0E0E065
:1008F000FEFFFFFFFFFFFFFFFFFFFFFF8300000082
:1009000000000103070301010101010303070F0FA9
:100910000F070300000000000000000000000000BE
:1009200000000000C0E0C0000000000E3F7E7CF828
:10093000F8FCFCFCFCFEFEFEFDFFFF3F0700000094
:1009400000000080C3FFFFFFFFFFFFFFFFFFFFFF6F
:10095000FEE0F0F0E000000003070F0F07030303C1
:100960000101010101000103010000F0F8FCFCFE9F
:10097000FEFEFEFEFEFEFEFEFCE0C0000000000EDD
:100980003F7F7FFFFBFFFFFFFDFFFFFEFDFFFF3F00
:100990000700000000000080C3FFFFFFFFFFFFFF14
:1009A000FFFFFFFFFEE0F0F0E000000003070F0F85
:1009B000070303030101010101000103010000001D
:1009C000000000000000000000000000C0E0C000C7
:1009D0000000000E3F7E7CF8F8FCFCFCFCFEFEFEF6
:1009E000FFFFFF3F070000000000000083FFFFFF44
:1009F000FFFFFFFFFFFFFFFFFEE0E0E0C0000000A1
:100A000003070F0F0F070303010101010103070390
:100A1000010000F0F8FCFCFEFEFEFEFCFCFCFEFE0D
:100A2000FCE0C0000000000E3F7F7FFFFFFFFFFFE4
:100A3000FFFFFFFFFFFFFF3F070000000000000077
:100A400083FFFFFFFFFFFFFFFFFFFFFFFEE0E0E090
:100A5000C000000003070F0F0F070303010101018E
:100A600001030703010040E0F0F8F0E0D0B8FCB863
:100A7000D2C7CFE7F2F8F0E0400000000F1FFFFF01
:100A8000FFFFFFFFFFFFFFFFFFFFFFFF8F000000E3
:100A9000000000008FFFFFFFFFFFFFFFFFFFFFFFD2
:100AA000FFFF98000000000001030707070703018C
:100AB00000000103070703010000E0F0F8F0E04048
:100AC000889CBE9CCCCEDFCEE4F0F8F0E040000184
:100AD0000F1FFFFFFFFFFFFFFFFFFFFFFFFFFFFFF6
:100AE0008F010000000000008FFFFFFFFFFFFFFFEE
:100AF000FFFFFFFFFFFF9800000000000103070752
:100B000007070301000001030707030100000000BD
:100B100040E0F0F8F2E7CFC7D2B8FCB8D0E0F0F888
:100B2000F0E0400000008FFFFFFFFFFFFFFFFFFF2F
:100B3000FFFFFFFFFF1F0F00000098FFFFFFFFFFF9
:100B4000FFFFFFFFFFFFFFFF8F000000000000011D
:100B5000030707030100000103070707070301005C
:100B600000000040E0F0F8F0E4CEDFCECC9CBE9C6C
:100B70008840E0F0F8F0E00000018FFFFFFFFFFF8A
:100B8000FFFFFFFFFFFFFFFFFF1F0F01000098FFA8
:100B9000FFFFFFFFFFFFFFFFFFFFFFFF8F000000D2
:100BA0000000000103070703010000010307070716
:100BB000070301000000000000000000000000002A
:100BC000000000000000000000000000E0FCFEFF4C
:100BD000FFFFFFFFFFFFFFFEFCE0E0F0F07870009A
:100BE00080C1FFFFFFFFFFFFFFFFFFFFFFFFF1F1EE
:100BF000F161000000010307070703010100000085
:100C000000000103010000000000000000000000DF
:100C1000C0E0F0F0F0F0F0F0F0F0F0F0C000000014
:100C2000E0FCFEFFFFFFFFFFFFFFFFFFFFDFDFFF37
:100C3000FF7F783080C1FFFFFFFFFFFFFFFFFFFF57
:100C4000FFFFF1F1F1610000000103070707030155
:100C5000010000000000010301000000000000008E
:100C60000000000000000000000000000000000084
:100C70000000000000000000000000000000000074
:100C800000000000000000000000000000F0F8FC80
:100C9000FEFEFEFEFEFCF8F000000000000000007A
:100CA00000000707070707070707070707000000F7
:100CB0000000151C00000000000000000000000003
:100CC000000000000000000000000000C030080428
:100CD000F41454145414F40830C000000000000050
:100CE0000619E600006FD6EEFEEEF67F00E6190666
:100CF0000000000000000000010E0A08080E0808AD
:100D00000A0D000000000000000080FC02052525FF
:100D100025252525050579837C800000000003FC3E
:100D2000813D0D07F51555155515F70D3D817C03D2
:100D3000000000000003FC00006FD6EEFEEEF67F20
:100D400000FC03000000000000000000010E0A0883
:100D5000080E08080A0D0000000000000000000056
:100D6000C020C000000000000000000000000000E3
:100D7000000000000738C00EE51A2A0A5414F404D3
:100D800008985446310EE01010609EA1766B777F74
:100D9000EE763F03C07C43800000000001020100AA
:100DA000010101010102020206090804030000001A
:100DB00000000000C020FC82BA0424244A4A4A4AA7
:100DC000140408F0000000000738C00EE51A2B0BD1
:100DD0005516F6060A9C5447310EE01010609EA18D
:100DE000766B777FEE763F03C07C43800000000087
:100DF00001020100010101010102020206090804C9
:100E00000300000000000000C020C000000000003F
:100E10000000000000000000000000000738C00EC5
:100E2000E51A2A0A5414F40408985446310EC020D6
:100E300020609EA1766B777FEE763F03C07C8300B7
:100E40000000000001020402010101010102020789
:100E5000090808040300000000000000C020FC8214
:100E6000BA0424244A4A4A4A140408F00000000044
:100E70000738C00EE51A2B0B5516F6060A9C544788
:100E8000310EC02020609EA1766B777FEE763F0307
:100E9000C07C830000000000010204020101010186
:100EA0000102020709080804030000000000000016
:100EB00000000000000000000000C020C000000092
:100EC000000E314654980804F414540A2A1AE50E08
:100ED000C0380700000000000080437CC0032F568C
:100EE000EE7F777B7EA19E601010E000000003047F
:100EF00008090602020201010101010001020100CC
:100F000000F00804144A4A4A4A242404BA82FC2005
:100F1000C0000000000E3147549C0A06F616550B1F
:100F20002B1AE50EC0380700000000000080437C4B
:100F3000C0032F56EE7F777B7EA19E601010E000ED
:100F40000000030408090602020201010101010078
:100F5000010201000000000000000000000000008D
:100F60000000C020C0000000000E31465498080464
:100F7000F414540A2A1AE50EC038070000000000D5
:100F80000000837CC0032F56EE7F777B7EA19E609E
:100F90002020C00000000304080809070202010124
:100FA000010101020402010000F00804144A4A4A47
:100FB0004A242404BA82FC20C0000000000E3147FD
:100FC000549C0A06F616550B2B1AE50EC03807007E
:100FD000000000000000837CC0032F56EE7F777B6B
:100FE0007EA19E602020C0000000030408080907BD
:100FF0000202010101010102040201000040A010EF
:10100000A0400010281080828542A010A04000005F
:101010000000000F10E70201FDC5AD92EAC6F9839A
:10102000708F0000000000000000008F70808B9522
:10103000BB5F5DDE5F2867980000000000000001D4
:101040000202020201000000000102020100000091
:1010500040A010A040000008140880848A0440A02A
:1010600010A040000000010E11E60201FDC5AD9286
:10107000EAC6F982718E0100000000000000008FB6
:1010800070808B95BB5F5DDE5F2867980000000075
:101090000000000102020202010000000001020241
:1010A0000100000000000040A010A04285828010D6
:1010B00028100040A010A04000000000008F7083A6
:1010C000F9C6EA92ADC5FD0102E7100F000000006D
:1010D000009867285BD55B5FBD9E8F80708F000096
:1010E00000000000000001020201000000000102F7
:1010F000020202010000000000000040A010A04217
:101100008582801028100040A010A0400000000040
:10111000008F7083F9C6EA92ADC5FD0102E7100F9A
:1011200000000000009867285BD55B5FBD9E8F8044
:10113000708F0000000000000000010202010000AA
:101140000000010202020201000000000000000095
:10115000000000000000000000000000000000008F
:101160000000E01C02F98D8595859585F9023C60AB
:1011700060509048700080413E6081972B77BFB7E8
:10118000BBBFD04E31119161000000010204040484
:101190000301010000000000010201000000000046
:1011A000000000000000C0205050505050505050DF
:1011B0009030C0000000E01C02394D9F50103212E8
:1011C000F21232527057905F483080413E608197F2
:1011D0002B77BFB7BBBFD04E31119161000000012A
:1011E00002040404030101000000000001020100E8
:1011F00000000000000000000000000000000000EF
:1012000000000000000000000000000000000000DE
:1012100000000000000000000000000000000000CE
:1012200000000000F0587C5CDC58F408F00000007E
:101230000000000000000000000303030303030399
:10124000000300000000000080C080C0C0C0E0FCBF
:10125000FEFFFFFFFFFFFFFFFFFEFC010303030391
:1012600003033F7FFFFFFFFFFFFFFFFF7F3F000004
:101270000000000000000303030303030303030053
:10128000001312804080C040C0601C02FD8595A5FF
:101290009585FD0102FC010202020202023E409B12
:1012A000353BBF3B3D9F80403F00000000000000F9
:1012B000000302020203020202030000FCFEFFFF21
:1012C000FFFFFFFEFC0F1F3F3F3F3F3F3F3F090E29
:1012D000FC02F90505E50502FC0F102F2020272050
:1012E000203F307CFEFFFFFFFFFFFEFCE0E0F0F060
:1012F000F0F0E0E0C08000000000000103070707F5
:101300000707377FFFFFFFFF5F3F7F7F3F12000030
:1013100000000000000000000000000101000000CB
:101320000000000000000080C0C0E0E8FCFEFFFFFD
:10133000FFFFFEFEFCF8F0800000003C7FFFFFFF97
:10134000FFFF7F3F070F0F070201030301000000AB
:10135000000000000000000000000000000000008D
:1013600000000000000000000000000000F0FCFE93
:10137000FFFFFFFFFFFE8F07020000000000007864
:10138000FCFEFFFF7F7FFF7F070F0F0703000000BA
:10139000000000000000000101000000000000004B
:1013A0000000000000000000000080C0E0E0F0F05D
:1013B000F0F0E0E0FCFEFFFFFFFFFFFE7C30123F9D
:1013C0007F7F3F5FFFFFFFFF7F37070707070703A9
:1013D000010000000000000000000001010000000A
:1013E00000000000000000000000000080F0F8FC99
:1013F000FEFEFFFFFFFFFEFCE8E0C0C08000000033
:101400000000000103030102070F0F073F7FFFFFEA
:10141000FFFFFF7F3C000000000000000000000014
:1014200000000000000000000000000000000002BA
:10143000078FFEFFFFFFFFFFFEFCF0000000000033
:101440000000000000000003070F0F077FFF7F7FF1
:10145000FFFFFEFC7800000000000000000000001C
:101460000000000000000001010000000000161153
:10147000304C82959D899599029C60A0D050105067
:10148000A0A0408000000000000102040404040445
:10149000354E810A13B2522048482D120000000038
:1014A000000000000000000000010100000000003A
:1014B00000000000008040402028B46A1D4591B51E
:1014C000AA0A444870800000003C43B8AC98ACB80D
:1014D000413E04080805020102020100000000006C
:1014E00000000000000000000000000000000000FC
:1014F0000000000000000000000000F00C02614548
:101500001139817A890502000000000000788432D8
:1015100011814140807E040908040300000000009E
:1015200000000000000101000000000000000000B9
:1015300000000000000000008040A0A0501050D02B
:10154000A0609C029995899D95824C30122D484847
:101550002052B2130A814E3504040404040201002F
:101560000000000000000000000101000000000079
:1015700000000000000000000000807048440AAA3B
:10158000B591451D6AB4282040408000000000004D
:10159000000102020102050808043E41B8AC98AC03
:1015A000B8433C0000000000000000000000000004
:1015B000000000000000000000000000000205899B
:1015C0007A8139114561020CF00000000000000032
:1015D000000000000003040809047E8040418111DE
:1015E00032847800000000000000000000000000CD
:1015F00000000000000101000000000060F8FCFE97
:10160000FFFFFFFFFFFEFCF8C0E0E0E0E0C0C080AD
:1016100000000000000103070F1F1F1F1F7FFFFFB7
:10162000FFFFFFFFFFFFFFFFFE5400000000000070
:101630000000000000000103070703010001010092
:10164000000000000080C0C0E0F0F8FCFEFEFEFEDE
:10165000FCFCF8F0E08000000078FEFFFFFFFFFFD9
:10166000FFFFFF7F3F3F1F0F070F0F070301000022
:101670000000010303030303010000000000000059
:1016800000000000000000000000000000E0F8FC86
:10169000FEFEFEFEFEFEFF1F0F060000000000F033
:1016A000F8FCFEFFFFFFFFFFFFFF3F3F1F0F07009C
:1016B000000000000000000103070703010103010F
:1016C000000000000000000000000000000080C0DA
:1016D000C0E0E0E0E0C0F8FCFEFFFFFFFFFFFEFC23
:1016E000F86054FEFFFFFFFFFFFFFFFFFFFF7F1FBC
:1016F0001F1F1F0F0703010000000001010001036D
:1017000007070301000000000000000000000000C7
:10171000000080E0F0F8FCFCFEFEFEFEFCF8F0E0CD
:10172000C0C08000000000000103070F0F070F1F5B
:101730003F3F7FFFFFFFFFFFFFFFFFFE780000003E
:10174000000000000000000000000001030303038C
:101750000301000000000000060F1FFFFEFEFEFE5A
:10176000FEFEFCF8E00000000000000000000000A9
:1017700000070F1F3F3FFFFFFFFFFFFFFFFEFCF8CB
:10178000F000000000000000000000000000010365
:10179000010103070703010000001713609864FAB2
:1017A000D5C5FDD5C5FAC438C0202020A040408052
:1017B00000000000000102040A1616161776856C58
:1017C000F0E0D09051B16041AA5400000000000048
:1017D00000000000000001020505020100010100F7
:1017E0000000000000804040A09088143282020A6D
:1017F0001414889060800000007886798EAFFF8F87
:10180000AF7C83772F2E140A050B0B050201000015
:1018100000000102020202020100000000000000BC
:1018200000000000000000000000000000E01804BC
:10183000828A0202020AED1509060000000000F08B
:1018400008F49ABDDD7C7EFE02F52C2E17080700F9
:101850000000000000000001020505020101020174
:1018600000000000000000000000000000008040B8
:1018700040A0202020C038C4FAC5D5FDC5D5FA64E3
:10188000986054AA4160B15190D0E0F06C85761711
:101890001616160A040201000000000101000102F0
:1018A000050502010000000000000000000000002B
:1018B00000008060908814140A028232148890A07C
:1018C00040408000000000000102050B0B050A14D7
:1018D0002E2F77837CAF8FFFAF8E79867800000044
:1018E00000000000000000000000000102020202EF
:1018F0000201000000000000060915ED0A020202C4
:101900008A820418E00000000000000000000000CF
:10191000000708172E2CF502FE7E7CDDBD9AF40828
:10192000F0000000000000000000000000000102C4
:1019300001010205050201000000040E1F3F1F1EE9
:101940003C7838100C1E1F3F1F1E1E0F0E0410384F
:10195000783C1E1F3F1F0E04040E0F1E1E1F3F1F4C
:101960001E0C0A0700040E1E0E0C08301000000C9E
:101970000E1E0E0C08060400001030080C0E1E0E81
:101980000400000406080C0E1E0E0C0007070707D3
:10199000070606060606060606060E0302020202F1
:1019A000020404000000000000000303030303031B
:1019B000030303030A0202020202020202020202FB
:1019C00006060606060606060607070707070E03AD
:1019D0000000000000000004040202020202FCFCFD
:1019E000FCFCFCFCFCFCFCFCFCFCFCFCFCFCFCFF34
:1019F000FFFFFFFFFFFFFFFFFFFFFFFFFEFCF80100
:101A000001010101010101010101010101010101C6
:101A10000101010103070F0F0F0F0F0F0F07030144
:101A2000210C000078281000782850007858001009
:101A3000482000104820000078FC8ED6DAD68EFCB4
:101A4000780000000000000000000000000000001E
:101A5000000000000000000000010205050505056A
:101A6000020100000408022905023E09093E3F2543
:101A7000251A1E2121123F21211E3F2525213F0528
:101A800005011E21293A3F04043F213F2100102176
:101A9000211F3F040A313F2020203F02023F3F0226
:101AA000043F1E21211E3F0909061E21112E3F0958
:101AB000093622252519013F01011F20201F0F1083
:101AC000201F3F10103F3B04043B03043807312D17
:101AD00023211E29251E223F2000322929261221DA
:101AE000251A0C0A3F08172525191E252518013926
:101AF00005031A25251A0629291EFCFEFFFFFFFFF4
:101B0000FFFFFFFFFFFFFFFFFFFFFFFFFFFFFFFFE5
:101B1000FFFFFFFFFFFFFFFFFFFFFFFFFFFFFFFFD5
:101B2000FFFFFFFFFFFFFFFFFFFFFFFFFFFFFFFFC5
:101B3000FFFFFFFFFFFFFFFFFFFFFFFFFFFFFFFFB5
:101B4000FFFFFFFFFFFFFFFFFFFFFFFFFFFFFEFEA7
:101B5000FCFFFFFFFFFFFFFFFFFFFFFFFFFFFFFF98
:101B6000FFFFFFFFFFFFFFFFFFFFFFFFFFFFFFFF85
:101B7000FFFFFFFFFFFFFFFFFFFFFFFFFFFFFFFF75
:101B8000FFFFFFFFFFFFFFFFFFFFFFFFFFFFFFFF65
:101B9000FFFFFFFFFFFFFFFFFFFFFFFFFFFFFFFF55
:101BA000FFFFFFFFFFFFFFFF01030707070707070F
:101BB00007070707070707070707070707070707B5
:101BC00007070707070707070707070707070707A5
:101BD0000707070707070707070707070707070795
:101BE0000707070707070707070707070707070785
:101BF0000707070707070707070707070707035729
:101C00001300FC0202F2F2F282F2F2F202F2F2F2BB
:101C100002C2E2F2121252624202F2F2F282F2F2D4
:101C2000F20202E2F29292122202C2E2F2321212A4
:101C3000722202C2E2F2125212F2E2C202F2F2F294
:101C40001212F2F2E202F2F2F292921202E2F29234
:101C50009212220202FC000000FF00005F5F5F00A2
:101C60005F5F5F005F5F5F00172F5F50515F2F5F07
:101C7000005F5F5F005F5F5F002C5C5151535F2E20
:101C800000172F5F585050582E00172F5F5050509C
:101C90005F2F17005F5F5F01015F5E58005F5F5F4E
:101CA0005052500C5C5151535F2E0000FF00000059
:101CB0000102020202020202020202020202020205
:101CC00002020202020202020202020202020202F4
:101CD00002020202020202020202020202020202E4
:101CE00002020202020202020202020202020202D4
:101CF00002020202020202020202020202020202C4
:101D0000020202010000FFFFFFFFFFFFFFFFFFFFD6
:101D1000FFFFFFFFFFFFFFFFFFFFFFFFFFFFFFFFD3
:101D2000FFFFFFFFFFFFFFFFFFFFFFFFFFFFFFFFC3
:101D3000FFFFFFFFFFFFFFFFFFFFFFFFFFFFFFFFB3
:101D4000FFFFFFFFFFFFFFFFFFFFFFFFFFFFFFFFA3
:101D5000FFFFFFFFFFFFFFFFFFFFFFFFFFFFFFFF93
:101D6000FFFFFFFFFFFFFFFFFFFFFFFFFFFFFFFF83
:101D7000FFFFFFFFFFFFFFFFFFFFFFFFFFFFFFFF73
:101D8000FFFFFFFFFFFFFFFFFFFFFFFFFFFFFFFF63
:101D9000FFFFFFFFFFFFFFFFFFFFFFFFFFFFFFFF53
:101DA000FFFFFFFFFFFFFFFFFFFFFFFFFFFFFFFF43
:101DB000FFFFFFFFFFFFFFFFFFFFFFFFFFFFFFFF33
:101DC000FFFFFFFFFFFFFFFFFFFFFFFFFFFFFFFF23
:101DD000FFFFFFFFFFFFFFFFFFFFFFFFFFFFFFFF13
:101DE000FFFFFFFFFFFFFFFFFFFFFFFFFFFFFFFF03
:101DF000FFFFFFFFFFFFFFFFFFFFFFFFFFFFFFFFF3
:101E0000FFFFFFFFFFFFFFFFFFFFFFFFFFFFFFFFE2
:101E1000FFFFFFFFFFFFFFFFFFFFFFFFFFFFFFFFD2
:101E2000FFFFFFFFFFFF030303030303030303039A
:101E30000303030303030303030303030303030372
:101E40000303030303030303030303030303030362
:101E50000303030303030303030303030303030352
:101E600003030303030303030303030303034822DE
:101E700000FC060202020202020202020202020246
:101E80000202020202020202020202020202020232
:101E90000202020202020202020202020202020222
:101EA0000202020202020202020202020202020212
:101EB000020202020206FC0000FF00000000000017
:101EC0000000000000000000000000000000000012
:101ED0000000000000000000000000000000000002
:101EE00000000000000000000000000000000000F2
:101EF0000000000000000000000000000000FF00E3
:101F000000FF0000000000000000000000000000D2
:101F100000000000000000000000000000000000C1
:101F200000000000000000000000000000000000B1
:101F300000000000000000000000000000000000A1
:101F4000000000000000FF0000FF80000000000013
:101F50000000000000000000000000000000000081
:101F60000000000000000000000000000000000071
:101F70000000000000000000000000000000000061
:101F80000000000000000000000000000080FF00D2
:101F90000000010101010101010101010101010133
:101FA0000101010101010101010101010101010121
:101FB0000101010101010101010101010101010111
:101FC0000101010101010101010101010101010101
:101FD00001010101010100000B1D020100201D0291
:101FE0000114351D0201284A1D03013C5F1D030138
:101FF00050D5F08D14A1C881CFD9F1AF20000102D6
:1020000004081020408021080F0F08080006090B63
:1020100006000E03030E000F090F06000F0F000F3E
:1020200002030F000E0F090D000E10BEBDBEBDBE97
:10203000BDBEBDBEBDBEBDBE0000040004000400A8
:10204000040004000400004E080F0D0702000F05F5
:102050000F0A000F0D0900020B0D00020B0D00000E
:102060000000000F0D0702000F0F0808000E030309
:102070000E00030E0E0300000006090B06000F02FF
:10208000030F00000000010F0F010E03030E000FED
:102090000D0702000F0D090E10A7C7A7C7A7C7A7F6
:1020A000C7A7C7A7C7A700070707070707070707A7
:1020B000070707070024080E1F1F1F0E000000005F
:1020C000000000000000001F0E04000000000000DF
:1020D000000000040E1F00040E1F000000C601DCFB
:1020E00003F1000000B8011704F1000000B801700E
:1020F00003F1000000B8017003F1000000D500DC1E
:1021000003F1000000D500DC034602000063001765
:1021100004F1000000B8017003F1000000D500BA1E
:1021200002C60100001900BA02E300000019009382
:1021300002E30000007D004B0283040000E803007E
:1021400000C601DC03F1000000B8011704F1000033
:1021500000B8017003F1000000B8017003F1000045
:1021600000D500DC03F1000000D500DC03460200CE
:102170000063001704F1000000B8017003F10000D3
:1021800000D500BA02C60100001900BA02E300003F
:102190000019009302E30000007D004B028304005D
:1021A00000E803008040E0E0F0787CFC7C3810FC24
:1021B000FCFEFFFFFFFFFFFEFCFCFCFCFCFCFCFC4C
:1021C000FCFCFCFCFCFCFCFCFCFCFCFCFCFCFEFF4A
:1021D000FFFFFFFFFEFCFCFCFCFCFCFCFCFCFCFC31
:1021E000FCFCFCFCFCFCFCFC10387CFC7C78F0E08B
:1021F000E040000001000000000000000103070FA4
:102200000F0F0F0F07030100000000000000000087
:102210000000000000000000000103070F0F0F0F77
:102220000F07030100000000000000000000000094
:102230000000000000000000000000000100004D50
:102240000C0040C0203038783810000078FC8ED662
:10225000DAD68EFC7800007858007028700010489C
:1022600020000870080000000078FC82AAAAAA9644
:10227000FC780000782078007028700078285000E2
:102280007848300000103878383020C04000000016
:102290000000000000000000000102050505050522
:1022A000020100000000000000000000000000002B
:1022B00000000000000001020505050505020100FF
:1022C000000000000000000000000000000000000E
:1022D0000000000000000000000000FCFEFFFFFF07
:1022E000FFFFFFFFFFFFFFFFFFFFFFFFFFFFFFFFFE
:1022F000FFFFFFFFFFFFFFFFFFFFFFFFFFFFFFFFEE
:10230000FFFFFFFFFFFFFFFFFFFFFFFFFFFFFFFFDD
:10231000FFFFFFFFFFFFFFFFFFFFFFFFFFFFFFFFCD
:10232000FFFFFFFFFEFEFCFFFFFFFFFFFFFFFFFFC2
:10233000FFFFFFFFFFFFFFFFFFFFFFFFFFFFFFFFAD
:10234000FFFFFFFFFFFFFFFFFFFFFFFFFFFFFFFF9D
:10235000FFFFFFFFFFFFFFFFFFFFFFFFFFFFFFFF8D
:10236000FFFFFFFFFFFFFFFFFFFFFFFFFFFFFFFF7D
:10237000FFFFFFFFFFFFFFFFFFFFFFFFFFFFFFFF6D
:10238000FFFFFFFFFFFFFFFFFFFFFFFFFFFFFFFF5D
:10239000FFFFFFFFFFFFFFFFFFFFFFFFFFFFFFFF4D
:1023A000FFFFFFFFFFFFFFFFFFFFFFFFFFFFFFFF3D
:1023B000FFFFFFFFFFFFFFFFFFFFFFFFFFFFFF3FED
:1023C0007FFFFFFFFFFFFFFFFFFFFFFFFFFFFFFF9D
:1023D000FFFFFFFFFFFFFFFFFFFFFFFFFFFFFFFF0D
:1023E000FFFFFFFFFFFFFFFFFFFFFFFFFFFFFFFFFD
:1023F000FFFFFFFFFFFFFFFFFFFFFFFFFFFFFFFFED
:10240000FFFFFFFFFFFFFFFFFFFFFF4C2000FC026D
:10241000025212F2F2F2125202F2F2F2020202F24C
:1024200002F2F2F21212F2F2E21212F2F2F212528C
:1024300002F2F2F202020202F2F2F29292120202AC
:1024400002020202C22212D25252525252D222C26C
:10245000020202020202FC000000FF000000005F16
:102460005F5F008080AF9F9F1050502F005F5F5FC5
:1024700001015F5E5800005F5F5F0000005F5F5F0B
:10248000505050005F5F5F505250000000001867CE
:102490001800003F58397839587F00186718000035
:1024A0000000FF000000FF00000040304CB27D6AD9
:1024B000627E6A62FD629C400040000000FFFFFFF8
:1024C0001111FFEFEE00FFFFFF1111FFEF8E00FF74
:1024D000FFFF00FFFFFF0101FFFE7C007CFEFF010C
:1024E00011F5F6F40000FFFFFF0929010000FF00CD
:1024F00000001F20202020212224252425252525F9
:102500002525242221202020202525252525252597
:102510002220252525202025252520252525202587
:102520002525252525222120212225252525222571
:10253000202025252525252520201F0000052011E8
:102540000005200A0005200A0005200A0005200ACF
:102550000005200B0005200B0005200B0005200BBB
:102560000005200A00051F0A00051E0A00051D0AB5
:1025700000051C0B00051B0B00051A0B0005190BB1
:102580000005180A0005170A0005160A0005150AB5
:102590000005140B0005130B0005120B0005110BB1
:1025A0000005100A00050F0A00050E0A00050D0AB5
:1025B00000050C0B00050B0B00050A0B0004090BB2
:1025C0000003080A0002070A0001060A0000050AC3
:1025D00000FCF90001FDF90200FEF70200FFF6041D
:1025E0000000F5040001F4020002F5020003F50406
:1025F0000004F6020005F7020006F7040007F804DD
:102600000008F9040009FB04000AFD02000BFF02A8
:10261000000C0102000D0302000E0300020F030272
:10262000001001020011FF020012FD020013FB0462
:102630000014F9040015F8040016F7040017F70257
:102640000018F6020019F602001AF702001BF70440
:10265000001CF804001DF904001EFB04001FFD020D
:102660000020FF02002101020022030200230300D8
:1026700003250302002601020027FF020028FD02B5
:102680000029FB04002AF904002BF804002CF704AD
:10269000002DF702002EF602002FF6020030F7029E
:1026A0000031F7040032F8040033F9040034FB046D
:1026B0000035FD020036FF02003701020038030238
:1026C0000038030004380302003901020039FF0218
:1026D000003AFD02003BFB04003CF904003DF80415
:1026E000003EF704003FF7020040F6020041F60208
:1026F0000042F7020043F7040044F8040045F904DF
:102700000046FB040047FD020048FF0200490102A9
:10271000004A0302004A0300054B0302004C010279
:10272000004DFF02004EFD02004FFB040050F90473
:102730000051F8040052F7040053F7020054F60267
:102740000055F6020056F7020057F7040058F80447
:102750000059F904005AFB04005BFD02005CFF0213
:10276000005D0102005E0302005F030006600302D9
:10277000006101020062FF020063F90E0064F80EBE
:102780000864F80E0063F90E0062FF0200610102A6
:10279000005F0302005F030007000000000000006C
:1027A00000000000000000000000000000008000A9
:1027B0000000000000000000000000000000000019
:1027C0000000000000000000000000000000000009
:1027D00000000000000000000000000000000000F9
:1027E00000000000000000000000000000000000E9
:1027F00000000000000000000000000000000000D9
:10280000000000FFFFFEFEFEFCF8F8F8F0F0F0F824
:10281000F0F8FCF8FCFEFEFFFFFFFEFCFCF8FCF805
:10282000FCFEFCFEFEFCFCFCFEFEFEFEFCFEFCFED6
:10283000FCF8FCF8F0F8F0F0F0F0F0E0E0E0C0E0D8
:10284000F0FCFEFFFEFEFCFEFCFEFCFEFCF8F0F8D9
:10285000FCFEFCFCFCF8F8F8F8FCF8F8FCF8FCF8D6
:10286000F8F0F0F0F8F8F8FCFEFEFEFFFF6A10004A
:102870000000000000000000000000000000000058
:102880000000000000000000000000000000000048
:102890000000000000000000000000000000000038
:1028A0000000000000000000000000000000000028
:1028B0000000000000000000000000000000000018
:1028C0000000000000000000000000000000000008
:1028D000000000000000000000FEFEFCFCFCF8F020
:1028E000F0F0E0E0E0F0E0F0E8D0E8D4F8FEFFFE41
:1028F000FCF8E8F0E8F0E8D4E8D4ECF8F8F8FCFCF0
:10290000FCFCF854A854A8D0A8D0E0F0E0E0E0E047
:10291000E0C0C0C08040A0F0FCFEFCF4E854A85425
:10292000A854A8D0E0F0F8FCD8B8D8B0F0F0F0F88F
:10293000E0D0E8D0A8E0F0E0E0E0F0F0F0F8FCFC57
:10294000FCFEFEFFFFFFFF03030303040AB24DB2C8
:102950004D01020102748B748B0300030080C0C020
:10296000E0E0E0E0E0F0F0F0FFFFFFFFFFFFFFFF3F
:10297000FFFFFF001FFFFFFFFFFFFFFFFFFF38FF0D
:10298000FFFFFFFFFFFFFFFFFF80C3FFFFFFFFFF12
:10299000FFFFFFFFFFFFFFFFFFFFFFFFFFFFFF0145
:1029A000010101010101010101010B38008080C01A
:1029B000C0C0C0C0C0E0E000FEFEFCFA54A00000B1
:1029C000010100001FFFFFFDAA50A000000038FF1A
:1029D000FFFFFFFFFDAA55AA0080C37FFF7F3F7F57
:1029E0003F7DEAF8D3824420010A048001200101DE
:1029F000010100010000000101F0F0F0E0E0E0E082
:102A0000E0C0C080FFFFFFFFFFFFFFFFFFFFFFFFF2
:102A1000FFFFFFFFFFFFFFFF1F00FFFFFFFFFFFFA5
:102A2000FFFFFFFF38FFFFFFFFFFFFFFFFFFC38038
:102A3000FFFFFFFFFFFFFFFFFFFFFFFFFFFFFFFFA6
:102A4000FFFFFFFFFFFF0B38E0E0C0C0C0C0C0C009
:102A500080800001010000A054FAFCFEFE0000008E
:102A6000A050AAFDFFFF1F0000AA55AAFDFFFFFF0F
:102A7000FFFF3800EA7D3F7F3F7FFF7FC38000205C
:102A80000180040A01204482D3F801010000000102
:102A900000010101018010A055A055A055A055A02E
:102AA00055A055A055A055A055A055A357A757AF61
:102AB0005FBF7FBF7FBF7FBF5FAF57AF5FAF5FAF0E
:102AC00057A357A355A055A055A0D5E0D5E0F5F8DC
:102AD000FDF8FDF8F5E0D5E0F5F0FDF8FDFCFDF8BA
:102AE000F5E0F5E0D5A055A357A75FBF7FBF7FBF37
:102AF0005FBF7FFF7FFF7FBF5FAF5FBF5FA757A352
:102B000055A055A055A055A055A055A055A055A01D
:102B100055A055A055A055FFD5FF75FFD5FF75FFF2
:102B2000D5FF75FFD5FF75FFD5FF75FFD5FF75FF85
:102B3000D5FF75FFD5FF75FFD5FF75FFD5FF75FF75
:102B4000D5FF75FFD5FF75FFD5FF77FFDFFF7FFF4F
:102B5000FFFF7FFFDFFF7FFFFFFF7FFFFFFF7FFFA5
:102B6000DFFF7FFFD7FF75FFD5FF75FFD5FF75FF2F
:102B7000D5FF75FFD5FF75FFD5FF75FFD5FF75FF35
:102B8000D5FF75FFD5FF75FFD5FF75FFD5FF75FF25
:102B9000D5FF75FFD5FFD5080B0002020201000921
:102BA00004000001020200000524001001052401B8
:102BB0000101042402060524060001070581031013
:102BC000004009040100020A00000007050202405B
:102BD00000000705830240000004030904120100FD
:102BE00002EF02014041233680000101020301414E
:102BF000726475696E6F204C4C4300417264756954
:102C00006E6F204C656F6E6172646F00EA2D882BC9
:102C100011241FBECFEFDAE0DEBFCDBF11E0A0E090
:102C2000B1E0EEEAF2E602C005900D92A43BB107D6
:102C3000D9F727E0A4EBB1E001C01D92A831B2079B
:102C4000E1F716E1C7E0D6E104C02197FE010E943A
:102C50001E30C630D107C9F70E948C2B0C944A3124
:102C60000C9400004F925F926F927F928F929F928E
:102C7000AF92BF92CF92DF92EF92FF920F931F938A
:102C8000CF93DF9300D000D0CDB7DEB75C014B010E
:102C90000E94092765012CE3C20ED11C10E0360109
:102CA00045E0F42ED6018C91882351F1133010F0B9
:102CB00080E001C082E0F6012381E82EE20E1330AD
:102CC00010F000E001C002E0D60114968C91149738
:102CD00090E0020FFC01EA5EFE4F608170E0129608
:102CE0002C91F29E800D911D1124FC01E55EFE4F9A
:102CF00080812AE339E142E659E190E00E943425DF
:102D00001F5FB8E0CB0ED11C153061F66501E9E11B
:102D1000CE0ED11CC614D70409F440C0D6011596B6
:102D20002C91159714968C91149716969C91169742
:102D30001C91211115C0933009F423E0E82EE20E16
:102D4000933011F000E001C003E0080FC6010E94BB
:102D5000711E682F70E02CEF35E14AE957E116C08B
:102D6000933011F020E001C023E0E82EE20E933012
:102D700011F000E001C003E0080FC6010E94711EBF
:102D8000682F70E022EE32E14EE654E1812F90E0B0
:102D90000E943425B7E0CB0ED11CBCCFF501E5581D
:102DA000FF4F8081882361F0E12C00E02CEB32E1C1
:102DB0004EEC52E166E070E081E090E00E94342544
:102DC000E12C00E02CED31E04EE052E061E070E0FB
:102DD00084E390E00E94342519821A821B821C82AF
:102DE000F40180899189FE0131962E0125E0420E81
:102DF000511C2AE030E0B9010E940A308193CB01D6
:102E0000E415F505C1F737E3632E712C2AEFC22EC6
:102E1000E12C00E010E0D2012E912D0142EB51E0B7
:102E200064E070E0C3010E947822B5E06B0E711C73
:102E3000EBE46E16710451F7F501EC59FF4F8081F8
:102E400028E432E141E852E163E070E090E00E9462
:102E500034256501F1E1CF0ED11CC6010E94052881
:102E6000182F8F3F19F0682E712C02C0612C712C25
:102E7000C6010E94D627E82EC6010E94D627082F39
:102E80001F3F61F087E0869DF001879DF00D1124C2
:102E9000EA0DFB1D91E0848D823308F090E0D501AE
:102EA00054968C9154975196EC9181110CC0B4E0DA
:102EB000EB9FB0011124FB01EE52FA4D6491691BA6
:102EC00012E0160F15C024E0E29FF0011124EE522B
:102ED000FA4D9491A4E08A9FF0011124E25CFA4D2E
:102EE0008491D5015696EC91EE5FE90F1E2F180FD5
:102EF000C6010E94B727612F110F770B2EE137E033
:102F000042EB5CE0082E000C990B0E943425F50181
:102F100084898823A9F086899FE3692E681A712C19
:102F2000C6010E94B72790E1E92E00E12EE137E0CB
:102F300042EB5CE0B301082E000C990B0E94342593
:102F4000C5010E947B1BF501E458FF4F9081D4011D
:102F500054968C9191111EC081111CC0E12C00E08F
:102F60002CE635E044E456E064E170E08BE190E06B
:102F70000E943425F401228921508AEFC82E00E0F6
:102F800010E044E355E067E170E08FE490E00E94D8
:102F900078221FC0882361F0E12C00E020E733E0B5
:102FA00041E554E064E170E089E190E00E9434255D
:102FB000D50112968C91882361F0E12C00E022E487
:102FC00032E048ED52E064E170E087E290E00E9478
:102FD00034250F900F900F900F90DF91CF911F919C
:102FE0000F91FF90EF90DF90CF90BF90AF909F90A8
:102FF0008F907F906F905F904F900C94DF265F9240
:103000006F927F928F929F92AF92BF92CF92DF92F8
:10301000EF92FF920F931F93CF93DF9300D000D0D6
:103020001F92CDB7DEB78C017B01DB011996CC90E6
:1030300019971A96DC90FC01828181112EC25801E9
:10304000FFE6AF0EB11CD5018C91882311F08150A1
:103050008C934801B7E78B0E911CF4018081882383
:1030600011F081508083D5018C9181115FC0F801EE
:10307000E259FF4F208130E040E050E0319760811D
:1030800070E080E090E00E94F520F5016083F80197
:1030900020E080E094AD91110BC0D70153969C9134
:1030A000913009F4CEC2911103C0823009F0C9C237
:1030B0008F5F3896853071F72223C1F130E040E010
:1030C00050E060E070E0CB010E94F520FE01E60FC9
:1030D000F71F81818F3F51F15801B8E08B9FA00C01
:1030E000B11C112491E0F50194AFEF5BFF4F98E71D
:1030F0009083D501DF961C92F501E05CFF4F1082B2
:10310000F50115AEF801EE58FF4F208130E040E0A8
:1031100050E03197608170E080E090E00E94F520FF
:10312000F501EE5BFF4F608331966083D4018C9193
:10313000811135C0C80141960E940528F801928985
:103140009F3F69F18F3F59F5953019F48789823097
:1031500031F5A92EB12CF80128E0929FE00DF11D68
:10316000112484AD81111BC0F801EA58FF4F208162
:1031700030E040E050E03197608170E080E090E026
:103180000E94F520D4016C9387E08A9DF0018B9D0D
:10319000F00D1124E00FF11F158E8CE3838FF801E1
:1031A000E458FF4F8081882309F477C1F7018489AF
:1031B000811173C1878180FD70C1C5FE12C0D80125
:1031C0005196EC91EE2369F0B4E0EB9FF0011124ED
:1031D000EC52FA4DE491E150E73018F482E0F80146
:1031E000878BC6FE06C0D80151968C91823708F4B1
:1031F00031C2F80191AC82A873A464A0558C580127
:10320000F1E1AF0EB11CC5010E940528D80152960C
:103210009C91891301C08FEFF801828B8489811101
:103220005CC097898189923019F0933019F014C0ED
:1032300081500FC021E0280FB4E02B9FF001112432
:10324000EC52FA4DE491E73019F0F801218B04C0FB
:103250008A50D80151968C93D8015196EC91B4E0E4
:10326000EB9FF0011124EC52FA4DE4918FEF8E0F99
:10327000873008F046C0D80158969C93589784E050
:1032800057968C93F0E03297E230F105D1F02CF4B0
:10329000309749F0319789F034C0E330F105A9F057
:1032A0003497B9F02EC0B2E05B122BC085E2F80172
:1032B000848B84E6858B168A24C0F2E06F16B1F306
:1032C00020C022E0721691F31CC032E0831671F325
:1032D00018C082E0981651F314C08150848B982F47
:1032E000937019F496899F5F968BF80195899230B7
:1032F00010F09150958B811104C087E0D80154964D
:103300008C93C5010E9405288F3F59F0F801E658BB
:10331000FF4F9081891729F0808388EA91E00E940D
:10332000AE20D8015196EC91B4E0EB9FF00111244E
:10333000EC52FA4DE49198012C593F4F5901E83075
:1033400009F054C0D80153968C91882309F44EC0DB
:10335000F9018081833708F082C1F7018089918962
:103360000196918B808B83709927892B31F4F8011A
:10337000E359FF4F808181508083D70150968D9112
:103380009C91519783709927892B31F4F801E25968
:10339000FF4F808181508083F701808991896FE0A0
:1033A00070E00E940A30892B31F4F801EF58FF4F8A
:1033B000808181508083D70150968D919C91519747
:1033C0006EE170E00E940A30892B31F4F801EE586A
:1033D000FF4F808181508083F801138A81E0E55896
:1033E000FF4F80838AE991E00E94AE20D801519678
:1033F0008C91811106C0F801E558FF4F8081811141
:1034000031C14801B7E68B0E911CF40180818823FD
:10341000D1F0815080839EE6D5019C9381113DC0FF
:10342000349610823197208130E040E050E03197AF
:10343000608170E080E090E00E94F520F801E4599E
:10344000FF4F60832AC0F801E559FF4F8081D80102
:10345000A459BF4F2C91821700F591E0980F9083EB
:10346000322F3695931710F4815903C08EE6820FE0
:10347000891BF5018083291310C0F801EA59FF4F19
:10348000208130E040E050E03197608170E080E0E2
:1034900090E00E94F520D4016C93F701878190851C
:1034A0008F70992798012C593F4F5901D801DC960C
:1034B0004D01892B61F4FD01AE16BF0641F081E09C
:1034C0009381913009F480E083833896F5CFB7017A
:1034D000C8010E948727D801F40129E091E032E079
:1034E00041E254E68681882319F08A3059F010C0F1
:1034F0008781868384818F5F8483853061F4108225
:10350000118209C08481843009F49183268303C029
:103510001182815086838181882331F05D963C93AE
:103520005D975B964C935B975C968C915C97882338
:1035300029F081505C968C935C9703C05C965C93F9
:103540005C975B968C915B97882329F081505B9602
:103550008C935B9703C05D969C935D971796389606
:10356000AE16BF0609F0BECFF8018589823028F07B
:103570008091B401882309F47FC0D80155969C91AD
:10358000F801E458FF4F5F01913081F48081882376
:1035900089F01082D70152968C91529781505296A1
:1035A0008C93811103C0D70154969C93F5018081BF
:1035B000811120C0D70154968C9181111BC08D2D93
:1035C00080958C218C7009F45CC080E991E00E94A8
:1035D000AE2081E0F5018083D80155961C92559765
:1035E00054961C92549751961C92519784E057968A
:1035F0008C9347C0F70182858095918589239489B2
:103600009923B9F083FF3DC083E884BD8FEF87BD68
:1036100081EF809380001092880010928A000E94AF
:10362000981E85E0D70156968C93569757961C9214
:1036300028C082FF26C0F801928181E08927828319
:1036400020C0A1E0B0E0AC0FBD1FA20FB11D8C9354
:103650002F5F2ECD83E0D80157968C93CACD80E999
:1036600091E0C2CE81E0D80153968C93108286E817
:1036700091E00E94AE20C5CE80EF90E00E94AE2087
:103680007CCF0F900F900F900F900F90DF91CF9104
:103690001F910F91FF90EF90DF90CF90BF90AF9070
:1036A0009F908F907F906F905F9008958091BB0165
:1036B000E091B901F091BA01882349F0CF01029657
:1036C0009093BA018093B901859194910895CF01A7
:1036D00002969093BA018093B901808191810895F7
:1036E00008950C94BC300C94BC300C94BC300C94F9
:1036F000BC300C94BC30AF92BF92CF92DF92EF926D
:103700000F93CF93DF93EC016D81062E000C770BA6
:103710006F5D7F4FE12C00E020EC39E14EEC59E188
:1037200080E090E00E9434255E0186E0A80EB11C86
:103730008EE0C82ED12CF50161915F01062E000CA0
:10374000770B6F5D7F4FE12C00E02AEA39E144EB13
:1037500059E1C6010E943425FAE0CF0ED11C82E760
:10376000C816D10441F76889062E000C770B6F5DEF
:103770007F4F2CE839E14AE959E182E790E00E9465
:103780003425DF91CF910F91EF90DF90CF90BF90D4
:10379000AF9008952F923F924F925F926F927F92D7
:1037A0008F929F92AF92BF92CF92DF92EF92FF9251
:1037B0000F931F93CF93DF9300D000D000D0CDB7ED
:1037C000DEB75C01FB01678070840E940927C50198
:1037D0000E947B1BE12C00E026E03DE14EE65EE12D
:1037E00062E170E08DE190E00E9434252AEF3AE139
:1037F0004FEF5BE163E070E086E190E00E943425EA
:10380000750108E110E04E01F7E08F0E911C9E015A
:103810002F5F3F4F2901170137E1230E311C74E25E
:10382000C72ED12CF10121911F012F3311F020540B
:1038300001C020E044E65AE1B801C6010E94AB2471
:10384000F6E0CF0ED11C26E3C216D10459F71401BD
:1038500061E4C62ED12CF20126E011922A95E9F7F7
:10386000F70185899689F2016AE070E00E940A30CA
:103870008193CB018E169F06B9F7F10122911F01AA
:10388000255E44E65AE1B801C6010E94AB24F5E08A
:10389000CF0ED11C2FE5C216D104E9F6075F1F4FEA
:1038A00036E0E30EF11C0333110509F0B4CFF50146
:1038B00021892F3F09F477C0C30168E370E00E94BB
:1038C0000A308D3108F46FC0C501F6E02F9F800DDE
:1038D000911D1124AC01495E5F4F4A0159E0259FBB
:1038E000C00111248C01095E1F4FF501C288F6E06A
:1038F000CF9E6001112496012D5D3F4F49E2C40E19
:10390000D11C4F9640E1742E5EEFE52E5FE1F52E5F
:103910002C153D0539F1A80117FF02C040E050E029
:10392000BC018134910514F060E470E0461757073C
:10393000B4F42038310584F4BA01F701769ED00141
:10394000A0781124A20F6770E60FF11D6490AE52AB
:10395000BE4F6C91662A6C924F5F5F4FE1CF2F5F35
:103960003F4FD6CFF5018289F401E80FF11D208188
:103970002F3311F0205401C020E0F5016189F9E0F6
:103980006F9FB0011124685E7F4F36E0839FC001B6
:1039900011243BEFC32EE12C00E010E044E65AE195
:1039A00084960E947822F50181898F3F79F4848979
:1039B00081110CC0E12C00E02EED39E140E25AE12A
:1039C00065E370E080E390E00E94342526960FB610
:1039D000F894DEBF0FBECDBFDF91CF911F910F9145
:1039E000FF90EF90DF90CF90BF90AF909F908F901F
:1039F0007F906F905F904F903F902F900C94DF26B8
:103A0000FC018CE090E09F3F3CF0923024F092303B
:103A100019F4158201C095839F5F933009F49FEFDD
:103A2000815031968111EFCF0895FF920F931F932C
:103A3000CF93DF93EC01FB01148AFC01E458FF4FA4
:103A4000108288ED9FE18E019E012D5D3F4FDE01CA
:103A50004CE351E2FC01649159966C93599731966D
:103A6000E4915A96EC935A97FC013296E4915F9652
:103A7000EC935F97FC013396E4915D96EC935D9730
:103A8000E13059F030F0E23059F45B965C935B978B
:103A900007C05B964C935B9703C05B961C925B9749
:103AA000FC013496E4915C96EC935C97059617962E
:103AB000A217B30709F0CECF80EAF82EFE01EB582B
:103AC000FF4FF08288EC319680830E94F62E28E228
:103AD00030E040E050E00E949B2FDC01CB0180569B
:103AE0009F4FAF4FBF4FFE01E958FF4F808388E7DC
:103AF0003A9780833196F08284E13396808388E21E
:103B00003196808380E0F80186AF14AE8F5F085F46
:103B10001F4F8530C1F720EA30E040E050E068E711
:103B200070E080E090E00E94F520FE01E159FF4F37
:103B300060831D8A1C8A198A84E08F8B81E08B8BBD
:103B40003A9784E6808331969CE8908333969CE391
:103B500090833196808336978EE680830E94F62E7E
:103B60008E0109591F4F28E230E040E050E00E94EA
:103B70009B2FDC01CB018C599F4FAF4FBF4FF801FA
:103B80008083CE010E94001D1A828DE591E2909300
:103B9000C8018093C701DF91CF911F910F91FF90D2
:103BA00008956F927F928F929F92AF92BF92CF9221
:103BB000DF92EF92FF920F931F93CF93DF9300D08A
:103BC00000D000D0CDB7DEB77C015B01DC0152969E
:103BD0001C92529753961C92539784E654968C935A
:103BE000FB01C088D188C114D10409F455C08DEA05
:103BF00090E00E94652FC816D906A0F483EB90E0F0
:103C00000E94652FC816D90690F489EB90E00E94B7
:103C1000652FC816D90608F43FC089EB682E712CB1
:103C200012E026C010E03DEA632E712C04C011E0C2
:103C300023EB622E712C99EB892E912C02E001501E
:103C4000F6E00F9FB001112463557F4F46E050E02E
:103C5000CE0101960E944D2F46E050E0B401CE0106
:103C600001960E946B2F86E0881A9108101738F38E
:103C7000FE01319686E0DF011D928A95E9F79FE308
:103C80009B839C839D83DA82C98246E050E0B30126
:103C9000CF010E946B2F01C01FEFF701118BD501DF
:103CA0001A961C921A9719961C92C70145960E9463
:103CB0009C27C7010E94001D26960FB6F894DEBF10
:103CC0000FBECDBFDF91CF911F910F91FF90EF906D
:103CD000DF90CF90BF90AF909F908F907F906F902C
:103CE0000895FC0194818181913031F018F0923077
:103CF00051F008958450089591E02381223308F013
:103D000090E0891B0895E2814E2F50E04232510528
:103D100070F4FA01EA5AFF4F0C941E30865F089542
:103D2000885F08958A5F08958C5F08958E5F089577
:103D3000E1E7F0E080818D7F8083109291004698CA
:103D400047981092B4010895AF92BF92CF92DF923C
:103D5000EF92FF921F93CF93DF93EC017B01FB0166
:103D6000118529892F3F09F482C0878190856CE0F5
:103D700070E00E940A306C01892B09F091C017FF96
:103D800020C0CE01F6E02F9F800D911D1124479693
:103D90002A89FC01E20FF11D20812F5F20832A89EF
:103DA000FC01E20FF11D20812B3514F021E420836A
:103DB0002A89FC01E20FF11D8081803411F481E435
:103DC000808314FF17C08989FE0126E0829FE00DE1
:103DD000F11D112477968A89DF01A80FB11D8C91FE
:103DE00081508C938A89E80FF11D8081813414F40D
:103DF0008AE5808315FF05C08A89882311F08150E8
:103E00008A8B16FF05C08A89823010F48F5F8A8BF7
:103E100013FF46C08989FE0136E0839FE00DF11D46
:103E20001124779680818F33D9F181818F33C1F14D
:103E300082818F33A9F15F01F50161915F01898969
:103E4000960146E0849F200D311D1124C901815542
:103E50009F4F0E947B2F5FEFC51AD50A83E0C816DB
:103E6000D10451F78FEF898B84E68C8B19C0FB014D
:103E70008285809581238C7099F08C89811110C086
:103E800083E884BD27BD81EF809380001092880075
:103E900010928A000E94981E82E0F701868B178A92
:103EA00010768B89103671F58F5F8B8B8531C0F161
:103EB0008D33A8F08D33A1F51B8A83E884BD8FEF85
:103EC00087BD81EF809380001092880010928A0055
:103ED0000E947A25CE0145960E949C2721C020E4AD
:103EE00030E0A901481B5109CA01880F93E894BD2D
:103EF0009FEF97BD91EF9093800010928800809380
:103F00008A000EC0882361F083E884BD8FEF87BDEF
:103F100081EF809380001092880010928A001B8AA3
:103F20008C89882311F081508C8BB701CE01DF91F1
:103F3000CF911F91FF90EF90DF90CF90BF90AF9007
:103F40000C948727CF92DF92EF92FF920F931F93EB
:103F5000CF93DF930E94561B811520E8920751F4FE
:103F6000DF91CF911F910F91FF90EF90DF90CF9055
:103F70000C94981E21E02093B401813020E8920730
:103F800051F48091B7019091B8019093BA01809358
:103F9000B9010E94561B97FD05C02091B60122234E
:103FA00009F440C02091B50121113CC021E02093CB
:103FB000BC01EC01DF77209769F481E08093BD01BB
:103FC00046983FE9C32E3FE0D32EE12CF12CCAEFF7
:103FD000D0E014C08E0120E030E060E472E48FE0B5
:103FE00090E0A90198010E949B2F69017A0181E06C
:103FF000C81AD108E108F1081092BD01E091C7018B
:10400000F091C8010995811103C081E08093BD0141
:104010008091BC01882309F43FC08091BD018111CA
:104020003BC003C01092BC01C4CF469935C0479A2B
:104030000E94561B009771F09C01DE010E94EF2F39
:10404000DC01CB0129E0B595A795979587952A9531
:10405000D1F703C08FEF9FEFDC01109290002AE0B0
:1040600020939100D0929900C09298008093BE0155
:104070009093BF01A093C001B093C10180917100E2
:10408000826080937100DF91CF911F910F91FF901B
:10409000EF90DF90CF9008954798CACF1F920F926C
:1040A0000FB60F9211242F933F934F935F936F930B
:1040B0007F938F939F93AF93BF93EF93FF938091E1
:1040C000BE019091BF01A091C001B091C101892BA7
:1040D0008A2B8B2B81F18091BD0181110BC098B18E
:1040E00080E4892788B98091BC01882319F088B1C0
:1040F000805888B98091BE019091BF01A091C00104
:10410000B091C101181619061A061B06B4F4809165
:10411000BE019091BF01A091C001B091C101019772
:10412000A109B1098093BE019093BF01A093C00182
:10413000B093C10102C00E94A21FFF91EF91BF91F5
:10414000AF919F918F917F916F915F914F913F912F
:104150002F910F900FBE0F901F9018959C01E1E7D3
:10416000F0E090819D7F908381E08093BB0130934C
:10417000BA012093B9013093B8012093B7010C9490
:10418000A21F089508950895089508950C94BC30D1
:104190000895CF92DF92EF92FF920F931F93CF93E8
:1041A000DF936C017A018B01C0E0D0E0CE15DF0512
:1041B00081F0D8016D918D01D601ED91FC910190B6
:1041C000F081E02DC6010995892B11F02196EECFE3
:1041D0007E01C701DF91CF911F910F91FF90EF906A
:1041E000DF90CF9008950E9445318F929F92AF92B9
:1041F000BF92CF92DF92EF92FF920F931F936217BD
:10420000730784079507A4F489019A016B017C0167
:1042100048015901861A970AA80AB90A0E94F62E7F
:10422000A50194010E949B2F6C0D7D1D8E1D9F1D6D
:104230001F910F91FF90EF90DF90CF90BF90AF90C4
:104240009F908F9008958F929F92AF92BF92CF923E
:10425000DF92EF92FF926B017C010E9409224B01D9
:104260005C01C114D104E104F104F1F00E940922BF
:10427000DC01CB0188199909AA09BB09883E934042
:10428000A105B10570F321E0C21AD108E108F108D7
:1042900088EE880E83E0981EA11CB11CC114D104C5
:1042A000E104F10419F7DDCFFF90EF90DF90CF909C
:1042B000BF90AF909F908F9008958091C201089514
:1042C0000895089580E090E008950895EF92FF9298
:1042D0001F93CF93DF93FC01EB0189851A8510951D
:1042E000182384FF14C08189803118F48F5F818B7B
:1042F0000FC0F89487E78093000880930108A89581
:1043000088E18093600088E080936000FFCF118A8D
:104310007F01812F8C70B1F013FB882780F991E029
:1043200089278B8B83E884BD8FEF87BD81EF8093D6
:1043300080001092880010928A000E94981E84E0EB
:104340008E8B1F8A17FD02C0107781F083E884BD31
:104350008FEF87BD81EF80938000109288001092CC
:104360008A000E94981E85E08E8B1F8ABE01C701BD
:104370000E948727F7019289983C10F49F5F928BE7
:10438000DF91CF911F91FF90EF900895CF93DF932E
:10439000FC01DB011A968C911A97809519969C91D5
:1043A000892351F08281882311F08CE782839281E6
:1043B000911105C081E0828392819923A9F09F5FCA
:1043C00092839D3789F4EB0183E884BD8FEF87BD2D
:1043D00081EF809380001092880010928A000E94E2
:1043E000981E82E08E8B1F8ADF91CF910895FB018A
:1043F00023E0228B118A108A148A2DE531E2309352
:10440000C8012093C7010E94001D8BED90E20C941F
:10441000AE203FB7F8948091CA019091CB01A09152
:10442000CC01B091CD0126B5A89B05C02F3F19F056
:104430000196A11DB11D3FBFBA2FA92F982F882724
:10444000820F911DA11DB11DBC01CD0142E0660F7F
:10445000771F881F991F4A95D1F708951F920F92D1
:104460000FB60F9211242F933F938F939F93AF9387
:10447000BF938091C3019091C401A091C501B091F7
:10448000C6013091C90123E0230F2D3720F4019696
:10449000A11DB11D05C026E8230F0296A11DB11D67
:1044A0002093C9018093C3019093C401A093C501D7
:1044B000B093C6018091CA019091CB01A091CC012B
:1044C000B091CD010196A11DB11D8093CA019093B9
:1044D000CB01A093CC01B093CD01BF91AF919F913F
:1044E0008F913F912F910F900FBE0F901F901895B5
:1044F0004F925F927F928F929F92AF92BF92CF9294
:10450000DF92EF92FF920F931F93CF93DF9300D030
:1045100000D0CDB7DEB7DC0148014115510509F4E3
:1045200006C2FA01F490319684914E5F5F4FAF2C32
:10453000B12C211102C0EE2061F101E010E0982FB2
:10454000977011F400E010E0982F96959695969547
:10455000090F111D0A9DF0010B9DF00D1A9DF00D24
:10456000112413E0712EC71003C0EE0FFF1F0AC005
:104570008114910439F0EE9E8001EF9E100D1124FC
:10458000800E911E2E9F80012F9F100D1124400F31
:10459000511F1FEFC11208C08114910419F0CC24DF
:1045A000C39402C022E0C22EFD01EA0DFB1D1E16BF
:1045B0001F060CF0BCC1A038B1050CF0B8C19B01BE
:1045C000280F311D121613060CF0B1C160347105AD
:1045D0000CF0ADC14115510509F4A9C1362F377052
:1045E0008B0177FF02C0095F1F4F93E01595079578
:1045F0009A95E1F7202F77FF04C0332311F02FEFB6
:10460000200FB7FF05C0002711270A1B1B0B02C094
:1046100000E010E0E038F1051CF090E89A1B01C0C2
:104620009F2D901B622F022E000C770B2F3F1CF446
:10463000E62EE09401C0E12CF1E0E82FE77009F4E8
:10464000F0E0869586958695F80F6F0F711D69309D
:10465000710514F0F8E0F21BFE192E0D60E8260338
:10466000A00DB11D1124A00FB11FFE9C000D111D46
:104670001124400F511F61E070E07B01032E02C046
:10468000EE0CFF1C0A94E2F773E0C71609F407C1A9
:104690007C15C8F081E0C81609F4B9C0E2E0CE127A
:1046A00046C18FEF8E9D80018F9D100D11240095C6
:1046B00010951C830B839C80BD016E527E4F2B0195
:1046C0008F2E820E2DC06AEF762EC71409F43BC0E0
:1046D0001BEFC1122CC1BD016E527E4F4B01DF2E6C
:1046E000D20E83C084918E9D60018F9DD00C1124C9
:1046F000DA82C98227FD05C0DB018C918023C82A9C
:10470000CC92311113C031966F5F7F4F8E2F841B77
:10471000891740F32F5F4A0D5B1DB0E84B0E511C0B
:10472000281509F404C1B201FA01F0CF27305CF773
:104730006B01B0E8CB0ED11CD6018C9189217A8017
:1047400087298C93E0CFBD016E527E4F4B01DF2E47
:10475000D20E2D1509F4EBC0B401FA018E2F841B83
:104760008917F0F484918E9D80018F9D100D112486
:104770001A83098327FD04C0DB018C91082B0C935D
:10478000332351F0273044F48B0100581F4FD801D8
:10479000CC908A818C298C9331966F5F7F4FDECFCE
:1047A0002F5F4A0D5B1DB0E88B0E911CD2CF849118
:1047B0008E9DB0018F9D700D11247A83698327FD32
:1047C00005C06095D8018C9168236C93311113C09A
:1047D00031960F5F1F4F8E2F841B891740F32F5F79
:1047E0004A0D5B1DB0E88B0E911C2D1509F49FC07E
:1047F0008401FA01F0CF27305CF7B80160587F4F91
:104800008A818095DB01CC908C218C93E1CF080DBF
:10481000191DAE52BE4F7F2E720E271509F487C0A8
:10482000BD01C12CD12CC91690F5F801EC0DFD1D70
:10483000E491EE9D4001EF9D900C112480949094A2
:104840009C828B82FA01EC0DFD1DE491EE9D20010E
:10485000EF9D500C11245A82498227FD05C0FB01AF
:104860008081882248284082332359F027304CF435
:10487000FB01E058FF4F90808C8189219A80892923
:104880008083FFEFCF1ADF0A6F5F7F4FCCCF2F5FA0
:104890004A0D5B1D0A0D1B1DA058BF4FBECFC92E70
:1048A000D12C2801440E551EAE52BE4F60E870E078
:1048B0004B018C189D08AC18BD08AA0CBB1CC92E56
:1048C000022F192F2F2FF201A401B501732ECF93C0
:1048D000DF93ED01EF96EF9622968590A5907720D5
:1048E00059F08E9C4001AE9C500107302CF4D880CA
:1048F000B094DB20D928D99200233AF0DC90A09420
:10490000DA20D828DD920C94862411961A9529F77E
:104910002A9551F01C2D03951124E60FF11DA40FCB
:10492000B11DC40FD11DD9CFDF91CF9111240F90AC
:104930000F900F900F90DF91CF911F910F91FF90EB
:10494000EF90DF90CF90BF90AF909F908F907F902F
:104950005F904F900895CF92EF920F931F9332E0A4
:10496000C32EE12C00E010E00E9478221F910F91ED
:10497000EF90CF900895CF93DF93EC0120E045EBCB
:1049800050E261E170E08FE290E00E94AB2420E011
:1049900047E950E26AE170E08BE290E00E94AB24CC
:1049A00020E047E950E26AE170E089E490E00E948B
:1049B000AB248A8120E0811112C047E950E26AE10C
:1049C00070E08AE390E00E94AB2420E047E450E2EC
:1049D0006EE270E08AE190E00E94AB2433C049E2CD
:1049E00050E26AE170E08AE390E00E94AB2420E0AC
:1049F00046E050E26EE270E08CE290E00E94AB2470
:104A00008A816FE00E94FE2F837040E050E1C1E395
:104A1000D0E06EEF7FE14817A9F0942F990F915BDA
:104A20009E01FB01529FD001A0781124A90F27708D
:104A3000E20FF11D9491AE52BE4F2C91922B9C939C
:104A40004F5FE9CFE2EDF1E081E0A0E0B8E0008067
:104A50000EBC8111012C1197A0FDFDCF0192B9F779
:104A60000DB4DF91CF910895CF92EF920F931F93E2
:104A7000F901202FCC24C3948F010E9478221F912A
:104A80000F91EF90CF900895EF920F93CF93DF9314
:104A9000EC010E940927CE010E947B1BE12C00E063
:104AA0002BED32E24BE054E269E070E08BE190E004
:104AB0000E9434258A89883C51F425EA31E24FE38B
:104AC00052E269E270E08AE190E00E943425DF91D1
:104AD000CF910F91EF900C94DF26BC0180E090E025
:104AE0000C9423218FB18095807F669B88601C9BEE
:104AF00084600895EF92FF921F93CF93DF9300D0CD
:104B000000D000D0CDB7DEB764E58BEA90E00E941C
:104B10007B2F62E48CEA90E00E947B2F8DEAE82EE6
:104B2000F12C11E41A8219821B831C831D831E82BF
:104B300046E050E0B701CE0101960E946B2F1F5F47
:104B400086E0E80EF11C8FEBE816F10459F7269683
:104B50000FB6F894DEBF0FBECDBFDF91CF911F918E
:104B6000FF90EF9008952091D101211103C08FEFA4
:104B70009FEF08955FB7F89422E02093E900209119
:104B8000F20030E01216130614F421E030E0422F58
:104B9000FC0184E6415038F028988093D001909130
:104BA000F1009193F7CF2115310521F08091F200AA
:104BB000882319F05FBFC90108958BE68093E80050
:104BC000F9CF2FB7F89483E08093E9009091E80043
:104BD000892F807295FF04C09091F20080E4891BB8
:104BE0002FBF0895CF93DF931F92CDB7DEB76983B0
:104BF000DC01ED91FC910280F381E02D41E050E079
:104C0000BE016F5F7F4F09950F90DF91CF9108959F
:104C100083E08093E9008091F200882319F08AE311
:104C20008093E80008950E94E12590E00895CF93D5
:104C3000DF931F92CDB7DEB7FC018485958597FD84
:104C400005C02FEF3FEF358724870BC0CE010196BB
:104C50000E94B325019719F4898190E002C08FEF7B
:104C60009FEF0F90DF91CF9108950F931F93CF93F4
:104C7000DF931F92CDB7DEB78C01FC01848595854B
:104C800097FF0EC0CE0101960E94B325019719F43B
:104C9000898190E002C08FEF9FEFF80195878487AC
:104CA000F801848595850F90DF91CF911F910F9129
:104CB00008958F929F92AF92BF92CF92DF92EF9220
:104CC000FF920F931F93CF93DF936C017B018A01B7
:104CD00080910701882309F45CC08091D101882369
:104CE00009F457C08091CF0180FF05C08091E0009A
:104CF00082608093E000E801B12C8AEFA82E93E057
:104D0000892E2AE3922E209711F4BB20D9F10E941C
:104D1000E12581110AC0AA94AA20D9F161E070E0CE
:104D200080E090E00E942321EECF282F30E0C217D0
:104D3000D3070CF48C2F9FB7F8948092E900209150
:104D4000E80025FF1DC0282F30E0C21BD30BF70160
:104D5000815020F041914093F100FACFE20EF31E12
:104D6000BB2019F09092E8000AC08091E80085FD10
:104D700007C09092E800BB24B394209709F0B12CAF
:104D80009FBFC1CF5D9884E68093CE0110161106B7
:104D900044F081E090E0F6019383828380E090E02C
:104DA00001C0C801DF91CF911F910F91FF90EF904B
:104DB000DF90CF90BF90AF909F908F90089580919B
:104DC000D2018EBD8FEF8093D201E2EDF1E082E05F
:104DD00090E05FEF63E09C01215031094181211592
:104DE00072E0370728F02038324020F4618303C096
:104DF000518301C011820DB407FEFDCF4EBD319627
:104E00000196813024E0920731F70DB407FEFDCF03
:104E10000895CF92DF92EF920F93CF93DF93EC013F
:104E20006B01FB01878190858F739927892B39F45A
:104E30008C818F5F803410F48C8301C01C828C8144
:104E400090E020E045E95AE260E070E0805491098A
:104E50000E94AB248C8120E045E95AE260E070E0DA
:104E600090E00E94AB24E12C00E029EF39E246E417
:104E70005AE26FE070E080E090E00E9434252DE57A
:104E800039E24AEA59E26FE070E085E790E00E947B
:104E900034250B8123E439E24BE459E260E370E00E
:104EA0008CE090E00E9434250B8123E439E24BE44E
:104EB00059E260E370E080E790E00E9434250B81C6
:104EC00023E439E24BE459E266E370E080E490E0E9
:104ED0000E94342500E029E937E24DE658E260E31C
:104EE00070E08BE090E00E943425F6018781908588
:104EF0008F719927892B21F49B8181E089278B83EE
:104F0000DF91CF910F91EF90DF90CF900895FB014B
:104F1000278130852F703327232B69F4FC012581ED
:104F20003596AC01405F5F4F31813193E417F5074F
:104F3000D9F7FC01208B0895CF93DF93EC0146E075
:104F400050E06DEA70E00E944D2F46E050E063EBC8
:104F500070E0CE0106960E944D2F46E050E069EBCE
:104F600070E0CE010C96DF91CF910C944D2FDC01B7
:104F7000EC9184E0E89FF0011124EF52FA4D249166
:104F800013969C911397911102C0822F089584E08B
:104F9000989FF0011124E35CFA4DE49117968C91EF
:104FA000823009F4E1958E2F820F0895DC0113966B
:104FB000EC911397E1111AC0EC9184E0E89FF001A5
:104FC0001124ED52FA4DE491E23011F0E43039F45D
:104FD00016968C911697833011F494E001C090E0FE
:104FE00012968C91E80F8E2F890F089584E0E89F28
:104FF000F0011124E15CFA4DE49117968C91823016
:1050000011F48E0F08958E2F0895DC01EC91B4E019
:10501000EB9FF0011124EC52FA4D84919FEF980F11
:10502000973010F4825008958FEF08958091A8066C
:1050300081110DC082E08093A40684E08093A506D0
:105040001092A7061092A60681E08093A80684EA33
:1050500096E00895FC018485958597FD0BC09FB768
:10506000F89482E08093E9008091F2009FBF90E085
:10507000019608959FB7F89482E08093E9008091AB
:10508000F2009FBF90E008954091110750911207E0
:1050900020910F073091100742175307B4F49091F5
:1050A000E8009570E1F39091E80092FD19C08093BB
:1050B000F100809111079091120701968F73992743
:1050C000892B19F48EEF8093E8008091110790915D
:1050D00012070196909312078093110781E00895BB
:1050E00080E00895DF92EF92FF920F931F93CF938A
:1050F000DF93D82E8A017B01E40EF51EEB01CE155D
:10510000DF0571F0D7FE03C0FE01849101C08881E4
:105110000E94442821968111F2CF8FEF9FEF01C0AA
:10512000C801DF91CF911F910F91FF90EF90DF9019
:105130000895615030F02091F100FC012083019628
:10514000F8CF289884E68093D00108950F931F9399
:10515000CF93DF931F92CDB7DEB782E0898342E41D
:1051600050E067E97BE280E80E9472280E941628DE
:10517000DC0112960D911C9113970115110589F010
:10518000D801ED91FC910280F381E02DBE016F5FAB
:105190007F4FC801099597FD04C0F801008511856E
:1051A000ECCF89810F90DF91CF911F910F910895DE
:1051B0001F920F920FB60F9211248F939F9380919D
:1051C000E1009091E100937F9093E10083FF0FC095
:1051D0001092E90091E09093EB001092EC0092E3C2
:1051E0009093ED001092D10198E09093F00082FF2F
:1051F00020C093E09093E9009091F200992319F078
:105200009AE39093E8009091CE01992339F0909120
:10521000CE0191509093CE01992389F19091D001C4
:10522000992339F09091D00191509093D001992316
:1052300041F184FF10C08091E2008E7E81608093F6
:10524000E2008091E1008F7E8093E1008091CF01A8
:105250008E7E806111C080FF16C08091E2008E7E3C
:1052600080618093E2008091E1008E7E8093E10076
:105270008091CF018E7E81608093CF0104C05D9AC2
:10528000CDCF289AD6CF9F918F910F900FBE0F90C0
:105290001F9018951F920F920FB60F921124CF9264
:1052A000DF92EF92FF920F931F932F933F934F93B1
:1052B0005F936F937F938F939F93AF93BF93EF937E
:1052C000FF93CF93DF93CDB7DEB76C97DEBFCDBF33
:1052D0001092E9008091E80083FFFBC168E0CE01F5
:1052E00045960E94992882EF8093E8008D8987FF78
:1052F00005C09091E80090FFFCCF03C09EEF909313
:10530000E800982F907609F0C6C09E894F89588D85
:105310002F89F88C91110CC0803829F480910E07E8
:105320008093F10002C01092F1001092F10045C18B
:10533000913051F4811141C14130510509F03DC115
:1053400080910E078D7F0BC0933061F4811135C1C0
:105350004130510509F031C180910E078260809380
:105360000E072BC1953049F48091E80080FFFCCFF7
:10537000822F80688093E30020C1963009F05EC0E0
:105380000B8D1C8D22E01092E900109212071092F2
:105390001107F21232C01092100710920F070E94EC
:1053A000A62899E0BE016F5F7F4FDB01E92F1D92B8
:1053B000EA95E9F79983FA8291E09E8390EA9887CB
:1053C0009AEF99872091110730911207275F3F4F7D
:1053D0003C832B838D831092E90010921207109268
:1053E00011071093100700930F0749E050E080E089
:1053F0000E9472280E94A628E0C010931007009314
:105400000F070E941628DC0112960D911C9113972C
:105410000115110509F4BBC0D801ED91FC91048080
:10542000F581E02DBE016B5E7F4FC80109950097A5
:1054300009F0C7C0F80100851185EACF973009F45B
:1054400045C1983021F481E08093F100B6C09930D5
:1054500009F0B3C0837009F039C1EDEAF1E081E0F1
:1054600031E096E32081211109C08EE78093EA00A4
:105470001092EA008F898093D1019FC08093E90048
:105480003093EB0021912093EC009093ED008F5F1F
:10549000873041F7EACF8B8D9C8D1092E9001092F6
:1054A0001207109211079093100780930F07898DB0
:1054B000811153C08E899D89913A49F4813209F056
:1054C00005C147E050E060E071E080E0BBC0913290
:1054D00009F0FCC0833269F48F89988DA0E0B0E0B8
:1054E0008093080190930901A0930A01B0930B01E6
:1054F00064C0803269F48091E80082FFFCCF67E0ED
:1055000080E091E00E9499288BEF8093E80055C0DD
:10551000823209F052C08F8980930701EEEFFFE7D6
:10552000859194918B3F9C4D19F0E0E0F8E002C02A
:10553000EEEFFAE08091000190910101A09102014B
:10554000B0910301803B9440A105B10509F09EC0D4
:105550008091070180FF79C099C00E941628FC0144
:10556000028113810115110509F4B0C0D801ED9134
:10557000FC910190F081E02DBE016B5E7F4FC80170
:10558000099581111AC0F80100851185EBCFF1E072
:10559000FF1609F44EC0F3E0FF1298C08F898823EC
:1055A00009F44AC0823089F440E860E18BEF9BE265
:1055B0000E94762E882309F489C08EEF8093E8003C
:1055C00088C018161906CCF381C0813029F440E850
:1055D0006BE08FEE9BE2ECCF833009F077C00E9446
:1055E0001628DC011296ED90FC9013978E010F5F48
:1055F0001F4F6801E114F10479F0D701ED91FC919E
:105600000680F781E02DB801C7010995080F111D2B
:10561000F701E084F184EECFD8011C92F6010190ED
:105620000020E9F73197BF016C197D0940E0C60100
:10563000BFCF6DED7BE202C069ED7BE2FB014491DF
:1056400050E080E80E947228B8CFEE3F2AE0F207CF
:1056500051F0808191818737A7E79A0721F09093D5
:10566000FF0A8093FE0A87E797E791838083809102
:105670006000809313079BE088E10FB6F894A8952B
:10568000809360000FBE9093600097CF80819181DE
:105690008737974709F091CFA8958091600088617E
:1056A000809360008091130780936000EE3FBAE022
:1056B000FB0739F08091FE0A9091FF0A9183808365
:1056C0007CCF1092FF0A1092FE0A77CF81E280937E
:1056D000EB006C960FB6F894DEBF0FBECDBFDF9126
:1056E000CF91FF91EF91BF91AF919F918F917F915A
:1056F0006F915F914F913F912F911F910F91FF906B
:10570000EF90DF90CF900F900FBE0F901F901895E5
:1057100082ED95E00C94C520789484B5826084BDB8
:1057200084B5816084BD85B5826085BD85B58160A5
:1057300085BD80916E00816080936E001092810023
:1057400080918100826080938100809181008160DE
:10575000809381008091800081608093800080919F
:10576000910082608093910080919100816080938C
:105770009100809190008160809390008091C100A1
:1057800084608093C1008091C10082608093C100D9
:105790008091C10081608093C1008091C3008160CD
:1057A0008093C3008091C00082608093C00080918C
:1057B000C20081608093C20080917A0084608093EF
:1057C0007A0080917A00826080937A0080917A00DA
:1057D000816080937A0080917A00806880937A005B
:1057E0001092D10110920E071092CF018091D70034
:1057F00081608093D70080EA8093D80089B580616A
:1058000089BD89B5826089BD09B400FEFDCF61E024
:1058100070E080E090E00E9423218091D8008F7C8E
:1058200080618093D8008091E000807F8093E000C9
:105830008091E1008E7E8093E1008DE08093E20014
:10584000559A209A81EC80937C0085B1806F85B950
:1058500084B1877E84B984B1876E84B95E9A5F987B
:105860008AB1806D8AB9769A6E9881B3806F81BB58
:10587000899880B38D7080BB80E58CBD81E08DBD43
:1058800085E090E00E946D255F9A85E090E00E949F
:105890006D255E985C98E1EFFFE184918EBD00007C
:1058A0000DB407FEFDCF31968FE1EE3FF807A9F763
:1058B0005C9A81E8809364008091650081608093A8
:1058C00065000E94722587FF24C05C9885EA8EBD22
:1058D00000000DB407FEFDCF5C9A2E982F982D98EE
:1058E0008091640080628093640081E083BF88952A
:1058F00013BEFCCF2D980E9472258478843871F0F5
:105900000E9472258471843129F188EC90E00E9414
:105910006D250E94722582FDEDCF38C02D9A88EC4E
:1059200090E00E946D252F9882E090E00E945D2F0C
:105930008F3F29F06FEF82E090E00E948D2F84EF7F
:1059400091E00E946D252F9A0E94722584788438F8
:10595000D9F3D6CF2D9A88EC90E00E946D252E9831
:1059600082E090E00E945D2F882329F060E082E0D1
:1059700090E00E948D2F84EF91E00E946D252E9A79
:105980000E94722584718431D9F3BFCF2D9A82E0B1
:1059900090E00E945D2F882331F03E9A3F9A81E08B
:1059A0008093C20104C01092C2013E983F9880913A
:1059B00064008E7F8093640080917A00806480937D
:1059C0007A0080917A0086FDFCCFC0917800D0915A
:1059D00079000E9409228E0120E030E09801112711
:1059E0000027600F711F821F931F611571058105CC
:1059F000910511F00E94442F809164008160809392
:105A000064008DE08093DD058BEA90E00E945D2FBD
:105A1000C82F8CEA90E00E945D2FC43511F48234C7
:105A200011F00E947A2581E08093E80511E0C0E042
:105A3000D0E001E08FB7F8944091C3015091C401C8
:105A40006091C5017091C6018FBF8091DE05942FD2
:105A5000981B892F9091DF05992329F08093E00509
:105A60001092DF0549C09091DD05891740F48F5FE2
:105A7000891708F041C013BF889513BE3DC000933D
:105A8000DF054093DE052091D9053091DA052F5FBF
:105A90003F4F3093DA052093D9058091E0059817A0
:105AA00010F45D9801C05D9A8091DB058093DC0560
:105AB0000E9472258093DB058091E805823011F108
:105AC00008F041C08130C1F49091E705913041F078
:105AD0008093D4059091E9059093D5058093E705CF
