:100000000C9406160C942E160C942E160C942E1688
:100010000C942E160C942E160C942E160C942E1650
:100020000C942E160C942E160C94971E0C94091FEB
:100030000C942E160C942E160C942E160C942E1630
:100040000C942E160C942E160C942E160C942E1620
:100050000C942E160C942E160C942E160C941A1723
:100060000C942E160C942E160C942E160C942E1600
:100070000C942E160C942E160C942E160C942E16F0
:100080000C9470270C942E160C942E160C942E168D
:100090000C942E160C942E160C942E160C942E16D0
:1000A0000C942E160C942E160C942E1657265726AA
:1000B000572657265526552655265326532653266A
:1000C0005326532653265126512651264F264F2676
:1000D0004F264F264F264F2651265126512653266E
:1000E0005326532655265526552657265726572636
:1000F000040406090F060A0F0F08090D0F0A090B61
:100100000F0F03020F0F070D0D0D0F0A0E0E010D3D
:100110000F030E0B0B0F07050F0FFCFEFFFFFFFF7A
:10012000FFFFFFFFFFFFFFFFFFFFFFFFFFFFFFFFDF
:10013000FFFEFC00010303030303030303030303A4
:10014000030303030303030303030100190A00FC71
:10015000020202020202020202020202020202027F
:100160000202020202FC0000000101010101010182
:100170000101010101010101010101010101000071
:100180000520110005200A0005200A0005200A00AC
:1001900005200A0005200B0005200B0005200B00A0
:1001A00005200B0005200A00051F0A00051E0A0095
:1001B000051D0A00051C0B00051B0B00051A0B0092
:1001C00005190B0005180A0005170A0005160A0094
:1001D00005150A0005140B0005130B0005120B0092
:1001E00005110B0005100A00050F0A00050E0A0094
:1001F000050D0A00050C0B00050B0B00050A0B0092
:1002000004090B0003080A0002070A0001060A009D
:1002100000050A00FCF90001FDF90200FEF70200EA
:10022000FFF6040000F5040001F4020002F50200EC
:1002300003F5040004F6020005F7020006F70400C7
:1002400007F8040008F9040009FB04000AFD020095
:100250000BFF02000C0102000D0302000E0300025E
:100260000F0302001001020011FF020012FD020044
:1002700013FB040014F9040015F8040016F7040039
:1002800017F7020018F6020019F602001AF702002A
:100290001BF704001CF804001DF904001EFB0400F9
:1002A0001FFD020020FF02002101020022030200C4
:1002B00023030003250302002601020027FF02009A
:1002C00028FD020029FB04002AF904002BF8040091
:1002D0002CF704002DF702002EF602002FF6020084
:1002E00030F7020031F7040032F8040033F904005B
:1002F00034FB040035FD020036FF02003701020026
:1003000038030200380300043803020039010200F8
:1003100039FF02003AFD02003BFB04003CF90400F7
:100320003DF804003EF704003FF7020040F60200EB
:1003300041F6020042F7020043F7040044F80400CB
:1003400045F9040046FB040047FD020048FF020097
:10035000490102004A0302004A0300054B03020060
:100360004C0102004DFF02004EFD02004FFB040055
:1003700050F9040051F8040052F7040053F702004A
:1003800054F6020055F6020056F7020057F7040033
:1003900058F8040059F904005AFB04005BFD020000
:1003A0005CFF02005D0102005E0302005F030006C5
:1003B000600302006101020062FF020063F90E00A7
:1003C00064F80E0864F80E0063F90E0062FF020084
:1003D000610102005F0302005F030007F8FCFEFFFB
:1003E000FFFFFFFFFFFFFFFFFFFFFFFFFFFFFFFF1D
:1003F000FFFFFFFFFFFFFFFFFFFFFFFFFFFFFFFF0D
:10040000FFFFFFFFFFFFFFFFFFFFFEFCF8FFFFFF07
:10041000FFFFFFFFFFFFFFFFFFFFFFFFFFFFFFFFEC
:10042000FFFFFFFFFFFFFFFFFFFFFFFFFFFFFFFFDC
:10043000FFFFFFFFFFFFFFFFFFFFFFFFFFFF0001C9
:100440000307070707070707070707070707070740
:10045000070707070707070707070707070707072C
:100460000707070707070707070707070301003103
:100470001300F8040202F2F2F21212F2F2E20202A5
:10048000E2F2F2C2020202F2F2F2020202F202020C
:10049000E2F29292122202F2F2F29292120202041A
:1004A000F80000FF0000005F5F5F010505050258CE
:1004B000071414075F5E50002F5F5F5050502F00ED
:1004C0002C545151535F2E005F5F5F50525000001B
:1004D00000FF000000010202020202020202020208
:1004E00002020202020202020202020202020202EC
:1004F00002020202020202020202020202020202DC
:1005000002010000F8FCFEFFFFFFFFFFFFFFFFFFFF
:10051000FFFFFFFFFFFFFFFFFFFFFFFFFFFFFFFFEB
:10052000FFFFFFFFFFFFFFFFFFFFFFFFFFFFFFFFDB
:10053000FFFFFFFFFFFFFFFFFFFFFFFFFFFFFFFFCB
:10054000FFFFFFFFFFFFFFFFFFFFFFFFFEFCF8FFC6
:10055000FFFFFFFFFFFFFFFFFFFFFFFFFFFFFFFFAB
:10056000FFFFFFFFFFFFFFFFFFFFFFFFFFFFFFFF9B
:10057000FFFFFFFFFFFFFFFFFFFFFFFFFFFFFFFF8B
:10058000FFFFFFFFFFFFFFFFFFFFFFFFFFFFFFFF7B
:10059000FFFFFFFFFFFFFFFFFFFF0001030707074C
:1005A00007070707070707070707070707070707DB
:1005B00007070707070707070707070707070707CB
:1005C00007070707070707070707070707070707BB
:1005D00007070707070707070707070707070707AB
:1005E00007070301004B1300F804C2E2F212125293
:1005F0006242020202E2F2F2C2020202F2F2F202EB
:10060000C2F2F2F20202F2F2F29292120202C2E29A
:10061000F2125212F2E2C232F2F28202827212023A
:10062000F2F2F292921202F2F2F21212F2F2E204F8
:10063000F80000FF00172F5F50515F2F5F00580731
:100640001414075F5E50005F015F5E015F5F5F0033
:10065000005F5F5F5052500000172F5F5050505F97
:100660002F1700035F5F58070000005F5F5F505265
:1006700050005F5F5F01015F5E5800FF00000001F6
:10068000020202020202020202020202020202024A
:10069000020202020202020202020202020202023A
:1006A000020202020202020202020202020202022A
:1006B000020202020202020202020202020202021A
:1006C0000202020202010000090D000404FCFEFE09
:1006D000000000000A0A0B0B0B0A0A00001C82C271
:1006E000E27E3E1C00000B0B0B0B0B0B0B00008083
:1006F000863232FEFECC0000050A0A0A0B0B05000A
:10070000F8FCFEFFFFFFFFFFFFFFFFFFFFFFFFFF04
:10071000FFFFFFFFFFFFFFFFFFFFFFFFFFFFFFFFE9
:10072000FFFFFFFFFFFFFFFFFFFFFFFFFFFFFFFFD9
:10073000FFFFFFFFFFFFFFFFFFFFFFFFFFFFFFFFC9
:10074000FFFFFFFFFFFEFCF8FFFFFFFFFFFFFFFFC4
:10075000FFFFFFFFFFFFFFFFFFFFFFFFFFFFFFFFA9
:10076000FFFFFFFFFFFFFFFFFFFFFFFFFFFFFFFF99
:10077000FFFFFFFFFFFFFFFFFFFFFFFFFFFFFFFF89
:10078000FFFFFFFFFFFFFFFFFFFFFFFFFFFFFFFF79
:1007900000010307070707070707070707070707FA
:1007A00007070707070707070707070707070707D9
:1007B00007070707070707070707070707070707C9
:1007C00007070707070707070707070707070707B9
:1007D0000707070707030100481300F80402020295
:1007E0000202020202020202F2F2F202020202F229
:1007F000F2F20232F2F2820282721202F2F2F29209
:10080000921202E2F2929212220202020202020208
:1008100002020202020202020202020202020204B6
:10082000F80000FF000000000000000000000000D1
:100830005F5F5F505050005F5F5F0000035F5F5875
:10084000070000005F5F5F5050500C545151535FE0
:100850002E0000000000000000000000000000006A
:100860000000000000000000FF0000000102020282
:100870000202020202020202020202020202020258
:100880000202020202020202020202020202020248
:100890000202020202020202020202020202020238
:1008A0000202020202020202020202020202020129
:1008B0000000000000000000000000000000000038
:1008C00000000000000000000000C0F0F8FCFCFC8C
:1008D000FCFCFCFCFCF8F0C0000000000000061F5F
:1008E000FFFFFFFFFFFFFFFFFFFFFFFF1F060000EF
:1008F00000000000000001070707070707070705BA
:10090000000000000000000080FCFEFFFFFFFFFF72
:10091000FFFFFFFFFFFF7C800000000003FFFFFFE1
:10092000FFFFFDFDFDFDFDFDFFFFFFFF7F0300005D
:1009300000000003FFFFFFFFFFFFFFFFFFFFFFFFC0
:100940000300000000000000000001070707070780
:100950000707070500000000000000000000C0E0DD
:10096000C0000000000000000000000000000000C7
:100970000000073FFFFFFDFEFEFEFCFCFCFCF8F85C
:100980007C7E3F0EE0F0F0E0FEFFFFFFFFFFFFFF89
:10099000FFFFFFFFC3800000000001030100010111
:1009A000010101030303070F0F070300000000000C
:1009B0000000C0E0FCFEFEFEFEFEFEFEFEFEFCFCB5
:1009C000F8F000000000073FFFFFFDFEFFFFFDFF06
:1009D000FFFFFBFF7F7F3F0EE0F0F0E0FEFFFFFF39
:1009E000FFFFFFFFFFFFFFFFC380000000000103C8
:1009F00001000101010101030303070F0F070300B9
:100A0000000000000000C0E0C00000000000000086
:100A100000000000000000000000073FFFFFFFFE95
:100A2000FEFEFCFCFCFCF8F87C7E3F0EC0E0E0E043
:100A3000FEFFFFFFFFFFFFFFFFFFFFFF8300000040
:100A400000000103070301010101010303070F0F68
:100A50000F070300000000000000C0E0FCFEFEFCE9
:100A6000FCFCFEFEFEFEFCFCF8F000000000073F70
:100A7000FFFFFFFFFFFFFFFFFFFFFFFF7F7F3F0E37
:100A8000C0E0E0E0FEFFFFFFFFFFFFFFFFFFFFFF13
:100A900083000000000001030703010101010103BD
:100AA00003070F0F0F070300000000000000000005
:100AB0000000000000000000C0E0C0000000000EC8
:100AC0003F7E7CF8F8FCFCFCFCFEFEFEFDFFFF3FD9
:100AD0000700000000000080C3FFFFFFFFFFFFFFD3
:100AE000FFFFFFFFFEE0F0F0E000000003070F0F44
:100AF000070303030101010101000103010000F0EC
:100B0000F8FCFCFEFEFEFEFEFEFEFEFEFCE0C0006B
:100B10000000000E3F7F7FFFFBFFFFFFFDFFFFFE9A
:100B2000FDFFFF3F0700000000000080C3FFFFFF44
:100B3000FFFFFFFFFFFFFFFFFEE0F0F0E00000001F
:100B400003070F0F07030303010101010100010364
:100B50000100000000000000000000000000000094
:100B6000C0E0C0000000000E3F7E7CF8F8FCFCFCFA
:100B7000FCFEFEFEFFFFFF3F07000000000000003C
:100B800083FFFFFFFFFFFFFFFFFFFFFFFEE0E0E04F
:100B9000C000000003070F0F0F070303010101014D
:100BA00001030703010000F0F8FCFCFEFEFEFEFC62
:100BB000FCFCFEFEFCE0C0000000000E3F7F7FFF5B
:100BC000FFFFFFFFFFFFFFFFFFFFFF3F07000000EA
:100BD0000000000083FFFFFFFFFFFFFFFFFFFFFF9D
:100BE000FEE0E0E0C000000003070F0F0F07030363
:100BF0000101010101030703010040E0F0F8F0E00A
:100C0000D0B8FCB8D2C7CFE7F2F8F0E0400000005F
:100C10000F1FFFFFFFFFFFFFFFFFFFFFFFFFFFFFB4
:100C20008F000000000000008FFFFFFFFFFFFFFFAD
:100C3000FFFFFFFFFFFF9800000000000103070710
:100C40000707030100000103070703010000E0F0AC
:100C5000F8F0E040889CBE9CCCCEDFCEE4F0F8F00B
:100C6000E04000010F1FFFFFFFFFFFFFFFFFFFFF3F
:100C7000FFFFFFFF8F010000000000008FFFFFFF5C
:100C8000FFFFFFFFFFFFFFFFFFFF980000000000D6
:100C9000010307070707030100000103070703011A
:100CA0000000000040E0F0F8F2E7CFC7D2B8FCB88F
:100CB000D0E0F0F8F0E0400000008FFFFFFFFFFF02
:100CC000FFFFFFFFFFFFFFFFFF1F0F00000098FF68
:100CD000FFFFFFFFFFFFFFFFFFFFFFFF8F00000091
:100CE00000000001030707030100000103070707D5
:100CF0000703010000000040E0F0F8F0E4CEDFCE92
:100D0000CC9CBE9C8840E0F0F8F0E00000018FFF32
:100D1000FFFFFFFFFFFFFFFFFFFFFFFFFF1F0F01B1
:100D2000000098FFFFFFFFFFFFFFFFFFFFFFFFFF38
:100D30008F0000000000000103070703010000010D
:100D40000307070707030100000000000000000080
:100D50000000000000000000000000000000000093
:100D6000E0FCFEFFFFFFFFFFFFFFFFFEFCE0E0F007
:100D7000F078700080C1FFFFFFFFFFFFFFFFFFFF64
:100D8000FFFFF1F1F1610000000103070707030114
:100D9000010000000000010301000000000000004D
:100DA00000000000C0E0F0F0F0F0F0F0F0F0F0F043
:100DB000C0000000E0FCFEFFFFFFFFFFFFFFFFFFA2
:100DC000FFDFDFFFFF7F783080C1FFFFFFFFFFFF06
:100DD000FFFFFFFFFFFFF1F1F161000000010307DA
:100DE00007070301010000000000010301000000EB
:100DF00000000000000000000000000000000000F3
:100E000000000000000000000000000000000000E2
:100E100000000000000000000000000000000000D2
:100E200000F0F8FCFEFEFEFEFEFCF8F00000000004
:100E3000000000000000070707070707070707076C
:100E4000070000000000151C00000000000000006A
:100E50000000000000000000000000000000000092
:100E6000C0300804F41454145414F40830C00000C2
:100E7000000000000619E600006FD6EEFEEEF67FD9
:100E800000E619060000000000000000010E0A083C
:100E9000080E08080A0D000000000000000080FC99
:100EA0000205252525252525050579837C8000005B
:100EB000000003FC813D0D07F51555155515F70D7F
:100EC0003D817C03000000000003FC00006FD6EEB3
:100ED000FEEEF67F00FC03000000000000000000B2
:100EE000010E0A08080E08080A0D000000000000A4
:100EF00000000000C020C000000000000000000052
:100F000000000000000000000738C00EE51A2A0AA1
:100F10005414F40408985446310EE01010609EA159
:100F2000766B777FEE763F03C07C43800000000045
:100F30000102010001010101010202020609080487
:100F40000300000000000000C020FC82BA0424243A
:100F50004A4A4A4A140408F0000000000738C00E4C
:100F6000E51A2B0B5516F6060A9C5447310EE01075
:100F700010609EA1766B777FEE763F03C07C438046
:100F80000000000001020100010101010102020252
:100F9000060908040300000000000000C020C00093
:100FA0000000000000000000000000000000000041
:100FB0000738C00EE51A2A0A5414F4040898544657
:100FC000310EC02020609EA1766B777FEE763F03C6
:100FD000C07C830000000000010204020101010145
:100FE00001020207090808040300000000000000D5
:100FF000C020FC82BA0424244A4A4A4A140408F055
:10100000000000000738C00EE51A2B0B5516F60637
:101010000A9C5447310EC02020609EA1766B777FDA
:10102000EE763F03C07C8300000000000102040252
:101030000101010101020207090808040300000080
:101040000000000000000000000000000000C020C0
:10105000C0000000000E314654980804F414540AED
:101060002A1AE50EC0380700000000000080437C0B
:10107000C0032F56EE7F777B7EA19E601010E000AC
:101080000000030408090602020201010101010037
:101090000102010000F00804144A4A4A4A242404C8
:1010A000BA82FC20C0000000000E3147549C0A06A2
:1010B000F616550B2B1AE50EC0380700000000008D
:1010C0000080437CC0032F56EE7F777B7EA19E601D
:1010D0001010E000000003040809060202020101EA
:1010E00001010100010201000000000000000000F9
:1010F000000000000000C020C0000000000E3146CB
:1011000054980804F414540A2A1AE50EC03807004B
:10111000000000000000837CC0032F56EE7F777B29
:101120007EA19E602020C00000000304080809077B
:1011300002020101010101020402010000F00804A1
:10114000144A4A4A4A242404BA82FC20C0000000FF
:10115000000E3147549C0A06F616550B2B1AE50E65
:10116000C0380700000000000000837CC0032F5639
:10117000EE7F777B7EA19E602020C00000000304EC
:10118000080809070202010101010102040201002D
:101190000040A010A0400010281080828542A010BE
:1011A000A04000000000000F10E70201FDC5AD9255
:1011B000EAC6F983708F0000000000000000008F75
:1011C00070808B95BB5F5DDE5F2867980000000034
:1011D0000000000102020202010000000001020200
:1011E0000100000040A010A0400000081408808406
:1011F0008A0440A010A040000000010E11E6020188
:10120000FDC5AD92EAC6F982718E010000000000B2
:101210000000008F70808B95BB5F5DDE5F28679854
:1012200000000000000000010202020201000000B4
:10123000000102020100000000000040A010A042D6
:101240008582801028100040A010A04000000000FF
:10125000008F7083F9C6EA92ADC5FD0102E7100F59
:1012600000000000009867285BD55B5FBD9E8F8003
:10127000708F000000000000000001020201000069
:101280000000010202020201000000000000004014
:10129000A010A0428582801028100040A010A0401D
:1012A00000000000008F7083F9C6EA92ADC5FD0111
:1012B00002E7100F00000000009867285BD55B5F15
:1012C000BD9E8F80708F00000000000000000102B2
:1012D0000201000000000102020202010000000001
:1012E00000000000000000000000000000000000FE
:1012F000000000000000E01C02F98D8595859585B1
:10130000F9023C6060509048700080413E608197D7
:101310002B77BFB7BBBFD04E3111916100000001E8
:1013200002040404030101000000000001020100A6
:1013300000000000000000000000C020505050508D
:10134000505050509030C0000000E01C02394D9FBA
:1013500050103212F21232527057905F4830804172
:101360003E6081972B77BFB7BBBFD04E31119161E3
:101370000000000102040404030101000000000059
:101380000102010000000000000000000000000059
:10139000000000000000000000000000000000004D
:1013A000000000000000000000000000000000003D
:1013B0000000000000000000F0587C5CDC58F408DD
:1013C000F000000000000000000000000003030324
:1013D00003030303000300000000000080C080C07E
:1013E000C0C0E0FCFEFFFFFFFFFFFFFFFFFEFC01B0
:1013F0000303030303033F7FFFFFFFFFFFFFFFFF25
:101400007F3F00000000000000000303030303030C
:1014100003030300001312804080C040C0601C0220
:10142000FD8595A59585FD0102FC010202020202DF
:10143000023E409B353BBF3B3D9F80403F0000004C
:101440000000000000030202020302020203000087
:10145000FCFEFFFFFFFFFFFEFC0F1F3F3F3F3F3F34
:101460003F3F090EFC02F90505E50502FC0F102FB0
:1014700020202720203F307CFEFFFFFFFFFFFEFCE7
:10148000E0E0F0F0F0F0E0E0C080000000000001DB
:10149000030707070707377FFFFFFFFF5F3F7F7FD8
:1014A0003F120000000000000000000000000001EA
:1014B000010000000000000000000080C0C0E0E863
:1014C000FCFEFFFFFFFFFEFEFCF8F0800000003C8A
:1014D0007FFFFFFFFFFF7F3F070F0F07020103039F
:1014E00001000000000000000000000000000000FB
:1014F00000000000000000000000000000000000EC
:1015000000F0FCFEFFFFFFFFFFFE8F070200000060
:1015100000000078FCFEFFFF7F7FFF7F070F0F07B3
:1015200003000000000000000000000101000000B6
:10153000000000000000000000000000000080C06B
:10154000E0E0F0F0F0F0E0E0FCFEFFFFFFFFFFFE68
:101550007C30123F7F7F3F5FFFFFFFFF7F37070732
:101560000707070301000000000000000000000161
:10157000010000000000000000000000000000006A
:1015800080F0F8FCFEFEFFFFFFFFFEFCE8E0C0C0BD
:10159000800000000000000103030102070F0F0795
:1015A0003F7FFFFFFFFFFF7F3C00000000000000C7
:1015B000000000000000000000000000000000002B
:1015C00000000002078FFEFFFFFFFFFFFEFCF000A0
:1015D000000000000000000000000003070F0F07DC
:1015E0007FFF7F7FFFFFFEFC78000000000000000F
:1015F00000000000000000000000000101000000E9
:1016000000001611304C82959D899599029C60A02E
:10161000D0501050A0A04080000000000001020443
:1016200004040404354E810A13B2522048482D1296
:1016300000000000000000000000000000010100A8
:101640000000000000000000008040402028B46A34
:101650001D4591B5AA0A444870800000003C43B87B
:10166000AC98ACB8413E0408080502010202010032
:10167000000000000000000000000000000000006A
:10168000000000000000000000000000000000F06A
:101690000C0261451139817A8905020000000000C1
:1016A0000078843211814140807E040908040300DF
:1016B0000000000000000000000101000000000028
:1016C0000000000000000000000000008040A0A01A
:1016D000501050D0A0609C029995899D95824C3005
:1016E000122D48482052B2130A814E3504040404D6
:1016F00004020100000000000000000000010100E1
:1017000000000000000000000000000000008070E9
:1017100048440AAAB591451D6AB42820404080007B
:1017200000000000000102020102050808043E4119
:10173000B8AC98ACB8433C000000000000000000CA
:101740000000000000000000000000000000000099
:10175000000205897A8139114561020CF000000010
:1017600000000000000000000003040809047E805F
:101770004041811132847800000000000000000028
:101780000000000000000000000101000000000057
:1017900060F8FCFEFFFFFFFFFFFEFCF8C0E0E0E0AA
:1017A000E0C0C08000000000000103070F1F1F1FE2
:1017B0001F7FFFFFFFFFFFFFFFFFFFFFFE54000043
:1017C0000000000000000000000001030707030103
:1017D00000010100000000000080C0C0E0F0F8FC43
:1017E000FEFEFEFEFCFCF8F0E08000000078FEFF4C
:1017F000FFFFFFFFFFFFFF7F3F3F1F0F070F0F0799
:1018000003010000000001030303030301000000C3
:1018100000000000000000000000000000000000C8
:1018200000E0F8FCFEFEFEFEFEFEFF1F0F060000BD
:10183000000000F0F8FCFEFFFFFFFFFFFFFF3F3F4F
:101840001F0F07000000000000000001030707034E
:101850000101030100000000000000000000000082
:10186000000080C0C0E0E0E0E0C0F8FCFEFFFFFF49
:10187000FFFFFEFCF86054FEFFFFFFFFFFFFFFFFCE
:10188000FFFF7F1F1F1F1F0F070301000000000144
:101890000100010307070301000000000000000031
:1018A00000000000000080E0F0F8FCFCFEFEFEFE00
:1018B000FCF8F0E0C0C08000000000000103070F4A
:1018C0000F070F1F3F3F7FFFFFFFFFFFFFFFFFFEE1
:1018D000780000000000000000000000000000018F
:1018E000030303030301000000000000060F1FFFB5
:1018F000FEFEFEFEFEFEFCF8E00000000000000020
:101900000000000000070F1F3F3FFFFFFFFFFFFF2A
:10191000FFFEFCF8F00000000000000000000000E6
:101920000000010301010307070301000000171372
:10193000609864FAD5C5FDD5C5FAC438C02020200A
:10194000A040408000000000000102040A161616A4
:101950001776856CF0E0D09051B16041AA54000038
:101960000000000000000000000001020505020167
:10197000000101000000000000804040A090881499
:101980003282020A14148890608000000078867900
:101990008EAFFF8FAF7C83772F2E140A050B0B05BC
:1019A0000201000000000102020202020100000028
:1019B0000000000000000000000000000000000027
:1019C00000E01804828A0202020AED1509060000EE
:1019D000000000F008F49ABDDD7C7EFE02F52C2E9E
:1019E00017080700000000000000000102050502C2
:1019F00001010201000000000000000000000000E2
:101A00000000804040A0202020C038C4FAC5D5FD89
:101A1000C5D5FA64986054AA4160B15190D0E0F005
:101A20006C8576171616160A0402010000000001E4
:101A30000100010205050201000000000000000095
:101A40000000000000008060908814140A028232B6
:101A5000148890A040408000000000000102050BA7
:101A60000B050A142E2F77837CAF8FFFAF8E7986FC
:101A700078000000000000000000000000000001ED
:101A8000020202020201000000000000060915ED3A
:101A90000A0202028A820418E0000000000000002E
:101AA00000000000000708172E2CF502FE7E7CDDEA
:101AB000BD9AF408F00000000000000000000000E3
:101AC0000000010201010205050201000000040EF0
:101AD0001F3F1F1E3C7838100C1E1F3F1F1E1E0F7D
:101AE0000E041038783C1E1F3F1F0E04040E0F1EFC
:101AF0001E1F3F1F1E0C0A0700040E1E0E0C08308E
:101B00001000000C0E1E0E0C080604000010300819
:101B10000C0E1E0E0400000406080C0E1E0E0C0017
:101B2000010204081020408021080F0F0808000659
:101B3000090B06000E03030E000F090F06000F0F1E
:101B4000000F02030F000E0F090D000E10BEBDBEE8
:101B5000BDBEBDBEBDBEBDBEBDBE00000400040016
:101B60000400040004000400004E080F0D070200EA
:101B70000F050F0A000F0D0900020B0D00020B0DDF
:101B800000000000000F0D0702000F0F0808000EF4
:101B900003030E00030E0E0300000006090B0600EF
:101BA0000F02030F00000000010F0F010E03030ED0
:101BB000000F0D0702000F0D090E10A7C7A7C7A73A
:101BC000C7A7C7A7C7A7C7A700070707070707072C
:101BD0000707070707070024080E1F1F1F0E000036
:101BE0000000000000000000001F0E0400000000C4
:101BF0000000000000040E1F00040E1F000000C6BD
:101C000001DC03F1000000B8011704F1000000B886
:101C1000017003F1000000B8017003F1000000D56D
:101C200000DC03F1000000D500DC03460200006385
:101C3000001704F1000000B8017003F1000000D5A6
:101C400000BA02C60100001900BA02E30000001940
:101C5000009302E30000007D004B0283040000E8D3
:101C6000030000C601DC03F1000000B8011704F115
:101C7000000000B8017003F1000000B8017003F12A
:101C8000000000D500DC03F1000000D500DC0346B5
:101C900002000063001704F1000000B8017003F1B6
:101CA000000000D500BA02C60100001900BA02E324
:101CB00000000019009302E30000007D004B028346
:101CC000040000E8030080F87CFE8FD7DBD78FFE8E
:101CD0007CF878FCFC78F87CF87078EC78287CF854
:101CE0007C080000F87CFE83ABABAB97FE7CF878F9
:101CF000FC78FC70F87CF878FC7CF878FCFC783098
:101D00000103060D0D0D0D0D06030100000000007E
:101D100000000000000000000000000000010306B9
:101D20000D0D0D0D0D060301000000000000000068
:101D3000000000000000000000390C0078FC8ED686
:101D4000DAD68EFC780000785800702870001048B1
:101D500020000870080000000078FC82AAAAAA9659
:101D6000FC780000782078007028700078285000F7
:101D70007848300000010205050505050201000054
:101D80000000000000000000000000000000000053
:101D90000000010205050505050201000000000024
:101DA00000000000000000000000000000040E1F02
:101DB0003F1F1E3C7838100C1E1F3F1F1E1E0F0EAB
:101DC000041038783C1E1F3F1F0E04040E0F1E1E09
:101DD0001F3F1F1E0C0A0700040E1E0E0C083010B9
:101DE00000000C0E1E0E0C08060400001030080C3B
:101DF0000E1E0E0400000406080C0E1E0E0C00FC45
:101E0000FEFFFFFFFFFFFFFFFFFFFFFFFFFFFFFFE3
:101E1000FFFFFFFFFFFFFFFFFFFFFFFFFFFFFFFFD2
:101E2000FFFFFFFFFFFFFFFFFFFFFFFFFFFFFFFFC2
:101E3000FFFFFFFFFFFFFFFFFFFFFFFFFFFFFFFFB2
:101E4000FFFFFFFFFFFFFFFFFEFEFCFFFFFFFFFFA7
:101E5000FFFFFFFFFFFFFFFFFFFFFFFFFFFFFFFF92
:101E6000FFFFFFFFFFFFFFFFFFFFFFFFFFFFFFFF82
:101E7000FFFFFFFFFFFFFFFFFFFFFFFFFFFFFFFF72
:101E8000FFFFFFFFFFFFFFFFFFFFFFFFFFFFFFFF62
:101E9000FFFFFFFFFFFFFFFFFFFFFFFFFFFFFFFF52
:101EA000FFFFFFFFFFFFFFFFFFFFFFFFFFFFFFFF42
:101EB000FFFFFFFFFFFFFFFFFFFFFFFFFFFFFFFF32
:101EC000FFFFFFFFFFFFFFFFFFFFFFFFFFFFFFFF22
:101ED000FFFFFFFFFFFFFFFFFFFFFFFFFFFFFFFF12
:101EE000FFFFFF3F7FFFFFFFFFFFFFFFFFFFFFFF42
:101EF000FFFFFFFFFFFFFFFFFFFFFFFFFFFFFFFFF2
:101F0000FFFFFFFFFFFFFFFFFFFFFFFFFFFFFFFFE1
:101F1000FFFFFFFFFFFFFFFFFFFFFFFFFFFFFFFFD1
:101F2000FFFFFFFFFFFFFFFFFFFFFFFFFFFFFF4C74
:101F30002000FC02025212F2F2F2125202F2F2F20B
:101F4000020202F202F2F2F21212F2F2E21212F2C1
:101F5000F2F2125202F2F2F202020202F2F2F292F1
:101F60009212020202020202C22212D252525252B1
:101F700052D222C2020202020202FC000000FF0052
:101F80000000005F5F5F008080AF9F9F1050502F68
:101F9000005F5F5F01015F5E5800005F5F5F0000F0
:101FA000005F5F5F505050005F5F5F505250000015
:101FB000000018671800003F58397839587F00181A
:101FC000671800000000FF000000FF000000403024
:101FD0004CB27D6A627E6A62FD629C4000400000F5
:101FE00000FFFFFF1111FFEFEE00FFFFFF1111FFD8
:101FF000EF8E00FFFFFF00FFFFFF0101FFFE7C00EF
:102000007CFEFF0111F5F6F40000FFFFFF09290136
:102010000000FF0000001F20202020212224252472
:10202000252525252525242221202020202525257C
:102030002525252522202525252020252525202567
:102040002525202525252525252221202122252558
:1020500025252225202025252525252520201F0072
:1020600000080B0002020201000904000001020244
:1020700000000524001001052401010104240206CA
:102080000524060001070581031000400904010032
:10209000020A000000070502024000000705830253
:1020A0004000000403090412010002EF0201404154
:1020B00023368000010102030141726475696E6F6D
:1020C000204C4C430041726475696E6F204C656F03
:1020D0006E6172646F00D5F08D14A1C881CFD9F103
:1020E000AF20000000000000000000000000000021
:1020F0000000000000000000800000000000000060
:1021000000000000000000000000000000000000CF
:1021100000000000000000000000000000000000BF
:1021200000000000000000000000000000000000AF
:10213000000000000000000000000000000000009F
:1021400000000000000000000000000000FFFFFE93
:10215000FEFEFCF8F8F8F0F0F0F8F0F8FCF8FCFE01
:10216000FEFFFFFFFEFCFCF8FCF8FCFEFCFEFEFCA4
:10217000FCFCFEFEFEFEFCFEFCFEFCF8FCF8F0F8AB
:10218000F0F0F0F0F0E0E0E0C0E0F0FCFEFFFEFE7A
:10219000FCFEFCFEFCFEFCF8F0F8FCFEFCFCFCF88F
:1021A000F8F8F8FCF8F8FCF8FCF8F8F0F0F0F8F8BB
:1021B000F8FCFEFEFEFFFF6A1000000000000000B9
:1021C000000000000000000000000000000000000F
:1021D00000000000000000000000000000000000FF
:1021E00000000000000000000000000000000000EF
:1021F00000000000000000000000000000000000DF
:1022000000000000000000000000000000000000CE
:1022100000000000000000000000000000000000BE
:10222000000000FEFEFCFCFCF8F0F0F0E0E0E0F066
:10223000E0F0E8D0E8D4F8FEFFFEFCF8E8F0E8F0C3
:10224000E8D4E8D4ECF8F8F8FCFCFCFCF854A8540A
:10225000A8D0A8D0E0F0E0E0E0E0E0C0C0C080405E
:10226000A0F0FCFEFCF4E854A854A854A8D0E0F078
:10227000F8FCD8B8D8B0F0F0F0F8E0D0E8D0A8E09A
:10228000F0E0E0E0F0F0F0F8FCFCFCFEFEFFFFFF09
:10229000FF03030303040AB24DB24D0102010274AD
:1022A0008B748B0300030080C0C0E0E0E0E0E0F04E
:1022B000F0F0FFFFFFFFFFFFFFFFFFFFFF001FFF2B
:1022C000FFFFFFFFFFFFFFFF38FFFFFFFFFFFFFFE5
:1022D000FFFFFF80C3FFFFFFFFFFFFFFFFFFFFFFC9
:1022E000FFFFFFFFFFFFFFFFFF01010101010101F0
:1022F000010101010B38008080C0C0C0C0C0C0E037
:10230000E000FEFEFCFA54A00000010100001FFFE7
:10231000FFFDAA50A000000038FFFFFFFFFFFDAA4D
:1023200055AA0080C37FFF7F3F7F3F7DEAF8D382BD
:102330004420010A04800120010101010001000084
:10234000000101F0F0F0E0E0E0E0E0C0C080FFFF5D
:10235000FFFFFFFFFFFFFFFFFFFFFFFFFFFFFFFF8D
:10236000FFFF1F00FFFFFFFFFFFFFFFFFFFF38FF23
:10237000FFFFFFFFFFFFFFFFC380FFFFFFFFFFFF28
:10238000FFFFFFFFFFFFFFFFFFFFFFFFFFFFFFFF5D
:102390000B38E0E0C0C0C0C0C0C0808000010100B8
:1023A00000A054FAFCFEFE000000A050AAFDFFFFB2
:1023B0001F0000AA55AAFDFFFFFFFFFF3800EA7DBE
:1023C0003F7F3F7FFF7FC38000200180040A012000
:1023D0004482D3F8010100000001000101010180E5
:1023E00010A055A055A055A055A055A055A055A08A
:1023F00055A055A055A357A757AF5FBF7FBF7FBF5D
:102400007FBF5FAF57AF5FAF5FAF57A357A355A075
:1024100055A055A0D5E0D5E0F5F8FDF8FDF8F5E0BC
:10242000D5E0F5F0FDF8FDFCFDF8F5E0F5E0D5A010
:1024300055A357A75FBF7FBF7FBF5FBF7FFF7FFFF2
:102440007FBF5FAF5FBF5FA757A355A055A055A043
:1024500055A055A055A055A055A055A055A055A0D4
:1024600055FFD5FF75FFD5FF75FFD5FF75FFD5FF6C
:1024700075FFD5FF75FFD5FF75FFD5FF75FFD5FF3C
:1024800075FFD5FF75FFD5FF75FFD5FF75FFD5FF2C
:1024900075FFD5FF77FFDFFF7FFFFFFF7FFFDFFFC8
:1024A0007FFFFFFF7FFFFFFF7FFFDFFF7FFFD7FF84
:1024B00075FFD5FF75FFD5FF75FFD5FF75FFD5FFFC
:1024C00075FFD5FF75FFD5FF75FFD5FF75FFD5FFEC
:1024D00075FFD5FF75FFD5FF75FFD5FF75FFD5FFDC
:1024E000D507070707070606060606060606060EB0
:1024F00003020202020204040000000000000003C4
:102500000303030303030303030A0202020202029A
:10251000020202020206060606060606060607076D
:102520000707070E03000000000000000404020279
:10253000020202FCFCFCFCFCFCFCFCFCFCFCFCFCC9
:10254000FCFCFCFCFFFFFFFFFFFFFFFFFFFFFFFFA7
:10255000FFFEFCF80101010101010101010101017E
:1025600001010101010101010103070F0F0F0F0F0D
:102570000F0F070301210C00007828100078285065
:102580000078580010482000104820000078FC8E89
:10259000D6DAD68EFC7800000000000000000000B3
:1025A0000000000000000000000000000000010228
:1025B0000505050505020100000408022905023E83
:1025C00009093E3F25251A1E2121123F21211E3FC8
:1025D0002525213F0505011E21293A3F04043F21FD
:1025E0003F21001021211F3F040A313F2020203FBE
:1025F00002023F3F02043F1E21211E3F0909061E21
:1026000021112E3F09093622252519013F01011FFD
:1026100020201F0F10201F3F10103F3B04043B03DE
:10262000043807312D23211E29251E223F20003288
:102630002929261221251A0C0A3F08172525191EBB
:10264000252518013905031A25251A0629291EFCF6
:10265000FEFFFFFFFFFFFFFFFFFFFFFFFFFFFFFF8B
:10266000FFFFFFFFFFFFFFFFFFFFFFFFFFFFFFFF7A
:10267000FFFFFFFFFFFFFFFFFFFFFFFFFFFFFFFF6A
:10268000FFFFFFFFFFFFFFFFFFFFFFFFFFFFFFFF5A
:10269000FFFFFFFFFFFFFFFFFFFFFFFFFFFFFFFF4A
:1026A000FFFFFFFEFEFCFFFFFFFFFFFFFFFFFFFF3F
:1026B000FFFFFFFFFFFFFFFFFFFFFFFFFFFFFFFF2A
:1026C000FFFFFFFFFFFFFFFFFFFFFFFFFFFFFFFF1A
:1026D000FFFFFFFFFFFFFFFFFFFFFFFFFFFFFFFF0A
:1026E000FFFFFFFFFFFFFFFFFFFFFFFFFFFFFFFFFA
:1026F000FFFFFFFFFFFFFFFFFFFFFFFFFF010307DC
:102700000707070707070707070707070707070759
:102710000707070707070707070707070707070749
:102720000707070707070707070707070707070739
:102730000707070707070707070707070707070729
:102740000707070707070707070707070707070719
:1027500007070703571300FC0202F2F2F282F2F2BB
:10276000F202F2F2F202C2E2F2121252624202F2F9
:10277000F2F282F2F2F20202E2F29292122202C229
:10278000E2F2321212722202C2E2F2125212F2E2A9
:10279000C202F2F2F21212F2F2E202F2F2F29292B9
:1027A0001202E2F2929212220202FC000000FF00EA
:1027B000005F5F5F005F5F5F005F5F5F00172F5F1D
:1027C00050515F2F5F005F5F5F005F5F5F002C5CB9
:1027D0005151535F2E00172F5F585050582E00173D
:1027E0002F5F5050505F2F17005F5F5F01015F5EEA
:1027F00058005F5F5F5052500C5C5151535F2E0088
:1028000000FF0000000102020202020202020202B4
:102810000202020202020202020202020202020298
:102820000202020202020202020202020202020288
:102830000202020202020202020202020202020278
:102840000202020202020202020202020202020268
:102850000202020202020202010000FFFFFFFFFF6C
:10286000FFFFFFFFFFFFFFFFFFFFFFFFFFFFFFFF78
:10287000FFFFFFFFFFFFFFFFFFFFFFFFFFFFFFFF68
:10288000FFFFFFFFFFFFFFFFFFFFFFFFFFFFFFFF58
:10289000FFFFFFFFFFFFFFFFFFFFFFFFFFFFFFFF48
:1028A000FFFFFFFFFFFFFFFFFFFFFFFFFFFFFFFF38
:1028B000FFFFFFFFFFFFFFFFFFFFFFFFFFFFFFFF28
:1028C000FFFFFFFFFFFFFFFFFFFFFFFFFFFFFFFF18
:1028D000FFFFFFFFFFFFFFFFFFFFFFFFFFFFFFFF08
:1028E000FFFFFFFFFFFFFFFFFFFFFFFFFFFFFFFFF8
:1028F000FFFFFFFFFFFFFFFFFFFFFFFFFFFFFFFFE8
:10290000FFFFFFFFFFFFFFFFFFFFFFFFFFFFFFFFD7
:10291000FFFFFFFFFFFFFFFFFFFFFFFFFFFFFFFFC7
:10292000FFFFFFFFFFFFFFFFFFFFFFFFFFFFFFFFB7
:10293000FFFFFFFFFFFFFFFFFFFFFFFFFFFFFFFFA7
:10294000FFFFFFFFFFFFFFFFFFFFFFFFFFFFFFFF97
:10295000FFFFFFFFFFFFFFFFFFFFFFFFFFFFFFFF87
:10296000FFFFFFFFFFFFFFFFFFFFFFFFFFFFFFFF77
:10297000FFFFFFFFFFFFFFFFFFFFFF030303030353
:102980000303030303030303030303030303030317
:102990000303030303030303030303030303030307
:1029A00003030303030303030303030303030303F7
:1029B00003030303030303030303030303030303E7
:1029C000030303482200FC06020202020202020282
:1029D00002020202020202020202020202020202D7
:1029E00002020202020202020202020202020202C7
:1029F00002020202020202020202020202020202B7
:102A00000202020202020202020206FC0000FF00B1
:102A100000000000000000000000000000000000B6
:102A200000000000000000000000000000000000A6
:102A30000000000000000000000000000000000096
:102A40000000000000000000000000000000000086
:102A5000000000FF0000FF00000000000000000078
:102A60000000000000000000000000000000000066
:102A70000000000000000000000000000000000056
:102A80000000000000000000000000000000000046
:102A90000000000000000000000000FF0000FF80B8
:102AA0000000000000000000000000000000000026
:102AB0000000000000000000000000000000000016
:102AC0000000000000000000000000000000000006
:102AD00000000000000000000000000000000000F6
:102AE000000080FF0000000101010101010101015E
:102AF00001010101010101010101010101010101C6
:102B000001010101010101010101010101010101B5
:102B100001010101010101010101010101010101A5
:102B2000010101010101010101010100000B1D0270
:102B30000100201D020114351D0201284A1D030158
:102B40003C5F1D030150B8013200A4013200900126
:102B500032007C0132006801320054013200400131
:102B600032002C0132001801320004013200F00062
:102B70003200DC003200C8003200B4003200A00095
:102B800032008C00320078003200640032005000C5
:102B9000320000000A005000320000001400500013
:102BA0003200000028005000320000003C005000BD
:102BB000320000005A000000820050003200000085
:102BC000B400500032000000F00000003601500058
:102BD000320000008601500032000080B80132004F
:102BE000700332000080B8013200B400320000806F
:102BF000DC003200B80132007003320000801E0099
:102C00003200320032000080A42CBB2F11241FBEE2
:102C1000CFEFDAE0DEBFCDBF11E0A0E0B1E0E2E649
:102C2000F4E602C005900D92A43CB107D9F727E065
:102C3000A4ECB1E001C01D92A033B207E1F716E1A8
:102C4000C5E0D6E104C02197FE010E94EC30C430FB
:102C5000D107C9F70E94532D0C9424320C94000024
:102C60008091190708950895089580E090E00895EF
:102C7000FC018381823019F0833041F00895808116
:102C80008D3010F0815006C083E007C08081883607
:102C900018F48F5F8083089582E0838308950895F8
:102CA000EF92FF920F931F93CF93DF931F92CDB7B5
:102CB000DEB7DC01FB01818522852095282384FF76
:102CC00018C051968C915197803128F48F5F51969E
:102CD0008C93519711C0F89487E7809300088093F4
:102CE0000108A89588E18093600088E080936000E7
:102CF000FFCF51961C9251978B017D01822F8C70D2
:102D000069F023FB882780F991E08927FB01838BF9
:102D100064E0C80129830E94771E298127FD02C033
:102D2000207721F065E0C8010E94771EB801C70135
:102D30000E94B222F8018781908566E070E00E94CF
:102D4000D830892B21F5C70143960E943816F80127
:102D5000878190856CE070E00E94D830892B29F43F
:102D6000F701958981E08927858BC70147960E94E5
:102D70003816F801878190856CE070E00E94D830A9
:102D8000892B29F4F701918D81E08927818FF70143
:102D90008289883C10F48F5F828B0F90DF91CF91F6
:102DA0001F910F91FF90EF900895FC01DB011A969F
:102DB0008C911A97809519969C911997892351F0B7
:102DC0008281882311F08CE782838281811102C085
:102DD00081E082839281992341F09F5F92839D37A6
:102DE00021F462E0CD010C94771E0895FC01DB0113
:102DF00080E1838B89E2848B83E0868B98E6978BD6
:102E000090E3908F92E0928F52968C9352975196C6
:102E10001C921E92509754961C9280E396E19093D8
:102E2000C5018093C401CF010E94BC238DEF9BE1BB
:102E30000C94D0271F920F920FB60F9211242F934C
:102E40003F938F939F93AF93BF9380911A07909175
:102E50001B07A0911C07B0911D073091C60123E00C
:102E6000230F2D3720F40196A11DB11D05C026E8C2
:102E7000230F0296A11DB11D2093C60180931A074E
:102E800090931B07A0931C07B0931D078091150713
:102E900090911607A0911707B09118070196A11DF0
:102EA000B11D8093150790931607A0931707B09351
:102EB0001807BF91AF919F918F913F912F910F90E4
:102EC0000FBE0F901F9018956F927F928F929F92D6
:102ED000AF92BF92CF92DF92EF92FF920F931F9328
:102EE000CF93DF9300D000D0CDB7DEB73A014115C4
:102EF000510509F401C2FA01F49031965491F2E0BF
:102F00006F0E711CAF2CB12C211102C0EE2069F1A3
:102F1000A52FA695A695A695B0E0E1E0F0E0352FA7
:102F2000377011F4E0E0F0E0AE0FBF1FAA9EF00191
:102F3000AB9EF00DBA9EF00D1124A3E08A2EC810AE
:102F400003C0EE0FFF1F0AC00115110539F0EE9EF8
:102F5000D001EF9EB00D11240A0F1B1F2E9FD00130
:102F60002F9FB00D11246A0E7B1E2FEFC21208C0D6
:102F70000115110519F0CC24C39402C032E0C32E10
:102F8000DC01AA0DBB1D1A161B060CF0B5C180385A
:102F900091050CF0B1C19B01250F311D12161306CE
:102FA0000CF0AAC1603471050CF0A6C16114710463
:102FB00009F4A2C1362F3770932EFB0177FD3796A7
:102FC00023E0F595E7952A95E1F72E2F77FF04C0CA
:102FD000992011F02FEF2E0F97FF05C0EE27FF2746
:102FE000E81BF90B02C0E0E0F0E0A038B1051CF0EE
:102FF00030E8381B01C03F2D3E1B622F022E000C13
:10300000770B2F3F1CF4462F409501C040E0B1E004
:10301000A52FA77009F4B0E0569556955695DB2E6E
:10302000D50E6D0D711D693071051CF058E0D52E5F
:10303000D21AD41A240FDC0150E82503A00DB11DCB
:103040001124AE0FBF1F4F9DE00DF11D1124A301F0
:103050004E0F5F1F81E090E07C01092C02C0EE0C56
:10306000FF1C0A94E2F783E0C81609F404C18C152A
:10307000A8F091E0C91609F4B5C0E2E0CE123CC157
:103080008FEF8E9DB0018F9D700D1124609570950E
:103090007C836B837C806D2C620E2BC0FAEFCF1685
:1030A00031F09BEF892EC81027C1D20E87C0D20EF7
:1030B00051C0FA01E00FF11FE491EE9D6001EF9D18
:1030C000D00C1124DA82C98227FD07C0FC01D08010
:1030D000ED2DE623CE2AFC01C082911013C00F5FB4
:1030E0001F4F0196031728F32F5F4A0D5B1DA05851
:1030F000BF4F261509F400C1CD0180539E4F00E05B
:1031000010E0F0CF27305CF7FC01E058FF4FC080A3
:10311000C7208A80C828C082E2CFFA01E60FF71FD5
:10312000E491EE9D8001EF9D100D11241A83098317
:1031300027FD04C0FC011081012B0083911013C0F6
:103140006F5F7F4F0196631740F32F5F4A0D5B1D42
:10315000A058BF4F2D1509F4CFC0CD0180539E4F0D
:1031600060E070E0F0CF27305CF78C0100581F4F13
:10317000F801C080FA81CF2AF801C082E1CFFA01BC
:10318000E00FF11FE491EE9DC001EF9D900D112421
:103190009A83898327FD05C08095FB01908189234F
:1031A0008083911014C00F5F1F4F6F5F7F4F031715
:1031B00030F32F5F4A0D5B1DA058BF4F2D1509F44A
:1031C0009BC0BD0160537E4F00E010E0F0CF273080
:1031D00054F7FB01E058FF4F8A8180959081892345
:1031E0008083E1CF0E0F1F1F8D2C820E281509F44E
:1031F00083C0CD0180539E4F6C0160E070E0631787
:1032000090F5F801E60FF71FE491EE9DC001EF9DE8
:10321000900D1124809590959C838B83FA01E60F85
:10322000F71FE491EE9D3001EF9D700C11247A821E
:10323000698227FD05C0F60190818923682A608292
:10324000992059F027304CF4F601E058FF4F908157
:103250008C8189239A81892B80836F5F7F4FFFEF59
:10326000CF1ADF0ACCCF2F5F4A0D5B1D0A0D1B1D45
:10327000A058BF4FBBCF832F90E0E40FF51FA053A2
:10328000BE4F60E870E0681B790BA81AB90A850187
:10329000000F111F5D2D832ECF93DF93ED01EF966D
:1032A000EF962296A590C590992059F0AE9C5001BA
:1032B000CE9C600127302CF4F880D094FD20FB28B0
:1032C000F99222233AF0FC90C094FC20FA28FD9257
:1032D0000C946B1911963A9529F75A9551F0382D9F
:1032E00023951124E00FF11DA60FB11DC60FD11DAE
:1032F000D9CFDF91CF9111240F900F900F900F90A5
:10330000DF91CF911F910F91FF90EF90DF90CF90C1
:10331000BF90AF909F908F907F906F900895CF92C5
:10332000EF920F931F9332E0C32EE12C00E010E0E8
:103330000E9464171F910F91EF90CF900895CF9343
:10334000DF93EC0120E047ED5BE161E170E08FE2AB
:1033500090E00E948F1920E049EB5BE16AE170E0A8
:103360008BE290E00E948F1920E049EB5BE16AE17B
:1033700070E089E490E00E948F198A8120E0811139
:1033800012C049EB5BE16AE170E08AE390E00E94E1
:103390008F1920E049E65BE16EE270E08AE190E09F
:1033A0000E948F1933C04BE45BE16AE170E08AE36D
:1033B00090E00E948F1920E048E25BE16EE270E04D
:1033C0008CE290E00E948F198A816FE00E94CC30DD
:1033D000837040E050E161E370E0C0E2DBE1481758
:1033E000A9F0942F990F915B9B01FE01529FD00190
:1033F000A0781124A90F2770E20FF11D9491A0531A
:10340000BE4F2C91922B9C934F5FE9CFE0EDF1E002
:1034100081E0A0E0B8E000800EBC8111012C119782
:10342000A0FDFDCF0192B9F70DB4DF91CF910895C2
:10343000CF92EF920F931F93F901202FCC24C394C6
:103440008F010E9464171F910F91EF90CF90089504
:10345000EF920F93CF93DF93EC010E947224CE0181
:103460000E946322E12C00E02FEF3DE14FE25FE19B
:1034700069E070E08AE190E00E94181A8E8982303B
:1034800011F092E001C090E00D8981E00827090F5A
:103490006C8970E08B89E02E2DEA3DE145ED5DE120
:1034A00090E00E94181A8A8D823011F092E001C0DB
:1034B00090E0098D81E00827090F688D70E08F8901
:1034C000E02E2DEA3DE145ED5DE190E00E94181A05
:1034D0008A89883C61F4E12C00E027EC3CE149E377
:1034E0005DE16AE270E083E290E00E94181ADF91E9
:1034F000CF910F91EF900C944B1E4F925F926F9271
:103500007F928F929F92AF92BF92CF92DF92EF9273
:10351000FF920F931F93CF93DF9300D000D0CDB7CE
:10352000DEB75C014B010E947224650120E4C20EEB
:10353000D11C10E045E0F42EF6013297308131962F
:103540002081D6018C9133979081992311F113300A
:1035500010F090E001C092E0E92EE20E133010F07E
:1035600000E001C002E090E0020FFC01EA5EFE4FC5
:10357000608170E0F39E800D911D1124FC01E55ED9
:10358000FE4F80812EEC3AE146EF5AE190E00E9436
:10359000181A1F5FB8E0CB0ED11C153069F6650113
:1035A000E9E1CE0ED11C3501FFE16F0E711C250142
:1035B0002CE3420E511CC414D50409F444C0F30199
:1035C000319790813197D3018C91D6011C91911143
:1035D00018C09081833011F020E001C023E0E22E7A
:1035E000E90E833011F000E001C003E0090FC601CD
:1035F0000E943226682F70E020E937E14EE259E15F
:1036000017C09081833011F020E001C023E0E22E4A
:10361000E90E833011F000E001C003E0090FC6019C
:103620000E943226682F70E026E734E142E056E13E
:10363000812F90E00E94181AB7E0CB0ED11CE7E072
:103640006E0E711CB8CFF501E558FF4F80818823BD
:1036500061F0E12C00E020E534E142E654E168E06D
:1036600070E081E090E00E94181AE12C00E02AE16D
:1036700031E04CE451E061E070E084E390E00E94CE
:10368000181A19821A821B821C82D40150968C91BE
:10369000509751969C91FE0131960AE010E024E08B
:1036A0002E0FB8010E94D8308193CB012E13F9CF91
:1036B0002E01B5E04B0E511C37E3632E712C2AEF1F
:1036C000C22EE12C00E010E0F20122912F0140EF28
:1036D00050E064E070E0C3010E946417F5E06F0EF3
:1036E000711C2BE46216710451F7F501EC59FF4F80
:1036F00080812CED33E145E154E163E070E090E03E
:103700000E94181A650181E1C80ED11CC6010E94F1
:103710005926182F8F3F19F0682E712C02C0612C8A
:10372000712CC6010E946A26E82EC6010E946A26F4
:10373000082F1F3F61F087E0869DF001879DF00D07
:103740001124EA0DFB1D81E0948D923308F080E096
:10375000D50154969C9154975196EC9191110BC0C0
:10376000B4E0EB9FF0011124EB5EFD4FE491E81B08
:1037700012E01E0F15C024E0E29FF0011124EB5E61
:10378000FD4F8491A4E09A9FF0011124EF57FE4F62
:103790009491D5015696EC91EE5FE80F1E2F190F0C
:1037A000C6010E949926612F110F770B22EB38E09A
:1037B00046E45EE0082E000C990B0E94181AF501F1
:1037C00084898823A9F086899FE3692E681A712C61
:1037D000C6010E94992690E1E92E00E122EB38E033
:1037E00046E45EE0B301082E000C990B0E94181A03
:1037F000C5010E946322F501E458FF4F9081D40176
:1038000054968C9191111EC081111CC0E12C00E0D6
:1038100020E037E048ED57E064E170E08BE190E0B4
:103820000E94181AF401228921508AEFC82E00E064
:1038300010E048EC56E067E170E08FE490E00E9411
:1038400064171FC0882361F0E12C00E024E035E01C
:1038500045EE55E064E170E089E190E00E94181ABD
:10386000D50112968C91882361F0E12C00E02CEDBB
:1038700033E04FE654E064E170E087E290E00E94BC
:10388000181A0F900F900F900F90DF91CF911F910A
:103890000F91FF90EF90DF90CF90BF90AF909F90EF
:1038A0008F907F906F905F904F900C944B1EBC0157
:1038B00080E090E00C9403228FB18095807F669B1E
:1038C00088601C9B84600895EF92FF921F93CF93B2
:1038D000DF9300D000D000D0CDB7DEB764E58BEA2F
:1038E00090E00E94493062E48CEA90E00E94493006
:1038F0008DEAE82EF12C11E41A8219821B831C83B5
:103900001D831E8246E050E0B701CE0101960E9461
:1039100039301F5F86E0E80EF11C8FEBE816F104EA
:1039200059F726960FB6F894DEBF0FBECDBFDF91D4
:10393000CF911F91FF90EF900895FC018091CF01EE
:10394000811103C08FEF9FEF08959FB7F89482E035
:103950008093E9002091F20030E01216130614F46F
:1039600021E030E02115310559F0289884E6809354
:10397000CE018091F10080838091F200882319F0BC
:103980009FBFC90108958BE68093E800F9CF2FB758
:10399000F89483E08093E9009091E800892F807289
:1039A00095FF04C09091F20080E4891B2FBF089519
:1039B0008091AF0681110DC082E08093AB0684E058
:1039C0008093AC061092AE061092AD0681E0809313
:1039D000AF068BEA96E00895CF93DF931F92CDB7A1
:1039E000DEB76983DC01ED91FC910280F381E02D6B
:1039F00041E050E0BE016F5F7F4F09950F90DF916E
:103A0000CF91089583E08093E9008091F2008823AC
:103A100019F08AE38093E80008950E94C71C90E0A3
:103A20000895CF93DF931F92CDB7DEB7FC01848555
:103A3000958597FD05C02FEF3FEF358724870BC095
:103A4000CE0101960E949D1C019719F4898190E096
:103A500002C08FEF9FEF0F90DF91CF9108950F93EA
:103A60001F93CF93DF931F92CDB7DEB78C01FC017C
:103A70008485958597FF0EC0CE0101960E949D1CFE
:103A8000019719F4298130E002C02FEF3FEFF801D0
:103A900035872487F801848595850F90DF91CF9134
:103AA0001F910F910895FC018485958597FD0BC0AA
:103AB0009FB7F89482E08093E9008091F2009FBF65
:103AC00090E0019608959FB7F89482E08093E90012
:103AD0008091F2009FBF90E008958F929F92AF92E5
:103AE000BF92CF92DF92EF92FF920F931F93CF93EB
:103AF000DF935C016B017A0180910B01882309F44B
:103B00005BC08091CF01882309F456C08091CD011C
:103B100080FF05C08091E00082608093E000E701B3
:103B200010E00AEF83E0882E9AE3992E2097D9F1CE
:103B30000E94C71C81110AC0015009F43DC061E018
:103B400070E080E090E00E940322F0CF282F30E068
:103B5000C217D3070CF48C2F4FB7F8948092E9006A
:103B60009091E80095FF1DC0282F30E0C21BD30BB9
:103B7000F601982F915020F081918093F100FACFB7
:103B8000C20ED31E112319F09092E80009C0809153
:103B9000E80085FD06C09092E80011E0209709F04A
:103BA00010E04FBFC3CF1111C3CF5D9884E680935F
:103BB000AA061E141F0444F081E090E0F5019383EF
:103BC000828380E090E001C0C701DF91CF911F9117
:103BD0000F91FF90EF90DF90CF90BF90AF909F90AC
:103BE0008F900895DF92EF92FF920F931F93CF93E0
:103BF000DF93D82E8A017B01E40EF51EEB01CE1572
:103C0000DF0571F0D7FE03C0FE01849101C08881F9
:103C10000E948B2121968111F2CF8FEF9FEF01C07F
:103C2000C801DF91CF911F910F91FF90EF90DF902E
:103C300008950F931F93CF93DF931F92CDB7DEB7F5
:103C400082E0898342E450E061E670E280E80E940D
:103C5000F21D0E94D81CDC0112960D911C91139745
:103C60000115110569F0D801ED91FC910280F381F5
:103C7000E02DBE016F5F7F4FC801099597FF07C018
:103C800089810F90DF91CF911F910F910895F801D5
:103C900000851185E5CF8091D0018EBD8FEF809397
:103CA000D001E1EDF1E082E090E05FEF63E0408180
:103CB0009F01205D314037FD0BC0211572E03707B1
:103CC0002CF02038324024F4608303C0508301C0BC
:103CD00010820DB407FEFDCF4EBD319601968130A6
:103CE00024E0920721F70DB407FEFDCF08950F934E
:103CF0001F93CF93DF931F92CDB7DEB78C0183E87C
:103D000084BD8FEF87BD81EF809380001092880083
:103D100010928A0069830E94B8266981F801668B37
:103D2000178A0F90DF91CF911F910F9108951F92E5
:103D30000F920FB60F9211248F939F938091E10001
:103D40009091E100937F9093E10083FF0FC0109268
:103D5000E90091E09093EB001092EC0092E39093D5
:103D6000ED001092CF0198E09093F00082FF20C008
:103D700093E09093E9009091F200992319F09AE36F
:103D80009093E8009091AA06992339F09091AA06A1
:103D900091509093AA06992389F19091CE0199238D
:103DA00039F09091CE0191509093CE01992341F139
:103DB00084FF10C08091E2008E7E81608093E200DB
:103DC0008091E1008F7E8093E1008091CD018E7E15
:103DD000806111C080FF16C08091E2008E7E8061FC
:103DE0008093E2008091E1008E7E8093E1008091DB
:103DF000CD018E7E81608093CD0104C05D9ACDCFD0
:103E0000289AD6CF9F918F910F900FBE0F901F9041
:103E100018951F920F920FB60F921124CF92DF9236
:103E2000EF92FF920F931F932F933F934F935F93C4
:103E30006F937F938F939F93AF93BF93EF93FF9372
:103E4000CF93DF93CDB7DEB76C97DEBFCDBF1092B7
:103E5000E9008091E80083FFEDC168E0CE0145965E
:103E60000E94B92182EF8093E8008D8987FF05C009
:103E70009091E80090FFFCCF03C09EEF9093E80084
:103E8000982F907609F0C6C09E892F89188D9111C0
:103E90000CC0803829F48091CC018093F10002C0DD
:103EA0001092F1001092F10048C1422F50E0512BC6
:103EB000913051F4811141C14130510509F03DC1AA
:103EC0008091CC018D7F0BC0933061F4811135C19D
:103ED0004130510509F031C18091CC01826080935D
:103EE000CC012BC1953041F48091E80080FFFCCFDC
:103EF00020682093E30021C1963009F05FC0EB8C6D
:103F0000FC8C1092E9001092CA011092C901123083
:103F100091F51092C8011092C7010E94191E99E0F4
:103F2000BE016F5F7F4FDB01E92F1D92EA95E9F734
:103F300099831A8391E09E8390EA98879AEF9987F4
:103F40002091C9013091CA01275F3F4F3C832B83E9
:103F50008D831092E9001092CA011092C901F0926B
:103F6000C801E092C70149E050E080E00E94F21DE4
:103F70000E94191EE2C0F092C801E092C7010E949F
:103F8000D81CDC011296ED90FC901397E114F1041B
:103F900009F4C0C0D701ED91FC910480F581E02DBA
:103FA000BE016B5E7F4FC7010995009719F00CF0B9
:103FB000C4C0C7C0F701E084F184E8CF973009F4AA
:103FC000C0C0983021F481E08093F100B6C09930F0
:103FD00009F0B3C0837009F0B4C0E5E3F1E081E01B
:103FE00021E036E39081992361F08093E9002093EA
:103FF000EB0091919093EC003093ED008F5F873050
:1040000089F78EE78093EA001092EA008F89809307
:10401000CF0193C08B8D9C8D1092E9001092CA0144
:104020001092C9019093C8018093C701898D8111B5
:1040300056C08E899D89913A59F4813209F081C028
:1040400047E050E064E071E080E00E94F21D75C03E
:10405000913209F076C0833289F4888D90E0982FF0
:1040600088272F89822BA0E0B0E0809300019093F5
:104070000101A0930201B09303015FC0803269F493
:104080008091E80082FFFCCF67E084E091E00E942D
:10409000B9218BEF8093E80006C0823209F04DC051
:1040A0008F8980930B018091CB01882319F0EEEF6B
:1040B000FAE002C0E0E0F8E080910401909105018F
:1040C000A0910601B0910701803B9440A105B10584
:1040D00009F07BC080910B0180FF93C076C00E94E5
:1040E000D81CDC0112960D911C9113970115110536
:1040F00041F1D801ED91FC910190F081E02DBE01DC
:104100006B5E7F4FC8010995811117C0F8010085CA
:104110001185ECCF113009F44EC0133091F48F8922
:10412000882309F445C0823081F440E860E185ECE1
:1041300090E20E94672C882321F08EEF8093E800A4
:1041400079C081E28093EB0075C0813029F440E8AA
:104150006BE089EB90E2EDCF833099F70E94D81C99
:10416000DC011296ED90FC9013978E010F5F1F4FAC
:104170006801E114F10479F0D701ED91FC9106801A
:10418000F781E02DB801C7010995080F111DF7014E
:10419000E084F184EECFD8011C92F601019000205A
:1041A000E9F73197BF016C197D0940E0C601C1CF25
:1041B00063EA70E202C067EA70E26115710509F214
:1041C000FB01449150E080E840CF0FB6F894A895E9
:1041D00080916000886180936000109260000FBE43
:1041E000A895EE3F2AE0F20739F08091FE0A9091FF
:1041F000FF0A91838083A1CF1092FF0A1092FE0ADA
:104200009CCFEE3F8AE0F80731F080819181909356
:10421000FF0A8093FE0A87E797E7918380839BE0FC
:1042200088E10FB6F894A895809360000FBE909334
:10423000600083CF6C960FB6F894DEBF0FBECDBF83
:10424000DF91CF91FF91EF91BF91AF919F918F91AE
:104250007F916F915F914F913F912F911F910F919E
:10426000FF90EF90DF90CF900F900FBE0F901F90B8
:104270001895CF92DF92EF92FF920F931F93CF93F7
:10428000DF936C017A018B01C0E0D0E0CE15DF0531
:1042900089F0D8016D918D01D601ED91FC910190CD
:1042A000F081E02DC6010995892B11F47E0102C031
:1042B0002196ECCFC701DF91CF911F910F91FF9015
:1042C000EF90DF90CF9008953FB7F8948091150755
:1042D00090911607A0911707B091180726B5A89BD3
:1042E00005C02F3F19F00196A11DB11D3FBFBA2F88
:1042F000A92F982F8827820F911DA11DB11DBC01E8
:10430000CD0142E0660F771F881F991F4A95D1F7AC
:1043100008950E941F324091C9015091CA01209115
:10432000C7013091C80142175307B4F49091E800D7
:104330009570E1F39091E80092FD19C08093F1002F
:104340008091C9019091CA0101968F739927892B99
:1043500019F48EEF8093E8008091C9019091CA0111
:1043600001969093CA018093C90181E0089580E08D
:104370000895615030F02091F100FC0120830196F6
:10438000F8CF289884E68093CE010895CF92DF92EB
:10439000EF92FF920F931F93CF93DF9300D000D043
:1043A000CDB7DEB76217730784079507FCF4890160
:1043B0009A016B017C01A9019801261B370B480B60
:1043C000590B69F029833A834B835C830E940D303B
:1043D00029813A814B815C810E94693003C060E091
:1043E00070E0CB016C0D7D1D8E1D9F1D0F900F90F9
:1043F0000F900F90DF91CF911F910F91FF90EF9051
:10440000DF90CF9008958F929F92AF92BF92CF92FC
:10441000DF92EF92FF926B017C010E9464214B01BD
:104420005C01C114D104E104F104F1F00E946421A3
:10443000DC01CB0188199909AA09BB09883E934080
:10444000A105B10570F321E0C21AD108E108F10815
:1044500088EE880E83E0981EA11CB11CC114D10403
:10446000E104F10419F7DDCFFF90EF90DF90CF90DA
:10447000BF90AF909F908F90089580912407E09116
:104480002207F0912307882349F0CF0102969093E9
:10449000230780932207859194910895CF01029676
:1044A0009093230780932207808191810895089536
:1044B00008950C9487310C9487310C9487310C94B7
:1044C00087310C948731AF92BF92CF92DF92EF92F7
:1044D0000F93CF93DF93EC016D81062E000C770BC9
:1044E0006F5D7F4FE12C00E025E135E243E255E2CC
:1044F00080E090E00E94181A5E0186E0A80EB11CD0
:104500008EE0C82ED12CF50161915F01062E000CC2
:10451000770B6F5D7F4FE12C00E02FEF34E249E035
:1045200055E2C6010E94181AFAE0CF0ED11C82E7AC
:10453000C816D10441F76889062E000C770B6F5D11
:104540007F4F21EE34E24FEE54E282E790E00E948A
:10455000181ADF91CF910F91EF90DF90CF90BF901D
:10456000AF900895FB01278130852F703327232BCF
:1045700079F4FC0125813696AC014F5E5F4F319195
:10458000DF0112973C93E417F507C9F7FC01208B74
:104590000895AF92BF92CF92DF92EF92FF921F9356
:1045A000CF93DF93EC016B01FB0182851185298993
:1045B0002F3F09F484C0878190856CE070E00E94F1
:1045C000D8305C01892B09F085C017FF22C0AE01ED
:1045D00086E0289F400D511D11249A01295E3F4F0E
:1045E0008A89F901E80FF11D80818F5F80838A89B4
:1045F000F901E80FF11D80818B3514F081E480838F
:104600008A89F901E80FF11D8081803411F481E479
:10461000808314FF17C08989FE0196E0899FE00D11
:10462000F11D112477968A89DF01A80FB11D8C91A5
:1046300081508C938A89E80FF11D8081813414F4B4
:104640008AE5808315FF05C08A89882311F081508F
:104650008A8B16FF05C08A89823010F48F5F8A8B9F
:1046600013FF38C08989FE0126E0829FE00DF11D0D
:104670001124779680818F3369F181818F3351F1D5
:1046800082818F3339F17F01F70161917F0189893F
:10469000950146E0849F200D311D1124C9018155EB
:1046A0009F4F0E9449305FEFA51AB50A83E0A81614
:1046B000B10451F78FEF898B84E68C8B0BC080950A
:1046C00081238C7039F08C89811104C062E0C601AD
:1046D0000E94771E10768B89103671F58F5F8B8B59
:1046E0008531C0F18D33A8F08D33A1F51B8A83E8A5
:1046F00084BD8FEF87BD81EF80938000109288008A
:1047000010928A000E94641CCE0145960E944C2C97
:1047100021C020E430E0F901E81BF109CF01880F46
:1047200093E894BD9FEF97BD91EF90938000109216
:10473000880080938A000EC0882361F083E884BDDE
:104740008FEF87BD81EF80938000109288001092D8
:104750008A001B8A8C89882311F081508C8BB601CA
:10476000CE01DF91CF911F91FF90EF90DF90CF901E
:10477000BF90AF900C94B222FC0135968CE090E093
:104780009F3F3CF0923024F0923019F4108201C027
:1047900090839F5F933009F49FEF81503196811190
:1047A000EFCF08954F925F926F927F928F929F9278
:1047B000AF92BF92CF92DF92EF92FF920F931F932F
:1047C000CF93DF9300D000D000D0CDB7DEB78C01FF
:1047D0005B01FC01128A138A84E6848BFB01E0886A
:1047E000F188E114F10409F459C08DEA90E00E94C7
:1047F0003330E816F906A8F483EB90E00E943330DA
:10480000E816F90698F489EB90E00E943330E81638
:10481000F90608F443C049EB842E912C52E0552E42
:104820000AC03DEA832E912C512C05C023EB822E29
:10483000912C5524539489EB682E712C92E0492ECB
:10484000CE0101966C015414B0F44A9496E0499E4E
:10485000B001112463557F4F46E050E0C6010E942D
:104860001B3046E050E0B301C6010E943930E6E05B
:104870006E1A7108E8CF86E0F60111928A95E9F781
:104880008FE38B838C838D83FA82E98246E050E04C
:10489000B401C6010E943930852D01C08FEFF801A7
:1048A000818BF50112861186C80145960E944C2C19
:1048B000C8010E94BC2326960FB6F894DEBF0FBE37
:1048C000CDBFDF91CF911F910F91FF90EF90DF90BF
:1048D000CF90BF90AF909F908F907F906F905F90A0
:1048E0004F900895CF92DF92EF920F93CF93DF9383
:1048F000EC016B01FB01878190858F739927892BD0
:1049000039F48C818F5F803410F48C8301C01C8259
:104910008C8190E020E04FED53E260E070E0805445
:1049200091090E948F198C8120E04FED53E260E0E5
:1049300070E090E00E948F19E12C00E023E433E264
:1049400040E953E26FE070E080E090E00E94181AC6
:1049500027EA32E244EF52E26FE070E085E790E050
:104960000E94181A0B812DE832E245E952E260E319
:1049700070E08CE090E00E94181A0B812DE832E282
:1049800045E952E260E370E080E790E00E94181A87
:104990000B812DE832E245E952E266E370E080E403
:1049A00090E00E94181A00E023EE30E247EB51E25B
:1049B00060E370E08BE090E00E94181AF6018781B6
:1049C00090858F719927892B21F49B8181E089271C
:1049D0008B83DF91CF910F91EF90DF90CF9008956F
:1049E0002F923F924F925F926F927F928F929F92FF
:1049F000AF92BF92CF92DF92EF92FF920F931F93ED
:104A0000CF93DF93CDB7DEB727970FB6F894DEBF0D
:104A10000FBECDBF5C01FB01478050840E94722411
:104A2000C5010E946322E12C00E02BE538E243EC53
:104A300059E262E170E08DE190E00E94181A2FE4E3
:104A400036E244E557E263E070E086E190E00E94E0
:104A5000181A85011501F2E12F0E311CE8E1EE2E46
:104A6000F12C9E012F5F3F4F490136E0380D3F8307
:104A700074E2672E712CC12CD12CF801EC0DFD1DB8
:104A800027892F3311F0205401C020E049EB55E273
:104A9000B701C3010E948F194FEFC41AD40A56E020
:104AA000650E711C83E0C816D10439F7FE013796F4
:104AB0003F0161E4C62ED12CF40126E011922A9523
:104AC000E9F7F80185899689F4016AE070E00E94AF
:104AD000D8308193CB013F813E13F7CFF301229170
:104AE0003F01255E49EB55E2B701C6010E948F19CF
:104AF000F5E0CF0ED11C2FE5C216D104E9F639E05E
:104B0000E30EF11C0A5F1F4F0215130509F0B0CF29
:104B1000F50121892F3F09F478C0C20168E370E0F4
:104B20000E94D8304D9708F470C0C501F6E02F9F61
:104B3000800D911D1124AC01495E5F4F4A0159E07F
:104B4000259FC00111248C01095E1F4FF501C28809
:104B5000F6E0CF9E6001112496012D5D3F4F49E2A2
:104B6000C40ED11C4F9640E1742E50E2E52E5BE15D
:104B7000F52E2C153D0541F1A80117FF1BC040E0A3
:104B800050E018C046175707E4F42038310584F484
:104B9000BA01F701769ED001A0781124A20F6770A8
:104BA000E60FF11D6490A053BE4F6C91662A6C9283
:104BB0004F5F5F4FBC018134910524F360E470E0E6
:104BC000E1CF2F5F3F4FD5CFF5018289F401E80F88
:104BD000F11D20812F3311F0205401C020E0F50198
:104BE0006189F9E06F9FB0011124685E7F4F36E064
:104BF000839FC00111243BEFC32EE12C00E010E0A5
:104C000049EB55E284960E946417F50181898F3F34
:104C100079F4848981110CC0E12C00E023E335E2B2
:104C200045E755E265E370E080E390E00E94181AE2
:104C300027960FB6F894DEBF0FBECDBFDF91CF91A0
:104C40001F910F91FF90EF90DF90CF90BF90AF90AA
:104C50009F908F907F906F905F904F903F902F909C
:104C60000C944B1EFC0194818181913031F018F03D
:104C7000923051F008958450089591E023812233B9
:104C800008F090E0891B0895E2814E2F50E04232F7
:104C9000510570F4FA01EA5AFF4F0C94EC30865F2C
:104CA0000895885F08958A5F08958C5F08958E5FE8
:104CB0000895DC01EC91B4E0EB9FF0011124E95E72
:104CC000FD4F84919FEF980F973010F48250089514
:104CD0008FEF0895DC011396EC911397E1111AC040
:104CE000EC9184E0E89FF0011124EA5EFD4FE4912D
:104CF000E23011F0E43039F416968C911697833037
:104D000011F494E001C090E012968C91E80F8E2F80
:104D1000890F089584E0E89FF0011124EE57FE4FBB
:104D2000E49117968C91823011F48E0F08958E2F96
:104D30000895DC01EC9184E0E89FF0011124EC5E21
:104D4000FD4F249113969C911397911102C0822FCD
:104D5000089584E0989FF0011124E058FE4FE491FB
:104D600017968C91823009F4E1958E2F820F089569
:104D7000E1E7F0E080818D7F80831092910046987A
:104D8000479810922B070895CF92DF92EF92FF92EF
:104D90000F931F93CF93DF930E943D22811520E84C
:104DA000920751F4DF91CF911F910F91FF90EF90F7
:104DB000DF90CF900C94B82621E020932B07813010
:104DC00020E8920751F48091200790912107909359
:104DD0002307809322070E943D2297FD05C0209162
:104DE0001F07222309F440C020911E0721113CC057
:104DF00021E020932507EC01DF77209769F481E01B
:104E00008093260746983FE9C32E3FE0D32EE12C3E
:104E1000F12CCAEFD0E014C08E0120E030E060E455
:104E200072E48FE090E0A90198010E946930690165
:104E30007A0181E0C81AD108E108F108109226072A
:104E4000E091C401F091C5010995811103C081E091
:104E50008093260780912507882309F43FC080911D
:104E6000260781113BC003C010922507C4CF469985
:104E700035C0479A0E943D22009771F09C01DE01E7
:104E80000E94BD30DC01CB0129E0B595A79597952F
:104E900087952A95D1F703C08FEF9FEFDC01109221
:104EA00090002AE020939100D0929900C09298003F
:104EB0008093270790932807A0932907B0932A0788
:104EC00080917100826080937100DF91CF911F917A
:104ED0000F91FF90EF90DF90CF9008954798CACF41
:104EE0001F920F920FB60F9211242F933F934F935F
:104EF0005F936F937F938F939F93AF93BF93EF9342
:104F0000FF938091270790912807A0912907B091DE
:104F10002A07892B8A2B8B2B81F1809126078111FF
:104F20000BC098B180E4892788B980912507882330
:104F300019F088B1805888B9809127079091280787
:104F4000A0912907B0912A07181619061A061B0600
:104F5000B4F48091270790912807A0912907B09178
:104F60002A070197A109B109809327079093280781
:104F7000A0932907B0932A0702C00E94C426FF917C
:104F8000EF91BF91AF919F918F917F916F915F91C1
:104F90004F913F912F910F900FBE0F901F9018953A
:104FA0009C01E1E7F0E090819D7F908381E0809318
:104FB000240730932307209322073093210720935F
:104FC00020070C94C426089508950895089508951F
:104FD0000C94873108953F924F925F926F927F9227
:104FE0008F929F92AF92BF92CF92DF92EF92FF92F9
:104FF0000F931F93CF93DF93CDB7DEB729970FB6EB
:10500000F894DEBF0FBECDBF8C017B01DB0119968A
:105010009C9019971A968C90FC01828181112FC265
:105020006801FFE6CF0ED11CD6018C91882311F0C8
:1050300081508C935801B7E7AB0EB11CF50180810C
:10504000882311F081508083D6018C91811160C03A
:10505000F801E259FF4F208130E040E050E0319705
:10506000608170E080E090E00E94C621F6016083DC
:10507000F801FC9620E080E0908191110BC0D701EF
:1050800053969C91913009F40BC3911103C0823067
:1050900009F006C38F5F3896853071F72223C1F17E
:1050A00030E040E050E060E070E0CB010E94C621BB
:1050B000FE01E60FF71F81818F3F51F16801B8E0D3
:1050C0008B9FC00CD11C112491E0F60194AFEF5BD3
:1050D000FF4F98E79083D601DF961C92F601E05CC3
:1050E000FF4F1082F60115AEF801EE58FF4F2081F8
:1050F00030E040E050E03197608170E080E090E087
:105100000E94C621F601EE5BFF4F608331966083FB
:10511000D5018C91811135C0C80141960E94592654
:10512000F80192899F3F69F18F3F59F5953019F445
:105130008789823031F5C92ED12CF801B8E09B9FC8
:10514000E00DF11D112484AD81111BC0F801EA5856
:10515000FF4F208130E040E050E03197608170E007
:1051600080E090E00E94C621D5016C9387E08C9D81
:10517000F0018D9DF00D1124E00FF11F158E8CE3D1
:10518000838FF801E458FF4F8081882309F477C1A9
:10519000F7018489811173C1878180FD70C195FEFB
:1051A00012C0D8015196EC91EE2369F0B4E0EB9F68
:1051B000F0011124E95EFD4FE491E150E73018F46D
:1051C00082E0F801878B96FE06C0D80151968C913B
:1051D000823708F46EC2F801B1ACA2A873A464A02F
:1051E000558C6801F1E1CF0ED11CC6010E945926F1
:1051F000D80152969C91981301C08FEFF801828BD1
:10520000848981115CC097898189923019F093302B
:1052100019F014C081500FC021E0280FB4E02B9F7B
:10522000F0011124E95EFD4FE491E73019F0F80137
:10523000218B04C08A50D80151968C93D801519685
:10524000EC91B4E0EB9FF0011124E95EFD4FE49195
:105250008FEF8E0F873008F046C0D80158969C9388
:10526000589784E057968C93F0E03297E230F1053E
:10527000D1F02CF4309749F0319789F034C0E33005
:10528000F105A9F03497B9F02EC0B2E05B122BC043
:1052900085E2F801848B84E6858B168A24C0F2E0CF
:1052A0006F16B1F320C022E0721691F31CC032E0F9
:1052B000A31671F318C062E0B61651F314C0815002
:1052C000848B982F937019F496899F5F968BF801C1
:1052D0009589923010F09150958B811104C087E030
:1052E000D80154968C93C6010E9459268F3F59F0DD
:1052F000F801E658FF4F9081891729F080838EEFDF
:105300009BE20E94D027D8015196EC91B4E0EB9F2C
:10531000F0011124E95EFD4FE491E83009F059C035
:10532000F8018389882309F454C0F801EC59FF4F30
:105330008081833708F0C1C1D70150968D919C912F
:105340005197019651969C938E935097837099270D
:10535000892B31F4F801E359FF4F8081815080831C
:10536000F7018089918983709927892B31F4F8019D
:10537000E259FF4F808181508083D70150968D91F3
:105380009C9151976FE070E00E94D830892B31F4E6
:10539000F801EF58FF4F808181508083F7018089A9
:1053A00091896EE170E00E94D830892B31F4F801C8
:1053B000EE58FF4F808181508083D80153961C9214
:1053C00081E0F801E558FF4F808380EF9BE20E9467
:1053D000D027F8018189811105C0E558FF4F8081F0
:1053E00081116EC16801F7E6CF0ED11CD6018C91F8
:1053F0008823D9F081508C939EE6F801EC59FF4F39
:10540000908381113CC0379610823197208130E023
:1054100040E050E03197608170E080E090E00E94D1
:10542000C621F801E459FF4F29C0F801E559FF4FA3
:105430008081D801A459BF4F9C91891700F521E0C4
:10544000280F2083392F3695231710F4815903C074
:105450008EE6890F821BF801EC59FF4F80832913D8
:105460000EC03296208130E040E050E031976081FC
:1054700070E080E090E00E94C621F6016083D701D1
:1054800017968D919C9118978F709927892B41F1D0
:10549000B701C8010E94B222F801EE5BFF4F9801EC
:1054A000235E3F4F39872887A801455E5F4F215013
:1054B0003109B801635C7F4F7F836E83C801805CD4
:1054C0009F4F58017AE6A70EB11C69E0662E77243B
:1054D000739472E0572EA1E24A2EB4E63B2E4EC0E2
:1054E00098012C593F4FF801FF96CF0103972817D9
:1054F000390771F281E09081913009F480E0808376
:105500003896F3CFD180D082DC01DC90D394DC924A
:10551000B5E0DB1209C06F0166E0C61AD108D601FA
:105520001C92AE81BF811C92AE81BF81DC90DD20D8
:1055300029F0A885B9855C92DA014C92D901DC90FA
:10554000DD2091F1DA94DC92DA01DC90DD2079F152
:10555000DA94DC92389668857985695F7F4F798720
:105560006887495F5F4F295F3F4FAE81BF811896C3
:10557000BF83AE830896EA15FB05E9F0D080DD20F5
:1055800009F2AAE0DA120AC0DC01DC90B4E0DB1216
:1055900003C0AE81BF817C926082C6CFAE81BF81E5
:1055A0001C92DA94D082C0CFD9013C92CDCFA8858D
:1055B000B9857C92CFCFF8018589823028F080911F
:1055C0002B07882309F486C0D80155969C91F801D1
:1055D000E458FF4F6F01913081F48081882369F096
:1055E0001082D70152968C915297815052968C938B
:1055F000811103C0D70154969C93F6018081D70195
:1056000054962C9181111DC021111BC0882D8095AD
:1056100089218C7009F463C086EE9BE20E94D0273A
:1056200081E0F6018083D80155961C9255975496D7
:105630001C92549751961C92519784E057968C93E4
:105640004EC0F70182858095918589232223E9F058
:1056500083FF45C065E0C70129960FB6F894DEBF09
:105660000FBECDBFDF91CF911F910F91FF90EF90B3
:10567000DF90CF90BF90AF909F908F907F906F9072
:105680005F904F903F900C94771E82FF28C0D80106
:1056900012969C91129781E0892712968C931FC0D5
:1056A000A1E0B0E0AC0FBD1FA20FB11D8C932F5F26
:1056B000F1CC83E0F801878B8ECD86EE9BE287CE1E
:1056C00081E0D80153968C9310828CED9BE20E946E
:1056D000D02788CE86E49BE20E94D02775CF2996FA
:1056E0000FB6F894DEBF0FBECDBFDF91CF911F91F3
:1056F0000F91FF90EF90DF90CF90BF90AF909F9071
:105700008F907F906F905F904F903F900895FF92A1
:105710000F931F93CF93DF93EC01FB01148AFC01DD
:10572000E458FF4F10828DE29BE2DE015F969E01FE
:10573000255E3F4FAE014E5B5F4F1CE301E2FC0173
:105740006491FD0136976083FC013196F490BD01B0
:1057500065507109FB01F082FC013296E491EC93F3
:10576000FC013396F4906D5F7F4FFB01F082F1E016
:10577000FF1659F0FF1630F062E0F61208C0F9018A
:10578000008305C0F901108302C0F9011082FC01F9
:105790003496F490BD0163507109FB01F0820596C7
:1057A0001796295F3F4FA417B50709F0C8CF10EA35
:1057B000FE01EB58FF4F108388EC319680830E94E6
:1057C0000D3028E230E040E050E00E946930DC011A
:1057D000CB0180569F4FAF4FBF4FFE01E958FF4F9F
:1057E000808388E73A9780833196108384E13396EB
:1057F000808388E231968083F49780E08083DF01A4
:1058000012971C928F5F38968530C1F720EA30E0FE
:1058100040E050E068E770E080E090E00E94C62140
:10582000FE01E159FF4F60831D8A1C8A198A84E0BA
:105830008F8B81E08B8B3A9784E6808331969CE84E
:10584000908333969CE390833196808336978EE6DF
:1058500080830E940D308E0109591F4F28E230E0ED
:1058600040E050E00E946930DC01CB018C599F4F31
:10587000AF4FBF4FF8018083CE010E94BC231A8234
:1058800080E396E19093C5018093C401DF91CF91AD
:105890001F910F91FF900895CF93DF93EC0146E0A5
:1058A00050E06DEA70E00E941B3046E050E063EB90
:1058B00070E0CE0106960E941B3046E050E069EB96
:1058C00070E0CE010C96DF91CF910C941B30CF92FB
:1058D000DF92EF92FF920F931F93CF93DF931F926C
:1058E000CDB7DEB7182F062FE42E862F880F8E5FD8
:1058F00099830E948B2183E00E948B21F12EC12E7F
:105900009981D92E8C2D8F19801798F4F601E7FE16
:1059100002C0849101C080810E948B21182F80E0F9
:105920000E948B218123FFEFCF1ADF0A8111EACF7A
:1059300001C081E00F90DF91CF911F910F91FF90F7
:10594000EF90DF90CF9008951092BA061092B906AA
:1059500088EE93E0A0E0B0E08093BB069093BC0695
:10596000A093BD06B093BE068FE391E09093B80676
:105970008093B7068FEF9FEF9093C4068093C30682
:1059800087E591E09093D1058093D0051092D905D9
:105990001092DA0580E18093DB051092D805109211
:1059A000D7051092DD0581E591E09093D5058093B0
:1059B000D40580E090E890931407809313074698ED
:1059C0003E9A47983F9A1092E1051092E00583E0D5
:1059D0008093E2051092E3051092E4058FEB91E0CD
:1059E0009093D1058093D0051092EA0581E08093D1
:1059F000EB051092EC052FE531E03093E90520939B
:105A0000E8051092F9051092FA052FE931E030937C
:105A10000406209303061092050610920806809350
:105A2000090610920A068FE691E09093070680938C
:105A300006068FEF8093180684E080931D068093FE
:105A40001E0680E090E041E09C0120533A4FF901AE
:105A5000ED5AFF4F408331961082079683329105AD
:105A600099F78EE680936A0610927F061092800660
:105A700010928106109282061092850681E0809332
:105A80008606109287068FE891E0909384068093B3
:105A9000830610929406109295061092960684E65C
:105AA000809397060895789484B5826084BD84B508
:105AB000816084BD85B5826085BD85B5816085BD09
:105AC00080916E00816080936E00109281008091C1
:105AD0008100826080938100809181008160809349
