:100000000C94E9150C9411160C9411160C941116FD
:100010000C9411160C9411160C9411160C941116C4
:100020000C9411160C9411160C9427270C949927F4
:100030000C9411160C9411160C9411160C941116A4
:100040000C9411160C9411160C9411160C94111694
:100050000C9411160C9411160C9411160C94412347
:100060000C9411160C9411160C9411160C94111674
:100070000C9411160C9411160C9411160C94111664
:100080000C94591F0C9411160C9411160C94111603
:100090000C9411160C9411160C9411160C94111644
:1000A0000C9411160C9411160C941116A11DA11D7F
:1000B000A11DA11D9F1D9F1D9F1D9D1D9D1D9D1D62
:1000C0009D1D9D1D9D1D9B1D9B1D9B1D991D991D6E
:1000D000991D991D991D991D9B1D9B1D9B1D9D1D66
:1000E0009D1D9D1D9F1D9F1D9F1DA11DA11DA11D2E
:1000F000D5F08D14A1C881CFD9F1AF20000B1D021E
:100100000100201D020114351D0201284A1D0301B2
:100110003C5F1D030150B8013200A4013200900180
:1001200032007C013200680132005401320040018B
:1001300032002C0132001801320004013200F000BC
:100140003200DC003200C8003200B4003200A000EF
:1001500032008C003200780032006400320050001F
:10016000320000000A00500032000000140050006D
:100170003200000028005000320000003C00500017
:10018000320000005A0000008200500032000000DF
:10019000B400500032000000F000000036015000B2
:1001A000320000008601500032000080B8013200A9
:1001B000700332000080B8013200B40032000080C9
:1001C000DC003200B80132007003320000801E00F3
:1001D00032003200320000800707070707060606D4
:1001E0000606060606060E030202020202040400C8
:1001F00000000000000003030303030303030303E1
:100200000A020202020202020202020206060606B6
:10021000060606060607070707070E03000000008C
:1002200000000004040202020202FCFCFCFCFCFCD4
:10023000FCFCFCFCFCFCFCFCFCFCFCFFFFFFFFFFEF
:10024000FFFFFFFFFFFFFFFFFEFCF80101010101BF
:10025000010101010101010101010101010101018E
:1002600003070F0F0F0F0F0F0F070301210C0000E3
:100270007828100078285000785800104820001086
:100280004820000078FC8ED6DAD68EFC780000007C
:10029000000000000000000000000000000000005E
:1002A000000000000001020505050505020100002F
:1002B0000408022905023E09093E3F25251A1E2190
:1002C00021123F21211E3F2525213F0505011E2129
:1002D000293A3F04043F213F21001021211F3F0400
:1002E0000A313F2020203F02023F3F02043F1E21EF
:1002F000211E3F0909061E21112E3F09093622251C
:100300002519013F01011F20201F0F10201F3F1042
:10031000103F3B04043B03043807312D23211E29E1
:10032000251E223F2000322929261221251A0C0AD7
:100330003F08172525191E252518013905031A25FB
:10034000251A0629291EFCFEFFFFFFFFFFFFFFFF06
:10035000FFFFFFFFFFFFFFFFFFFFFFFFFFFFFFFFAD
:10036000FFFFFFFFFFFFFFFFFFFFFFFFFFFFFFFF9D
:10037000FFFFFFFFFFFFFFFFFFFFFFFFFFFFFFFF8D
:10038000FFFFFFFFFFFFFFFFFFFFFFFFFFFFFFFF7D
:10039000FFFFFFFFFFFFFFFFFFFFFEFEFCFFFFFF72
:1003A000FFFFFFFFFFFFFFFFFFFFFFFFFFFFFFFF5D
:1003B000FFFFFFFFFFFFFFFFFFFFFFFFFFFFFFFF4D
:1003C000FFFFFFFFFFFFFFFFFFFFFFFFFFFFFFFF3D
:1003D000FFFFFFFFFFFFFFFFFFFFFFFFFFFFFFFF2D
:1003E000FFFFFFFFFFFFFFFFFFFFFFFFFFFFFFFF1D
:1003F000FFFFFFFF010307070707070707070707B7
:10040000070707070707070707070707070707077C
:10041000070707070707070707070707070707076C
:10042000070707070707070707070707070707075C
:10043000070707070707070707070707070707074C
:100440000707070707070707070703571300FC02FB
:1004500002F2F2F282F2F2F202F2F2F202C2E2F2FC
:10046000121252624202F2F2F282F2F2F20202E25C
:10047000F29292122202C2E2F2321212722202C2EC
:10048000E2F2125212F2E2C202F2F2F21212F2F2AC
:10049000E202F2F2F292921202E2F292921222023C
:1004A00002FC000000FF00005F5F5F005F5F5F0015
:1004B0005F5F5F00172F5F50515F2F5F005F5F5FCF
:1004C000005F5F5F002C5C5151535F2E00172F5F60
:1004D000585050582E00172F5F5050505F2F170064
:1004E0005F5F5F01015F5E58005F5F5F5052500CBD
:1004F0005C5151535F2E0000FF0000000102020218
:1005000002020202020202020202020202020202CB
:1005100002020202020202020202020202020202BB
:1005200002020202020202020202020202020202AB
:10053000020202020202020202020202020202029B
:10054000020202020202020202020202020202018C
:100550000000FFFFFFFFFFFFFFFFFFFFFFFFFFFFA9
:10056000FFFFFFFFFFFFFFFFFFFFFFFFFFFFFFFF9B
:10057000FFFFFFFFFFFFFFFFFFFFFFFFFFFFFFFF8B
:10058000FFFFFFFFFFFFFFFFFFFFFFFFFFFFFFFF7B
:10059000FFFFFFFFFFFFFFFFFFFFFFFFFFFFFFFF6B
:1005A000FFFFFFFFFFFFFFFFFFFFFFFFFFFFFFFF5B
:1005B000FFFFFFFFFFFFFFFFFFFFFFFFFFFFFFFF4B
:1005C000FFFFFFFFFFFFFFFFFFFFFFFFFFFFFFFF3B
:1005D000FFFFFFFFFFFFFFFFFFFFFFFFFFFFFFFF2B
:1005E000FFFFFFFFFFFFFFFFFFFFFFFFFFFFFFFF1B
:1005F000FFFFFFFFFFFFFFFFFFFFFFFFFFFFFFFF0B
:10060000FFFFFFFFFFFFFFFFFFFFFFFFFFFFFFFFFA
:10061000FFFFFFFFFFFFFFFFFFFFFFFFFFFFFFFFEA
:10062000FFFFFFFFFFFFFFFFFFFFFFFFFFFFFFFFDA
:10063000FFFFFFFFFFFFFFFFFFFFFFFFFFFFFFFFCA
:10064000FFFFFFFFFFFFFFFFFFFFFFFFFFFFFFFFBA
:10065000FFFFFFFFFFFFFFFFFFFFFFFFFFFFFFFFAA
:10066000FFFFFFFFFFFFFFFFFFFFFFFFFFFFFFFF9A
:10067000FFFF030303030303030303030303030352
:10068000030303030303030303030303030303033A
:10069000030303030303030303030303030303032A
:1006A000030303030303030303030303030303031A
:1006B00003030303030303030303482200FC0602AE
:1006C000020202020202020202020202020202020A
:1006D00002020202020202020202020202020202FA
:1006E00002020202020202020202020202020202EA
:1006F00002020202020202020202020202020202DA
:100700000206FC0000FF00000000000000000000E6
:1007100000000000000000000000000000000000D9
:1007200000000000000000000000000000000000C9
:1007300000000000000000000000000000000000B9
:1007400000000000000000000000FF0000FF0000AB
:100750000000000000000000000000000000000099
:100760000000000000000000000000000000000089
:100770000000000000000000000000000000000079
:100780000000000000000000000000000000000069
:100790000000FF0000FF80000000000000000000DB
:1007A0000000000000000000000000000000000049
:1007B0000000000000000000000000000000000039
:1007C0000000000000000000000000000000000029
:1007D00000000000000000000080FF000000010198
:1007E00001010101010101010101010101010101F9
:1007F00001010101010101010101010101010101E9
:1008000001010101010101010101010101010101D8
:1008100001010101010101010101010101010101C8
:10082000010100000520110005200A0005200A0032
:1008300005200A0005200A0005200B0005200B00FA
:1008400005200B0005200B0005200A00051F0A00EB
:10085000051E0A00051D0A00051C0B00051B0B00E8
:10086000051A0B0005190B0005180A0005170A00E8
:1008700005160A0005150A0005140B0005130B00E8
:1008800005120B0005110B0005100A00050F0A00E8
:10089000050E0A00050D0A00050C0B00050B0B00E8
:1008A000050A0B0004090B0003080A0002070A00EE
:1008B00001060A0000050A00FCF90001FDF902002A
:1008C000FEF70200FFF6040000F5040001F4020048
:1008D00002F5020003F5040004F6020005F7020029
:1008E00006F7040007F8040008F9040009FB0400F7
:1008F0000AFD02000BFF02000C0102000D030200C2
:100900000E0300020F0302001001020011FF02009B
:1009100012FD020013FB040014F9040015F8040092
:1009200016F7040017F7020018F6020019F6020085
:100930001AF702001BF704001CF804001DF904005C
:100940001EFB04001FFD020020FF02002101020027
:1009500022030200230300032503020026010200F4
:1009600027FF020028FD020029FB04002AF90400E9
:100970002BF804002CF704002DF702002EF60200DD
:100980002FF6020030F7020031F7040032F80400BD
:1009900033F9040034FB040035FD020036FF020089
:1009A0003701020038030200380300043803020054
:1009B0003901020039FF02003AFD02003BFB04004E
:1009C0003CF904003DF804003EF704003FF7020044
:1009D00040F6020041F6020042F7020043F704002D
:1009E00044F8040045F9040046FB040047FD0200FA
:1009F00048FF0200490102004A0302004A030005C1
:100A00004B0302004C0102004DFF02004EFD0200AC
:100A10004FFB040050F9040051F8040052F70400A1
:100A200053F7020054F6020055F6020056F7020092
:100A300057F7040058F8040059F904005AFB040061
:100A40005BFD02005CFF02005D0102005E0302002C
:100A50005F030006600302006101020062FF020002
:100A600063F90E0064F80E0064F80E0064F80E00DE
:100A700064F80E0064F80E0864F80E0064F80E00C6
:100A800064F80E0064F80E0064F80E0063F90E00BE
:100A900062FF0200610102005F0302005F030007C2
:100AA0000000000000000000000000000000000046
:100AB00000000000008000000000000000000000B6
:100AC0000000000000000000000000000000000026
:100AD0000000000000000000000000000000000016
:100AE0000000000000000000000000000000000006
:100AF00000000000000000000000000000000000F6
:100B000000000000000000000000FFFFFEFEFEFCF1
:100B1000F8F8F8F0F0F0F8F0F8FCF8FCFEFEFFFF53
:100B2000FFFEFCFCF8FCF8FCFEFCFEFEFCFCFCFE00
:100B3000FEFEFEFCFEFCFEFCF8FCF8F0F8F0F0F027
:100B4000F0F0E0E0E0C0E0F0FCFEFFFEFEFCFEFCAA
:100B5000FEFCFEFCF8F0F8FCFEFCFCFCF8F8F8F8F3
:100B6000FCF8F8FCF8FCF8F8F0F0F0F8F8F8FCFE07
:100B7000FEFEFFFF6A100000000000000000000001
:100B80000000000000000000000000000000000065
:100B90000000000000000000000000000000000055
:100BA0000000000000000000000000000000000045
:100BB0000000000000000000000000000000000035
:100BC0000000000000000000000000000000000025
:100BD0000000000000000000000000000000000015
:100BE000FEFEFCFCFCF8F0F0F0E0E0E0F0E0F0E805
:100BF000D0E8D4F8FEFFFEFCF8E8F0E8F0E8D4E82E
:100C0000D4ECF8F8F8FCFCFCFCF854A854A8D0A8E4
:100C1000D0E0F0E0E0E0E0E0C0C0C08040A0F0FC48
:100C2000FEFCF4E854A854A854A8D0E0F0F8FCD88E
:100C3000B8D8B0F0F0F0F8E0D0E8D0A8E0F0E0E00C
:100C4000E0F0F0F0F8FCFCFCFEFEFFFFFFFF03030A
:100C50000303040AB24DB24D01020102748B748B7E
:100C60000300030080C0C0E0E0E0E0E0F0F0F0FF4F
:100C7000FFFFFFFFFFFFFFFFFFFF001FFFFFFFFF63
:100C8000FFFFFFFFFF38FFFFFFFFFFFFFFFFFFFF3B
:100C900080C3FFFFFFFFFFFFFFFFFFFFFFFFFFFF1F
:100CA000FFFFFFFFFFFF0101010101010101010140
:100CB000010B38008080C0C0C0C0C0C0E0E000FEB2
:100CC000FEFCFA54A00000010100001FFFFFFDAA76
:100CD00050A000000038FFFFFFFFFFFDAA55AA004B
:100CE00080C37FFF7F3F7F3F7DEAF8D382442001AE
:100CF0000A0480012001010101000100000001013E
:100D0000F0F0F0E0E0E0E0E0C0C080FFFFFFFFFFB8
:100D1000FFFFFFFFFFFFFFFFFFFFFFFFFFFFFF1FC3
:100D200000FFFFFFFFFFFFFFFFFFFF38FFFFFFFF99
:100D3000FFFFFFFFFFC380FFFFFFFFFFFFFFFFFF7E
:100D4000FFFFFFFFFFFFFFFFFFFFFFFFFF0B38E08D
:100D5000E0C0C0C0C0C0C080800001010000A0543D
:100D6000FAFCFEFE000000A050AAFDFFFF1F0000DD
:100D7000AA55AAFDFFFFFFFFFF3800EA7D3F7F3F36
:100D80007FFF7FC38000200180040A01204482D3BA
:100D9000F801010000000100010101018010A055CF
:100DA000A055A055A055A055A055A055A055A0559B
:100DB000A055A357A757AF5FBF7FBF7FBF7FBF5F60
:100DC000AF57AF5FAF5FAF57A357A355A055A0551F
:100DD000A0D5E0D5E0F5F8FDF8FDF8F5E0D5E0F5B3
:100DE000F0FDF8FDFCFDF8F5E0F5E0D5A055A357C2
:100DF000A75FBF7FBF7FBF5FBF7FFF7FFF7FBF5FFB
:100E0000AF5FBF5FA757A355A055A055A055A055EC
:100E1000A055A055A055A055A055A055A055FFD54B
:100E2000FF75FFD5FF75FFD5FF75FFD5FF75FFD5A2
:100E3000FF75FFD5FF75FFD5FF75FFD5FF75FFD592
:100E4000FF75FFD5FF75FFD5FF75FFD5FF75FFD582
:100E5000FF77FFDFFF7FFFFFFF7FFFDFFF7FFFFFEA
:100E6000FF7FFFFFFF7FFFDFFF7FFFD7FF75FFD50E
:100E7000FF75FFD5FF75FFD5FF75FFD5FF75FFD552
:100E8000FF75FFD5FF75FFD5FF75FFD5FF75FFD542
:100E9000FF75FFD5FF75FFD5FF75FFD5FFD506019F
:100EA000FA00B801FA008801FA00B801FA00060158
:100EB000FA00B8017D0088017701B801FA00370116
:100EC000FA000B02FA00D201FA000B02FA00370115
:100ED000FA000B027D00D20177010B02FA005D01DE
:100EE000FA00BA02FA006E02FA00BA02FA009F0192
:100EF000FA00BA027D006E027701BA02FA000B0214
:100F00007D000B027D000B027D000B027D00D201F3
:100F1000FA000B02FA000000FA000B027D000B023F
:100F20007D000B027D000B027D000080F87CFE8FAF
:100F3000D7DBD78FFE7CF878FCFC78F87CF87078EB
:100F4000EC78287CF87C080000F87CFE83ABABAB27
:100F500097FE7CF878FC78FC70F87CF878FC7CF8DC
:100F600078FCFC78300103060D0D0D0D0D06030114
:100F70000000000000000000000000000000000071
:100F800000000103060D0D0D0D0D0603010000000C
:100F90000000000000000000000000000000390C0C
:100FA0000078FC8ED6DAD68EFC7800007858007077
:100FB000287000104820000870080000000078FC2D
:100FC00082AAAAAA96FC780000782078007028707F
:100FD000007828500078483000000102050505051A
:100FE00005020100000000000000000000000000F9
:100FF00000000000000000010205050505050201D2
:1010000000000000000000000000000000000000E0
:101010000000040E1F3F1F1E3C7838100C1E1F3F9F
:101020001F1E1E0F0E041038783C1E1F3F1F0E049B
:10103000040E0F1E1E1F3F1F1E0C0A0700040E1E6B
:101040000E0C08301000000C0E1E0E0C08060400DA
:10105000001030080C0E1E0E0400000406080C0ED2
:101060001E0E0C00FCFEFFFFFFFFFFFFFFFFFFFF58
:10107000FFFFFFFFFFFFFFFFFFFFFFFFFFFFFFFF80
:10108000FFFFFFFFFFFFFFFFFFFFFFFFFFFFFFFF70
:10109000FFFFFFFFFFFFFFFFFFFFFFFFFFFFFFFF60
:1010A000FFFFFFFFFFFFFFFFFFFFFFFFFFFEFEFC55
:1010B000FFFFFFFFFFFFFFFFFFFFFFFFFFFFFFFF40
:1010C000FFFFFFFFFFFFFFFFFFFFFFFFFFFFFFFF30
:1010D000FFFFFFFFFFFFFFFFFFFFFFFFFFFFFFFF20
:1010E000FFFFFFFFFFFFFFFFFFFFFFFFFFFFFFFF10
:1010F000FFFFFFFFFFFFFFFFFFFFFFFFFFFFFFFF00
:10110000FFFFFFFFFFFFFFFFFFFFFFFFFFFFFFFFEF
:10111000FFFFFFFFFFFFFFFFFFFFFFFFFFFFFFFFDF
:10112000FFFFFFFFFFFFFFFFFFFFFFFFFFFFFFFFCF
:10113000FFFFFFFFFFFFFFFFFFFFFFFFFFFFFFFFBF
:10114000FFFFFFFFFFFFFFFF3F7FFFFFFFFFFFFFEF
:10115000FFFFFFFFFFFFFFFFFFFFFFFFFFFFFFFF9F
:10116000FFFFFFFFFFFFFFFFFFFFFFFFFFFFFFFF8F
:10117000FFFFFFFFFFFFFFFFFFFFFFFFFFFFFFFF7F
:10118000FFFFFFFFFFFFFFFFFFFFFFFFFFFFFFFF6F
:10119000FFFFFFFF4C2000FC02025212F2F2F2129B
:1011A0005202F2F2F2020202F202F2F2F21212F22F
:1011B000F2E21212F2F2F2125202F2F2F20202021F
:1011C00002F2F2F2929212020202020202C222120F
:1011D000D25252525252D222C2020202020202FCE5
:1011E000000000FF000000005F5F5F008080AF9F95
:1011F0009F1050502F005F5F5F01015F5E5800003D
:101200005F5F5F0000005F5F5F505050005F5F5F97
:101210005052500000000018671800003F583978FD
:1012200039587F0018671800000000FF000000FF19
:1012300000000040304CB27D6A627E6A62FD629CB2
:10124000400040000000FFFFFF1111FFEFEE00FF24
:10125000FFFF1111FFEF8E00FFFFFF00FFFFFF01F7
:1012600001FFFE7C007CFEFF0111F5F6F40000FF9B
:10127000FFFF0929010000FF0000001F202020209F
:101280002122242524252525252525242221202029
:10129000202025252525252525222025252520201A
:1012A00025252520252525202525252525252221FF
:1012B00020212225252525222520202525252525F7
:1012C0002520201F0000080B000202020100090473
:1012D00000000102020000052400100105240101A4
:1012E00001042402060524060001070581031000FD
:1012F0004009040100020A00000007050202400044
:1013000000070583024000000403090412010002E3
:10131000EF020140412336800001010203014172C6
:101320006475696E6F204C4C430041726475696E40
:101330006F204C656F6E6172646F00040406090FC4
:10134000060A0F0F08090D0F0A090B0F0F03020FF2
:101350000F070D0D0D0F0A0E0E010D0F030E0B0BD7
:101360000F07050F0FFCFEFFFFFFFFFFFFFFFFFF53
:10137000FFFFFFFFFFFFFFFFFFFFFFFFFEFC00017E
:10138000030303030303030303030303030303032D
:1013900003030303030100190A00FC020202020214
:1013A000020202020202020202020202020202021D
:1013B000FC00000001010101010101010101010125
:1013C0000101010101010101010000F8FCFEFFFF24
:1013D000FFFFFFFFFFFFFFFFFFFFFFFFFFFFFFFF1D
:1013E000FFFFFFFFFFFFFFFFFFFFFFFFFFFFFFFF0D
:1013F000FFFFFFFFFFFFFFFFFFFEFCF8FFFFFFFF08
:10140000FFFFFFFFFFFFFFFFFFFFFFFFFFFFFFFFEC
:10141000FFFFFFFFFFFFFFFFFFFFFFFFFFFFFFFFDC
:10142000FFFFFFFFFFFFFFFFFFFFFFFFFF000103C5
:10143000070707070707070707070707070707073C
:10144000070707070707070707070707070707072C
:1014500007070707070707070707070301003113F7
:1014600000F8040202F2F2F21212F2F2E20202E2D6
:10147000F2F2C2020202F2F2F2020202F20202E20C
:10148000F29292122202F2F2F2929212020204F804
:101490000000FF0000005F5F5F01050505025807BF
:1014A0001414075F5E50002F5F5F5050502F002CC8
:1014B000545151535F2E005F5F5F50525000000047
:1014C000FF00000001020202020202020202020206
:1014D00002020202020202020202020202020202EC
:1014E00002020202020202020202020202020202DC
:1014F000010000F8FCFEFFFFFFFFFFFFFFFFFFFF03
:10150000FFFFFFFFFFFFFFFFFFFFFFFFFFFFFFFFEB
:10151000FFFFFFFFFFFFFFFFFFFFFFFFFFFFFFFFDB
:10152000FFFFFFFFFFFFFFFFFFFFFFFFFFFFFFFFCB
:10153000FFFFFFFFFFFFFFFFFFFFFFFEFCF8FFFFC6
:10154000FFFFFFFFFFFFFFFFFFFFFFFFFFFFFFFFAB
:10155000FFFFFFFFFFFFFFFFFFFFFFFFFFFFFFFF9B
:10156000FFFFFFFFFFFFFFFFFFFFFFFFFFFFFFFF8B
:10157000FFFFFFFFFFFFFFFFFFFFFFFFFFFFFFFF7B
:10158000FFFFFFFFFFFFFFFFFF0001030707070744
:1015900007070707070707070707070707070707DB
:1015A00007070707070707070707070707070707CB
:1015B00007070707070707070707070707070707BB
:1015C00007070707070707070707070707070707AB
:1015D000070301004B1300F804C2E2F21212526238
:1015E00042020202E2F2F2C2020202F2F2F202C28B
:1015F000F2F2F20202F2F2F29292120202C2E2F26B
:10160000125212F2E2C232F2F2820282721202F23A
:10161000F2F292921202F2F2F21212F2F2E204F8F2
:101620000000FF00172F5F50515F2F5F0058071415
:1016300014075F5E50005F015F5E015F5F5F000047
:101640005F5F5F5052500000172F5F5050505F2F68
:101650001700035F5F58070000005F5F5F50525044
:10166000005F5F5F01015F5E5800FF000000010244
:10167000020202020202020202020202020202024A
:10168000020202020202020202020202020202023A
:10169000020202020202020202020202020202022A
:1016A000020202020202020202020202020202021A
:1016B00002020202010000090D000404FCFEFE000B
:1016C0000000000A0A0B0B0B0A0A00001C82C2E28F
:1016D0007E3E1C00000B0B0B0B0B0B0B00008086DF
:1016E0003232FEFECC0000050A0A0A0B0B0500F898
:1016F000FCFEFFFFFFFFFFFFFFFFFFFFFFFFFFFFFE
:10170000FFFFFFFFFFFFFFFFFFFFFFFFFFFFFFFFE9
:10171000FFFFFFFFFFFFFFFFFFFFFFFFFFFFFFFFD9
:10172000FFFFFFFFFFFFFFFFFFFFFFFFFFFFFFFFC9
:10173000FFFFFFFFFEFCF8FFFFFFFFFFFFFFFFFFC4
:10174000FFFFFFFFFFFFFFFFFFFFFFFFFFFFFFFFA9
:10175000FFFFFFFFFFFFFFFFFFFFFFFFFFFFFFFF99
:10176000FFFFFFFFFFFFFFFFFFFFFFFFFFFFFFFF89
:10177000FFFFFFFFFFFFFFFFFFFFFFFFFFFFFF0078
:1017800001030707070707070707070707070707F3
:1017900007070707070707070707070707070707D9
:1017A00007070707070707070707070707070707C9
:1017B00007070707070707070707070707070707B9
:1017C00007070707030100481300F804020202029A
:1017D00002020202020202F2F2F202020202F2F239
:1017E000F20232F2F2820282721202F2F2F2929269
:1017F0001202E2F292921222020202020202020299
:10180000020202020202020202020202020204F8C0
:101810000000FF0000000000000000000000005F6A
:101820005F5F505050005F5F5F0000035F5F5807CD
:101830000000005F5F5F5050500C545151535F2EB9
:101840000000000000000000000000000000000098
:1018500000000000000000FF000000010202020280
:101860000202020202020202020202020202020258
:101870000202020202020202020202020202020248
:101880000202020202020202020202020202020238
:10189000020202020202020202020202020201002B
:1018A000000C1C3F7FFF7F3F1C0C09080C142741D4
:1018B000814127140C00000000000000000000001F
:1018C00000000000000000000000000000C0F0F870
:1018D000FCFCFCFCFCFCFCFCF8F0C0000000000080
:1018E00000061FFFFFFFFFFFFFFFFFFFFFFFFF1FC0
:1018F00006000000000000000001070707070707B7
:10190000070705000000000000000080FCFEFFFF4C
:10191000FFFFFFFFFFFFFFFFFF7C800000000003D1
:10192000FFFFFFFFFFFDFDFDFDFDFDFFFFFFFF7F53
:1019300003000000000003FFFFFFFFFFFFFFFFFFAA
:10194000FFFFFF0300000000000000000001070788
:101950000707070707070500000000000000000058
:1019600000C0E0C000000000000000000000000017
:101970000000000000073FFFFFFDFEFEFEFCFCFC38
:10198000FCF8F87C7E3F0EE0F0F0E0FEFFFFFFFF8A
:10199000FFFFFFFFFFFFFFC3800000000001030106
:1019A000000101010101030303070F0F07030000FA
:1019B0000000000000C0E0FCFEFEFEFEFEFEFEFE9B
:1019C000FEFCFCF8F000000000073FFFFFFDFEFFFB
:1019D000FFFDFFFFFFFBFF7F7F3F0EE0F0F0E0FE2B
:1019E000FFFFFFFFFFFFFFFFFFFFFFC380000000BF
:1019F00000010301000101010101030303070F0FAF
:101A0000070300000000000000C0E0C0000000006C
:101A100000000000000000000000000000073FFF81
:101A2000FFFFFEFEFEFCFCFCFCF8F87C7E3F0EC0D7
:101A3000E0E0E0FEFFFFFFFFFFFFFFFFFFFFFF8390
:101A4000000000000001030703010101010103037D
:101A5000070F0F0F070300000000000000C0E0FCAC
:101A6000FEFEFCFCFCFEFEFEFEFCFCF8F0000000AE
:101A700000073FFFFFFFFFFFFFFFFFFFFFFFFF7FAD
:101A80007F3F0EC0E0E0E0FEFFFFFFFFFFFFFFFF34
:101A9000FFFFFF83000000000001030703010101B5
:101AA00001010303070F0F0F0703000000000000F0
:101AB0000000000000000000000000C0E0C00000C6
:101AC00000000E3F7E7CF8F8FCFCFCFCFEFEFEFDF8
:101AD000FFFF3F0700000000000080C3FFFFFFFF83
:101AE000FFFFFFFFFFFFFFFEE0F0F0E0000000035C
:101AF000070F0F07030303010101010100010301A7
:101B00000000F0F8FCFCFEFEFEFEFEFEFEFEFEFC0B
:101B1000E0C0000000000E3F7F7FFFFBFFFFFFFDE6
:101B2000FFFFFEFDFFFF3F0700000000000080C335
:101B3000FFFFFFFFFFFFFFFFFFFFFFFEE0F0F0E012
:101B400000000003070F0F07030303010101010158
:101B50000001030100000000000000000000000080
:101B6000000000C0E0C0000000000E3F7E7CF8F8DE
:101B7000FCFCFCFCFEFEFEFFFFFF3F070000000038
:101B800000000083FFFFFFFFFFFFFFFFFFFFFFFEDF
:101B9000E0E0E0C000000003070F0F0F07030301A0
:101BA00001010101030703010000F0F8FCFCFEFE47
:101BB000FEFEFCFCFCFEFEFCE0C0000000000E3F50
:101BC0007F7FFFFFFFFFFFFFFFFFFFFFFFFF3F07DD
:101BD0000000000000000083FFFFFFFFFFFFFFFF8A
:101BE000FFFFFFFEE0E0E0C000000003070F0F0F63
:101BF0000703030101010101030703010040E0F0B5
:101C0000F8F0E0D0B8FCB8D2C7CFE7F2F8F0E04087
:101C10000000000F1FFFFFFFFFFFFFFFFFFFFFFFA1
:101C2000FFFFFF8F000000000000008FFFFFFFFF9D
:101C3000FFFFFFFFFFFFFFFFFF9800000000000114
:101C4000030707070703010000010307070301005B
:101C500000E0F0F8F0E040889CBE9CCCCEDFCEE403
:101C6000F0F8F0E04000010F1FFFFFFFFFFFFFFF54
:101C7000FFFFFFFFFFFFFF8F010000000000008F4C
:101C8000FFFFFFFFFFFFFFFFFFFFFFFFFF980000C9
:101C90000000000103070707070301000001030715
:101CA0000703010000000040E0F0F8F2E7CFC7D2E0
:101CB000B8FCB8D0E0F0F8F0E0400000008FFFFF83
:101CC000FFFFFFFFFFFFFFFFFFFFFFFF1F0F0000F2
:101CD0000098FFFFFFFFFFFFFFFFFFFFFFFFFF8FEA
:101CE00000000000000001030707030100000103DA
:101CF0000707070703010000000040E0F0F8F0E4E8
:101D0000CEDFCECC9CBE9C8840E0F0F8F0E0000036
:101D1000018FFFFFFFFFFFFFFFFFFFFFFFFFFFFF41
:101D20001F0F01000098FFFFFFFFFFFFFFFFFFFFF6
:101D3000FFFFFF8F00000000000001030707030101
:101D4000000001030707070703010000000000006F
:101D50000000000000000000000000000000000083
:101D6000000000E0FCFEFFFFFFFFFFFFFFFFFEFCA7
:101D7000E0E0F0F078700080C1FFFFFFFFFFFFFFA1
:101D8000FFFFFFFFFFF1F1F1610000000103070712
:101D90000703010100000000000103010000000032
:101DA00000000000000000C0E0F0F0F0F0F0F0F003
:101DB000F0F0F0C0000000E0FCFEFFFFFFFFFFFFBF
:101DC000FFFFFFFFDFDFFFFF7F783080C1FFFFFFF6
:101DD000FFFFFFFFFFFFFFFFFFF1F1F161000000D8
:101DE00001030707070301010000000000010301D0
:101DF00000000000000000000000000000000000E3
:101E000000000000000000000000000000000000D2
:101E100000000000000000000000000000000000C2
:101E200000000000F0F8FCFEFEFEFEFEFCF8F000F4
:101E30000000000000000000000707070707070771
:101E4000070707070000000000151C000000000045
:101E50000000000000000000000000000000000082
:101E6000000000C0300804F41454145414F4083072
:101E7000C00000000000000619E600006FD6EEFE6C
:101E8000EEF67F00E61906000000000000000001E9
:101E90000E0A08080E08080A0D00000000000000E5
:101EA0000080FC0205252525252525050579837C4F
:101EB000800000000003FC813D0D07F51555155508
:101EC00015F70D3D817C03000000000003FC0000BD
:101ED0006FD6EEFEEEF67F00FC030000000000006F
:101EE000000000010E0A08080E08080A0D00000094
:101EF00000000000000000C020C000000000000042
:101F000000000000000000000000000738C00EE5DF
:101F10001A2A0A5414F40408985446310EE010109A
:101F2000609EA1766B777FEE763F03C07C43800096
:101F3000000000010201000101010101020202068C
:101F40000908040300000000000000C020FC82BA61
:101F50000424244A4A4A4A140408F00000000007F6
:101F600038C00EE51A2B0B5516F6060A9C5447315D
:101F70000EE01010609EA1766B777FEE763F03C077
:101F80007C43800000000001020100010101010109
:101F9000020202060908040300000000000000C05D
:101FA00020C0000000000000000000000000000051
:101FB0000000000738C00EE51A2A0A5414F4040879
:101FC000985446310EC02020609EA1766B777FEE3C
:101FD000763F03C07C830000000000010204020180
:101FE00001010101020207090808040300000000C2
:101FF000000000C020FC82BA0424244A4A4A4A1441
:102000000408F0000000000738C00EE51A2B0B553D
:1020100016F6060A9C5447310EC02020609EA17619
:102020006B777FEE763F03C07C83000000000001E9
:102030000204020101010101020207090808040368
:102040000000000000000000000000000000000090
:1020500000C020C0000000000E314654980804F46F
:1020600014540A2A1AE50EC03807000000000000C8
:1020700080437CC0032F56EE7F777B7EA19E60104D
:1020800010E0000000030408090602020201010139
:102090000101000102010000F00804144A4A4A4A02
:1020A000242404BA82FC20C0000000000E314754F2
:1020B0009C0A06F616550B2B1AE50EC038070000D1
:1020C0000000000080437CC0032F56EE7F777B7EAC
:1020D000A19E601010E0000000030408090602023F
:1020E00002010101010100010201000000000000E5
:1020F000000000000000000000C020C00000000040
:102100000E314654980804F414540A2A1AE50EC0F5
:10211000380700000000000000837CC0032F56EE4B
:102120007F777B7EA19E602020C000000003040812
:102130000809070202010101010102040201000075
:10214000F00804144A4A4A4A242404BA82FC20C0F3
:10215000000000000E3147549C0A06F616550B2B62
:102160001AE50EC0380700000000000000837CC0A4
:10217000032F56EE7F777B7EA19E602020C000005B
:102180000003040808090702020101010101020419
:102190000201000040A010A040001028108082859D
:1021A00042A010A04000000000000F10E70201FD57
:1021B000C5AD92EAC6F983708F00000000000000F0
:1021C00000008F70808B95BB5F5DDE5F2867980095
:1021D00000000000000001020202020100000000F5
:1021E0000102020100000040A010A04000000814FD
:1021F0000880848A0440A010A040000000010E1155
:10220000E60201FDC5AD92EAC6F982718E010000B9
:102210000000000000008F70808B95BB5F5DDE5F6B
:10222000286798000000000000000102020202017D
:10223000000000000102020100000000000040A0B8
:1022400010A0428582801028100040A010A04000FD
:10225000000000008F7083F9C6EA92ADC5FD01024F
:10226000E7100F00000000009867285BD55B5FBD9A
:102270009E8F80708F0000000000000000010202AD
:102280000100000000010202020201000000000043
:10229000000040A010A0428582801028100040A0BD
:1022A00010A04000000000008F7083F9C6EA92ADD4
:1022B000C5FD0102E7100F00000000009867285BD1
:1022C000D55B5FBD9E8F80708F0000000000000016
:1022D00000010202010000000001020202020100EE
:1022E00000000000000000000000000000000000EE
:1022F000000000000000000000E01C02F98D859540
:10230000859585F9023C6060509048700080413EA0
:102310006081972B77BFB7BBBFD04E311191610061
:102320000000010204040403010100000000000198
:1023300002010000000000000000000000C020506A
:10234000505050505050509030C0000000E01C02DF
:10235000394D9F50103212F21232527057905F482E
:102360003080413E6081972B77BFB7BBBFD04E31E5
:102370001191610000000102040404030101000046
:102380000000000102010000000000000000000049
:10239000000000000000000000000000000000003D
:1023A000000000000000000000000000000000002D
:1023B0000000000000000000000000F0587C5CDC21
:1023C00058F408F0000000000000000000000000C9
:1023D000030303030303030003000000000000C025
:1023E000FFFFFFFFFFFFFFFFFFFFFFFFFFFFFF00FC
:1023F0000103030103070F0F0F0F07030101011072
:102400000CC03F817939D9291191911129D9397994
:102410000100010202010304080908080403010184
:1024200001FCFEFFFFFFFFFFFEFC0F1F3F3F3F3F92
:102430003F3F3F090EFC02F90505E50502FC0F10C0
:102440002F20202720203F307CFEFFFFFFFFFFFED4
:10245000FCE0E0F0F0F0F0E0E0C080000000000000
:1024600001030707070707377FFFFFFFFF5F3F7F76
:102470007F3F12000000000000000000000000008C
:1024800001010000000000000000000080C0C0E06A
:10249000E8FCFEFFFFFFFFFEFEFCF8F080000000FE
:1024A0003C7FFFFFFFFFFF7F3F070F0F0702010386
:1024B0000301000000000000000000000000000018
:1024C000000000000000000000000000000000000C
:1024D0000000F0FCFEFFFFFFFFFFFE8F0702000081
:1024E0000000000078FCFEFFFF7F7FFF7F070F0FDB
:1024F00007030000000000000000000001010000D0
:10250000000000000000000000000000000000804B
:10251000C0E0E0F0F0F0F0E0E0FCFEFFFFFFFFFFC6
:10252000FE7C30123F7F7F3F5FFFFFFFFF7F37075B
:10253000070707070301000000000000000000007B
:102540000101000000000000000000000000000089
:102550000080F0F8FCFEFEFFFFFFFFFEFCE8E0C09D
:10256000C0800000000000000103030102070F0FFC
:10257000073F7FFFFFFFFFFF7F3C000000000000E0
:10258000000000000000000000000000000000004B
:102590000000000002078FFEFFFFFFFFFFFEFCF0C0
:1025A00000000000000000000000000003070F0F03
:1025B000077FFF7F7FFFFFFEFC7800000000000028
:1025C0000000000000000000000000000101000009
:1025D0000000001611304C82959D899599029C60EF
:1025E000A0D0501050A0A0408000000000000102C8
:1025F0000404040404354E810A13B2522048482DC5
:1026000012000000000000000000000000000101B6
:10261000000000000000000000008040402028B4BE
:102620006A1D4591B5AA0A444870800000003C43E9
:10263000B8AC98ACB8413E0408080502010202019A
:10264000000000000000000000000000000000008A
:10265000000000000000000000000000000000007A
:10266000F00C0261451139817A89050200000000F1
:10267000000078843211814140807E0409080403FF
:102680000000000000000000000001010000000048
:10269000000000000000000000000000008040A0DA
:1026A000A0501050D0A0609C029995899D95824CB5
:1026B00030122D48482052B2130A814E35040404CA
:1026C00004040201000000000000000000000101FD
:1026D000000000000000000000000000000000807A
:1026E0007048440AAAB591451D6AB428204040802C
:1026F0000000000000000102020102050808043E7B
:1027000041B8AC98ACB8433C0000000000000000A9
:1027100000000000000000000000000000000000B9
:1027200000000205897A8139114561020CF0000030
:102730000000000000000000000003040809047EFF
:1027400080404181113284780000000000000000C8
:102750000000000000000000000001010000000077
:102760000060F8FCFEFFFFFFFFFFFEFCF8C0E0E0AA
:10277000E0E0C0C08000000000000103070F1F1F41
:102780001F1F7FFFFFFFFFFFFFFFFFFFFFFE540044
:102790000000000000000000000000010307070324
:1027A0000100010100000000000080C0C0E0F0F85E
:1027B000FCFEFEFEFEFCFCF8F0E08000000078FE6F
:1027C000FFFFFFFFFFFFFFFF7F3F3F1F0F070F0FC1
:1027D00007030100000000010303030303010000DD
:1027E00000000000000000000000000000000000E9
:1027F0000000E0F8FCFEFEFEFEFEFEFF1F0F0600DE
:1028000000000000F0F8FCFEFFFFFFFFFFFFFF3FAE
:102810003F1F0F0700000000000000000103070732
:10282000030101030100000000000000000000009F
:1028300000000080C0C0E0E0E0E0C0F8FCFEFFFF68
:10284000FFFFFFFEFCF86054FEFFFFFFFFFFFFFFEE
:10285000FFFFFF7F1F1F1F1F0F0703010000000066
:102860000101000103070703010000000000000050
:102870000000000000000080E0F0F8FCFCFEFEFE1E
:10288000FEFCF8F0E0C0C08000000000000103077B
:102890000F0F070F1F3F3F7FFFFFFFFFFFFFFFFFF0
:1028A000FE780000000000000000000000000000B2
:1028B00001030303030301000000000000060F1FD3
:1028C000FFFEFEFEFEFEFEFCF8E000000000000041
:1028D000000000000000070F1F3F3FFFFFFFFFFF4A
:1028E000FFFFFEFCF8F00000000000000000000008
:1028F00000000001030101030707030100000017A6
:1029000013609864FAD5C5FDD5C5FAC438C0202037
:1029100020A040408000000000000102040A1616BA
:10292000161776856CF0E0D09051B16041AA540042
:102930000000000000000000000000010205050288
:1029400001000101000000000000804040A09088CC
:10295000143282020A141488906080000000788685
:10296000798EAFFF8FAF7C83772F2E140A050B0B68
:102970000502010000000001020202020201000043
:102980000000000000000000000000000000000047
:102990000000E01804828A0202020AED150906000E
:1029A00000000000F008F49ABDDD7C7EFE02F52CEC
:1029B0002E170807000000000000000001020505B6
:1029C0000201010201000000000000000000000000
:1029D000000000804040A0202020C038C4FAC5D5A7
:1029E000FDC5D5FA64986054AA4160B15190D0E019
:1029F000F06C8576171616160A0402010000000016
:102A000001010001020505020100000000000000B4
:102A1000000000000000008060908814140A028208
:102A200032148890A04040800000000000010205A0
:102A30000B0B050A142E2F77837CAF8FFFAF8E7997
:102A40008678000000000000000000000000000088
:102A50000102020202020100000000000006091546
:102A6000ED0A0202028A820418E000000000000061
:102A70000000000000000708172E2CF502FE7E7CE7
:102A8000DDBD9AF408F00000000000000000000026
:102A9000000000010201010205050201000000041E
:102AA0000E1F3F1F1E3C7838100C1E1F3F1F1E1E9E
:102AB0000F0E041038783C1E1F3F1F0E04040E0F2B
:102AC0001E1E1F3F1F1E0C0A0700040E1E0E0C08C0
:102AD000301000000C0E1E0E0C0806040000103012
:102AE000080C0E1E0E0400000406080C0E1E0E0C30
:102AF00000010204081020408021080F0F08080080
:102B000006090B06000E03030E000F090F06000F47
:102B10000F000F02030F000E0F090D000E10BEBDB7
:102B2000BEBDBEBDBEBDBEBDBEBDBE000004000478
:102B3000000400040004000400004E080F0D07020A
:102B4000000F050F0A000F0D0900020B0D00020B0C
:102B50000D00000000000F0D0702000F0F08080015
:102B60000E03030E00030E0E0300000006090B0601
:102B7000000F02030F00000000010F0F010E0303FE
:102B80000E000F0D0702000F0D090E10A7C7A7C7F3
:102B9000A7C7A7C7A7C7A7C7A700070707070707AC
:102BA000070707070707070024080E1F1F1F0E004F
:102BB000000000000000000000001F0E04000000E4
:102BC000000000000000040E1F00040E1F00C92EAC
:102BD000C52E11241FBECFEFDAE0DEBFCDBF11E05E
:102BE000A0E0B1E0E0E7F4E602C005900D92A43B5E
:102BF000B107D9F727E0A4EBB1E001C01D92A132E3
:102C0000B207E1F715E1C8EED5E104C02197FE0156
:102C10000E94FF30C73ED107C9F70E94672C0C9471
:102C20002B320C940000CF92DF92EF92FF920F9321
:102C30001F93CF93DF936C017A018B01C0E0D0E04A
:102C4000CE15DF0581F0D8016D918D01D601ED9192
:102C5000FC910190F081E02DC6010995892B11F0BE
:102C60002196EECF7E01C701DF91CF911F910F9189
:102C7000FF90EF90DF90CF9008950E9426328F92C0
:102C80009F92AF92BF92CF92DF92EF92FF920F93FB
:102C90001F936217730784079507A4F489019A01AB
:102CA0006B017C0148015901861A970AA80AB90AE2
:102CB0000E94D72FA50194010E947C306C0D7D1DD0
:102CC0008E1D9F1D1F910F91FF90EF90DF90CF9071
:102CD000BF90AF909F908F9008958F929F92AF92E8
:102CE000BF92CF92DF92EF92FF926B017C010E9424
:102CF0001C234B015C01C114D104E104F104F1F087
:102D00000E941C23DC01CB0188199909AA09BB097F
:102D1000883E9340A105B10570F321E0C21AD108A5
:102D2000E108F10888EE880E83E0981EA11CB11C12
:102D3000C114D104E104F10419F7DDCFFF90EF9045
:102D4000DF90CF90BF90AF909F908F9008955F924B
:102D50006F927F928F929F92AF92BF92CF92DF92AB
:102D6000EF92FF920F931F93CF93DF9300D000D089
:102D70001F92CDB7DEB78C017B01DB011996CC9099
:102D800019971A96DC90FC01828181113CC258018E
:102D9000FFE6AF0EB11CD5018C91882311F0815054
:102DA0008C934801B7E78B0E911CF4018081882336
:102DB00011F081508083D5018C9181115FC0F801A1
:102DC000E259FF4F208130E040E050E031976081D0
:102DD00070E080E090E00E943F16F5016083F8010A
:102DE00020E080E094AD91110BC0D70153969C91E7
:102DF000913009F4DDC2911103C0823009F0D8C2CC
:102E00008F5F3896853071F72223C1F130E040E0C2
:102E100050E060E070E0CB010E943F16FE01E60F3B
:102E2000F71F81818F3F51F15801B8E08B9FA00CB3
:102E3000B11C112491E0F50194AFEF5BFF4F98E7CF
:102E40009083D501DF961C92F501E05CFF4F108264
:102E5000F50115AEF801EE58FF4F208130E040E05B
:102E600050E03197608170E080E090E00E943F1672
:102E7000F501EE5BFF4F608331966083D4018C9146
:102E8000811135C0C80141960E942622F80192891D
:102E90009F3F69F18F3F59F5953019F4878982304A
:102EA00031F5A92EB12CF801B8E09B9FE00DF11D82
:102EB000112484AD81111BC0F801EA58FF4F208115
:102EC00030E040E050E03197608170E080E090E0D9
:102ED0000E943F16D4016C9387E08A9DF0018B9D80
:102EE000F00D1124E00FF11F158E8CE3838FF80194
:102EF000E358FF4F8081882309F485C1F701848955
:102F0000811181C1F801E558FF4F8081882311F0BC
:102F100081508083D70117968C9180FD74C1C5FEC6
:102F200012C0D8015196EC91EE2369F0B4E0EB9F0A
:102F3000F0011124E554F74FE491E150E73018F423
:102F400082E0F801878BC6FE06C0D80151968C91AD
:102F5000823708F436C2F80191AC82A873A464A049
:102F6000558C5801F1E1AF0EB11CC5010E9426221B
:102F7000D80152969C91891301C08FEFF801828B82
:102F8000848981115CC097898189923019F09330CE
:102F900019F014C081500FC021E0280FB4E02B9F1E
:102FA000F0011124E554F74FE491E73019F0F801EE
:102FB000218B04C08251D80151968C93D80151962F
:102FC000EC91B4E0EB9FF0011124E554F74FE4914C
:102FD0008FEF8E0F873008F046C0D80158969C932B
:102FE000589784E057968C93F0E03297E230F105E1
:102FF000D1F02CF4309749F0319789F034C0E330A8
:10300000F105A9F03497B9F02EC0B2E05B122BC0E5
:1030100085E2F801848B84E6858B168A24C0F2E071
:103020006F16B1F320C022E0721691F31CC032E09B
:10303000831671F318C082E0981651F314C08150C2
:10304000848B982F937019F496899F5F968BF80163
:103050009589923010F09150958B811104C087E0D2
:10306000D80154968C93C5010E9426228F3F59F0B7
:10307000F801E658FF4F9081891729F080838EEC84
:1030800091E00E94B91FD8015196EC91B4E0EB9FFA
:10309000F0011124E554F74FE49198012C593F4F6A
:1030A0005901E83009F059C0D80153968C91882312
:1030B00009F453C0D9018C91833708F0B8C1F701E6
:1030C000808991890196918B808B238921117DC103
:1030D00083709927892B31F4F801E359FF4F8081E0
:1030E00081508083D70150968D919C915197837028
:1030F0009927892B31F4F801E259FF4F80818150E3
:103100008083F701808991896FE070E00E94EB3045
:10311000892B31F4F801EF58FF4F80818150808373
:10312000D70150968D919C9151976EE170E00E946D
:10313000EB30892B31F4F801EE58FF4F808181503C
:103140008083D80153961C9281E0F801E458FF4F28
:10315000808380EC91E00E94B91FF8018189811180
:1031600005C0E458FF4F8081811164C14801F7E632
:103170008F0E911CD4018C918823D9F081508C93AF
:103180009EE6F501908381113EC0F801E559FF4F9D
:1031900010823197208130E040E050E0319760812B
:1031A00070E080E090E00E943F16F801E459FF4F84
:1031B00029C0F801E559FF4F8081D801A459BF4FBC
:1031C0002C91821700F591E0980F9083322F36955D
:1031D000931710F4815903C08EE6820F891BD50125
:1031E0008C93291310C0F801EA59FF4F208130E079
:1031F00040E050E03197608170E080E090E00E9414
:103200003F16F4016083D70117968D919C91189712
:103210008F709927F801EC59FF4F5F019801245CEA
:103220003F4F4901892B61F4F901AE16BF0641F009
:1032300081E09381913009F480E083833896F5CF63
:10324000B701C8010E94A821D801F40129E091E04A
:1032500032E041E254E68681882319F08A3059F041
:1032600010C08781868384818F5F8483853061F479
:103270001082118209C08481843009F491832683ED
:1032800003C01182815086838181882331F05D964D
:103290003C935D975B964C935B975C968C915C97A7
:1032A000882329F081505C968C935C9703C05C96D0
:1032B0005C935C975B968C915B97882329F0815097
:1032C0005B968C935B9703C05D969C935D97179676
:1032D0003896AE16BF0609F0BECFD80155968C9130
:1032E000823028F08091B901882309F4ADC0F8013B
:1032F0009589980123583F4F5901913089F4D9019C
:103300008C91882389F0F9011082D70152968C9113
:103310005297815052968C93811102C0F701948B81
:10332000D5018C91811118C0F7018489811114C0D5
:103330008D2D80958C218C7009F48BC086EB91E0EB
:103340000E94B91F81E0D5018C93F801158A148A77
:10335000118A84E0878B7DC0D7011A968C911A97C9
:10336000809519969C911997892354969C9199233D
:10337000A1F083FF6EC083E884BD8FEF87BD81EF2E
:10338000809380001092880010928A000E94A31DF2
:1033900085E0F701868B178A5CC082FF5AC0D8018E
:1033A00012969C91129781E0892712968C9351C0B6
:1033B000A1E0B0E0AC0FBD1FA20FB11D8C932F5F39
:1033C0001FCD83E0F801878BC6CD63E070E00E94DB
:1033D000EB30892B31F4F801E359FF4F80818150A4
:1033E0008083F7018089918963E070E00E94EB306F
:1033F000892B31F4F801E259FF4F8081815080839D
:10340000D70150968D919C9151976CE070E00E948D
:10341000EB30892B31F4F801EF58FF4F8081815058
:103420008083F7018089918968E170E080CE86EB26
:1034300091E091CE81E0D80153968C9310828CEA72
:1034400091E00E94B91F92CE86E191E00E94B91FDF
:103450004ECF0F900F900F900F900F90DF91CF9164
:103460001F910F91FF90EF90DF90CF90BF90AF90A2
:103470009F908F907F906F905F900895DF92EF9272
:10348000FF920F931F93CF93DF93EC017B01FB011E
:10349000148AFC01E358FF4F10828DEF90E08E01FB
:1034A0009E012D5D3F4FDE014CE351E2FC01649132
:1034B00059966C9359973196E4915A96EC935A9792
:1034C000FC013296E4915F96EC935F97FC01339692
:1034D000E4915D96EC935D97E13059F030F0E23085
:1034E00059F45B965C935B9707C05B964C935B9734
:1034F00003C05B961C925B97FC013496E4915C964A
:10350000EC935C9705961796A217B30709F0CECFF8
:1035100080EAD82EFE01EB58FF4FD08288EC31961E
:1035200080830E94D72F28E230E040E050E00E94E4
:103530007C30DC01CB0180569F4FAF4FBF4FFE0167
:10354000E958FF4F8083F7014389BE0163597F4FDC
:10355000DE01A259BF4F9E012F583F4FCE018E581A
:103560009F4F41110CC048E7FB014083DC9244E1CE
:10357000F901408328E2FC01208380E00AC04AE58B
:10358000FB01408348E74C9340E1F901408320E28E
:10359000F2CFF80186AF14AE8F5F085F1F4F853002
:1035A000C1F72C9130E040E050E0FB01608170E019
:1035B00080E090E00E943F16FE01E159FF4F6083DA
:1035C0001D8A1C8A198A84E08F8B81E08B8B3A9745
:1035D00084E6808331969CE8908333969CE39083C5
:1035E0003196808336978EE680830E94D72F8E0196
:1035F00009591F4F28E230E040E050E00E947C3043
:10360000DC01CB018C599F4FAF4FBF4FF801808336
:10361000749688ED8083CE010E94C71C1A828BE4C9
:1036200092E29093110780931007DF91CF911F9141
:103630000F91FF90EF90DF9008958091C001E0918D
:10364000BE01F091BF01882349F0CF01029690930B
:10365000BF018093BE01859194910895CF01029698
:103660009093BF018093BE01808191810895089558
:103670000C949D310C949D310C949D310C949D3192
:103680000C949D31AF92BF92CF92DF92EF920F9345
:10369000CF93DF93EC016D81062E000C770B6F5DED
:1036A0007F4FE12C00E02CE032E04AE152E080E084
:1036B00090E00E94CE255E0186E0A80EB11C8EE04F
:1036C000C82ED12CF50161915F01062E000C770BFD
:1036D0006F5D7F4FE12C00E026EF31E040E052E0EB
:1036E000C6010E94CE25FAE0CF0ED11C82E7C81693
:1036F000D10441F76889062E000C770B6F5D7F4F70
:1037000028ED31E046EE51E082E790E00E94CE25C0
:10371000DF91CF910F91EF90DF90CF90BF90AF905E
:1037200008952F923F924F925F926F927F928F9265
:103730009F92AF92BF92CF92DF92EF92FF920F9340
:103740001F93CF93DF9300D000D000D0CDB7DEB76A
:103750005C01FB01678070840E942A21C5010E94E0
:10376000421BE12C00E022E535E04AEB56E062E145
:1037700070E08DE190E00E94CE2526E433E04BE43A
:1037800054E063E070E086E190E00E94CE25750190
:1037900008E110E04E01F7E08F0E911C9E012F5FB3
:1037A0003F4F2901170137E1230E311C74E2C72E68
:1037B000D12CF10121911F012F3311F0205401C0B0
:1037C00020E040EB52E0B801C6010E94BE25F6E0C1
:1037D000CF0ED11C26E3C216D10459F7140161E4BF
:1037E000C62ED12CF20126E011922A95E9F7F701B5
:1037F00085899689F2016AE070E00E94EB3081933E
:10380000CB018E169F06B9F7F10122911F01255EAB
:1038100040EB52E0B801C6010E94BE25F5E0CF0E94
:10382000D11C2FE5C216D104E9F6075F1F4F36E021
:10383000E30EF11C0333110509F0B4CFF501218922
:103840002F3F09F477C0C30168E370E00E94EB30BA
:103850008D3108F46FC0C501F6E02F9F800D911DDA
:103860001124AC01495E5F4F4A0159E0259FC00118
:1038700011248C01095E1F4FF501C288F6E0CF9E2E
:103880006001112496012D5D3F4F49E2C40ED11C09
:103890004F9640E1742E51EFE52E5AE2F52E2C158D
:1038A0003D0539F1A80117FF02C040E050E0BC011E
:1038B0008134910514F060E470E046175707B4F4C2
:1038C0002038310584F4BA01F701769ED001A07842
:1038D0001124A20F6770E60FF11D6490A553BE4F2F
:1038E0006C91662A6C924F5F5F4FE1CF2F5F3F4F25
:1038F000D6CFF5018289F401E80FF11D20812F3325
:1039000011F0205401C020E0F5016189F9E06F9FBA
:10391000B0011124685E7F4F36E0839FC0011124FF
:103920003BEFC32EE12C00E010E040EB52E0849628
:103930000E948B23F50181898F3F79F4848981115D
:103940000CC0E12C00E02AE232E04CE652E065E3F4
:1039500070E080E390E00E94CE2526960FB6F894A2
:10396000DEBF0FBECDBFDF91CF911F910F91FF90B2
:10397000EF90DF90CF90BF90AF909F908F907F900F
:103980006F905F904F903F902F900C940021FC011E
:103990008CE090E09F3F3CF0923024F0923019F49C
:1039A000158201C095839F5F933009F49FEF81508A
:1039B00031968111EFCF08956F927F928F929F92EF
:1039C000AF92BF92CF92DF92EF92FF920F931F932D
:1039D000CF93DF9300D000D000D0CDB7DEB77C010D
:1039E0005B01DC0152961C92529753961C9253979E
:1039F00084E654968C93FB01C088D188C114D1040D
:103A000009F455C08DEA90E00E944630C816D906E8
:103A1000A0F483EB90E00E944630C816D90690F4DB
:103A200089EB90E00E944630C816D90608F43FC0E2
:103A300089EB682E712C12E026C010E03DEA632E5F
:103A4000712C04C011E023EB622E712C99EB892EAE
:103A5000912C02E00150F6E00F9FB0011124635554
:103A60007F4F46E050E0CE0101960E942E3046E0A6
:103A700050E0B401CE0101960E944C3086E0881AD5
:103A80009108101738F3FE01319686E0DF011D9290
:103A90008A95E9F79FE39B839C839D83DA82C982A1
:103AA00046E050E0B301CF010E944C3001C01FEF4F
:103AB000F701118BD5011A961C921A9719961C9230
:103AC000C70145960E94BD21C7010E94C71C2696CA
:103AD0000FB6F894DEBF0FBECDBFDF91CF911F911F
:103AE0000F91FF90EF90DF90CF90BF90AF909F909D
:103AF0008F907F906F900895FC0194818181913027
:103B000031F018F0923051F008958450089591E00A
:103B10002381223308F090E0891B0895E2814E2F23
:103B200050E04232510570F4FA01EA5AFF4F0C940A
:103B3000FF30865F0895885F08958A5F08958C5FDF
:103B400008958E5F0895E1E7F0E080818D7F8083A6
:103B500010929100469847981092B9010895AF923B
:103B6000BF92CF92DF92EF92FF921F93CF93DF939A
:103B7000EC017B01FB01118529892F3F09F482C0EB
:103B8000878190856CE070E00E94EB306C01892B9E
:103B900009F091C017FF20C0CE01F6E02F9F800DE5
:103BA000911D112447962A89FC01E20FF11D208105
:103BB0002F5F20832A89FC01E20FF11D20812B3524
:103BC00014F021E420832A89FC01E20FF11D808199
:103BD000803411F481E4808314FF17C08989FE01C9
:103BE00026E0829FE00DF11D112477968A89DF017E
:103BF000A80FB11D8C9181508C938A89E80FF11D1B
:103C00008081813414F48AE5808315FF05C08A8998
:103C1000882311F081508A8B16FF05C08A89823073
:103C200010F48F5F8A8B13FF46C08989FE0136E04E
:103C3000839FE00DF11D1124779680818F33D9F198
:103C400081818F33C1F182818F33A9F15F01F50149
:103C500061915F018989960146E0849F200D311DA5
:103C60001124C90181559F4F0E945C305FEFC51A36
:103C7000D50A83E0C816D10451F78FEF898B84E60B
:103C80008C8B19C0FB018285809581238C7099F003
:103C90008C89811110C083E884BD27BD81EF80939A
:103CA00080001092880010928A000E94A31D82E07A
:103CB000F701868B178A10768B89103671F58F5F26
:103CC0008B8B8531C0F18D33A8F08D33A1F51B8A24
:103CD00083E884BD8FEF87BD81EF809380001092D1
:103CE000880010928A000E944026CE0145960E94CC
:103CF000BD2121C020E430E0A901481B5109CA01BF
:103D0000880F93E894BD9FEF97BD91EF909380004B
:103D10001092880080938A000EC0882361F083E8A7
:103D200084BD8FEF87BD81EF809380001092880063
:103D300010928A001B8A8C89882311F081508C8B09
:103D4000B701CE01DF91CF911F91FF90EF90DF90EF
:103D5000CF90BF90AF900C94A821CF92DF92EF92BA
:103D6000FF920F931F93CF93DF930E941D1B81152A
:103D700020E8920751F4DF91CF911F910F91FF90AE
:103D8000EF90DF90CF900C94A31D21E02093B90118
:103D9000813020E8920751F48091BC019091BD01DF
:103DA0009093BF018093BE010E941D1B97FD05C02B
:103DB0002091BB01222309F440C02091BA012111B6
:103DC0003CC021E02093C101EC01DF77209769F42A
:103DD00081E08093C20146983FE9C32E3FE0D32E95
:103DE000E12CF12CCAEFD0E014C08E0120E030E0CD
:103DF00060E472E48FE090E0A90198010E947C30B9
:103E000069017A0181E0C81AD108E108F10810922D
:103E1000C201E0911007F09111070995811103C0CB
:103E200081E08093C2018091C101882309F43FC0E1
:103E30008091C20181113BC003C01092C101C4CF67
:103E4000469935C0479A0E941D1B009771F09C014E
:103E5000DE010E94D030DC01CB0129E0B595A795A9
:103E6000979587952A95D1F703C08FEF9FEFDC01D7
:103E7000109290002AE020939100D0929900C09275
:103E800098008093C3019093C401A093C501B0939F
:103E9000C60180917100826080937100DF91CF91A3
:103EA0001F910F91FF90EF90DF90CF90089547986A
:103EB000CACF1F920F920FB60F9211242F933F93E8
:103EC0004F935F936F937F938F939F93AF93BF9322
:103ED000EF93FF938091C3019091C401A091C5011C
:103EE000B091C601892B8A2B8B2B81F18091C20165
:103EF00081110BC098B180E4892788B98091C101F4
:103F0000882319F088B1805888B98091C3019091B5
:103F1000C401A091C501B091C601181619061A0670
:103F20001B06B4F48091C3019091C401A091C50116
:103F3000B091C6010197A109B1098093C301909383
:103F4000C401A093C501B093C60102C00E94AD1E7A
:103F5000FF91EF91BF91AF919F918F917F916F9161
:103F60005F914F913F912F910F900FBE0F901F9037
:103F700018959C01E1E7F0E090819D7F908381E0BE
:103F80008093C0013093BF012093BE013093BD01E7
:103F90002093BC010C94AD1E0895089508950895D2
:103FA00008950C949D3108952091CA01211103C0F8
:103FB0008FEF9FEF08955FB7F89422E02093E90018
:103FC0002091F20030E01216130614F421E030E0E4
:103FD000422FFC0184E6415038F028988093C901B3
:103FE0009091F1009193F7CF2115310521F0809147
:103FF000F200882319F05FBFC90108958BE6809312
:10400000E800F9CF2FB7F89483E08093E90090910E
:10401000E800892F807295FF04C09091F20080E43F
:10402000891B2FBF0895CF93DF931F92CDB7DEB7C3
:104030006983DC01ED91FC910280F381E02D41E088
:1040400050E0BE016F5F7F4F09950F90DF91CF91D8
:10405000089583E08093E9008091F200882319F0AD
:104060008AE38093E80008950E94022090E008957A
:10407000CF93DF931F92CDB7DEB7FC018485958582
:1040800097FD05C02FEF3FEF358724870BC0CE018A
:1040900001960E94D41F019719F4898190E002C013
:1040A0008FEF9FEF0F90DF91CF9108950F931F93A4
:1040B000CF93DF931F92CDB7DEB78C01FC018485CF
:1040C000958597FF0EC0CE0101960E94D41F0197DF
:1040D00019F4898190E002C08FEF9FEFF801958776
:1040E0008487F801848595850F90DF91CF911F918A
:1040F0000F9108958F929F92AF92BF92CF92DF92CD
:10410000EF92FF920F931F93CF93DF936C017B018C
:104110008A0180910701882309F45CC08091CA015B
:10412000882309F457C08091C80180FF05C08091A1
:10413000E00082608093E000E801B12C8AEFA82EB5
:1041400093E0892E2AE3922E209711F4BB20D9F117
:104150000E94022081110AC0AA94AA20D9F161E02C
:1041600070E080E090E00E946D16EECF282F30E0E6
:10417000C217D3070CF48C2F9FB7F8948092E900F4
:104180002091E80025FF1DC0282F30E0C21BD30B73
:10419000F701815020F041914093F100FACFE20EF7
:1041A000F31EBB2019F09092E8000AC08091E8004D
:1041B00085FD07C09092E800BB24B394209709F0D6
:1041C000B12C9FBFC1CF5D9884E68093C7011016C4
:1041D000110644F081E090E0F6019383828380E051
:1041E00090E001C0C801DF91CF911F910F91FF9026
:1041F000EF90DF90CF90BF90AF909F908F900895F9
:104200008091CB018EBD8FEF8093CB01EBECF1E081
:1042100082E090E05FEF63E09C0121503109418131
:10422000211572E0370728F02038324020F46183EE
:1042300003C0518301C011820DB407FEFDCF4EBDF6
:1042400031960196813024E0920731F70DB407FED4
:10425000FDCF0895CF92DF92EF920F93CF93DF932C
:10426000EC016B01FB01878190858F739927892B66
:1042700039F48C818F5F803410F48C8301C01C82F0
:104280008C8190E020E04CE95DE060E070E08054DB
:1042900091090E94BE258C8120E04CE95DE060E040
:1042A00070E090E00E94BE25E12C00E020E03DE0BF
:1042B0004DE45DE06FE070E080E090E00E94CE258C
:1042C00024E63CE041EB5CE06FE070E085E790E0E5
:1042D0000E94CE250B812AE43CE042E55CE060E3ED
:1042E00070E08CE090E00E94CE250B812AE43CE057
:1042F00042E55CE060E370E080E790E00E94CE255C
:104300000B812AE43CE042E55CE066E370E080E497
:1043100090E00E94CE2500E020EA3AE044E75BE02E
:1043200060E370E08BE090E00E94CE25F60187818B
:1043300090858F719927892B21F49B8181E08927B2
:104340008B83DF91CF910F91EF90DF90CF90089505
:10435000FB01278130852F703327232B69F4FC0163
:1043600025813596AC01405F5F4F31813193E41771
:10437000F507D9F7FC01208B0895CF93DF93EC016B
:1043800046E050E06DEA70E00E942E3046E050E0DA
:1043900063EB70E0CE0106960E942E3046E050E0BE
:1043A00069EB70E0CE010C96DF91CF910C942E302A
:1043B000DC01EC9184E0E89FF0011124E854F74F10
:1043C000249113969C911397911102C0822F089506
:1043D00084E0989FF0011124EC5DF74FE49117966B
:1043E0008C91823009F4E1958E2F820F0895DC01C3
:1043F0001396EC911397E1111AC0EC9184E0E89FB9
:10440000F0011124E654F74FE491E23011F0E4306A
:1044100039F416968C911697833011F494E001C00C
:1044200090E012968C91E80F8E2F890F089584E00A
:10443000E89FF0011124EA5DF74FE49117968C9103
:10444000823011F48E0F08958E2F0895DC01EC91C7
:10445000B4E0EB9FF0011124E554F74F84919FEFF6
:10446000980F973010F4825008958FEF089580913F
:10447000AA0681110DC082E08093A60684E0809395
:10448000A7061092A9061092A80681E08093AA06BA
:1044900086EA96E008958091B401089508950895FC
:1044A00080E090E00895FC018381823019F0833030
:1044B00041F0089580818D3010F0815006C083E076
:1044C00007C08081883618F48F5F8083089582E06A
:1044D00083830895FF920F931F93CF93DF93EC0193
:1044E000FB018185F284F094F82284FF14C089894D
:1044F000803118F48F5F898B0FC0F89487E7809321
:10450000000880930108A89588E18093600088E006
:1045100080936000FFCF198A8B018F2D8C70C1F0C2
:10452000F3FA882780F991E08927FB01838B83E8E0
:1045300084BD8FEF87BD81EF80938000109288004B
:1045400010928A000E94A31D84E0F801868B178ACE
:10455000F7FC03C08F2D807789F083E884BD8FEF4F
:1045600087BD81EF809380001092880010928A00AE
:104570000E94A31D85E0F801868B178AB801CE0141
:104580000E94A821F8018781908566E070E00E9472
:10459000EB30892B11F5CE0143960E945322F8018E
:1045A000878190856CE070E00E94EB30892B21F4CC
:1045B0009D8981E089278D8BCE0147960E945322E9
:1045C000F801878190856CE070E00E94EB30892BC8
:1045D00021F4998D81E08927898F8A89883C10F49C
:1045E0008F5F8A8BDF91CF911F910F91FF9008957C
:1045F000FC01DB0180E1838B89E2848B83E0868B85
:1046000098E6978B90E3908F92E0928F52968C93DE
:10461000529751961C921E92509754961C928BE47E
:1046200092E29093110780931007CF010E94C71C5C
:104630008EE99EE00C94B91F3FB7F8948091130760
:1046400090911407A0911507B091160726B5A89B65
:1046500005C02F3F19F00196A11DB11D3FBFBA2F14
:10466000A92F982F8827820F911DA11DB11DBC0174
:10467000CD0142E0660F771F881F991F4A95D1F739
:1046800008951F920F920FB60F9211242F933F930C
:104690008F939F93AF93BF938091B5019091B60193
:1046A000A091B701B091B8013091120723E0230F18
:1046B0002D3720F40196A11DB11D05C026E8230F5A
:1046C0000296A11DB11D209312078093B50190930E
:1046D000B601A093B701B093B801809113079091F0
:1046E0001407A0911507B09116070196A11DB11DE1
:1046F0008093130790931407A0931507B0931607A0
:10470000BF91AF919F918F913F912F910F900FBECD
:104710000F901F9018954F925F927F928F929F9269
:10472000AF92BF92CF92DF92EF92FF920F931F93BF
:10473000CF93DF9300D000D0CDB7DEB7DC014801C6
:104740004115510509F406C2FA01F490319684919D
:104750004E5F5F4FAF2CB12C211102C0EE2061F1F2
:1047600001E010E0982F977011F400E010E0982F0E
:10477000969596959695090F111D0A9DF0010B9D32
:10478000F00D1A9DF00D112413E0712EC71003C017
:10479000EE0FFF1F0AC08114910439F0EE9E8001D4
:1047A000EF9E100D1124800E911E2E9F80012F9FD1
:1047B000100D1124400F511F1FEFC11208C08114AA
:1047C000910419F0CC24C39402C022E0C22EFD0152
:1047D000EA0DFB1D1E161F060CF0BCC1A038B1056A
:1047E0000CF0B8C19B01280F311D121613060CF0F6
:1047F000B1C1603471050CF0ADC14115510509F42A
:10480000A9C1362F37708B0177FF02C0095F1F4F98
:1048100093E0159507959A95E1F7202F77FF04C04F
:10482000332311F02FEF200FB7FF05C0002711270A
:104830000A1B1B0B02C000E010E0E038F1051CF081
:1048400090E89A1B01C09F2D901B622F022E000C36
:10485000770B2F3F1CF4E62EE09401C0E12CF1E031
:10486000E82FE77009F4F0E0869586958695F80FB5
:104870006F0F711D6930710514F0F8E0F21BFE191D
:104880002E0D60E82603A00DB11D1124A00FB11F4D
:10489000FE9C000D111D1124400F511F61E070E0BE
:1048A0007B01032E02C0EE0CFF1C0A94E2F773E0BA
:1048B000C71609F407C17C15C8F081E0C81609F4D1
:1048C000B9C0E2E0CE1246C18FEF8E9D80018F9D70
:1048D000100D1124009510951C830B839C80BD0145
:1048E00065537E4F2B018F2E820E2DC06AEF762EE0
:1048F000C71409F43BC01BEFC1122CC1BD016553A5
:104900007E4F4B01DF2ED20E83C084918E9D6001BD
:104910008F9DD00C1124DA82C98227FD05C0DB01EE
:104920008C918023C82ACC92311113C031966F5FCD
:104930007F4F8E2F841B891740F32F5F4A0D5B1D1D
:10494000B0E84B0E511C281509F404C1B201FA015C
:10495000F0CF27305CF76B01B0E8CB0ED11CD6014D
:104960008C9189217A8087298C93E0CFBD01655392
:104970007E4F4B01DF2ED20E2D1509F4EBC0B40192
:10498000FA018E2F841B8917F0F484918E9D80018B
:104990008F9D100D11241A83098327FD04C0DB01AC
:1049A0008C91082B0C93332351F0273044F48B0166
:1049B00000581F4FD801CC908A818C298C93319656
:1049C0006F5F7F4FDECF2F5F4A0D5B1DB0E88B0E10
:1049D000911CD2CF84918E9DB0018F9D700D1124BA
:1049E0007A83698327FD05C06095D8018C9168237F
:1049F0006C93311113C031960F5F1F4F8E2F841BA4
:104A0000891740F32F5F4A0D5B1DB0E88B0E911C98
:104A10002D1509F49FC08401FA01F0CF27305CF70F
:104A2000B80160587F4F8A818095DB01CC908C2142
:104A30008C93E1CF080D191DA553BE4F7F2E720E2A
:104A4000271509F487C0BD01C12CD12CC91690F5DA
:104A5000F801EC0DFD1DE491EE9D4001EF9D900CE1
:104A60001124809490949C828B82FA01EC0DFD1DA0
:104A7000E491EE9D2001EF9D500C11245A82498251
:104A800027FD05C0FB01808188224828408233230E
:104A900059F027304CF4FB01E058FF4F90808C8197
:104AA00089219A8089298083FFEFCF1ADF0A6F5FFF
:104AB0007F4FCCCF2F5F4A0D5B1D0A0D1B1DA058E9
:104AC000BF4FBECFC92ED12C2801440E551EA55371
:104AD000BE4F60E870E04B018C189D08AC18BD0813
:104AE000AA0CBB1CC92E022F192F2F2FF201A401D3
:104AF000B501732ECF93DF93ED01EF96EF962296DB
:104B00008590A590772059F08E9C4001AE9C500175
:104B100007302CF4D880B094DB20D928D992002318
:104B20003AF0DC90A094DA20D828DD920C949925F4
:104B300011961A9529F72A9551F01C2D03951124E9
:104B4000E60FF11DA40FB11DC40FD11DD9CFDF9108
:104B5000CF9111240F900F900F900F90DF91CF9174
:104B60001F910F91FF90EF90DF90CF90BF90AF908B
:104B70009F908F907F905F904F900895CF92EF928B
:104B80000F931F9332E0C32EE12C00E010E00E944F
:104B90008B231F910F91EF90CF900895CF92EF92BA
:104BA0000F931F93F901202FCC24C3948F010E94EF
:104BB0008B231F910F91EF90CF900895EF920F9359
:104BC000CF93DF93EC010E942A21CE010E94421B69
:104BD000E12C00E024E630E144E951E169E070E0D5
:104BE0008AE190E00E94CE258E89823011F082E029
:104BF00001C080E00D8991E00927080F6C8970E001
:104C00008B89E02E22E130E14AE350E190E00E94FE
:104C1000CE258A8D823011F082E001C080E0098DBE
:104C200091E00927080F688D70E08F89E02E22E15E
:104C300030E14AE350E190E00E94CE258A89883C29
:104C400061F4E12C00E02CE23FE04EE95FE06AE233
:104C500070E083E290E00E94CE25DF91CF910F912A
:104C6000EF900C940021BC0180E090E00C946D1654
:104C70008FB18095807F669B88601C9B84600895BF
:104C8000EF92FF921F93CF93DF9300D000D000D01C
:104C9000CDB7DEB764E58BEA90E00E945C3062E459
:104CA0008CEA90E00E945C308DEAE82EF12C11E451
:104CB0001A8219821B831C831D831E8246E050E0EA
:104CC000B701CE0101960E944C301F5F86E0E80ECE
:104CD000F11C8FEBE816F10459F726960FB6F894FD
:104CE000DEBF0FBECDBFDF91CF911F91FF90EF9040
:104CF0000895FC018485958597FD0BC09FB7F894B6
:104D000082E08093E9008091F2009FBF90E00196DD
:104D100008959FB7F89482E08093E9008091F200B3
:104D20009FBF90E0089540911A0750911B07209172
:104D300018073091190742175307B4F49091E8000F
:104D40009570E1F39091E80092FD19C08093F10015
:104D500080911A0790911B0701968F739927892BD1
:104D600019F48EEF8093E80080911A0790911B0749
:104D7000019690931B0780931A0781E0089580E0C5
:104D80000895DF92EF92FF920F931F93CF93DF93DB
:104D9000D82E8A017B01E40EF51EEB01CE15DF054E
:104DA00071F0D7FE03C0FE01849101C088810E948A
:104DB000932621968111F2CF8FEF9FEF01C0C8019A
:104DC000DF91CF911F910F91FF90EF90DF900895A9
:104DD000615030F02091F100FC0120830196F8CF62
:104DE000289884E68093C90108950F931F93CF9369
:104DF000DF931F92CDB7DEB782E0898342E450E0B3
:104E000066EC72E180E80E94C1260E943722DC0134
:104E100012960D911C9113970115110589F0D80177
:104E2000ED91FC910280F381E02DBE016F5F7F4F19
:104E3000C801099597FD04C0F80100851185ECCFE4
:104E400089810F90DF91CF911F910F9108951F924B
:104E50000F920FB60F9211248F939F938091E100D0
:104E60009091E100937F9093E10083FF0FC0109237
:104E7000E90091E09093EB001092EC0092E39093A4
:104E8000ED001092CA0198E09093F00082FF20C0DC
:104E900093E09093E9009091F200992319F09AE33E
:104EA0009093E8009091C701992339F09091C70140
:104EB00091509093C701992389F19091C901992349
:104EC00039F09091C90191509093C901992341F112
:104ED00084FF10C08091E2008E7E81608093E200AA
:104EE0008091E1008F7E8093E1008091C8018E7EE9
:104EF000806111C080FF16C08091E2008E7E8061CB
:104F00008093E2008091E1008E7E8093E1008091A9
:104F1000C8018E7E81608093C80104C05D9ACDCFA8
:104F2000289AD6CF9F918F910F900FBE0F901F9010
:104F300018951F920F920FB60F921124CF92DF9205
:104F4000EF92FF920F931F932F933F934F935F9393
:104F50006F937F938F939F93AF93BF93EF93FF9341
:104F6000CF93DF93CDB7DEB76C97DEBFCDBF109286
:104F7000E9008091E80083FFFBC168E0CE0145961F
:104F80000E94E82682EF8093E8008D8987FF05C0A4
:104F90009091E80090FFFCCF03C09EEF9093E80053
:104FA000982F907609F0C6C09E894F89588D2F8919
:104FB000F88C91110CC0803829F4809117078093E8
:104FC000F10002C01092F1001092F10045C1913041
:104FD00051F4811141C14130510509F03DC1809129
:104FE00017078D7F0BC0933061F4811135C14130BB
:104FF000510509F031C1809117078260809317072E
:105000002BC1953049F48091E80080FFFCCF822FBE
:1050100080688093E30020C1963009F05EC00B8D5C
:105020001C8D22E01092E90010921B0710921A07C3
:10503000F21232C010921907109218070E94F5263A
:1050400099E0BE016F5F7F4FDB01E92F1D92EA956A
:10505000E9F79983FA8291E09E8390EA98879AEF24
:10506000998720911A0730911B07275F3F4F3C8398
:105070002B838D831092E90010921B0710921A0760
:10508000109319070093180749E050E080E00E9450
:10509000C1260E94F526E0C0109319070093180757
:1050A0000E943722DC0112960D911C911397011575
:1050B000110509F4BBC0D801ED91FC910480F58184
:1050C000E02DBE016B5E7F4FC8010995009709F086
:1050D000C7C0F80100851185EACF973009F445C1B2
:1050E000983021F481E08093F100B6C0993009F046
:1050F000B3C0837009F039C1EFE8F1E081E031E03D
:1051000096E32081211109C08EE78093EA00109276
:10511000EA008F898093CA019FC08093E900309391
:10512000EB0021912093EC009093ED008F5F87308E
:1051300041F7EACF8B8D9C8D1092E90010921B07EE
:1051400010921A079093190780931807898D81117F
:1051500053C08E899D89913A49F4813209F005C185
:1051600047E050E060E071E080E0BBC0913209F0C0
:10517000FCC0833269F48F89988DA0E0B0E0809301
:10518000080190930901A0930A01B0930B0164C038
:10519000803269F48091E80082FFFCCF67E080E014
:1051A00091E00E94E8268BEF8093E80055C08232A0
:1051B00009F052C08F8980930701EEEFFFE78591D8
:1051C00094918B3F9C4D19F0E0E0F8E002C0EEEFC7
:1051D000FAE08091000190910101A0910201B0914B
:1051E0000301803B9440A105B10509F09EC0809168
:1051F000070180FF79C099C00E943722FC0102811B
:1052000013810115110509F4B0C0D801ED91FC918D
:105210000190F081E02DBE016B5E7F4FC8010995C2
:1052200081111AC0F80100851185EBCFF1E0FF165E
:1052300009F44EC0F3E0FF1298C08F89882309F467
:105240004AC0823089F440E860E18AE293E10E943A
:10525000572F882309F489C08EEF8093E80088C017
:1052600018161906CCF381C0813029F440E86BE0B0
:105270008EE193E1ECCF833009F077C00E943722B2
:10528000DC011296ED90FC9013978E010F5F1F4F7B
:105290006801E114F10479F0D701ED91FC910680E9
:1052A000F781E02DB801C7010995080F111DF7011D
:1052B000E084F184EECFD8011C92F6010190002029
:1052C000E9F73197BF016C197D0940E0C601BFCFF6
:1052D0006CE073E102C068E073E1FB01449150E0CF
:1052E00080E80E94C126B8CFEE3F2AE0F20751F0D5
:1052F000808191818737A7E79A0721F09093FF0A71
:105300008093FE0A87E797E791838083809160000E
:1053100080931C079BE088E10FB6F894A8958093D2
:1053200060000FBE9093600097CF80819181873796
:10533000974709F091CFA89580916000886180938C
:10534000600080911C0780936000EE3FBAE0FB078D
:1053500039F08091FE0A9091FF0A918380837CCF7F
:105360001092FF0A1092FE0A77CF81E28093EB0041
:105370006C960FB6F894DEBF0FBECDBFDF91CF9114
:10538000FF91EF91BF91AF919F918F917F916F911D
:105390005F914F913F912F911F910F91FF90EF904F
:1053A000DF90CF900F900FBE0F901F90189508952B
:1053B000CF93DF93EC0120E048EA5BE261E170E02B
:1053C0008FE290E00E94BE2520E04AE85BE26AE1BD
:1053D00070E08BE290E00E94BE2520E04AE85BE2AC
:1053E0006AE170E089E490E00E94BE258A8120E0B5
:1053F000811112C04AE85BE26AE170E08AE390E062
:105400000E94BE2520E04AE35BE26EE270E08AE1A2
:1054100090E00E94BE2533C04CE15BE26AE170E09F
:105420008AE390E00E94BE2520E049EF5AE26EE256
:1054300070E08CE290E00E94BE258A816FE00E94BD
:10544000DF30837040E050E1C1E3D0E061EF7AE209
:105450004817A9F0942F990F915B9E01FB01529F71
:10546000D001A0781124A90F2770E20FF11D9491AB
:10547000A553BE4F2C91922B9C934F5FE9CFEBEC41
:10548000F1E081E0A0E0B8E000800EBC8111012CC9
:105490001197A0FDFDCF0192B9F70DB4DF91CF9127
:1054A0000895CF93DF93FC01DB011A968C911A9734
:1054B000809519969C91892351F08281882311F05F
:1054C0008CE782839281911105C081E08283928171
:1054D0009923A9F09F5F92839D3789F4EB0183E8BC
:1054E00084BD8FEF87BD81EF80938000109288008C
:1054F00010928A000E94A31D82E08E8B1F8ADF918A
:10550000CF9108954F925F926F927F928F929F9268
:10551000AF92BF92CF92DF92EF92FF920F931F93C1
:10552000CF93DF9300D000D0CDB7DEB75C014B0145
:105530000E942A2165012CE3C20ED11C10E0360125
:1055400045E0F42ED6018C91882351F1133010F0F0
:1055500080E001C082E0F6012381E82EE20E1330E4
:1055600010F000E001C002E0D60114968C9114976F
:1055700090E0020FFC01EB56FE4F608170E0129646
:105580002C91F29E800D911D1124FC01E656FE4FD8
:1055900080812FE93AE247EC5AE290E00E94CE2562
:1055A0001F5FB8E0CB0ED11C153061F66501E9E153
:1055B000CE0ED11CC614D70409F440C0D6011596EE
:1055C0002C91159714968C91149716969C9116977A
:1055D0001C91211115C0933009F423E0E82EE20E4E
:1055E000933011F000E001C003E0080FC6010E94F3
:1055F0007C1D682F70E021E637E24FEF58E216C0BD
:10560000933011F020E001C023E0E82EE20E933049
:1056100011F000E001C003E0080FC6010E947C1DEC
:10562000682F70E027E434E243ED55E2812F90E0EB
:105630000E94CE25B7E0CB0ED11CBCCFF501E458BB
:10564000FF4F8081882361F0E12C00E021E234E209
:1056500043E354E268E070E081E090E00E94CE25F0
:10566000E12C00E025E633E147E953E161E070E039
:1056700084E390E00E94CE2519821A821B821C824C
:10568000F40180899189FE0131962E0125E0420EB8
:10569000511C2AE030E0B9010E94EB308193CB012C
:1056A000E415F505C1F737E3632E712C2AEFC22EFE
:1056B000E12C00E010E0D2012E912D014BE353E1EB
:1056C00064E070E0C3010E948B23B5E06B0E711C97
:1056D000EBE46E16710451F7F501EC59FF4F808130
:1056E00090E02FED33E24FEF53E26BE070E0039672
:1056F0000E94CE256501F1E1CF0ED11CC6010E94AA
:105700002622182F8F3F19F0682E712C02C0612CB1
:10571000712CC6010E94F721E82EC6010E94F721D4
:10572000082F1F3F61F087E0869DF001879DF00DF7
:105730001124EA0DFB1D91E0848D823308F090E086
:10574000D50154968C9154975196EC9181110CC0CF
:10575000B4E0EB9FB0011124FB01E754F74F6491D3
:10576000691B12E0160F15C024E0E29FF00111241E
:10577000E754F74F9491A4E08A9FF0011124EB5D68
:10578000F74F8491D5015696EC91EE5FE90F1E2FED
:10579000180FC6010E94D821612F110F770B25EB3E
:1057A00038E149E45EE1082E000C990B0E94CE25F9
:1057B000F50184898823A9F086899FE3692E681AF8
:1057C000712CC6010E94D82190E1E92E00E125EB61
:1057D00038E149E45EE1B301082E000C990B0E9408
:1057E000CE25C5010E94421BF501E558FF4F80817F
:1057F000882389F068E10E94DF3080FD0CC0E12C35
:1058000000E021EA38E14AEA58E161E070E083E72C
:1058100090E00E94CE25F501E358FF4F9081D4011E
:1058200054968C9191111EC081111CC0E12C00E096
:105830002FEE36E147EC57E164E170E08BE190E058
:105840000E94CE25F401228921508AEFC82E00E063
:1058500010E047EB56E167E170E08FE490E00E94D2
:105860008B231FC0882361F0E12C00E023EF34E19B
:1058700044ED55E164E170E089E190E00E94CE25BD
:10588000D50112968C91882361F0E12C00E02BEC7D
:1058900033E14EE554E164E170E087E290E00E947C
:1058A000CE250F900F900F900F90DF91CF911F9109
:1058B0000F91FF90EF90DF90CF90BF90AF909F90AF
:1058C0008F907F906F905F904F900C940021789410
:1058D00084B5826084BD84B5816084BD85B58260F5
:1058E00085BD85B5816085BD80916E0081608093A6
:1058F0006E0010928100809181008260809381000F
:10590000809181008160809381008091800081601E
:1059100080938000809191008260809391008091BB
:1059200091008160809391008091900081608093CC
:1059300090008091C10084608093C1008091C1007B
:1059400082608093C1008091C10081608093C1001A
:105950008091C30081608093C3008091C000826009
:105960008093C0008091C20081608093C2008091CA
:105970007A00846080937A0080917A0082608093BC
:105980007A0080917A00816080937A0080917A0019
:10599000806880937A001092CA01109217071092C3
:1059A000C8018091D70081608093D70080EA8093FE
:1059B000D80089B5806189BD89B5826089BD09B487
:1059C00000FEFDCF61E070E080E090E00E946D1687
:1059D0008091D8008F7C80618093D8008091E00016
:1059E000807F8093E0008091E1008E7E8093E100D3
:1059F0008DE08093E200559A209A81EC80937C00A0
:105A000085B1806F85B984B1877E84B984B1876E92
:105A100084B95E9A5F988AB1806D8AB9769A6E98D9
:105A200081B3806F81BB899880B38D7080BB80E526
:105A30008CBD81E08DBD85E090E00E9433265F9AA9
:105A400085E090E00E9433265E985C98E0EFF0E0FD
:105A500084918EBD00000DB407FEFDCF319680E02D
:105A6000ED3FF807A9F75C9A81E880936400809184
:105A700065008160809365000E94382687FF24C0FE
:105A80005C9885EA8EBD00000DB407FEFDCF5C9AE0
:105A90002E982F982D9880916400806280936400E6
:105AA00081E083BF889513BEFCCF2D980E943826D5
:105AB0008478843871F00E9438268471843129F109
:105AC00088EC90E00E9433260E94382682FDEDCFBC
:105AD00038C02D9A88EC90E00E9433262F9882E0FF
