:100000000C943F170C9467170C9467170C946717A0
:100010000C9467170C9467170C9467170C94671768
:100020000C9467170C9467170C9429280C949B2840
:100030000C9467170C9467170C9467170C94671748
:100040000C9467170C9467170C9467170C94671738
:100050000C9467170C9467170C9467170C94382B43
:100060000C9467170C9467170C9467170C94671718
:100070000C9467170C9467170C9467170C94671708
:100080000C94B9200C9467170C9467170C9467179D
:100090000C9467170C9467170C9467170C946717E8
:1000A0000C9467170C9467170C946717E41EE41EF2
:1000B000E41EE41EE21EE21EE21EE01EE01EE01E42
:1000C000E01EE01EE01EDE1EDE1EDE1EDC1EDC1E4E
:1000D000DC1EDC1EDC1EDC1EDE1EDE1EDE1EE01E46
:1000E000E01EE01EE21EE21EE21EE41EE41EE41E0E
:1000F0000B1D020100201D020114351D0201284ABA
:100100001D03013C5F1D030150B8013200A4013200
:1001100000900132007C013200680132005401324B
:1001200000400132002C013200180132000401327B
:1001300000F0003200DC003200C8003200B40032AF
:1001400000A00032008C00320078003200640032DF
:10015000005000320000000A00500032000000147D
:100160000050003200000028005000320000003C27
:10017000005000320000005A00000082005000329F
:10018000000000B400500032000000F00000003613
:10019000015000320000008601500032000080B89B
:1001A000013200700332000080B8013200B4003226
:1001B000000080DC003200B8013200700332000021
:1001C000801E003200320032000080D5F08D14A174
:1001D000C881CFD9F1AF2000070707070706060639
:1001E0000606060606060E030202020202040400C8
:1001F00000000000000003030303030303030303E1
:100200000A020202020202020202020206060606B6
:10021000060606060607070707070E03000000008C
:1002200000000004040202020202FCFEFFFFFFFFC6
:10023000FFFFFFFFFFFFFFFFFFFFFFFFFFFFFFFFCE
:10024000FFFEFEFC070F1F1F1F1F1F1F1F1F1F1F6B
:100250001F1F1F1F1F1F1F1F1F1F1F1F1F0F1A0DD5
:1002600000FC02FAFAAAAA02F2FA2AF202B2BAEAE6
:100270006A021AFAE21A02FC00000007080A0A0AD7
:100280000A080A0A090A080A0A0A0908080A0A08DA
:100290000807000000FC02FAFA22FA02F2FA2AF237
:1002A00002FAFA2AD202FAFA8AF202FC00000007E5
:1002B000080A0A090A080A0A090A080A0A090A08A9
:1002C0000A0A0A0A08070000FCFCFCFCFCFCFCFC17
:1002D000FCFCFCFCFCFCFCFCFCFFFFFFFFFFFFFF49
:1002E000FFFFFFFFFFFFFEFCF8010101010101011B
:1002F00001010101010101010101010101010307E6
:100300000F0F0F0F0F0F0F070301210C00007828AC
:10031000100078285000785800104820001048201D
:10032000000078FC8ED6DAD68EFC78000000000043
:1003300000000000000000000000000000000000BD
:100340000000000102050505050502010000040882
:10035000022905023E09093E3F25251A1E212112C8
:100360003F21211E3F2525213F0505011E21293A58
:100370003F04043F213F21001021211F3F040A3187
:100380003F2020203F02023F3F02043F1E21211E4A
:100390003F0909061E21112E3F090936222525197C
:1003A000013F01011F20201F0F10201F3F10103F91
:1003B0003B04043B03043807312D23211E29251E4D
:1003C000223F2000322929261221251A0C0A3F0833
:1003D000172525191E252518013905031A25251A63
:1003E0000629291EFCFEFFFFFFFFFFFFFFFFFFFFA7
:1003F000FFFFFFFFFFFFFFFFFFFFFFFFFFFFFFFF0D
:10040000FFFFFFFFFFFFFFFFFFFFFFFFFFFFFFFFFC
:10041000FFFFFFFFFFFFFFFFFFFFFFFFFFFFFFFFEC
:10042000FFFFFFFFFFFFFFFFFFFFFFFFFFFFFFFFDC
:10043000FFFFFFFFFFFFFFFFFEFEFCFFFFFFFFFFD1
:10044000FFFFFFFFFFFFFFFFFFFFFFFFFFFFFFFFBC
:10045000FFFFFFFFFFFFFFFFFFFFFFFFFFFFFFFFAC
:10046000FFFFFFFFFFFFFFFFFFFFFFFFFFFFFFFF9C
:10047000FFFFFFFFFFFFFFFFFFFFFFFFFFFFFFFF8C
:10048000FFFFFFFFFFFFFFFFFFFFFFFFFFFFFFFF7C
:10049000FFFF010307070707070707070707070706
:1004A00007070707070707070707070707070707DC
:1004B00007070707070707070707070707070707CC
:1004C00007070707070707070707070707070707BC
:1004D00007070707070707070707070707070707AC
:1004E000070707070707070703571300FC0202F275
:1004F000F2F282F2F2F202F2F2F202C2E2F212122C
:1005000052624202F2F2F282F2F2F20202E2F2925B
:1005100092122202C2E2F2321212722202C2E2F2FB
:10052000125212F2E2C202F2F2F21212F2F2E202FB
:10053000F2F2F292921202E2F2929212220202FC81
:10054000000000FF00005F5F5F005F5F5F005F5FB4
:100550005F00172F5F50515F2F5F005F5F5F005F8D
:100560005F5F002C5C5151535F2E00172F5F585076
:1005700050582E00172F5F5050505F2F17005F5FAD
:100580005F01015F5E58005F5F5F5052500C5C512D
:1005900051535F2E0000FF00000001020202020220
:1005A000020202020202020202020202020202022B
:1005B000020202020202020202020202020202021B
:1005C000020202020202020202020202020202020B
:1005D00002020202020202020202020202020202FB
:1005E00002020202020202020202020202010000F0
:1005F000FFFFFFFFFFFFFFFFFFFFFFFFFFFFFFFF0B
:10060000FFFFFFFFFFFFFFFFFFFFFFFFFFFFFFFFFA
:10061000FFFFFFFFFFFFFFFFFFFFFFFFFFFFFFFFEA
:10062000FFFFFFFFFFFFFFFFFFFFFFFFFFFFFFFFDA
:10063000FFFFFFFFFFFFFFFFFFFFFFFFFFFFFFFFCA
:10064000FFFFFFFFFFFFFFFFFFFFFFFFFFFFFFFFBA
:10065000FFFFFFFFFFFFFFFFFFFFFFFFFFFFFFFFAA
:10066000FFFFFFFFFFFFFFFFFFFFFFFFFFFFFFFF9A
:10067000FFFFFFFFFFFFFFFFFFFFFFFFFFFFFFFF8A
:10068000FFFFFFFFFFFFFFFFFFFFFFFFFFFFFFFF7A
:10069000FFFFFFFFFFFFFFFFFFFFFFFFFFFFFFFF6A
:1006A000FFFFFFFFFFFFFFFFFFFFFFFFFFFFFFFF5A
:1006B000FFFFFFFFFFFFFFFFFFFFFFFFFFFFFFFF4A
:1006C000FFFFFFFFFFFFFFFFFFFFFFFFFFFFFFFF3A
:1006D000FFFFFFFFFFFFFFFFFFFFFFFFFFFFFFFF2A
:1006E000FFFFFFFFFFFFFFFFFFFFFFFFFFFFFFFF1A
:1006F000FFFFFFFFFFFFFFFFFFFFFFFFFFFFFFFF0A
:10070000FFFFFFFFFFFFFFFFFFFFFFFFFFFFFFFFF9
:1007100003030303030303030303030303030303A9
:100720000303030303030303030303030303030399
:100730000303030303030303030303030303030389
:100740000303030303030303030303030303030379
:100750000303030303030303482200FC060202020F
:100760000202020202020202020202020202020269
:100770000202020202020202020202020202020259
:100780000202020202020202020202020202020249
:100790000202020202020202020202020202020635
:1007A000FC0000FF0000000000000000000000004E
:1007B0000000000000000000000000000000000039
:1007C0000000000000000000000000000000000029
:1007D0000000000000000000000000000000000019
:1007E0000000000000000000FF0000FF000000000B
:1007F00000000000000000000000000000000000F9
:1008000000000000000000000000000000000000E8
:1008100000000000000000000000000000000000D8
:1008200000000000000000000000000000000000C8
:10083000FF0000FF8000000000000000000000003A
:1008400000000000000000000000000000000000A8
:100850000000000000000000000000000000000098
:100860000000000000000000000000000000000088
:100870000000000000000080FF00000001010101F5
:100880000101010101010101010101010101010158
:100890000101010101010101010101010101010148
:1008A0000101010101010101010101010101010138
:1008B0000101010101010101010101010101010128
:1008C00000000520130005200C0005200C00052069
:1008D0000C0005200C0005200D0005200D00052052
:1008E0000D0005200D0005200C00051F0C00051E45
:1008F0000C00051D0C00051C0D00051B0D00051A44
:100900000D0005190D0005180C0005170C00051643
:100910000C0005150C0005140D0005130D00051243
:100920000D0005110D0005100C00050F0C00050E43
:100930000C00050D0C00050C0D00050B0D00050A43
:100940000D0004090D0003080C0002070C0001064D
:100950000C0000050C00FCF90001FDF90400FEF795
:100960000400FFF6060000F5060001F4040002F59D
:10097000040003F5060004F6040005F7040006F77A
:10098000060007F8060008F9060009FB06000AFD44
:1009900004000BFF04000C0104000D0304000E030F
:1009A00000020F0304001001040011FF040012FDF7
:1009B000040013FB060014F9060015F8060016F7EC
:1009C000060017F7040018F6040019F604001AF7D9
:1009D00004001BF706001CF806001DF906001EFBAC
:1009E00006001FFD040020FF040021010400220373
:1009F000040023030003250304002601040027FF4D
:100A0000040028FD040029FB06002AF906002BF843
:100A100006002CF706002DF704002EF604002FF632
:100A2000040030F7040031F7060032F8060033F90D
:100A3000060034FB060035FD040036FF04003701D4
:100A400004003803040038030004380304003901AB
:100A5000040039FF04003AFD04003BFB06003CF9AA
:100A600006003DF806003EF706003FF7040040F69A
:100A7000040041F6040042F7040043F7060044F87E
:100A8000060045F9060046FB060047FD040048FF46
:100A90000400490104004A0304004A0300054B0313
:100AA00004004C0104004DFF04004EFD04004FFB08
:100AB000060050F9060051F8060052F7060053F7F9
:100AC000040054F6040055F6040056F7040057F7E6
:100AD000060058F8060059F906005AFB06005BFDAF
:100AE00004005CFF04005D0104005E0304005F037A
:100AF0000006600304006101040062FF040063F962
:100B0000100064F8100064F8100064F8100064F835
:100B1000100064F8100864F8100064F8100064F81D
:100B2000100064F8100064F8100063F9100062FF10
:100B30000400610104005F0304005F03000700007C
:100B400000000000000000000000000000000000A5
:100B50000000008000000000000000000000000015
:100B60000000000000000000000000000000000085
:100B70000000000000000000000000000000000075
:100B80000000000000000000000000000000000065
:100B90000000000000000000000000000000000055
:100BA0000000000000000000FFFFFEFEFEFCF8F861
:100BB000F8F0F0F0F8F0F8FCF8FCFEFEFFFFFFFEA6
:100BC000FCFCF8FCF8FCFEFCFEFEFCFCFCFEFEFE61
:100BD000FEFCFEFCFEFCF8FCF8F0F8F0F0F0F0F0A3
:100BE000E0E0E0C0E0F0FCFEFFFEFEFCFEFCFEFCF0
:100BF000FEFCF8F0F8FCFEFCFCFCF8F8F8F8FCF859
:100C0000F8FCF8FCF8F8F0F0F0F8F8F8FCFEFEFE5E
:100C1000FFFF6A100000000000000000000000005C
:100C200000000000000000000000000000000000C4
:100C300000000000000000000000000000000000B4
:100C400000000000000000000000000000000000A4
:100C50000000000000000000000000000000000094
:100C60000000000000000000000000000000000084
:100C70000000000000000000000000000000FEFE78
:100C8000FCFCFCF8F0F0F0E0E0E0F0E0F0E8D0E8A8
:100C9000D4F8FEFFFEFCF8E8F0E8F0E8D4E8D4EC85
:100CA000F8F8F8FCFCFCFCF854A854A8D0A8D0E054
:100CB000F0E0E0E0E0E0C0C0C08040A0F0FCFEFC5E
:100CC000F4E854A854A854A8D0E0F0F8FCD8B8D858
:100CD000B0F0F0F0F8E0D0E8D0A8E0F0E0E0E0F02C
:100CE000F0F0F8FCFCFCFEFEFFFFFFFF0303030334
:100CF000040AB24DB24D01020102748B748B0300E1
:100D0000030080C0C0E0E0E0E0E0F0F0F0FFFFFFB3
:100D1000FFFFFFFFFFFFFFFF001FFFFFFFFFFFFFC2
:100D2000FFFFFF38FFFFFFFFFFFFFFFFFFFF80C355
:100D3000FFFFFFFFFFFFFFFFFFFFFFFFFFFFFFFFC3
:100D4000FFFFFFFF01010101010101010101010B91
:100D500038008080C0C0C0C0C0C0E0E000FEFEFC23
:100D6000FA54A00000010100001FFFFFFDAA50A0DF
:100D700000000038FFFFFFFFFFFDAA55AA0080C357
:100D80007FFF7F3F7F3F7DEAF8D3824420010A0442
:100D90008001200101010100010000000101F0F0CB
:100DA000F0E0E0E0E0E0C0C080FFFFFFFFFFFFFFFA
:100DB000FFFFFFFFFFFFFFFFFFFFFFFFFF1F00FF22
:100DC000FFFFFFFFFFFFFFFFFF38FFFFFFFFFFFFFA
:100DD000FFFFFFC380FFFFFFFFFFFFFFFFFFFFFFDE
:100DE000FFFFFFFFFFFFFFFFFFFFFF0B38E0E0C04B
:100DF000C0C0C0C0C080800001010000A054FAFC47
:100E0000FEFE000000A050AAFDFFFF1F0000AA5533
:100E1000AAFDFFFFFFFFFF3800EA7D3F7F3F7FFF16
:100E20007FC38000200180040A01204482D3F8019E
:100E3000010000000100010101018010A055A05532
:100E4000A055A055A055A055A055A055A055A055FA
:100E5000A357A757AF5FBF7FBF7FBF7FBF5FAF57AE
:100E6000AF5FAF5FAF57A357A355A055A055A0D50F
:100E7000E0D5E0F5F8FDF8FDF8F5E0D5E0F5F0FD9A
:100E8000F8FDFCFDF8F5E0F5E0D5A055A357A75F08
:100E9000BF7FBF7FBF5FBF7FFF7FFF7FBF5FAF5F52
:100EA000BF5FA757A355A055A055A055A055A05565
:100EB000A055A055A055A055A055A055FFD5FF752C
:100EC000FFD5FF75FFD5FF75FFD5FF75FFD5FF7502
:100ED000FFD5FF75FFD5FF75FFD5FF75FFD5FF75F2
:100EE000FFD5FF75FFD5FF75FFD5FF75FFD5FF77E0
:100EF000FFDFFF7FFFFFFF7FFFDFFF7FFFFFFF7F42
:100F0000FFFFFF7FFFDFFF7FFFD7FF75FFD5FF7577
:100F1000FFD5FF75FFD5FF75FFD5FF75FFD5FF75B1
:100F2000FFD5FF75FFD5FF75FFD5FF75FFD5FF75A1
:100F3000FFD5FF75FFD5FF75FFD5FFD50000540124
:100F4000DC03B40000004A011704B40000004A01A9
:100F50007003B40000004A017003B40000009F0059
:100F6000DC03B40000009F00DC03B40100004A0071
:100F70001704B40000004A017003B40000009F0091
:100F8000BA02540100001200BA02AA0000001200C6
:100F90009302AA0000005D004B0262030000EE0213
:100FA00000005401DC03B40000004A011704B4003F
:100FB00000004A017003B40000004A017003B4004D
:100FC00000009F00DC03B40000009F00DC03B401BC
:100FD00000004A001704B40000004A017003B40086
:100FE00000009F00BA02540100001200BA02AA00D9
:100FF000000012009302AA0000005D004B02620391
:101000000000EE0200800601FA00B801FA00880133
:10101000FA00B801FA000601FA00B8017D00880163
:101020007701B801FA003701FA000B02FA00D20189
:10103000FA000B02FA003701FA000B027D00D20120
:1010400077010B02FA005D01FA00BA02FA006E02A3
:10105000FA00BA02FA009F01FA00BA027D006E029D
:101060007701BA02FA000B027D000B027D000B0231
:101070007D000B027D00D201FA000B02FA00000095
:10108000FA000B027D000B027D000B027D000B02BB
:101090007D00008006103C0FF87CFE8FD7DBD78FD9
:1010A000FE7CF878FCFC78F87CF87078EC78287C8A
:1010B000F87C080000F87CFE83ABABAB97FE7CF8B5
:1010C00078FC78FC70F87CF878FC7CF878FCFC788C
:1010D000300103060D0D0D0D0D060301000000008B
:1010E00000000000000000000000000000000103FC
:1010F000060D0D0D0D0D060301000000000000009F
:1011000000000000000000000000390C0078FC8E98
:10111000D6DAD68EFC78000078580070287000105F
:101120004820000870080000000078FC82AAAAAAE3
:1011300096FC78000078207800702870007828509D
:101140000078483000000102050505050502010090
:10115000000000000000000000000000000000008F
:101160000000000102050505050502010000000060
:101170000000000000000000000000000000040E5D
:101180001F3F1F1E3C7838100C1E1F3F1F1E1E0FD6
:101190000E041038783C1E1F3F1F0E04040E0F1E55
:1011A0001E1F3F1F1E0C0A0700040E1E0E0C0830E7
:1011B0001000000C0E1E0E0C080604000010300873
:1011C0000C0E1E0E0400000406080C0E1E0E0C0071
:1011D000FCFEFFFFFFFFFFFFFFFFFFFFFFFFFFFF23
:1011E000FFFFFFFFFFFFFFFFFFFFFFFFFFFFFFFF0F
:1011F000FFFFFFFFFFFFFFFFFFFFFFFFFFFFFFFFFF
:10120000FFFFFFFFFFFFFFFFFFFFFFFFFFFFFFFFEE
:10121000FFFFFFFFFFFFFFFFFFFEFEFCFFFFFFFFE3
:10122000FFFFFFFFFFFFFFFFFFFFFFFFFFFFFFFFCE
:10123000FFFFFFFFFFFFFFFFFFFFFFFFFFFFFFFFBE
:10124000FFFFFFFFFFFFFFFFFFFFFFFFFFFFFFFFAE
:10125000FFFFFFFFFFFFFFFFFFFFFFFFFFFFFFFF9E
:10126000FFFFFFFFFFFFFFFFFFFFFFFFFFFFFFFF8E
:10127000FFFFFFFFFFFFFFFFFFFFFFFFFFFFFFFF7E
:10128000FFFFFFFFFFFFFFFFFFFFFFFFFFFFFFFF6E
:10129000FFFFFFFFFFFFFFFFFFFFFFFFFFFFFFFF5E
:1012A000FFFFFFFFFFFFFFFFFFFFFFFFFFFFFFFF4E
:1012B000FFFFFFFF3F7FFFFFFFFFFFFFFFFFFFFF7E
:1012C000FFFFFFFFFFFFFFFFFFFFFFFFFFFFFFFF2E
:1012D000FFFFFFFFFFFFFFFFFFFFFFFFFFFFFFFF1E
:1012E000FFFFFFFFFFFFFFFFFFFFFFFFFFFFFFFF0E
:1012F000FFFFFFFFFFFFFFFFFFFFFFFFFFFFFFFFFE
:101300004C2000FC02025212F2F2F2125202F2F2ED
:10131000F2020202F202F2F2F21212F2F2E21212FD
:10132000F2F2F2125202F2F2F202020202F2F2F2CD
:10133000929212020202020202C22212D2525252AD
:101340005252D222C2020202020202FC000000FF3C
:10135000000000005F5F5F008080AF9F9F105050D3
:101360002F005F5F5F01015F5E5800005F5F5F00FD
:1013700000005F5F5F505050005F5F5F5052500051
:1013800000000018671800003F58397839587F006E
:1013900018671800000000FF000000FF0000004078
:1013A000304CB27D6A627E6A62FD629C4000400001
:1013B0000000FFFFFF1111FFEFEE00FFFFFF111113
:1013C000FFEF8E00FFFFFF00FFFFFF0101FFFE7C2C
:1013D000007CFEFF0111F5F6F40000FFFFFF092974
:1013E000010000FF0000001F2020202021222425D2
:1013F00024252525252525242221202020202525BA
:1014000025252525252220252525202025252520A3
:101410002525252025252525252522212021222594
:101420002525252225202025252525252520201F89
:101430000000080B00020202010009040000010282
:10144000020000052400100105240101010424020A
:101450000605240600010705810310004009040168
:1014600000020A0000000705020240000007058391
:10147000024000000403090412010002EF020140CF
:101480004123368000010102030141726475696ED7
:101490006F204C4C430041726475626F7900040404
:1014A00006090F060A0F0F08090D0F0A090B0F0F87
:1014B00003020F0F070D0D0D0F0A0E0E010D0F0386
:1014C0000E0B0B0F07050F0FFCFEFFFFFFFFFFFFCB
:1014D000FFFFFFFFFFFFFFFFFFFFFFFFFFFFFFFE1D
:1014E000FC000103030303030303030303030303D8
:1014F00003030303030303030100190A00FC0202B0
:1015000002020202020202020202020202020202BB
:10151000020202FC000000010101010101010101C0
:101520000101010101010101010101010000F8FCBB
:10153000FEFFFFFFFFFFFFFFFFFFFFFFFFFFFFFFBC
:10154000FFFFFFFFFFFFFFFFFFFFFFFFFFFFFFFFAB
:10155000FFFFFFFFFFFFFFFFFFFFFFFFFEFCF8FFA6
:10156000FFFFFFFFFFFFFFFFFFFFFFFFFFFFFFFF8B
:10157000FFFFFFFFFFFFFFFFFFFFFFFFFFFFFFFF7B
:10158000FFFFFFFFFFFFFFFFFFFFFFFFFFFFFFFF6B
:1015900000010307070707070707070707070707EC
:1015A00007070707070707070707070707070707CB
:1015B00007070707070707070707070707070301C5
:1015C00000311300F8040202F2F2F21212F2F2E217
:1015D0000202E2F2F2C2020202F2F2F2020202F2AB
:1015E0000202E2F29292122202F2F2F292921202BB
:1015F0000204F80000FF0000005F5F5F01050505C1
:101600000258071414075F5E50002F5F5F50505060
:101610002F002C545151535F2E005F5F5F5052508A
:10162000000000FF000000010202020202020202AA
:10163000020202020202020202020202020202028A
:10164000020202020202020202020202020202027A
:10165000020202010000F8FCFEFFFFFFFFFFFFFF98
:10166000FFFFFFFFFFFFFFFFFFFFFFFFFFFFFFFF8A
:10167000FFFFFFFFFFFFFFFFFFFFFFFFFFFFFFFF7A
:10168000FFFFFFFFFFFFFFFFFFFFFFFFFFFFFFFF6A
:10169000FFFFFFFFFFFFFFFFFFFFFFFFFFFFFEFC5E
:1016A000F8FFFFFFFFFFFFFFFFFFFFFFFFFFFFFF51
:1016B000FFFFFFFFFFFFFFFFFFFFFFFFFFFFFFFF3A
:1016C000FFFFFFFFFFFFFFFFFFFFFFFFFFFFFFFF2A
:1016D000FFFFFFFFFFFFFFFFFFFFFFFFFFFFFFFF1A
:1016E000FFFFFFFFFFFFFFFFFFFFFFFF00010307FB
:1016F000070707070707070707070707070707077A
:101700000707070707070707070707070707070769
:101710000707070707070707070707070707070759
:101720000707070707070707070707070707070749
:10173000070707070301004B1300F804C2E2F21287
:1017400012526242020202E2F2F2C2020202F2F219
:10175000F202C2F2F2F20202F2F2F29292120202E9
:10176000C2E2F2125212F2E2C232F2F28202827249
:101770001202F2F2F292921202F2F2F21212F2F269
:10178000E204F80000FF00172F5F50515F2F5F0049
:1017900058071414075F5E50005F015F5E015F5FD2
:1017A0005F00005F5F5F5052500000172F5F505086
:1017B000505F2F1700035F5F58070000005F5F5FF7
:1017C000505250005F5F5F01015F5E5800FF0000F4
:1017D00000010202020202020202020202020202EC
:1017E00002020202020202020202020202020202D9
:1017F00002020202020202020202020202020202C9
:1018000002020202020202020202020202020202B8
:1018100002020202020202010000090D000404FC9F
:10182000FEFE000000000A0A0B0B0B0A0A00001C57
:1018300082C2E27E3E1C00000B0B0B0B0B0B0B005D
:101840000080863232FEFECC0000050A0A0A0B0B2D
:101850000500F8FCFEFFFFFFFFFFFFFFFFFFFFFF9C
:10186000FFFFFFFFFFFFFFFFFFFFFFFFFFFFFFFF88
:10187000FFFFFFFFFFFFFFFFFFFFFFFFFFFFFFFF78
:10188000FFFFFFFFFFFFFFFFFFFFFFFFFFFFFFFF68
:10189000FFFFFFFFFFFFFFFEFCF8FFFFFFFFFFFF63
:1018A000FFFFFFFFFFFFFFFFFFFFFFFFFFFFFFFF48
:1018B000FFFFFFFFFFFFFFFFFFFFFFFFFFFFFFFF38
:1018C000FFFFFFFFFFFFFFFFFFFFFFFFFFFFFFFF28
:1018D000FFFFFFFFFFFFFFFFFFFFFFFFFFFFFFFF18
:1018E000FFFF0001030707070707070707070707A9
:1018F0000707070707070707070707070707070778
:101900000707070707070707070707070707070767
:101910000707070707070707070707070707070757
:1019200007070707070707030100481300F8040229
:1019300002020202020202020202F2F2F2020202B7
:1019400002F2F2F20232F2F2820282721202F2F237
:10195000F292921202E2F292921222020202020227
:101960000202020202020202020202020202020257
:101970000204F80000FF000000000000000000006A
:1019800000005F5F5F505050005F5F5F0000035FCB
:101990005F58070000005F5F5F5050500C5451517A
:1019A000535F2E0000000000000000000000000057
:1019B00000000000000000000000FF000000010225
:1019C00002020202020202020202020202020202F7
:1019D00002020202020202020202020202020202E7
:1019E00002020202020202020202020202020202D7
:1019F00002020202020202020202020202020202C7
:101A0000020100000C1C3F7FFF7F3F1C0C09080CEB
:101A1000142741814127140C000000000000000041
:101A200000000000000000000000000000000000B6
:101A3000C0F0F8FCFCFCFCFCFCFCFCF8F0C0000076
:101A400000000000061FFFFFFFFFFFFFFFFFFFFF7B
:101A5000FFFF1F060000000000000000010707074D
:101A6000070707070705000000000000000080FCD2
:101A7000FEFFFFFFFFFFFFFFFFFFFFFF7C80000077
:101A8000000003FFFFFFFFFFFDFDFDFDFDFDFFFF6C
:101A9000FFFF7F03000000000003FFFFFFFFFFFFC9
:101AA000FFFFFFFFFFFF0300000000000000000039
:101AB00001070707070707070705000000000000E8
:101AC0000000000000000000000000000000000016
:101AD000000000000000000000C0F0F8FCFCFCFC6E
:101AE000FCFCFCFCF8F0C0000000000000061FFF3A
:101AF000FFFFFFFFFFFFFFFFFFFFFF1F06000000CC
:101B00000000000000050707070707070707010097
:101B10000000000000000080FCFFFFFFFFFFFFFF50
:101B2000FFFFFFFFFEFC8000000000037FFFFFFFC0
:101B3000FFFFFFFFFFFFFFFFFFFFFFFF03000000AE
:101B4000000003FFFFFFFFFFFFFFFFFFFFFFFF039B
:101B50000000000000000000000507070707070756
:101B60000707010000000000000000000000000066
:101B7000000000000000C0E0C0000000000E3F7E3A
:101B80007CF8F8FCFCFCFCFEFEFEFDFFFF3F0700BE
:101B9000000000000080C3FFFFFFFFFFFFFFFFFF0B
:101BA000FFFFFEE0F0F0E000000003070F0F070367
:101BB00003030101010101000103010000F0F8FC31
:101BC000FCFEFEFEFEFEFEFEFEFEFCE0C00000008F
:101BD000000E3F7F7FFFFBFFFFFFFDFFFFFEFDFFCE
:101BE000FF3F0700000000000080C3FFFFFFFFFF72
:101BF000FFFFFFFFFFFFFEE0F0F0E0000000030743
:101C00000F0F07030303010101010100010301009C
:101C10000000000000000000000000000000C0E024
:101C2000C0000000000E3F7E7CF8F8FCFCFCFCFECF
:101C3000FEFEFFFFFF3F070000000000000083FFE3
:101C4000FFFFFFFFFFFFFFFFFFFFFEE0E0E0C00040
:101C5000000003070F0F0F07030301010101010338
:101C60000703010000F0F8FCFCFEFEFEFEFCFCFC9D
:101C7000FEFEFCE0C0000000000E3F7F7FFFFFFF84
:101C8000FFFFFFFFFFFFFFFFFF3F07000000000017
:101C9000000083FFFFFFFFFFFFFFFFFFFFFFFEE0EE
:101CA000E0E0C000000003070F0F0F07030301016E
:101CB000010101030703010000000000C0E0C000B3
:101CC0000000000000000000000000000000000014
:101CD000073FFFFFFDFEFEFEFCFCFCFCF8F87C7EEF
:101CE0003F0EE0F0F0E0FEFFFFFFFFFFFFFFFFFF12
:101CF000FFFFC3800000000001030100010101019A
:101D000001030303070F0F0703000000000000009A
:101D1000C0E0FCFEFEFEFEFEFEFEFEFEFCFCF8F059
:101D200000000000073FFFFFFDFEFFFFFDFFFFFF7C
:101D3000FBFF7F7F3F0EE0F0F0E0FEFFFFFFFFFFC5
:101D4000FFFFFFFFFFFFC380000000000103010051
:101D50000101010101030303070F0F070300000046
:101D600000000000C0E0C000000000000000000013
:101D70000000000000000000073FFFFFFFFEFEFE26
:101D8000FCFCFCFCF8F87C7E3F0EC0E0E0E0FEFFCF
:101D9000FFFFFFFFFFFFFFFFFFFF830000000000CA
:101DA0000103070301010101010303070F0F0F07DF
:101DB0000300000000000000C0E0FCFEFEFCFCFC94
:101DC000FEFEFEFEFCFCF8F000000000073FFFFFF7
:101DD000FFFFFFFFFFFFFFFFFFFF7F7F3F0EC0E022
:101DE000E0E0FEFFFFFFFFFFFFFFFFFFFFFF8300BD
:101DF00000000000010307030101010101030307C3
:101E00000F0F0F070300000040E0F0F8F0E0D0B83B
:101E1000FCB8D2C7CFE7F2F8F0E0400000000F1F97
:101E2000FFFFFFFFFFFFFFFFFFFFFFFFFFFF8F0031
:101E30000000000000008FFFFFFFFFFFFFFFFFFF1C
:101E4000FFFFFFFF980000000000010307070707DE
:101E5000030100000103070703010000E0F0F8F0B0
:101E6000E040889CBE9CCCCEDFCEE4F0F8F0E040B1
:101E700000010F1FFFFFFFFFFFFFFFFFFFFFFFFF3F
:101E8000FFFF8F010000000000008FFFFFFFFFFF3A
:101E9000FFFFFFFFFFFFFFFF9800000000000103AE
:101EA00007070707030100000103070703010000FC
:101EB000000040E0F0F8F2E7CFC7D2B8FCB8D0E0BD
:101EC000F0F8F0E0400000008FFFFFFFFFFFFFFF92
:101ED000FFFFFFFFFFFFFF1F0F00000098FFFFFF46
:101EE000FFFFFFFFFFFFFFFFFFFF8F00000000006D
:101EF00000010307070301000001030707070703A9
:101F0000010000000040E0F0F8F0E4CEDFCECC9C11
:101F1000BE9C8840E0F0F8F0E00000018FFFFFFF7A
:101F2000FFFFFFFFFFFFFFFFFFFFFF1F0F0100008D
:101F300098FFFFFFFFFFFFFFFFFFFFFFFFFF8F0087
:101F40000000000000010307070301000001030770
:101F50000707070301000000000000000000000068
:101F60000000000000000000000000000000E0FC95
:101F7000FEFFFFFFFFFFFFFFFFFEFCE0E0F0F07859
:101F8000700080C1FFFFFFFFFFFFFFFFFFFFFFFFAC
:101F9000F1F1F161000000010307070703010100EF
:101FA000000000000103010000000000000000002C
:101FB0000000C0E0F0F0F0F0F0F0F0F0F0F0C00061
:101FC0000000E0FCFEFFFFFFFFFFFFFFFFFFFFDF62
:101FD000DFFFFF7F783080C1FFFFFFFFFFFFFFFFC4
:101FE000FFFFFFFFF1F1F1610000000103070707A8
:101FF00003010100000000000103010000000000D7
:1020000000000000000000000000000000000000D0
:1020100000000000000000000000000000000000C0
:10202000000000000000000000000000000000F0C0
:10203000F8FCFEFEFEFEFEFCF8F0000000000000D2
:102040000000000007070707070707070707070043
:1020500000000000151C000000000000000000004F
:102060000000000000000000000000000000C03080
:102070000804F41454145414F40830C00000000090
:1020800000000619E600006FD6EEFEEEF67F00E6D1
:1020900019060000000000000000010E0A08080EEA
:1020A00008080A0D000000000000000080FC020586
:1020B000252525252525050579837C800000000040
:1020C00003FC813D0D07F51555155515F70D3D819F
:1020D0007C03000000000003FC00006FD6EEFEEE63
:1020E000F67F00FC03000000000000000000010E6D
:1020F0000A08080E08080A0D000000000000000091
:1021000000000000000000000000000000000000CF
:1021100000000000000000C03008F41454145414EF
:10212000F4040830C00000000000000619E6006F4B
:10213000D6EEFEEEF67F0000E61906000000000075
:102140000000000D0A08080E08080A0E0100000031
:102150000000000000807C837905052525252525C4
:10216000250502FC8000000000037C813D0DF71571
:1021700055155515F5070D3D81FC030000000000C5
:1021800003FC006FD6EEFEEEF67F0000FC030000BD
:10219000000000000000000D0A08080E08080A0EE2
:1021A000010000000000000000000000000000002E
:1021B00000000000C020C0000000000E314654980E
:1021C0000804F414540A2A1AE50EC0380700000067
:1021D00000000080437CC0032F56EE7F777B7EA1FA
:1021E0009E601010E00000000304080906020202CD
:1021F0000101010101000102010000F00804144A7C
:102200004A4A4A242404BA82FC20C0000000000E7E
:102210003147549C0A06F616550B2B1AE50EC038AA
:102220000700000000000080437CC0032F56EE7FB3
:10223000777B7EA19E601010E00000000304080977
:102240000602020201010101010001020100000079
:10225000000000000000000000000000C020C000DE
:102260000000000E314654980804F414540A2A1A47
:10227000E50EC0380700000000000000837CC003AA
:102280002F56EE7F777B7EA19E602020C00000004D
:102290000304080809070202010101010102040206
:1022A000010000F00804144A4A4A4A242404BA826D
:1022B000FC20C0000000000E3147549C0A06F616B0
:1022C000550B2B1AE50EC038070000000000000077
:1022D000837CC0032F56EE7F777B7EA19E602020FB
:1022E000C0000000030408080907020201010101FF
:1022F00001020402010000000000C020C000000034
:10230000000000000000000000000000000007388E
:10231000C00EE51A2A0A5414F40408985446310EE3
:10232000E01010609EA1766B777FEE763F03C07C55
:1023300043800000000001020100010101010102CF
:102340000202060908040300000000000000C0208B
:10235000FC82BA0424244A4A4A4A140408F00000C1
:1023600000000738C00EE51A2B0B5516F6060A9C1E
:102370005447310EE01010609EA1766B777FEE76A9
:102380003F03C07C43800000000001020100010106
:102390000101010202020609080403000000000016
:1023A0000000C020C000000000000000000000008D
:1023B0000000000000000738C00EE51A2A0A541475
:1023C000F40408985446310EC02020609EA1766B1C
:1023D000777FEE763F03C07C83000000000001029F
:1023E00004020101010101020207090808040300B7
:1023F000000000000000C020FC82BA0424244A4AE5
:102400004A4A140408F0000000000738C00EE51A1C
:102410002B0B5516F6060A9C5447310EC02020603F
:102420009EA1766B777FEE763F03C07C8300000031
:102430000000010204020101010101020207090872
:102440000804030000000040A010A0400010281065
:1024500080828542A010A04000000000000F10E71D
:102460000201FDC5AD92EAC6F983708F000000003D
:1024700000000000008F70808B95BB5F5DDE5F28E1
:102480006798000000000000000102020202010043
:102490000000000102020100000040A010A0400066
:1024A0000008140880848A0440A010A040000000A6
:1024B000010E11E60201FDC5AD92EAC6F982718EE8
:1024C0000100000000000000008F70808B95BB5F52
:1024D0005DDE5F2867980000000000000001020236
:1024E00002020100000000010202010000000000E1
:1024F0000040A010A0428582801028100040A0104B
:10250000A04000000000008F7083F9C6EA92ADC5BC
:10251000FD0102E7100F00000000009867285BD55E
:102520005B5FBD9E8F80708F000000000000000088
:10253000010202010000000001020202020100008B
:10254000000000000040A010A042858280102810EA
:102550000040A010A04000000000008F7083F9C66A
:10256000EA92ADC5FD0102E7100F000000000098DF
:1025700067285BD55B5FBD9E8F80708F0000000079
:10258000000000000102020100000000010202023E
:102590000201000000000000000000000000000038
:1025A000000000000000000000000000E01C02F934
:1025B0008D8595859585F9023C6060509048700046
:1025C00080413E6081972B77BFB7BBBFD04E3111A2
:1025D00091610000000102040404030101000000F5
:1025E00000000102010000000000000000000000E7
:1025F000C02050505050505050509030C0000000FB
:10260000E01C02394D9F50103212F21232527057B4
:10261000905F483080413E6081972B77BFB7BBBF4A
:10262000D04E311191610000000102040404030145
:102630000100000000000102010000000000000095
:10264000000000000000000000000000000000008A
:10265000000000000000000000000000000000007A
:102660000000000000000000000000000000F05822
:102670007C5CDC58F408F000000000000000000062
:102680000000000303030303030300030000000032
:102690000000C0FFFFFFFFFFFFFFFFFFFFFFFFFF87
:1026A000FFFF000103030103070F0F0F0F070301D3
:1026B0000101100CC03F817939D92911919111295B
:1026C000D93979010001020201030408090808044C
:1026D00003010101FCFEFFFFFFFFFFFEFC0F1F3F98
:1026E0003F3F3F3F3F3F090EFC02F90505E505026C
:1026F000FC0F102F20202720203F307CFEFFFFFF03
:10270000FFFFFEFCE0E0F0F0F0F0E0E0C080000051
:1027100000000001030707070707377FFFFFFFFFE0
:102720005F3F7F7F3F1200000000000000000000BC
:102730000000000101000000000000000000008017
:10274000C0C0E0E8FCFEFFFFFFFFFEFEFCF8F080EB
:102750000000003C7FFFFFFFFFFF7F3F070F0F07D9
:10276000020103030100000000000000000000005F
:102770000000000000000000000000000000000059
:102780000000000000F0FCFEFFFFFFFFFFFE8F07D0
:102790000200000000000078FCFEFFFF7F7FFF7F4B
:1027A000070F0F07030000000000000000000001F9
:1027B0000100000000000000000000000000000018
:1027C000000080C0E0E0F0F0F0F0E0E0FCFEFFFF91
:1027D000FFFFFFFE7C30123F7F7F3F5FFFFFFFFF69
:1027E0007F3707070707070301000000000000000C
:1027F00000000001010000000000000000000000D7
:102800000000000080F0F8FCFEFEFFFFFFFFFEFC72
:10281000E8E0C0C0800000000000000103030102E6
:10282000070F0F073F7FFFFFFFFFFF7F3C00000008
:102830000000000000000000000000000000000098
:102840000000000000000002078FFEFFFFFFFFFFF7
:10285000FEFCF0000000000000000000000000038B
:10286000070F0F077FFF7F7FFFFFFEFC7800000050
:102870000000000000000000000000000000000157
:102880000100000000001611304C82959D89959939
:10289000029C60A0D0501050A0A04080000000001A
:1028A0000001020404040404354E810A13B25220CC
:1028B00048482D1200000000000000000000000049
:1028C0000001010000000000000000000080404006
:1028D0002028B46A1D4591B5AA0A444870800000BA
:1028E000003C43B8AC98ACB8413E0408080502016E
:1028F00002020100000000000000000000000000D3
:1029000000000000000000000000000000000000C7
:10291000000000F00C0261451139817A890502003E
:10292000000000000078843211814140807E04095B
:102930000804030000000000000000000001010086
:102940000000000000000000000000000000000087
:102950008040A0A0501050D0A0609C029995899D05
:1029600095824C30122D48482052B2130A814E35C0
:102970000404040404020100000000000000000040
:102980000001010000000000000000000000000045
:102990000000807048440AAAB591451D6AB42820F9
:1029A0004040800000000000000102020102050812
:1029B00008043E41B8AC98ACB8433C0000000000AD
:1029C0000000000000000000000000000000000007
:1029D00000000000000205897A8139114561020C6E
:1029E000F0000000000000000000000000030408E8
:1029F00009047E804041811132847800000000008B
:102A000000000000000000000000000000010100C4
:102A10000000000060F8FCFEFFFFFFFFFFFEFCF877
:102A2000C0E0E0E0E0C0C08000000000000103075B
:102A30000F1F1F1F1F7FFFFFFFFFFFFFFFFFFFFF96
:102A4000FE54000000000000000000000000010330
:102A50000707030100010100000000000080C0C062
:102A6000E0F0F8FCFEFEFEFEFCFCF8F0E08000006A
:102A70000078FEFFFFFFFFFFFFFFFF7F3F3F1F0FBD
:102A8000070F0F0703010000000001030303030306
:102A90000100000000000000000000000000000035
:102AA0000000000000E0F8FCFEFEFEFEFEFEFF1F40
:102AB0000F060000000000F0F8FCFEFFFFFFFFFF24
:102AC000FFFF3F3F1F0F0700000000000000000154
:102AD00003070703010103010000000000000000DC
:102AE00000000000000080C0C0E0E0E0E0C0F8FCB2
:102AF000FEFFFFFFFFFFFEFCF86054FEFFFFFFFF3D
:102B0000FFFFFFFFFFFF7F1F1F1F1F0F07030100B6
:102B1000000000010100010307070301000000009D
:102B20000000000000000000000080E0F0F8FCFC65
:102B3000FEFEFEFEFCF8F0E0C0C0800000000000D9
:102B40000103070F0F070F1F3F3F7FFFFFFFFFFF2F
:102B5000FFFFFFFE78000000000000000000000002
:102B60000000000103030303030100000000000054
:102B7000060F1FFFFEFEFEFEFEFEFCF8E00000005A
:102B8000000000000000000000070F1F3F3FFFFF94
:102B9000FFFFFFFFFFFEFCF8F00000000000000058
:102BA000000000000000010301010307070301000A
:102BB00000001713609864FAD5C5FDD5C5FAC4386E
:102BC000C0202020A040408000000000000102043E
:102BD0000A1616161776856CF0E0D09051B1604158
:102BE000AA540000000000000000000000000102E4
:102BF00005050201000101000000000000804040C6
:102C0000A09088143282020A141488906080000018
:102C1000007886798EAFFF8FAF7C83772F2E140AD2
:102C2000050B0B0502010000000001020202020276
:102C30000100000000000000000000000000000093
:102C40000000000000E01804828A0202020AED156A
:102C500009060000000000F008F49ABDDD7C7EFE4D
:102C600002F52C2E170807000000000000000001EC
:102C70000205050201010201000000000000000041
:102C8000000000000000804040A0202020C038C488
:102C9000FAC5D5FDC5D5FA64986054AA4160B15112
:102CA00090D0E0F06C8576171616160A0402010023
:102CB0000000000101000102050502010000000002
:102CC00000000000000000000000806090881414E4
:102CD0000A028232148890A0404080000000000068
:102CE0000102050B0B050A142E2F77837CAF8FFF93
:102CF000AF8E798678000000000000000000000020
:102D000000000001020202020201000000000000B7
:102D1000060915ED0A0202028A820418E00000008A
:102D20000000000000000000000708172E2CF5022C
:102D3000FE7E7CDDBD9AF408F0000000000000007B
:102D4000000000000000010201010205050201006F
:102D50000000040E1F3F1F1E3C7838100C1E1F3F42
:102D60001F1E1E0F0E041038783C1E1F3F1F0E043E
:102D7000040E0F1E1E1F3F1F1E0C0A0700040E1E0E
:102D80000E0C08301000000C0E1E0E0C080604007D
:102D9000001030080C0E1E0E0400000406080C0E75
:102DA0001E0E0C0021080F0F08080006090B060074
:102DB0000E03030E000F090F06000F0F000F020392
:102DC0000F000E0F090D000E10BEBDBEBDBEBDBE74
:102DD000BDBEBDBEBDBE0000040004000400040072
:102DE00004000400004E080F0D0702000F050F0A33
:102DF000000F0D0900020B0D00020B0D000000007A
:102E0000000F0D0702000F0F0808000E03030E004D
:102E1000030E0E0300000006090B06000F02030F4D
:102E200000000000010F0F010E03030E000F0D073D
:102E300002000F0D090E10A7C7A7C7A7C7A7C7A7EE
:102E4000C7A7C7A700070707070707070707070759
:102E500007070024080E1F1F1F0E000000000000BF
:102E600000000000001F0E04000000000000000031
:102E700000040E1F00040E1F00006A30663011248B
:102E80001FBECFEFDAE0DEBFCDBF11E0A0E0B1E0C2
:102E9000E6EBF7E602C005900D92A43BB107D9F727
:102EA00027E0A4EBB1E001C01D92A433B207E1F723
:102EB00017E1CEE3D7E104C02197FE010E94A232C0
:102EC000CD33D107C9F70E94082E0C94CE330C9451
:102ED00000005F926F927F928F929F92AF92BF920B
:102EE000CF92DF92EF92FF920F931F93CF93DF93D6
:102EF00000D000D01F92CDB7DEB78C017B01DB0183
:102F00001996CC9019971A96DC90FC018281811158
:102F10003DC25801FFE6AF0EB11CD5018C9188234C
:102F200011F081508C934801B7E78B0E911CF4018E
:102F30008081882311F081508083D5018C9181118B
:102F40005FC0F801E259FF4F208130E040E050E0DF
:102F50003197608170E080E090E00E94171CF501DD
:102F60006083F80120E080E094AD91110BC0D7019F
:102F700053969C91913009F4E6C2911103C08230BE
:102F800009F0E1C28F5F3896853071F72223C1F1D5
:102F900030E040E050E060E070E0CB010E94171CA0
:102FA000FE01E60FF71F81818F3F51F15801B8E014
:102FB0008B9FA00CB11C112491E0F50194AFEF5B45
:102FC000FF4F98E79083D501DF961C92F501E05CF6
:102FD000FF4F1082F50115AEF801EE58FF4F20812A
:102FE00030E040E050E03197608170E080E090E0B8
:102FF0000E94171CF501EE5BFF4F608331966083E2
:10300000D4018C91811135C0C80141960E94892359
:10301000F80192899F3F69F18F3F59F5953019F476
:103020008789823031F5A92EB12CF80128E0929FD2
:10303000E00DF11D112484AD81111BC0F801EA5887
:10304000FF4F208130E040E050E03197608170E038
:1030500080E090E00E94171CD4016C9387E08A9D69
:10306000F0018B9DF00D1124E00FF11F158E8CE304
:10307000838FF801E358FF4F8081882309F486C1CC
:10308000F7018489811182C1F801E558FF4F8081E1
:10309000882311F081508083D70117968C9180FD91
:1030A00075C1C5FE12C0D8015196EC91EE2369F0AE
:1030B000B4E0EB9FF0011124E75AF64FE491E150A0
:1030C000E73018F482E0F801878BC6FE06C0D8010D
:1030D00051968C91823708F43FC2F80191AC82A8D6
:1030E00073A464A0558C5801F1E1AF0EB11CC50169
:1030F0000E948923D80152969C91891301C08FEFB9
:10310000F801828B848981115EC097898189923010
:1031100019F0933019F014C081500FC021E0280F2E
:10312000B4E02B9FF0011124E75AF64FE491E73009
:1031300019F0F801218B04C08251D80151968C936B
:10314000D8015196EC91B4E0EB9FF0011124E75ABD
:10315000F64FE4918FEF8E0F873008F048C094301F
:1031600019F0D80158969C9384E0D80157968C9317
:10317000F0E03297E230F105D1F02CF4309749F0CD
:10318000319789F034C0E330F105A9F03497B9F0F4
:103190002EC0B2E05B122BC085E2F801848B84E67E
:1031A000858B168A24C0F2E06F16B1F320C022E0AE
:1031B000721691F31CC032E0831671F318C082E0DE
:1031C000981651F314C08150848B982F937019F482
:1031D00096899F5F968BF8019589923010F09150F7
:1031E000958B811104C087E0D80154968C93C5015A
:1031F0000E9489238F3F59F0F801E658FF4F9081D4
:10320000891729F0808381EC91E00E941921D8016F
:103210005196EC91B4E0EB9FF0011124E75AF64F80
:10322000E491E83009F05BC0F8018389882309F450
:1032300056C0F801EC59FF4F8081833708F0C5C1B3
:10324000D70150968D919C915197019651969C93E0
:103250008E93509753962C91211183C18370992797
:10326000892B31F4F801E359FF4F8081815080832D
:10327000F7018089918983709927892B31F4F801AE
:10328000E259FF4F808181508083D70150968D9104
:103290009C9151976FE070E00E948E32892B31F43F
:1032A000F801EF58FF4F808181508083F7018089BA
:1032B00091896EE170E00E948E32892B31F4F80121
:1032C000EE58FF4F808181508083F801138A81E09E
:1032D000E458FF4F808383EB91E00E941921D801CD
:1032E00051968C91811106C0F801E458FF4F8081FE
:1032F00081116EC15801B7E6AB0EB11CF50180819A
:103300008823D1F0815080839EE63397908381118A
:103310003DC0379610823197208130E040E050E088
:103320003197608170E080E090E00E94171CF80106
:10333000E459FF4F60832AC0F801E559FF4F8081AF
:10334000D801A459BF4F2C91821700F591E0980F36
:103350009083322F3695931710F4815903C08EE66F
:10336000820F891BF801EC59FF4F808329130EC08F
:103370003296208130E040E050E03197608170E08B
:1033800080E090E00E94171CD5016C93F7018781C3
:1033900090858F709927892B81F498012C593F4F84
:1033A000F801FC962E173F0741F081E093819130A0
:1033B00009F480E083833896F5CFB701C8010E94F5
:1033C0002223D80112968C91882331F0F801858947
:1033D000823008F454C04EC0D801F801FC96980120
:1033E0002C593F4F49E091E052E061E274E686815A
:1033F000882319F08A3059F010C087818683848130
:103400008F5F8483853061F41082118209C08481CA
:10341000843009F49183468303C0118281508683EE
:103420008181882331F05D965C935D975B966C9308
:103430005B975C968C915C97882329F081505C9611
:103440008C935C9703C05C967C935C975B968C91A5
:103450005B97882329F081505B968C935B9703C020
:103460005D969C935D97179638962E173F0709F047
:10347000BECFACCF8091B401882309F4B3C0D8018A
:1034800055969C91F801E358FF4F5F01913081F40C
:103490008081882389F01082D70152968C915297AF
:1034A000815052968C93811103C0D70154969C93FE
:1034B000F5018081811120C0D70154968C91811132
:1034C0001BC08D2D80958C218C7009F490C089EAE9
:1034D00091E00E94192181E0F5018083D801559681
:1034E0001C92559754961C92549751961C92519742
:1034F00084E057968C937BC0F701828580959185F7
:10350000892394899923B9F083FF71C083E884BD2E
:103510008FEF87BD81EF809380001092880010921A
:103520008A000E94E61E85E0D70156968C93569736
:1035300057961C925CC082FF5AC0F801928181E0CC
:103540008927828354C0A1E0B0E0AC0FBD1FA20F59
:10355000B11D8C932F5F16CD83E0D80157968C93C5
:10356000BCCD63E070E00E948E32892B31F4F8010B
:10357000E359FF4F808181508083D70150968D9110
:103580009C91519763E070E00E948E32892B31F458
:10359000F801E259FF4F808181508083F7018089D3
:1035A00091896CE070E00E948E32892B31F4F80131
:1035B000EF58FF4F808181508083D70150968D91C5
:1035C0009C91519768E170E076CE89EA91E085CED2
:1035D00081E0D80153968C9310828FE991E00E948C
:1035E000192188CE89E091E00E94192148CF0F90DF
:1035F0000F900F900F900F90DF91CF911F910F912F
:10360000FF90EF90DF90CF90BF90AF909F908F9002
:103610007F906F905F900895DF92EF92FF920F93EB
:103620001F93CF93DF93EC017B01FB01148AFC0114
:10363000E358FF4F108280EF90E08E019E012D5DD8
:103640003F4FDE014CE351E2FC01649159966C93CB
:1036500059973196E4915A96EC935A97FC01329619
:10366000E4915F96EC935F97FC013396E4915D964D
:10367000EC935D97E13059F030F0E23059F45B960D
:103680005C935B9707C05B964C935B9703C05B961C
:103690001C925B97FC013496E4915C96EC935C97EA
:1036A00005961796A217B30709F0CECF80EAD82E59
:1036B000FE01EB58FF4FD08288EC319680830E9448
:1036C0007A3128E230E040E050E00E941F32DC0115
:1036D000CB0180569F4FAF4FBF4FFE01E958FF4FC0
:1036E0008083F7014389BE0163597F4FDE01A259F0
:1036F000BF4F9E012F583F4FCE018E589F4F411113
:103700000CC048E7FB014083DC9244E1F9014083AF
:1037100028E2FC01208380E00AC04AE5FB014083E7
:1037200048E74C9340E1F901408320E2F2CFF801F1
:1037300086AF14AE8F5F085F1F4F8530C1F72C91A5
:1037400030E040E050E0FB01608170E080E090E01C
:103750000E94171CFE01E159FF4F60831D8A1C8ADD
:10376000198A84E08F8B81E08B8B3A9784E6808383
:1037700031969CE8908333969CE3908331968083C6
:1037800036978EE680830E947A318E0109591F4F49
:1037900028E230E040E050E00E941F32DC01CB0123
:1037A0008C599F4FAF4FBF4FF8018083749688EDBF
:1037B0008083CE010E94021E1A828EEA93E29093C9
:1037C000200780931F07DF91CF911F910F91FF90EA
:1037D000EF90DF900895CF92DF92EF92FF920F93D8
:1037E0001F93CF93DF936C017A018B01C0E0D0E08F
:1037F000CE15DF0581F0D8016D918D01D601ED91D7
:10380000FC910190F081E02DC6010995892B11F002
:103810002196EECF7E01C701DF91CF911F910F91CD
:10382000FF90EF90DF90CF9008950E94C9338F9260
:103830009F92AF92BF92CF92DF92EF92FF920F933F
:103840001F936217730784079507A4F489019A01EF
:103850006B017C0148015901861A970AA80AB90A26
:103860000E947A31A50194010E941F326C0D7D1DCA
:103870008E1D9F1D1F910F91FF90EF90DF90CF90B5
:10388000BF90AF909F908F9008958091BC01E09180
:10389000BA01F091BB01882349F0CF0102969093C1
:1038A000BB018093BA01859194910895CF0102964E
:1038B0009093BB018093BA0180819181089508950E
:1038C0000C9440330C9440330C9440330C944033AC
:1038D0000C944033AF92BF92CF92DF92EF920F934E
:1038E000CF93DF93EC016D81062E000C770B6F5D9B
:1038F0007F4FE12C00E02CE032E04AE152E080E032
:1039000090E00E94CF265E0186E0A80EB11C8EE0FA
:10391000C82ED12CF50161915F01062E000C770BAA
:103920006F5D7F4FE12C00E026EF31E040E052E098
:10393000C6010E94CF26FAE0CF0ED11C82E7C8163E
:10394000D10441F76889062E000C770B6F5D7F4F1D
:1039500028ED31E046EE51E082E790E00E94CF266C
:10396000DF91CF910F91EF90DF90CF90BF90AF900C
:1039700008952F923F924F925F926F927F928F9213
:103980009F92AF92BF92CF92DF92EF92FF920F93EE
:103990001F93CF93DF93CDB7DEB728970FB6F89478
:1039A000DEBF0FBECDBF5C01FC01858965018111C1
:1039B00004C0F6E1CF0ED11C03C028E2C20ED11C18
:1039C000FB0147805084C5010E94A422C5010E94CA
:1039D0006A1CE12C00E020EF35E048E557E062E1A9
:1039E00070E08DE190E00E94CF2624EE33E049EEB6
:1039F00054E063E070E086E190E00E94CF2676011B
:103A000008E110E03E01F7E06F0E711C9E012F5F90
:103A10003F4F1901C701029698878F8354E2852E84
:103A2000912CEF81F8852191F887EF832F3311F0E6
:103A3000205401C020E04EE453E0B801C4010E94CC
:103A4000BF26F6E08F0E911C26E38216910449F7FB
:103A500078866F8241E4842E912CF10126E0119248
:103A60002A95E9F7F70180819181F1016AE070E020
:103A70000E948E328193CB016E167F06B9F7EF81DB
:103A8000F8852291F887EF83255E4EE453E0B80174
:103A9000C4010E94BF26F5E08F0E911C2FE582160F
:103AA0009104D9F6075F1F4F36E0E30EF11C033394
:103AB000110509F0AFCFF50101890F3F09F468C086
:103AC000C20168E370E00E948E328D3108F460C05C
:103AD000C601F6E00F9F800D911D11249C012E5F01
:103AE0003F4F290139E0039F80011124480187E1FC
:103AF000880E911CF5016288F6E06F9E300111245A
:103B0000630123E2C20ED11C39E2630E711C015E17
:103B10001F4F6C147D04D9F0740197FE02C0E12C94
:103B2000F12CC8010134110514F080E490E0E8168E
:103B3000F9064CF441E0B701C6010E9441278FEF1E
:103B4000E81AF80AEECF9FEFC91AD90AE2CFF501B9
:103B50008289F201E80FF11D20812F3311F02054EA
:103B600001C020E0F5016189F9E06F9FB0011124E7
:103B7000685E7F4F36E0839FC00111243BEFC32E68
:103B8000E12C00E010E04EE453E084960E948C2487
:103B9000F50181898F3F79F4848981110CC0E12C72
:103BA00000E028EC32E04AE053E065E370E080E3B7
:103BB00090E00E94CF26E12CF50105892AE232E04F
:103BC0004EE552E06BE170E082E090E00E94CF268B
:103BD00028960FB6F894DEBF0FBECDBFDF91CF9110
:103BE0001F910F91FF90EF90DF90CF90BF90AF901B
:103BF0009F908F907F906F905F904F903F902F900D
:103C00000C947A22FC018CE090E09F3F3CF09230D3
:103C100024F0923019F4158201C095839F5F933090
:103C200009F49FEF815031968111EFCF08952F92C3
:103C30003F924F925F926F927F928F929F92AF923C
:103C4000BF92CF92DF92EF92FF920F931F93CF9389
:103C5000DF9300D000D000D0CDB7DEB78C012B01B0
:103C6000FC01128A138A84E6848BFB018389F801A4
:103C7000858BFB01608871886114710409F44DC063
:103C8000882321F02FEBA22EB12C03C09DEAA92E90
:103C9000B12C6501312CC6010E94E9316816790604
:103CA00040F43394F6E0CF0ED11C83E03812F3CF0A
:103CB00034C045019CE0890E911C82E0282EFE0153
:103CC00031967F013214B0F42A94B501F6E02F9EAC
:103CD000600D711D112446E050E0C7010E94D131F2
:103CE00046E050E0B401C7010E94EF3186E0881A37
:103CF0009108E8CF86E0F70111928A95E9F78FE302
:103D00008B838C838D837A82698246E050E0B60192
:103D1000C7010E94EF31832D01C08FEFF801818B25
:103D2000F2011286118642E150E06DEA70E0C801AE
:103D300046960E94D13142E150E06FEB70E0C8013D
:103D400088960E94D131C8010E94021E26960FB6A5
:103D5000F894DEBF0FBECDBFDF91CF911F910F91C1
:103D6000FF90EF90DF90CF90BF90AF909F908F909B
:103D70007F906F905F904F903F902F900895FC013F
:103D800094818181913031F018F0923051F0089592
:103D90008450089591E02381223308F090E0891B3C
:103DA0000895E2814E2F50E04232510570F4FA013D
:103DB000EA5AFF4F0C94A232865F0895885F0895F7
:103DC0008A5F08958C5F08958E5F0895E1E7F0E0C3
:103DD00080818D7F80831092910046984798109241
:103DE000B4010895AF92BF92CF92DF92FF920F93EA
:103DF0001F93CF93DF93EC016B01DB011996FC90CD
:103E00008D89FE01811102C0769601C0B89629897C
:103E1000D6012F3F09F480C017968D919C91189779
:103E20006CE070E00E948E325C01892B09F093C037
:103E3000B6E02B9FE00DF11D11243296F7FE19C05C
:103E40008A89DF01A80FB11D8C918F5F8C938A89BD
:103E5000DF01A80FB11D8C918B3514F081E48C9398
:103E60008A89DF01A80FB11D8C91803411F481E49F
:103E70008C93F4FE10C08A89DF01A80FB11D8C91CC
:103E800081508C938A89DF01A80FB11D8C918134F8
:103E900014F48AE58C93F5FE05C08A89882311F015
:103EA00081508A8BF6FE05C08A89823010F48F5FBC
:103EB0008A8BF3FE50C080818F3309F44CC081811E
:103EC0008F3309F448C082818F3309F444C08F01D5
:103ED000F80161918F0129898D89882319F08FEB71
:103EE00090E002C08DEA90E0F6E02F9F800D911DDA
:103EF000112495012E5F3F4F820F931F0E94FF31C7
:103F00003FEFA31AB30A43E0A416B10409F78FEFF9
:103F1000898B84E68C8B1FC01A968C9180958F219B
:103F20008C7099F08C89811110C083E884BD27BD05
:103F300081EF809380001092880010928A000E9486
:103F4000E61E82E0F601868B178AF5FC1D8AF6FED6
:103F500002C081E08D8B8F2D80769B898036E9F5BC
:103F600081E0890F8B8B853108F445C08D3310F1CA
:103F70008D3309F040C01B8A83E884BD8FEF87BD75
:103F800081EF809380001092880010928A000E9436
:103F90005C2742E150E06DEA70E0CE0146960E9457
:103FA000D13142E150E06FEB70E0CE0188960E9483
:103FB000D13121C020E430E0A901481B5109CA01D8
:103FC000880F93E894BD9FEF97BD91EF9093800089
:103FD0001092880080938A000EC0992361F083E8D4
:103FE00084BD8FEF87BD81EF8093800010928800A1
:103FF00010928A001B8A8C89882311F081508C8B47
:10400000B601CE01DF91CF911F910F91FF90DF900C
:10401000CF90BF90AF900C942223CF92DF92EF927B
:10402000FF920F931F93CF93DF930E94451C81153E
:1040300020E8920751F4DF91CF911F910F91FF90EB
:10404000EF90DF90CF900C94E61E21E02093B40116
:10405000813020E8920751F48091B8019091B90124
:104060009093BB018093BA010E94451C97FD05C047
:104070002091B701222309F440C02091B6012111FB
:104080003CC021E02093BD01EC01DF77209769F46B
:1040900081E08093BE0146983FE9C32E3FE0D32ED6
:1040A000E12CF12CCAEFD0E014C08E0120E030E00A
:1040B00060E472E48FE090E0A90198010E941F3251
:1040C00069017A0181E0C81AD108E108F10810926B
:1040D000BE01E0911F07F09120070995811103C0EF
:1040E00081E08093BE018091BD01882309F43FC027
:1040F0008091BE0181113BC003C01092BD01C4CFAD
:10410000469935C0479A0E94451C009771F09C0162
:10411000DE010E947332DC01CB0129E0B595A79541
:10412000979587952A95D1F703C08FEF9FEFDC0114
:10413000109290002AE020939100D0929900C092B2
:1041400098008093BF019093C001A093C101B093E8
:10415000C20180917100826080937100DF91CF91E4
:104160001F910F91FF90EF90DF90CF9008954798A7
:10417000CACF1F920F920FB60F9211242F933F9325
:104180004F935F936F937F938F939F93AF93BF935F
:10419000EF93FF938091BF019091C001A091C10165
:1041A000B091C201892B8A2B8B2B81F18091BE01AA
:1041B00081110BC098B180E4892788B98091BD0135
:1041C000882319F088B1805888B98091BF019091F7
:1041D000C001A091C101B091C201181619061A06BA
:1041E0001B06B4F48091BF019091C001A091C10160
:1041F000B091C2010197A109B1098093BF019093C9
:10420000C001A093C101B093C20102C00E940D2061
:10421000FF91EF91BF91AF919F918F917F916F919E
:104220005F914F913F912F910F900FBE0F901F9074
:1042300018959C01E1E7F0E090819D7F908381E0FB
:104240008093BC013093BB012093BA013093B90134
:104250002093B8010C940D200895089508950895B1
:1042600008950C94403308952091C601211103C094
:104270008FEF9FEF08955FB7F89422E02093E90055
:104280002091F20030E01216130614F421E030E021
:10429000422FFC0184E6415038F028988093C501F4
:1042A0009091F1009193F7CF2115310521F0809184
:1042B000F200882319F05FBFC90108958BE680934F
:1042C000E800F9CF2FB7F89483E08093E90090914C
:1042D000E800892F807295FF04C09091F20080E47D
:1042E000891B2FBF0895CF93DF931F92CDB7DEB701
:1042F0006983DC01ED91FC910280F381E02D41E0C6
:1043000050E0BE016F5F7F4F09950F90DF91CF9115
:10431000089583E08093E9008091F200882319F0EA
:104320008AE38093E80008950E94622190E0089556
:10433000CF93DF931F92CDB7DEB7FC0184859585BF
:1043400097FD05C02FEF3FEF358724870BC0CE01C7
:1043500001960E943421019719F4898190E002C0EE
:104360008FEF9FEF0F90DF91CF9108950F931F93E1
:10437000CF93DF931F92CDB7DEB78C01FC0184850C
:10438000958597FF0EC0CE0101960E9434210197BA
:1043900019F4898190E002C08FEF9FEFF8019587B3
:1043A0008487F801848595850F90DF91CF911F91C7
:1043B0000F910895FC018485958597FD0BC09FB7EB
:1043C000F89482E08093E9008091F2009FBF90E032
:1043D000019608959FB7F89482E08093E900809158
:1043E000F2009FBF90E008958F929F92AF92BF928C
:1043F000CF92DF92EF92FF920F931F93CF93DF93B1
:104400006C017B018A0180910701882309F45CC05B
:104410008091C601882309F457C08091C40180FFB0
:1044200005C08091E00082608093E000E801B12C3B
:104430008AEFA82E93E0892E2AE3922E209711F47A
:10444000BB20D9F10E94622181110AC0AA94AA203E
:10445000D9F161E070E080E090E00E94FE2AEECFAA
:10446000282F30E0C217D3070CF48C2F9FB7F89495
:104470008092E9002091E80025FF1DC0282F30E040
:10448000C21BD30BF701815020F041914093F10002
:10449000FACFE20EF31EBB2019F09092E8000AC09A
:1044A0008091E80085FD07C09092E800BB24B3949A
:1044B000209709F0B12C9FBFC1CF5D9884E680930F
:1044C000C3011016110644F081E090E0F6019383D9
:1044D000828380E090E001C0C801DF91CF911F91FD
:1044E0000F91FF90EF90DF90CF90BF90AF909F9093
:1044F0008F9008958091C7018EBD8FEF8093C70183
:10450000E7ECF1E082E090E05FEF63E09C01215096
:1045100031094181211572E0370728F020383240F7
:1045200020F4618303C0518301C011820DB407FEE2
:10453000FDCF4EBD31960196813024E0920731F7D0
:104540000DB407FEFDCF0895CF92DF92EF920F9347
:10455000CF93DF93EC016B01FB01878190858F7313
:104560009927892B39F48C818F5F803410F48C83E8
:1045700001C01C828C8190E020E04AE35EE060E0B4
:1045800070E0805491090E94BF268C8120E04AE3AC
:104590005EE060E070E090E00E94BF26E12C00E069
:1045A0002EE93DE04BEE5DE06FE070E080E090E0F2
:1045B0000E94CF2622E03DE04FE45DE06FE070E036
:1045C00085E790E00E94CF260B8128EE3CE040EF8B
:1045D0005CE060E370E08CE090E00E94CF260B810D
:1045E00028EE3CE040EF5CE060E370E080E790E0C4
:1045F0000E94CF260B8128EE3CE040EF5CE066E3B2
:1046000070E080E490E00E94CF2600E02EE33BE0E3
:1046100042E15CE060E370E08BE090E00E94CF2636
:10462000F601878190858F719927892B21F49B81D1
:1046300081E089278B83DF91CF910F91EF90DF90FD
:10464000CF900895FB01278130852F703327232BCE
:1046500069F4FC0125813596AC01405F5F4F3181E3
:104660003193E417F507D9F7FC01208B0895DC019D
:10467000EC9184E0E89FF0011124EA5AF64F24916E
:1046800013969C911397911102C0822F089584E094
:10469000989FF0011124EE53F74FE49117968C91F7
:1046A000823009F4E1958E2F820F0895DC01139674
:1046B000EC91139717962C911797E1111FC0EC916D
:1046C00084E0E89FF0011124E85AF64FE491169631
:1046D0008C911697823021F48E2F8D7F843011F0CB
:1046E00090E001C094E0223019F4E11101C092E0A1
:1046F00012968C91E80F8E2F890F089584E0E89F21
:10470000F0011124EC53F74F8491223009F48E5FAD
:104710000895DC01EC91B4E0EB9FF0011124E75A1D
:10472000F64F84919FEF980F973010F482500895C0
:104730008FEF08958091B90681110DC082E08093BA
:10474000B50684E08093B6061092B8061092B706BC
:1047500081E08093B90685EB96E008958091B501DC
:1047600008950895089580E090E00895FC01838104
:10477000823019F0833041F0089580818D3010F03F
:10478000815006C083E007C08081883618F48F5FAF
:104790008083089582E083830895FF920F931F938F
:1047A000CF93DF93EC01FB018185F284F094F82232
:1047B00084FF14C08989803118F48F5F898B0FC002
:1047C000F89487E78093000880930108A89588E112
:1047D0008093600088E080936000FFCF198A8B018E
:1047E0008F2D8C70C1F0F3FA882780F991E089272A
:1047F000FB01838B83E884BD8FEF87BD81EF8093BE
:1048000080001092880010928A000E94E61E84E0C8
:10481000F801868B178AF7FC03C08F2D807789F00B
:1048200083E884BD8FEF87BD81EF80938000109275
:10483000880010928A000E94E61E85E0F801868BAF
:10484000178AB801CE010E942223F8018781908542
:1048500066E070E00E948E32892B11F5CE014396FE
:104860000E94B623F801878190856CE070E00E9479
:104870008E32892B21F49D8981E089278D8BCE0191
:1048800047960E94B623F801878190856CE070E01E
:104890000E948E32892B21F4998D81E08927898F9E
:1048A0008A89883C10F48F5F8A8BDF91CF911F91AA
:1048B0000F91FF900895FC01DB0180E1838B89E279
:1048C000848B83E0868B98E6978B90E3908F92E0C1
:1048D000928F52968C93529751961C921E9250979B
:1048E00054961C928EEA93E29093200780931F07C0
:1048F000CF010E94021E0E947A3122E030E040E0A7
:1049000050E00E941F32FB01EE0FFF1FEC56FF4EDE
:10491000859194910C9419214F925F927F928F927E
:104920009F92AF92BF92CF92DF92EF92FF920F933E
:104930001F93CF93DF9300D000D0CDB7DEB7DC015B
:1049400048014115510509F406C2FA01F490319667
:1049500084914E5F5F4FAF2CB12C211102C0EE202D
:1049600061F101E010E0982F977011F400E010E081
:10497000982F969596959695090F111D0A9DF00111
:104980000B9DF00D1A9DF00D112413E0712EC71030
:1049900003C0EE0FFF1F0AC08114910439F0EE9E90
:1049A0008001EF9E100D1124800E911E2E9F80011C
:1049B0002F9F100D1124400F511F1FEFC11208C06F
:1049C0008114910419F0CC24C39402C022E0C22EB9
:1049D000FD01EA0DFB1D1E161F060CF0BCC1A03820
:1049E000B1050CF0B8C19B01280F311D121613063A
:1049F0000CF0B1C1603471050CF0ADC14115510529
:104A000009F4A9C1362F37708B0177FF02C0095F07
:104A10001F4F93E0159507959A95E1F7202F77FFA3
:104A200004C0332311F02FEF200FB7FF05C000277C
:104A300011270A1B1B0B02C000E010E0E038F10553
:104A40001CF090E89A1B01C09F2D901B622F022E34
:104A5000000C770B2F3F1CF4E62EE09401C0E12CF4
:104A6000F1E0E82FE77009F4F0E0869586958695E9
:104A7000F80F6F0F711D6930710514F0F8E0F21B2B
:104A8000FE192E0D60E82603A00DB11D1124A00F04
:104A9000B11FFE9C000D111D1124400F511F61E03C
:104AA00070E07B01032E02C0EE0CFF1C0A94E2F7BB
:104AB00073E0C71609F407C17C15C8F081E0C81679
:104AC00009F4B9C0E2E0CE1246C18FEF8E9D80019D
:104AD0008F9D100D1124009510951C830B839C80D5
:104AE000BD0169537E4F2B018F2E820E2DC06AEFC0
:104AF000762EC71409F43BC01BEFC1122CC1BD01B7
:104B000069537E4F4B01DF2ED20E83C084918E9D60
:104B100060018F9DD00C1124DA82C98227FD05C067
:104B2000DB018C918023C82ACC92311113C03196BD
:104B30006F5F7F4F8E2F841B891740F32F5F4A0DC5
:104B40005B1DB0E84B0E511C281509F404C1B201DD
:104B5000FA01F0CF27305CF76B01B0E8CB0ED11C27
:104B6000D6018C9189217A8087298C93E0CFBD0171
:104B700069537E4F4B01DF2ED20E2D1509F4EBC089
:104B8000B401FA018E2F841B8917F0F484918E9D55
:104B900080018F9D100D11241A83098327FD04C005
:104BA000DB018C91082B0C93332351F0273044F414
:104BB0008B0100581F4FD801CC908A818C298C938F
:104BC00031966F5F7F4FDECF2F5F4A0D5B1DB0E8E0
:104BD0008B0E911CD2CF84918E9DB0018F9D700D54
:104BE00011247A83698327FD05C06095D8018C91D3
:104BF00068236C93311113C031960F5F1F4F8E2FB6
:104C0000841B891740F32F5F4A0D5B1DB0E88B0EA4
:104C1000911C2D1509F49FC08401FA01F0CF2730B3
:104C20005CF7B80160587F4F8A818095DB01CC909A
:104C30008C218C93E1CF080D191DA953BE4F7F2EF7
:104C4000720E271509F487C0BD01C12CD12CC916DD
:104C500090F5F801EC0DFD1DE491EE9D4001EF9DF6
:104C6000900C1124809490949C828B82FA01EC0D1C
:104C7000FD1DE491EE9D2001EF9D500C11245A8200
:104C8000498227FD05C0FB01808188224828408297
:104C9000332359F027304CF4FB01E058FF4F90804C
:104CA0008C8189219A8089298083FFEFCF1ADF0ABE
:104CB0006F5F7F4FCCCF2F5F4A0D5B1D0A0D1B1D11
:104CC000A058BF4FBECFC92ED12C2801440E551E6F
:104CD000A953BE4F60E870E04B018C189D08AC18DA
:104CE000BD08AA0CBB1CC92E022F192F2F2FF201B1
:104CF000A401B501732ECF93DF93ED01EF96EF96EC
:104D000022968590A590772059F08E9C4001AE9C0C
:104D1000500107302CF4D880B094DB20D928D992E8
:104D200000233AF0DC90A094DA20D828DD920C948D
:104D30009A2611961A9529F72A9551F01C2D03955C
:104D40001124E60FF11DA40FB11DC40FD11DD9CF41
:104D5000DF91CF9111240F900F900F900F90DF9162
:104D6000CF911F910F91FF90EF90DF90CF90BF9068
:104D7000AF909F908F907F905F904F900895CF92CB
:104D8000EF920F931F9332E0C32EE12C00E010E06E
:104D90000E948C241F910F91EF90CF900895CF9295
:104DA000EF920F931F93F901202FCC24C3948F010E
:104DB0000E948C241F910F91EF90CF900895EF9255
:104DC0000F93CF93DF93EC010E94A422CE010E94A7
:104DD0006A1CE12C00E020ED31E140E053E169E0A4
:104DE00070E08AE190E00E94CF268E89823011F037
:104DF00082E001C080E00D8991E00927080F6C89ED
:104E000070E08B89E02E2EE731E146EA51E190E037
:104E10000E94CF268A8D823011F082E001C080E0AE
:104E2000098D91E00927080F688D70E08F89E02EC9
:104E30002EE731E146EA51E190E00E94CF268A89CF
:104E4000883C61F4E12C00E028E930E14AE051E1DE
:104E50006AE270E083E290E00E94CF26DF91CF917A
:104E60000F91EF900C947A22BC0180E090E00C94BA
:104E7000FE2A8FB18095807F669B88601C9B846032
:104E8000089580389105B8F460347105A0F490E17C
:104E900021E061FD24E060FD220F62FD2295687F24
:104EA000969FD0011124A80FA953BE4F8C91822B3D
:104EB00040FF82278C930895EF92FF921F93CF9328
:104EC000DF9300D000D000D0CDB7DEB764E58BEA29
:104ED00090E00E94FF3162E48CEA90E00E94FF3192
:104EE0008DEAE82EF12C11E41A8219821B831C83AF
:104EF0001D831E8246E050E0B701CE0101960E945C
:104F0000EF311F5F86E0E80EF11C81EDE816F10439
:104F100059F726960FB6F894DEBF0FBECDBFDF91CE
:104F2000CF911F91FF90EF90089540912D075091E0
:104F30002E0720912B0730912C0742175307B4F40A
:104F40009091E8009570E1F39091E80092FD19C00E
:104F50008093F10080912D0790912E0701968F7319
:104F60009927892B19F48EEF8093E80080912D0703
:104F700090912E07019690932E0780932D0781E044
:104F8000089580E00895DF92EF92FF920F931F93B0
:104F9000CF93DF93D82E8A017B01E40EF51EEB013F
:104FA000CE15DF0571F0D7FE03C0FE01849101C06C
:104FB00088810E94952721968111F2CF8FEF9FEF74
:104FC00001C0C801DF91CF911F910F91FF90EF9029
:104FD000DF900895615030F02091F100FC012083B2
:104FE0000196F8CF289884E68093C50108950F9321
:104FF0001F93CF93DF931F92CDB7DEB782E08983F3
:1050000042E450E062E374E180E80E94C3270E941A
:105010009A23DC0112960D911C911397011511052D
:1050200089F0D801ED91FC910280F381E02DBE0161
:105030006F5F7F4FC801099597FD04C0F801008597
:105040001185ECCF89810F90DF91CF911F910F9146
:1050500008951F920F920FB60F9211248F939F9372
:105060008091E1009091E100937F9093E10083FFB4
:105070000FC01092E90091E09093EB001092EC00C9
:1050800092E39093ED001092C60198E09093F000A7
:1050900082FF20C093E09093E9009091F200992361
:1050A00019F09AE39093E8009091C301992339F0A5
:1050B0009091C30191509093C301992389F19091EC
:1050C000C501992339F09091C50191509093C50184
:1050D000992341F184FF10C08091E2008E7E8160AF
:1050E0008093E2008091E1008F7E8093E1008091C7
:1050F000C4018E7E806111C080FF16C08091E200E5
:105100008E7E80618093E2008091E1008E7E8093AC
:10511000E1008091C4018E7E81608093C40104C04F
:105120005D9ACDCF289AD6CF9F918F910F900FBEC9
:105130000F901F9018951F920F920FB60F92112487
:10514000CF92DF92EF92FF920F931F932F933F9393
:105150004F935F936F937F938F939F93AF93BF937F
:10516000EF93FF93CF93DF93CDB7DEB76C97DEBF9E
:10517000CDBF1092E9008091E80083FFFBC168E099
:10518000CE0145960E94EA2782EF8093E8008D8940
:1051900087FF05C09091E80090FFFCCF03C09EEF11
:1051A0009093E800982F907609F0C6C09E894F89A9
:1051B000588D2F89F88C91110CC0803829F480917A
:1051C00025078093F10002C01092F1001092F100C7
:1051D00045C1913051F4811141C14130510509F06F
:1051E0003DC1809125078D7F0BC0933061F4811103
:1051F00035C14130510509F031C1809125078260E8
:10520000809325072BC1953049F48091E80080FFF9
:10521000FCCF822F80688093E30020C1963009F094
:105220005EC00B8D1C8D22E01092E90010922E07BB
:1052300010922D07F21232C010922C0710922B07F9
:105240000E94F72799E0BE016F5F7F4FDB01E92FD6
:105250001D92EA95E9F79983FA8291E09E8390EA9C
:1052600098879AEF998720912D0730912E07275F15
:105270003F4F3C832B838D831092E90010922E07C1
:1052800010922D0710932C0700932B0749E050E054
:1052900080E00E94C3270E94F727E0C010932C07EC
:1052A00000932B070E949A23DC0112960D911C910A
:1052B00013970115110509F4BBC0D801ED91FC91BC
:1052C0000480F581E02DBE016B5E7F4FC80109951A
:1052D000009709F0C7C0F80100851185EACF973023
:1052E00009F445C1983021F481E08093F100B6C003
:1052F000993009F0B3C0837009F039C1EFE8F1E0EB
:1053000081E031E096E32081211109C08EE780938E
:10531000EA001092EA008F898093C6019FC08093B3
:10532000E9003093EB0021912093EC009093ED0085
:105330008F5F873041F7EACF8B8D9C8D1092E9000B
:1053400010922E0710922D0790932C0780932B0715
:10535000898D811153C08E899D89913A49F481329A
:1053600009F005C147E050E060E071E080E0BBC0BB
:10537000913209F0FCC0833269F48F89988DA0E0E6
:10538000B0E08093080190930901A0930A01B093C3
:105390000B0164C0803269F48091E80082FFFCCF89
:1053A00067E080E091E00E94EA278BEF8093E800BD
:1053B00055C0823209F052C08F8980930701EEEF09
:1053C000FFE7859194918B3F9C4D19F0E0E0F8E068
:1053D00002C0EEEFFAE08091000190910101A091EE
:1053E0000201B0910301803B9440A105B10509F091
:1053F0009EC08091070180FF79C099C00E949A23C6
:10540000FC01028113810115110509F4B0C0D80116
:10541000ED91FC910190F081E02DBE016B5E7F4F1C
:10542000C801099581111AC0F80100851185EBCFDB
:10543000F1E0FF1609F44EC0F3E0FF1298C08F8927
:10544000882309F44AC0823089F440E867E086E99D
:1054500094E10E94FA30882309F489C08EEF80938A
:10546000E80088C018161906CCF381C0813029F4F1
:1054700040E86BE08AE894E1ECCF833009F077C034
:105480000E949A23DC011296ED90FC9013978E01F6
:105490000F5F1F4F6801E114F10479F0D701ED911E
:1054A000FC910680F781E02DB801C7010995080F2E
:1054B000111DF701E084F184EECFD8011C92F601B2
:1054C00001900020E9F73197BF016C197D0940E098
:1054D000C601BFCF68E774E102C064E774E1FB0175
:1054E000449150E080E80E94C327B8CFEE3F2AE005
:1054F000F20751F0808191818737A7E79A0721F061
:105500009093FF0A8093FE0A87E797E79183808351
:105510008091600080932F079BE088E10FB6F8949C
:10552000A895809360000FBE9093600097CF808114
:1055300091818737974709F091CFA89580916000B6
:1055400088618093600080912F0780936000EE3F18
:10555000BAE0FB0739F08091FE0A9091FF0A91832F
:1055600080837CCF1092FF0A1092FE0A77CF81E2EF
:105570008093EB006C960FB6F894DEBF0FBECDBFE4
:10558000DF91CF91FF91EF91BF91AF919F918F915B
:105590007F916F915F914F913F912F911F910F914B
:1055A000FF90EF90DF90CF900F900FBE0F901F9065
:1055B00018953FB7F8948091270790912807A091FC
:1055C0002907B0912A0726B5A89B05C02F3F19F0DF
:1055D0000196A11DB11D3FBFBA2FA92F982F882773
:1055E000820F911DA11DB11DBC01CD0142E0660FCE
:1055F000771F881F991F4A95D1F708958F929F9220
:10560000AF92BF92CF92DF92EF92FF926B017C013B
:105610000E94D92A4B015C01C114D104E104F104B8
:10562000F1F00E94D92ADC01CB0188199909AA0955
:10563000BB09883E9340A105B10570F321E0C21A71
:10564000D108E108F10888EE880E83E0981EA11CBD
:10565000B11CC114D104E104F10419F7DDCFFF90AE
:10566000EF90DF90CF90BF90AF909F908F90089574
:105670001F920F920FB60F9211242F933F938F9387
:105680009F93AF93BF938091210790912207A091A0
:105690002307B09124073091260723E0230F2D37ED
:1056A00020F40196A11DB11D05C026E8230F029626
:1056B000A11DB11D209326078093210790932207F7
:1056C000A0932307B0932407809127079091280780
:1056D000A0912907B0912A070196A11DB11D8093C1
:1056E000270790932807A0932907B0932A07BF9113
:1056F000AF919F918F913F912F910F900FBE0F907F
:105700001F90189508950F931F93CF93DF93EC018B
:1057100020E043E55EE261E170E08FE290E00E940C
:10572000BF2620E045E35EE26AE170E08BE290E0B4
:105730000E94BF2620E045E35EE26AE170E089E472
:1057400090E00E94BF268A8120E0811112C045E3CB
:105750005EE26AE170E08AE390E00E94BF2620E00A
:1057600045EE5DE26EE270E08AE190E00E94BF26C5
:1057700025C047EC5DE26AE170E08AE390E00E94B8
:10578000BF2620E044EA5DE26EE270E08CE290E049
:105790000E94BF268A816FE00E948232082F037028
:1057A000CFE4D0E010E0101749F041E061E370E091
:1057B000CE010E9441271F5F2296F5CFE7ECF1E072
:1057C00081E0A0E0B8E000800EBC8111012C1197AF
:1057D000A0FDFDCF0192B9F70DB4DF91CF911F91DC
:1057E0000F910895CF93DF93FC01DB011A968C9102
:1057F0001A97809519969C91892351F0828188236C
:1058000011F08CE782839281911105C081E082833F
:1058100092819923A9F09F5F92839D3789F4EB01D0
:1058200083E884BD8FEF87BD81EF80938000109265
:10583000880010928A000E94E61E82E08E8B1F8AEA
:10584000DF91CF9108954F925F926F927F928F92E6
:105850009F92AF92BF92CF92DF92EF92FF920F93FF
:105860001F93CF93DF9300D000D0CDB7DEB75C019C
:105870004B010E94A42265012CE3C20ED11C10E052
:10588000360145E0F42ED6018C91882351F1133076
:1058900010F080E001C082E0F6012381E82EE20EE4
:1058A000133010F000E001C002E0D60114968C9194
:1058B000149790E0020FFC01EB56FE4F608170E000
:1058C00012962C91F29E800D911D1124FC01E6563A
:1058D000FE4F808122E53DE24AE75DE290E00E94D2
:1058E000CF261F5FB8E0CB0ED11C153061F66501E5
:1058F000E9E1CE0ED11CC614D70409F440C0D6018C
:1059000015962C91159714968C91149716969C9138
:1059100016971C91211115C0933009F423E0E82E4D
:10592000E20E933011F000E001C003E0080FC60161
:105930000E94BF1E682F70E024E13AE242EB5BE276
:1059400016C0933011F020E001C023E0E82EE20EF3
:10595000933011F000E001C003E0080FC6010E947F
:10596000BF1E682F70E02AEF36E246E858E2812F2A
:1059700090E00E94CF26B7E0CB0ED11CBCCFF50142
:10598000E458FF4F8081882361F0E12C00E024ED92
:1059900036E246EE56E268E070E081E090E00E9478
:1059A000CF26E12C00E028EC34E14AEF54E161E03D
:1059B00070E084E390E00E94CF2619821A821B8255
:1059C0001C82F40180899189FE0131962E0125E027
:1059D000420E511C2AE030E0B9010E948E328193C0
:1059E000CB01E415F505C1F737E3632E712C2AEFDF
:1059F000C22EE12C00E010E0D2012E912D014EE9E3
:105A000054E164E070E0C3010E948C24B5E06B0EA9
:105A1000711CEBE46E16710451F7F501EC59FF4F60
:105A2000808190E022E936E242EB56E26BE070E0E2
:105A300003960E94CF266501F1E1CF0ED11CC6016D
:105A40000E948923182F8F3F19F0682E712C02C0F5
:105A5000612C712CC6010E945623E82EC6010E94BB
:105A60005623082F1F3F61F087E0869DF001879D38
:105A7000F00D1124EA0DFB1D91E0848D823308F0B6
:105A800090E0D50154968C9154975196EC918111E8
:105A90000CC0B4E0EB9FB0011124FB01E95AF64FB2
:105AA0006491691B12E0160F15C024E0E29FF0011B
:105AB0001124E95AF64F9491A4E08A9FF001112431
:105AC000ED53F74F8491D5015696EC91EE5FE90FB7
:105AD0001E2F180FC6010E943723612F110F770B5D
